:020000040800F2
:1000000000000320F90F00083D3300083F330008CB
:100010004133000843330008453300080000000066
:10002000000000000000000000000000F18D00084A
:100030004733000800000000818E0008FD8600089C
:10004000491000084910000849100008491000082C
:10005000491000084910000849100008491000081C
:10006000491000084910000849100008491000080C
:1000700049100008491000084910000849100008FC
:1000800049100008491000084910000849100008EC
:1000900049100008491000084910000849100008DC
:1000A00049100008491000084910000849100008CC
:1000B00049100008491000084910000849100008BC
:1000C00049100008491000084910000849100008AC
:1000D000491000084910000849100008491000089C
:1000E000491000084910000849100008491000088C
:1000F000491000084910000849100008491000087C
:10010000491000084910000849100008491000086B
:100110004910000849100008493300084910000838
:10012000491000084910000849100008491000084B
:10013000491000084910000849100008491000083B
:10014000491000084910000849100008491000082B
:10015000491000084910000849100008491000081B
:10016000491000084910000849100008491000080B
:10017000491000084910000849100008000000005C
:1001800049100008491000084910000849100008EB
:1001900049100008491000084910000849100008DB
:0C01A000553300084910000861330008C6
:1001B00010B5054C237833B9044B13B10448AFF3A1
:1001C00000800123237010BD800300200000000088
:1001D000F87E020808B5034B1BB103490348AFF38F
:1001E000008008BD0000000084030020F87E0208A3
:1001F00001F0FF01102A2BDB10F0070F08D010F8D8
:10020000013B013A8B422DD010F0070F42B3F6D1DB
:10021000F0B441EA012141EA014122F007047FF0F4
:1002200000070023F0E80256083C85EA010586EA4B
:10023000010685FA47F5A3FA87F586FA47F6A5FA87
:1002400087F68EB9EED1F0BC01F0FF0102F0070293
:1002500032B110F8013B013A83EA010313B1F8D13E
:100260000020704701387047002D06BF354603381F
:10027000073815F0010F07D1013015F4807F02BF58
:10028000013015F4C03F0130F0BC0138704700BFA9
:1002900081F0004102E000BF83F0004330B54FEA37
:1002A00041044FEA430594EA050F08BF90EA020FA4
:1002B0001FBF54EA000C55EA020C7FEA645C7FEA37
:1002C000655C00F0E2804FEA5454D4EB5555B8BF5A
:1002D0006D420CDD2C4480EA020281EA030382EACB
:1002E000000083EA010180EA020281EA0303362D5D
:1002F00088BF30BD11F0004F4FEA01314FF4801C30
:100300004CEA113102D0404261EB410113F0004F41
:100310004FEA03334CEA133302D0524263EB4303F8
:1003200094EA050F00F0A780A4F10104D5F1200E96
:100330000DDB02FA0EFC22FA05F2801841F10001F1
:1003400003FA0EF2801843FA05F359410EE0A5F1C5
:1003500020050EF1200E012A03FA0EFC28BF4CF0F6
:10036000020C43FA05F3C01851EBE37101F00045AC
:1003700007D54FF0000EDCF1000C7EEB00006EEBB9
:100380000101B1F5801F1BD3B1F5001F0CD3490843
:100390005FEA30004FEA3C0C04F101044FEA44529A
:1003A00012F5800F80F09A80BCF1004F08BF5FEA21
:1003B000500C50F1000041EB045141EA050130BD01
:1003C0005FEA4C0C404141EB0101013C28BFB1F513
:1003D000801FE9D291F0000F04BF01460020B1FA5E
:1003E00081F308BF2033A3F10B03B3F120020CDA31
:1003F0000C3208DD02F1140CC2F10C0201FA0CF00F
:1004000021FA02F10CE002F11402D8BFC2F1200C73
:1004100001FA02F120FA0CFCDCBF41EA0C01904029
:10042000E41AA2BF01EB0451294330BD6FEA040472
:100430001F3C1CDA0C340EDC04F11404C4F120025D
:1004400020FA04F001FA02F340EA030021FA04F36F
:1004500045EA030130BDC4F10C04C4F1200220FAC6
:1004600002F001FA04F340EA0300294630BD21FA04
:1004700004F0294630BD94F0000F83F4801306BFCA
:1004800081F480110134013D4EE77FEA645C18BFBE
:100490007FEA655C29D094EA050F08BF90EA020F55
:1004A00005D054EA000C04BF1946104630BD91EA4D
:1004B000030F1EBF0021002030BD5FEA545C05D150
:1004C0004000494128BF41F0004130BD14F580048F
:1004D0003CBF01F5801130BD01F0004545F0FE4103
:1004E00041F470014FF0000030BD7FEA645C1ABF38
:1004F000194610467FEA655C1CBF0B46024650EA6F
:10050000013406BF52EA033591EA030F41F400219A
:1005100030BD00BF90F0000F04BF0021704730B520
:100520004FF4806404F132044FF000054FF00001F5
:1005300050E700BF90F0000F04BF0021704730B5B6
:100540004FF4806404F1320410F0004548BF40428B
:100550004FF000013EE700BF42004FEAE2014FEAE0
:1005600031014FEA02701FBF12F07F4393F07F4FBB
:1005700081F06051704732F07F4208BF704793F0BE
:100580007F4F04BF41F40021704730B54FF46074D1
:1005900001F0004521F000411CE700BF50EA0102D4
:1005A00008BF704730B54FF000050AE050EA01027D
:1005B00008BF704730B511F0004502D5404261EBED
:1005C00041014FF4806404F132045FEA915C3FF42E
:1005D000D8AE4FF003025FEADC0C18BF03325FEACB
:1005E000DC0C18BF033202EBDC02C2F1200300FA7C
:1005F00003FC20FA02F001FA03FE40EA0E0021FAA1
:1006000002F11444BDE600BF70B54FF0FF0C4CF48E
:10061000E06C1CEA11541DBF1CEA135594EA0C0F40
:1006200095EA0C0F00F0DEF82C4481EA030621EA7B
:100630004C5123EA4C5350EA013518BF52EA0335B6
:1006400041F4801143F4801338D0A0FB02CE4FF068
:100650000005E1FB02E506F00042E0FB03E54FF098
:100660000006E1FB03569CF0000F18BF4EF0010E90
:10067000A4F1FF04B6F5007F64F5407404D25FEA8C
:100680004E0E6D4146EB060642EAC62141EA55513F
:100690004FEAC52040EA5E504FEACE2EB4F1FD0C81
:1006A00088BFBCF5E06F1ED8BEF1004F08BF5FEAFF
:1006B000500E50F1000041EB045170BD06F00046B1
:1006C00046EA010140EA020081EA0301B4EB5C045E
:1006D000C2BFD4EB0C0541EA045170BD41F4801156
:1006E0004FF0000E013C00F3AB8014F1360FDEBF7B
:1006F000002001F0004170BDC4F10004203C35DA57
:100700000C341BDC04F11404C4F1200500FA05F3D9
:1007100020FA04F001FA05F240EA020001F000427A
:1007200021F0004110EBD37021FA04F642EB0601F0
:100730005EEA430E08BF20EAD37070BDC4F10C041A
:10074000C4F1200500FA04F320FA05F001FA04F2DE
:1007500040EA020001F0004110EBD37041F10001CA
:100760005EEA430E08BF20EAD37070BDC4F12005D5
:1007700000FA05F24EEA020E20FA04F301FA05F23D
:1007800043EA020321FA04F001F0004121FA04F2E5
:1007900020EA020000EBD3705EEA430E08BF20EAB5
:1007A000D37070BD94F0000F0FD101F000464000EF
:1007B00041EB010111F4801F08BF013CF7D041EA71
:1007C000060195F0000F18BF704703F00046520075
:1007D00043EB030313F4801F08BF013DF7D043EA46
:1007E0000603704794EA0C0F0CEA135518BF95EAFC
:1007F0000C0F0CD050EA410618BF52EA4306D1D183
:1008000081EA030101F000414FF0000070BD50EAA1
:10081000410606BF1046194652EA430619D094EA2B
:100820000C0F02D150EA013613D195EA0C0F05D115
:1008300052EA03361CBF104619460AD181EA030169
:1008400001F0004141F0FE4141F470014FF0000021
:1008500070BD41F0FE4141F4780170BD70B54FF0BC
:10086000FF0C4CF4E06C1CEA11541DBF1CEA13553C
:1008700094EA0C0F95EA0C0F00F0A7F8A4EB05041E
:1008800081EA030E52EA03354FEA013100F0888015
:100890004FEA03334FF0805545EA131343EA1263DE
:1008A0004FEA022245EA111545EA10654FEA002693
:1008B0000EF000419D4208BF964244F1FD0404F54C
:1008C000407402D25B084FEA3202B61A65EB0305A8
:1008D0005B084FEA32024FF480104FF4002CB6EB65
:1008E000020E75EB030E22BFB61A754640EA0C00E5
:1008F0005B084FEA3202B6EB020E75EB030E22BF25
:10090000B61A754640EA5C005B084FEA3202B6EB65
:10091000020E75EB030E22BFB61A754640EA9C0024
:100920005B084FEA3202B6EB020E75EB030E22BFF4
:10093000B61A754640EADC0055EA060E18D04FEAB2
:10094000051545EA16754FEA06164FEAC30343EA52
:1009500052734FEAC2025FEA1C1CC0D111F4801F1F
:100960000BD141EA00014FF000004FF0004CB6E718
:1009700011F4801F04BF01430020B4F1FD0C88BFB7
:10098000BCF5E06F3FF6AFAEB5EB030C04BFB6EBC2
:10099000020C5FEA500C50F1000041EB045170BDB5
:1009A0000EF0004E4EEA113114EB5C04C2BFD4EBE2
:1009B0000C0541EA045170BD41F480114FF0000E66
:1009C000013C90E645EA060E8DE60CEA135594EAE2
:1009D0000C0F08BF95EA0C0F3FF43BAF94EA0C0FE5
:1009E0000AD150EA01347FF434AF95EA0C0F7FF45A
:1009F00025AF104619462CE795EA0C0F06D152EAAE
:100A000003353FF4FDAE1046194622E750EA410691
:100A100018BF52EA43067FF4C5AE50EA41047FF4A2
:100A20000DAF52EA43057FF4EBAE12E74FF0FF3C07
:100A300006E000BF4FF0010C02E000BF4FF0010CD8
:100A40004DF804CD4FEA410C7FEA6C5C4FEA430C51
:100A500018BF7FEA6C5C1BD001B050EA410C0CBFA0
:100A600052EA430C91EA030F02BF90EA020F002002
:100A7000704710F1000F91EA030F58BF994208BF69
:100A800090422CBFD8176FEAE37040F00100704726
:100A90004FEA410C7FEA6C5C02D150EA013C07D17D
:100AA0004FEA430C7FEA6C5CD6D152EA033CD3D0C8
:100AB0005DF8040B704700BF8446104662468C46C2
:100AC0001946634600E000BF01B5FFF7B7FF0028F5
:100AD00048BF10F1000F01BD4DF808EDFFF7F4FF1E
:100AE0000CBF012000205DF808FB00BF4DF808EDA9
:100AF000FFF7EAFF34BF012000205DF808FB00BFCC
:100B00004DF808EDFFF7E0FF94BF012000205DF8ED
:100B100008FB00BF4DF808EDFFF7CEFF94BF0120A2
:100B200000205DF808FB00BF4DF808EDFFF7C4FF9B
:100B300034BF012000205DF808FB00BF4FEA4102EE
:100B400012F5001215D211D56FF47873B3EB62521F
:100B500012D94FEAC12343F0004343EA505311F046
:100B6000004F23FA02F018BF404270474FF00000D8
:100B7000704750EA013005D111F0004008BF6FF016
:100B8000004070474FF00000704700BF4FEA41023D
:100B9000B2F1E04324BFB3F5001CDCF1FE5C0DD9DB
:100BA00001F0004C4FEAC0024CEA5070B2F1004F25
:100BB00040EB830008BF20F00100704711F0804F28
:100BC00021D113F13872BCBF01F00040704741F4ED
:100BD00080114FEA5252C2F11802C2F1200C10FAF1
:100BE0000CF320FA02F018BF40F001004FEAC123D5
:100BF0004FEAD32303FA0CFC40EA0C0023FA02F379
:100C00004FEA4303CCE77FEA625307D150EA01334E
:100C10001EBF4FF0FE4040F44000704701F000401E
:100C200040F0FE4040F40000704700BF7BB972B94D
:100C30000029BEBF00204FF0004106E008BF002899
:100C40001CBF6FF000414FF0FF3000F0D3B9ADF1A1
:100C5000080C6DE904CE002909DB002B1ADB00F03B
:100C60004DF8DDF804E0DDE9022304B070474042AE
:100C700061EB4101002B1BDB00F040F8DDF804E0E4
:100C8000DDE9022304B0404261EB4101524263EBD3
:100C900043037047524263EB430300F02FF8DDF843
:100CA00004E0DDE9022304B0404261EB41017047FA
:100CB000524263EB430300F021F8DDF804E0DDE984
:100CC000022304B0524263EB4303704753B94AB95D
:100CD000002908BF00281CBF4FF0FF314FF0FF3044
:100CE00000F088B9ADF1080C6DE904CE00F006F80B
:100CF000DDF804E0DDE9022304B070472DE9F04798
:100D0000089D8E4604468846002B4AD18A421746E3
:100D100062D9B2FA82F64EB1C6F1200301FA06F8A2
:100D200020FA03F3B74043EA0808B4404FEA174EED
:100D30001FFA87FCB8FBFEF1230C0EFB118843EA77
:100D4000084301FB0CF29A4209D9FB1801F1FF306C
:100D500080F0EA809A4240F2E78002393B449A1AD6
:100D6000A3B2B2FBFEF00EFB102243EA024300FBEB
:100D70000CFC9C4509D9FB1800F1FF3280F0D680AD
:100D80009C4540F2D3803B44023840EA0140A3EB4B
:100D90000C0300211DB1F3400022C5E90032BDE87B
:100DA000F0878B4205D90DB1C5E900010021084645
:100DB000F5E7B3FA83F1002946D1734502D38242A5
:100DC00000F20581841A6EEB030201209046002D8B
:100DD000E5D0C5E90048E2E7002A00F09080B2FAC9
:100DE00082F6002E40F0A4808A1A030C4FEA174EB8
:100DF00080B2BCB20121B2FBFEFC0EFB1C2243EA16
:100E0000024304FB0CF29A4207D9FB180CF1FF389D
:100E100002D29A4200F2E080C4469B1AB3FBFEF273
:100E20000EFB123340EA034302FB04F49C4207D951
:100E3000FB1802F1FF3002D29C4200F2CA80024647
:100E40001B1B42EA0C40A5E7C1F120068B4022FAA9
:100E500006F71F430EFA01F420FA06F32EFA06FEF7
:100E60004FEA1749234300FA01F81FFA87FCBEFB3B
:100E7000F9F01C0C09FB10EE44EA0E4400FB0CFEDA
:100E8000A64502FA01F209D93C1900F1FF3A80F0B7
:100E90009C80A64540F2998002383C44A4EB0E04A5
:100EA0001FFA83FEB4FBF9F309FB13444EEA044432
:100EB00003FB0CFCA44508D93C1903F1FF3E80F06C
:100EC0008280A4457FD9023B3C4443EA0040A4EB26
:100ED0000C04A0FB02EC64457346E14662D35FD08C
:100EE0005DB1B8EB030264EB090404FA06F622FADA
:100EF00001F31E43CC40C5E9006400214FE7B1FB7C
:100F0000F2FC010C41EA0E4180B240EA01423B464C
:100F100038463C46B846BE462026B1FBF7F1A2EB68
:100F2000080241EA0C4166E7014618E710462CE743
:100F3000C6F120022EFA02F3B740B14020FA02F2C5
:100F40004FEA174E0A43B3FBFEF8BCB20EFB183350
:100F5000110C41EA034108FB04F9B04089454FEA0E
:100F6000104380B23ED9791808F1FF3C01D289457F
:100F70001FD8A1EB0901B1FBFEF909FB04F80EFB38
:100F8000191192B242EA0142424529D2BA1809F136
:100F9000FF31C4D24245C2D2A9F102013A44BEE7B0
:100FA000F0459DD2BEEB02036CEB070C0138E14625
:100FB00096E7A7EB09094944A8F1020CB1FBFEF939
:100FC00009FB04F8DBE773467FE7504666E708460F
:100FD000FDE63B44023A33E7ACF1020C3B441CE72C
:100FE00049469CE7A1EB0901C446B1FBFEF909FBA8
:100FF00004F8C4E7704700BFDFF834D0002103E0F5
:101000000C4B5B58435004310B480C4B42189A422E
:10101000F6D30B4A02E0002342F8043B094B9A4204
:10102000F9D305F0EDF826F0F9F901F023FC70474B
:1010300000000320C4D60F08000000206401002037
:1010400080030020F8410120FEE7704708B500F05A
:10105000B9FDBDE8084000F03DBD00F0B5BD7047EA
:1010600010B50421044623F0CDFE204610BD00003B
:1010700038B50C4B0C4C18800C4B822019806368DF
:10108000984740F6110398420AD1094D23682C6015
:10109000822098472B688220DB689847002038BD63
:1010A0000120FCE7A60300204C000020A403002040
:1010B000A80300204FF4A071F020FFF7D9BF000073
:1010C000F7B5394D2B6804461B698220984720806C
:1010D00000284ED02B680DF106025B6901A9822021
:1010E0009847324B1B78002B4BD0BDF8062040F6BA
:1010F00074639A423FD9ADF80630BDF806209B1ABA
:101100009BB20A2B42D90B22B3FBF2F3284A128876
:10111000934201D9013A93B2BDF80420254840F624
:10112000B8318A4234D8C2F571620E32016892B287
:101130000F25B2FBF5F2204D2D88AA4284BF05F1A0
:10114000FF35AAB28A4215468EB22AD9921B91B2B5
:101150001A4E3768BB42BAB28CBF9A1AD21A92B2F0
:1011600011440529C4BF0560336003686380336898
:10117000A38003B0F0BDB32A9CBFB422ADF8062013
:10118000BBE7BDF80630A3F5B473B9E70023C3E7A6
:10119000C2F56D62083292B20E2A0168C8D80025E5
:1011A0002A46891A89B2D3E7A8030020F423002035
:1011B000A4030020A0030020A60300209C0300201D
:1011C00037B568460D461446FFF77AFFBDF80000B4
:1011D00030B1BDF802302B60BDF80430236001202F
:1011E00003B030BD032821D8DFE800F0020B12194C
:1011F0000F4B1A68B2FA82F2520904210D4805F029
:1012000093BA0B4B5A68B2FA82F252090821F5E7F9
:10121000074B9A68B2FA82F252091021EEE7044BAA
:10122000DA68B2FA82F252092021E7E7704700BF7C
:10123000AC03002000100240032821D8DFE800F0B2
:10124000020B12190F4B1A68003A18BF0122042131
:101250000D4805F069BA0B4B5A68003A18BF0122D5
:101260000821F5E7074B9A68003A18BF01221021C0
:10127000EEE7044BDA68003A18BF01222021E7E7C5
:10128000704700BFAC0300200010024003280DD8B7
:10129000DFE800F00206080A0421054805F049BA13
:1012A0000821FAE71021F8E72021F6E7704700BF90
:1012B0000010024008B5032811D8DFE800F0020A48
:1012C0000C0E0421074805F029FA431E58425841E4
:1012D00008BD0821F6E71021F4E72021F2E70020FD
:1012E000F3E700BF0010024070B5084D002401264E
:1012F000E0B2FFF7DFFF18B12B68012B18BF2E609B
:101300000134052C05F10405F2D170BDAC030020B9
:10131000012380F8781080F87930704770470020FA
:1013200070470000034B4164003918BF0121197058
:10133000704700BFB7340120704700207047836BAF
:101340000BB10846184770474FF6FF70704740686A
:1013500003689B691847704770477047704770472C
:1013600010B5044600F046FD23680349D3F89030D9
:101370002046BDE810401847000000D008B50368BB
:101380000446D3F88430984723682046DB6F98479B
:1013900000F0ECF8236820465B6F9847292001F0A5
:1013A000EDFC00F0E3F8236820465B6F9847F8E710
:1013B00010B504460AF034FB23682046D3F8BC304D
:1013C000BDE81040184700F0F9BC00F0FDBC00F08B
:1013D0002FBD00F0CFBC00F03FBD00F047BD00F0D6
:1013E000D3BC09F04BBD10B58421044623F00AFD9F
:1013F000204610BD10B590F8341090F878400C4B92
:101400008C421A7809D03AB90A4A0B4914880888DC
:1014100010800C8001221A7010BD002AFCD0054AF1
:1014200005491488088810800C800022F3E700BF6B
:10143000B0340120AC340120AE34012070B50D462B
:10144000194635B9094B0A4A0A4840F2FF2125F0EE
:101450001BFDC0E90F52084B003A18BF01221A7059
:101460000368BDE87040D3F890301847687F0208E1
:10147000A07F0208EE7F0208B634012008B5094BB0
:101480001B888B4203D8084B1B88934205D9074B16
:10149000074A0848A32125F0F7FC074B1980074BA2
:1014A0001A8008BDAC340120AE340120338002081C
:1014B00096800208EE7F0208B2340120B434012085
:1014C000034690F87A0018B1586803681B681847FB
:1014D00070470000012108B50022084607F098F97E
:1014E0000A4B186028B90A4B0A4A28210A4825F0F5
:1014F000CBFC00220421012007F032FA074B1860D0
:1015000018B9074B034A2C21F0E708BDC00300209F
:10151000D98002082281020851810208BC03002000
:10152000AD810208024B4FF0FF31186807F0BAB9DD
:10153000C0030020014B186807F0E0B9C003002089
:10154000024B0021186807F0ADB900BFC0030020AE
:10155000FFF7F0BF03480449006800231A4607F06C
:101560003ABA00BFBC0300200400002013B5084CA9
:1015700000231A4601A9206807F05EFA20684FF0A0
:10158000FF33002201A907F057FA02B010BD00BFD7
:10159000BC03002003685B6C184701207047036898
:1015A0009B6A1847FEE740F2EF307047054B036037
:1015B000054B4FF08062C3F88820BFF34F8FBFF315
:1015C0006F8F7047808E020800E100E010B504467E
:1015D0004FF45A61FFF7EAFF204623F013FC204640
:1015E00010BD000082B0002301930E4B1A6B42F431
:1015F00000021A631A6B02F400020192019A1A693E
:1016000042F400021A611A6922F400021A61064BC0
:10161000064A1A61064A5A61064B4FF080629A6088
:1016200002B0704700380240882500208518000865
:10163000A515000800E100E008B50A2809D8DFE890
:1016400000F006100E080808081010101000022004
:1016500008BD054B054A0648902125F015FC0020E1
:10166000F6E70120F4E700BFEF8102080A820208D2
:101670005582020838B50C46887FFFF7DDFFA58A42
:10168000E28A164B2169586342EA05425A64628B2A
:10169000D963521B1A642568082D0ED19A611A610C
:1016A0005862207F0E4A42EA0062DA61E2681A62FA
:1016B0000C4A5961D9601A6038BD0022D8611A619C
:1016C000E1680A0A480902F4784200F4FC60024327
:1016D000C1F3C4010A439A63034AECE700B0024035
:1016E00009000100012302000123030008B50B28B3
:1016F0000BD8DFE800F00612100A0A0A0A080808E8
:101700000808022008BD0520FCE7054B054A0648ED
:101710006F2125F0B9FB0020F4E70120F2E700BFBC
:10172000EF810208AF820208558202082DE9F041DC
:1017300091F81D800C464046FFF7D8FFA77F05466D
:101740003846FFF7D3FF06463846FFF775FFA18AF4
:10175000628B444B521A1A649A61228B521A1A6194
:10176000E28A586342EA01425A6421696268D96395
:10177000DA602068802828D0227F0FD8202867D000
:10178000402865D004281AD0364B45EA026545F456
:101790000035B845DD6161D0334A44E0B0F5807F63
:1017A00004D0B0F5007FEFD1304800E0304840EA87
:1017B0000262DA61E2681A625E62596132E045EA09
:1017C000026242F40032DA61F6E7A068021DDA62D2
:1017D000227F45EA026545F40035DD615E625961AC
:1017E000017841B1012921D0224B234A23484FF4EB
:1017F0008D7125F049FBDA69418822F47F42013975
:1018000022F0100242EA0122DA610121154BDA6965
:1018100042F02002DA61DA699206FCD410229A6062
:101820000029B9D0164A1A60BDE8F081B2F1FF0173
:10183000DA69408822F47F4200F1FF3022F0100282
:1018400042EA002242F0100218BF0121DA61DDE70E
:1018500045EA0262034B42F40032B4E742F201323D
:10186000E1E700BF00B002400123010009000200CF
:101870000A000200F9820208138302085582020856
:1018800001230200024B1B68586803685B69184714
:10189000B834012070B5044625460A4B0C300026AA
:1018A00060602672667245F8203B602229460AF085
:1018B0000DFA04F55A63EE6024359D42FBD12046B3
:1018C00070BD00BF808E0208034B1A68D207FCD49B
:1018D00023229A60704700BF00B0024070470000AA
:1018E00030B50F4C2568ED07FCD423250904A5600D
:1018F00041F001010225FF2B65636164E0630AD0BA
:101900000849656241EA0363E361074B2262606153
:10191000E060236030BDE561039BA363034BF8E700
:1019200000B00240090001000100020001000300B4
:1019300030B50E4C2568ED07FCD423251204A560B4
:1019400042F001020225FF2B65636264E063E160FF
:1019500008D01B0643F00213E361054B656260612A
:10196000236030BD034BE3610123F9E700B002407F
:1019700001000200020002FF30B50B4C2568ED07A4
:10198000FCD4232512041B06A56043F40033022572
:1019900042F0010265636264E063E160E361034B6E
:1019A00065626061236030BD00B00240010002004A
:1019B000012070474020704700EB811008307047CD
:1019C00000EB8110083070470120704740F6582026
:1019D000704740F6582303FB01000830704740F67B
:1019E000582303FB01000830704701207047102086
:1019F000704700EB01100830704700EB0110083011
:101A00007047084601F044BF10B5034B036004461D
:101A100008F089FF204610BD388F020810B5044633
:101A2000FFF7F2FF2046482123F0ECF9204610BDD5
:101A300010B5034B0360044608F075FF204610BD47
:101A4000048F020810B50446FFF7F2FF20464FF45A
:101A5000266123F0D7F9204610BD000010B5034BD6
:101A60000360044608F05FFF204610BDD08E0208D8
:101A700010B50446FFF7F2FF2046182123F0C2F903
:101A8000204610BD10B5084B0360044600F68C20BC
:101A9000FFF7BAFF04F12C00FFF7CAFF04F11400AE
:101AA000FFF7DCFF204610BD6C8F020808B5024826
:101AB000FFF7E8FF08BD00BF9C12002010B50446E8
:101AC000FFF7E0FF20464FF4446123F09BF92046E6
:101AD00010BD00002DE9F34101F0BCFC054601F00A
:101AE000BDFC00240146234628462246009414F0FB
:101AF000D7F8274B274A1A60204603F07DF9264D78
:101B0000264B274A27489A6014F032F82B68BFF317
:101B10005B8FDB0735D4284623F076F988B3224C57
:101B2000224B236004F6E42604F1140004F12C088F
:101B300004F68C276060C4F80880E760266108F02E
:101B4000F3FE1B4B6361404608F0EEFE194BE36267
:101B5000384608F0E9FE184BC4F88C3A04F6D42055
:101B600003F0D2F9224604F6D421304603F0C2F93C
:101B7000304601F08DFE114825F0A4F9284623F0E7
:101B80004FF90F4802B0BDE8F041FFF7E9BB00BFD5
:101B90001C35012048040020981200206804002011
:101BA0004C040020080000209C1200206C8F0208CA
:101BB000D08E0208048F0208388F0208AD1A000880
:101BC000C4030020704700000148FFF7D7BB00BFE7
:101BD000C403002070B5264E264C274D274B2360AA
:101BE0003046FFF757FE284619F060F9244811F0F7
:101BF000BDFB244B2448DC6000224FF48071C3E914
:101C0000121222491A86C3E91A12214983F8582070
:101C1000C3E91E011F49C3F880101F491F480B600C
:101C2000F021C3E90422C3E90622C3E90822C3E97B
:101C30000A22C3E90E22C3E91022C3E91422C3E930
:101C400017225A6683F870205A67C3E9016501803C
:101C50001348018013484FF4A0710180124801809D
:101C600012490A70012283F83420114A1A6070BDAB
:101C7000F40400209412002068040020587F020819
:101C80004C040020C40300200000010101000001F9
:101C9000000450001A001400B8340120AC340120B4
:101CA000B2340120AE340120B4340120B03401201C
:101CB000948D02080148FFF779BC00BFF4040020AE
:101CC0000020704781807047C18070470181704754
:101CD000418170477047704770477047704710B434
:101CE000C4880368121B84885B6D091B12B25DF8FF
:101CF000044B09B218474FF6FF7383814FF0FF334F
:101D000003621368C36110607047002070478B88BE
:101D1000838001207047704780F82610704790F844
:101D20002600704710B50022B1F90840B1F90A1039
:101D3000028042808480C18010BD002202804280E7
:101D40008280C28070470177704780ED080A704733
:101D500080F82410704780F82510704701207047E4
:101D6000983070478C3070478430704770477047A8
:101D700070470000034B902283F85A2383F85823BE
:101D8000704700BF00E100E0094A0A49D3680A48E9
:101D9000C3F30A03013B9BB20B801169C1F30A0133
:101DA000013901801364536B43F00103536370479F
:101DB00000680140DE1E0020DC1E0020014BD3F82D
:101DC000AC00704700680140024B0122C3F8AC1020
:101DD0005A6270470068014010B52C21044623F078
:101DE00011F8204610BD10B5BC21044623F00AF8B6
:101DF000204610BD70B5044609F095F823689D6E25
:101E000010F04CF801462046A8472368054AD3F84D
:101E10008C502046AC460023BDE87040A2F5163138
:101E2000604700BF00B004D009F064B809F06EB894
:101E300009F02AB809F099B990F8252012B1036881
:101E40005B691847704790F825201AB190F8242054
:101E500002B1186070470000034B4FF080629A6037
:101E60004FF080729A60704700E100E0084B4FF03D
:101E70008062C3F88820BFF34F8FBFF36F8F4FF09E
:101E80008072C3F88820BFF34F8FBFF36F8F704706
:101E900000E100E070B50023124E8380124B036016
:101EA000336893F8582005460AB1D86C00B9986891
:101EB0000368DB6A98473368B0FA80F4D86C640929
:101EC00030B10368DB6A9847002808BF44F001047A
:101ED0002CB9064B064A07482C2124F0D5FF28468A
:101EE00070BD00BFB8340120808F02085183020802
:101EF000AF830208E883020870B5254E3568BFF34A
:101F00005B8F15F0010540D1304622F07DFF00289F
:101F10003BD0204C204B256104F13400C4E900354E
:101F2000C4E90255E584A562A58511F004FD04F11C
:101F300058000BF081FB194BA3652046184B40F865
:101F4000843BFFF7A7FF174BC4F884302433C4F851
:101F50008C304FF4C803C4E928350023C4F8AC30F2
:101F6000C4F8B030C4F8B430C4F8B8300E480F4BE1
:101F7000C4F89050C4F89C50C4F8A850C4F89830E5
:101F800024F0A0FF304622F04BFF024870BD00BF96
:101F9000E01E0020E41E00206C9A0208A08F0208B8
:101FA00018900208209A0208711D0008009A020881
:101FB00038B5184C23685BB3174B184A1B6C118853
:101FC0008B4216D1164B198805F0B6F9236893F8A1
:101FD0006A200025013283F86A2083F87C50FFF7DD
:101FE000B9FA206809F01CFD2846BDE83840FFF723
:101FF000F9B805F0A1F92468236820461B6A9847C0
:10200000012384F87C300020BDE83840FFF714B984
:1020100038BD00BFB834012000680140DE1E00203A
:10202000DC1E002070B50B4C00211925C26E192A48
:102030000AD0836E40F8234001330132B3FBF5F63A
:1020400005FB16338366C2660131192904F12C049D
:10205000ECD170BDA01F002008B50022C0E91922F4
:10206000C266FFF7DFFF08BDC16E30B5034679B128
:10207000426E002450F8220043F822400132192415
:102080000139B2FBF4F504FB15225A66D96630BD5E
:102090000846FCE770B589B1C26E192A0ED000253A
:1020A0001924AA420BD1836E40F823100133013268
:1020B000B3FBF4F104FB11338366C26670BD436E5B
:1020C0002B44B3FBF4F604FB163350F8233099424B
:1020D000F4D00135E5E700002DE9F341154CDFF8B8
:1020E000588019264FF6FF7700250123C4E90555CE
:1020F000A580E58025816581A581E58125826582B0
:10210000E5612584658484F8245084F82530C4F87A
:102110000080E78484F82870204601A9ADF8047097
:102120000DF0BDF9013E04F12C04DED102B0BDE892
:10213000F08100BFA01F0020189F0208074838B593
:102140001A24013CA0F12C0507D0D0F8203400F56A
:1021500084601B6898472846F3E738BDA01F00201D
:1021600070474D2303FB01000430704710B5EC218C
:10217000044622F047FE204610BD10B54D2204460D
:1021800025F089F8204610BD30B595B004464D25A0
:102190000F496846FFF7F1FF2A466946201D25F0E2
:1021A00064F90C496846FFF7E8FF2A46694604F1DE
:1021B000510025F05AF908496846FFF7DEFF2A4624
:1021C000694604F19E0025F050F915B030BD00BFFE
:1021D0000E910208C19002087490020810B5034BDA
:1021E00003600446FFF7D0FF204610BD649002084C
:1021F000704782B00DF1080C0CE906001146009AF8
:10220000C2EB02120A4400EB82025360D0F8E825C8
:102210008A42D8BF0131D0F8F025D8BFC0F8E81500
:10222000002B0CBF4FF0FF3301231A44C0F8F025F8
:1022300002B0704782B002AB002903E906000B46EA
:1022400012DBD0F8E0258A420EDD019A002A0BDB72
:10225000D0F8E815914207DDC3EB0313134400EBFC
:102260008300406802B070470020FBE782B002ABF9
:10227000002903E906000A4606DA00F2D45393ED7A
:10228000000AB8EEC00A07E0D0F8E0358B4205DA64
:1022900007EE903AB8EEE70A02B07047D0F8DC15C6
:1022A000D0F8D43501FB023300EE103AE9E782B0F2
:1022B000002A02AB03E90600D0F8D835A3BFD0F856
:1022C000DC1501FB023300EE103A07EE903AACBF8A
:1022D000B8EEC00AB8EEE70A02B0704782B00DF15E
:1022E000080C0CE90600C1EB011201990A44D03236
:1022F00040F8223002B0704782B002AB03E906001A
:10230000C1EB01131344D03350F8230002B07047DF
:102310002DE9F84F8246D1F8DC0557EC116B59ECEA
:10232000108B8B46FEF706F90446DBF8D4050D4604
:10233000FEF700F902460B4640464946FDF7ACFF62
:1023400022462B46FEF78AFA41EC100B22F0DAFE09
:1023500051EC100BFEF7F2FB8046DBF8D805FEF7D8
:10236000E9F802460B4630463946FDF795FF2B4605
:102370002246FEF773FA41EC100B22F0C3FE51EC3B
:10238000100BFEF7DBFBB8F1000F034610DBDBF8A8
:10239000E0254245A8BF4246002B0CDBDBF8E415E4
:1023A0008B42A8BF0B46CAE900235046BDE8F88F10
:1023B0004FF0FF32F0E74FF0FF33F4E710B54FF482
:1023C000BF61044622F01EFD204610BD73B50346D2
:1023D0006846D3F80852402D80E806000ED0D3F8A6
:1023E000044203C803EBC406013404F03F04013582
:1023F00086E80500C3F80442C3F8085202B070BD75
:1024000010B54FF4257204460021043024F05DFF1E
:102410000A23C4F8D435C4F8D8351423C4F8DC35FD
:102420000B23C4F8E0350F23C4F8E4350123C4F8C6
:10243000E8350023C4F8EC35C4F8F03510BD0000D1
:1024400010B5074B03600446A522002100F5267055
:1024500024F03BFF2046FFF7D3FF204610BD00BF0E
:102460006491020800230439D8B2824201D80020C6
:102470007047013351F833000028F5D1012070472F
:1024800030B50024D0F8E855C0F8EC4500F29723A9
:1024900000F54F701946002202E001F8014F0132A9
:1024A0009542FADC0F338342F4D130BD024600F589
:1024B00000710023C2E9003308328A42FAD1C0E930
:1024C0008033C0F8083270472DE9F04FADF50B7D31
:1024D00088461646C8EB08141F469DF850320193F3
:1024E0000546FFF7CDFFA31905EB830307A85B683B
:1024F00000932C44FFF7DAFF3444CDE9058601232D
:1025000084F8983205AB93E8060007A8FFF75EFF52
:102510000DF1100840F2FF1303930024274BC8F875
:102520000030A146899A22B920460DF50B7DBDE801
:10253000F08F879B07A907A851F833A040F8339084
:1025400001EBC301013303F03F038793019BD1F8F3
:1025500004B0C1F80490013A9C42899207D207EB7B
:10256000C402631C47F834A0C2F804B0DCB20026F1
:1025700003AB995751440A291CD818F906205A442C
:102580000E2A17D8C1EB011005EB000C94449CF8FF
:1025900098327BB9104405EB80009DF800E040685C
:1025A000704507D101208CF8980207A8CDE90512E3
:1025B000FFF70CFF0136042EDAD1B3E70000FF016C
:1025C0002DE9F04FADF50B7D0E4604469A4607A85F
:1025D0009DF8503200931746FFF768FFC6EB0613CD
:1025E00023443B44012205AD83F89822C5E90067E6
:1025F000D4F8EC351344C4F8EC3595E8060007A888
:102600000DF10C08FFF7E2FE0DF1100940F2FF1387
:10261000C8F800302A4BC9F800300026899921B942
:1026200030460DF50B7DBDE8F08F879A07AB0DF1B5
:102630001C0C002753F832B04CF8327003EBC20088
:10264000013202F03F028792009A436847600139E5
:102650009642899106D20AEBC601721C4AF836B03E
:102660004B60D6B2002718F9071059440A2923D81D
:1026700019F907201A440E2A1ED8C1EB011004EBE9
:10268000000C94449CF898E2BEF1000F14D1104461
:1026900004EB8000406800280EDD01208CF89802D1
:1026A000D4F8EC0501930130C4F8EC05C5E900123B
:1026B00007A8FFF78BFE019B0137042FD3D1ADE7AD
:1026C0000000FF012DE9F04FADF5057D04AB8B4611
:1026D000044640229A460021013AC3E9001103F161
:1026E0000803F9D1D4F8F035D4F8EC259A4208BFA4
:1026F0000123A4EB840908BF84F8F43504F2972879
:10270000A9F65C290025EBB247460026039325E095
:1027100017F8013F0BBB59F82730F3B14023039959
:102720000093F2B253462046FFF74AFF5146024655
:102730002046FFF797FE034678B99A4204DC10461C
:102740000DF5057DBDE8F08F0AEBC30103C90BEB66
:10275000C30484E803000133EFE70136D4F8E83519
:10276000B342D5DC01350B2D08F10F08CBD1002287
:10277000E5E7000007B5064BADF806001B68054805
:1027800001220DF1060105F077FB03B05DF804FBB3
:102790000C0000203424002037B50D4D0D4C0121D4
:1027A000284603F0BBFF01280ED1206806F074F91B
:1027B000012809D854238DF8073020680A23002205
:1027C0000DF1070106F007F9642006F015F8E6E7B9
:1027D00000000240F023002030B595B01022002107
:1027E0000AA824F072FD1422002103A824F06DFD34
:1027F00000241E4B01941A6C42F080521A641B6C28
:1028000003F080530193019B194B02941A6842F420
:1028100040421A601B6803F4404302930122029B6A
:102820004FF48033CDE9082302254FF480030821BB
:10283000CDE90E534FF4B473CDE9101308A8042367
:102840001393129504F0D0FD04F094FD0F23CDE90D
:1028500003354FF4A0504FF48053CDE90603052112
:1028600003A8059404F09CFF15B030BD0038024069
:102870000070004080B59AB003F0D0FCFFF7ACFFC9
:10288000142200210DA824F020FD0024C84B009440
:102890001A6BC848C84DDFF85C8342F010021A6317
:1028A0001A6B02F010020092009A01941A6B42F027
:1028B00020021A631A6B02F020020192019A02941C
:1028C0001A6B42F080021A631A6B02F080020292C5
:1028D000029A03941A6B42F004021A631A6B02F014
:1028E00004020392039A04941A6B42F001021A63E1
:1028F0001A6B02F001020492049A05941A6B42F0DA
:1029000002021A631A6B02F002020592059A0694FB
:102910001A6B42F040021A631A6B02F040020692F0
:10292000069A07941A6B42F008021A631B6B03F0B5
:102930000803224607933C21079B03F0F5FE9F48BE
:102940000122022103F0F0FE22469C48042103F0FC
:10295000EBFE22469A484FF4405103F0E5FE012673
:102960003C23CDE90D3693480F9403230DA902278C
:10297000109303F0EFFD91480DA9CDE90D76CDE957
:102980000F4403F0E7FD04238C480DA9CDE90D3673
:10299000CDE90F4703F0DEFD4FF4405388480DA901
:1029A000CDE90D36CDE90F4703F0D4FD0DA98548DB
:1029B0000F97CDE90D6403F0CDFD8348834B036091
:1029C00003F0BEFCDFF830E2814B2C62C5E900E386
:1029D00028464FF48043C5E90434C5E90244C5E9FB
:1029E000064404F0AFF81021284604F0F3FA21461B
:1029F0002846784D04F00DFB4FF48273C5E900833F
:102A00004FF400791823C5E9069328460A23C5E93F
:102A10000244C5E90444C5E90844AC62EB6205F030
:102A2000CFF98F232246394664488DF824308DF83B
:102A3000344003F079FE32464FF47A7309A92846F0
:102A400005F01AFA4FF47A7332460DA9284605F0BC
:102A5000BFFB3246394659485F4D03F065FE9DF88D
:102A60003430D32B04BF5D4B1E705D4B0126C5E98E
:102A70000036102240230024C5E904234FF4C0731C
:102A8000C5E906344FF40063C5E908344FF4005338
:102A900002274FF00409AB624FF0030A07230DA988
:102AA0002846CDE90D73CDE90F934FF00808C5E92D
:102AB0000249CDE911A7139705F066F84FF6FF72AA
:102AC00009A92846CDE90A86089409960C9405F0D0
:102AD0007BF8304603F0CEFB4FF6FF7209A928467B
:102AE000CDE90978CDE90B6405F06EF84FF6FF7279
:102AF00009A92846CDE909A8CDE90B9405F064F8A9
:102B00004FF40C730893089B0C934FF6FF7209A9BE
:102B10002846CDE909980B9605F056F840F26A511F
:102B2000284605F06FF834220DEB0200214624F010
:102B3000CCFB2C4D2C4B2C61C5E900340923C5E995
:102B400005361D23C5E9073A40F20D1140F2431343
:102B5000C5E9091340F2171040F24713C5E90B030A
:102B60002846C5E90244AC8685F8364004F0ECFA04
:102B7000FF214FF4806CF022CDE912140521CDE93C
:102B800014C14FF4A0730DA9CDE90E24CDE916426E
:102B900028462246154D1893CDE910370D94ADF80F
:102BA00064408DF8664004F09AFB114B2B6025E0E1
:102BB0000038024000100240342500200008024086
:102BC000000C024000000240C825002000300240F6
:102BD000A08601003424002000240020F4230020DB
:102BE000400100A08C24002000680140EC2300205C
:102BF0001400002000500140005C00401B68984712
:102C00002B68184DDB689847174B2846C5E90034F8
:102C1000C5E90274C5E90A47C5E90C4403F0A0FB05
:102C20003146284603F052FCFEF710FAFEF70DFA83
:102C300005F072FD0D4A3146404605F091FE0C4B01
:102C40000C4A186021460C4805F092FD0B4B0C4ACB
:102C5000186021460B4805F08BFD0B4B186005F002
:102C60006DFDFEE78825002000B002408891020833
:102C7000F0230020C491020899270008FC230020BB
:102C8000A09102085B100008F823002070477047ED
:102C90007FB5094B8DF817201B6802930DF11702C1
:102CA0000123009201930A460146044803F0F2FF13
:102CB00007B05DF804FB00BF1000002034250020A1
:102CC0007FB500238DF81730084B1B6802930A4626
:102CD00001230DF11701009101930146044804F00E
:102CE00069F89DF8170007B05DF804FB100000209C
:102CF000342500201FB5084C24680092CDE901342A
:102D00000A4601230146054804F054F8003818BF6C
:102D1000012004B010BD00BF1000002034250020A9
:102D200003F0A8BA10B5064C00222046042103F097
:102D3000FBFC20460122BDE81040042103F0F4BC56
:102D40000008024038B50B4D044601220A484FF4F2
:102D5000005103F0E9FC00220421284603F0E4FCC2
:102D60002046FFF707FD28460122BDE83840042130
:102D700003F0DABC00080240000C024038B50B4DED
:102D8000044600220A484FF4005103F0CDFC002213
:102D90000421284603F0C8FC2046FFF7EBFC284638
:102DA0000122BDE83840042103F0BEBC0008024007
:102DB000000C0240F7B5144E144F05460C46304641
:102DC0000022042103F0B0FC00224FF400513846E9
:102DD00003F0AAFC2846FFF7CDFC0D4B0D481B68FD
:102DE000224601A905F0F4F9384601224FF40051BA
:102DF000019C03F099FC30460122042103F094FC6D
:102E0000204603B0F0BD00BF00080240000C0240A5
:102E10000C0000203424002003F02CBA0268034B7D
:102E20009A4201D103F014BA704700BF001000406D
:102E30007047000082B00E4B00220092596C41F4A2
:102E400080415964596C01F48041009100990192CC
:102E5000196C41F0805119641B6C03F0805301938D
:102E6000019B0F216FF0010002B003F029BA00BFEF
:102E7000003802400268094B9A4282B00BD100230D
:102E80000193074B1A6B42F480521A631B6B03F4D5
:102E900080530193019B02B0704700BF0030024095
:102EA0000038024007B50F4B02689A4216D1002243
:102EB000A3F5F0430192196B41F4000119631B6BF8
:102EC00003F40003019305215A20019B03F0F8F954
:102ED0005A2003B05DF804EB03F024BA03B05DF8A8
:102EE00004FB00BF00B002402DE9F043044689B066
:102EF0001422002103A824F0E8F92268244B9A4206
:102F000043D1244C244800250095236B43F004034F
:102F10002363236B03F004030093009B0195236B51
:102F200043F001032363236B03F001030193019B2F
:102F30004FF012094FF400734FF0010803270426E5
:102F400003A9CDE90339CDE90587079603F002FB14
:102F50004FF480731148079603A9CDE90339CDE9F1
:102F6000058703F0F7FA0295236C43F4000323640A
:102F7000236C03F400030293029B236A43F40003CF
:102F80002362236A23F40003236209B0BDE8F083BF
:102F9000005C00400038024000080240000002408F
:102FA000F0B599B004461422002107A824F08DF949
:102FB00030220DEB0200002124F087F922685E4BDD
:102FC0009A4240F0B78008230C93C0231093042347
:102FD00012930CA84FF40033159304F0A9FC08B128
:102FE000FFF726FF554B5648002400945A6C42F0D8
:102FF00080625A645A6C02F080620092009A0194D6
:103000001A6B42F020021A631A6B02F0200201923E
:10301000019A02941A6B42F001021A631A6B02F0D1
:1030200001020292029A03941A6B42F002021A639E
:103030001A6B02F002020392039A04941A6B42F094
:1030400040021A631A6B02F040020492049A05943B
:103050001A6B42F004021A631A6B02F00402059222
:10306000059A06941A6B42F008021A631B6B03F070
:103070000803069302250E26069B0B964FF48063E9
:1030800007A9CDE90735CDE9094503F063FA41F613
:1030900058032C480B9607A9CDE907350927CDE938
:1030A000094503F057FA032327480B9707A9CDE9F1
:1030B0000735CDE9094503F04DFA4FF47063224816
:1030C0000B9607A9CDE90735CDE9094503F042FA8A
:1030D0004FF40C631D480B9607A9CDE90735CDE9E0
:1030E000094503F037FAC02319480B9607A9CDE923
:1030F0000735CDE9094503F02DFA082315480B964D
:1031000007A9CDE90735CDE9094503F023FA4FF4C6
:10311000A0530E480B9707A9CDE90735CDE909451E
:1031200003F018FA58202246052103F0C9F8582068
:1031300003F0F8F819B0F0BD006801400038024013
:103140000014024000000240000402400018024047
:1031500000080240000C024010B5044688B014225A
:10316000002103A824F0B1F82268144B9A4223D11D
:1031700003F56843002101915A6C114842F4801212
:103180005A645A6C02F480120192019A02911A6BED
:1031900042F020021A631B6B03F020030293029B90
:1031A0004FF4607202230321CDE903230523CDE907
:1031B000061303A903F0CEF908B010BD005001407A
:1031C000001402402DE9F04186B0002303932B4BFD
:1031D0001C68002C4FD14FF00108C3F80080284B29
:1031E00000949A6B274842EA08029A639B6B03EAB1
:1031F00008030093022703260C25009B01A94FF624
:103200003F03CDE90137CDE9046503F0A3F91E487A
:10321000059501A9CDE90187CDE9034603F09AF9A7
:1032200048F233131948059501A9CDE90137CDE9D5
:10323000034603F08FF94FF683731548059501A9EE
:10324000CDE90137CDE9034603F084F94CF203736D
:103250001048059501A9CDE90137CDE9034603F0F2
:1032600079F960230C48059501A9CDE90137CDE92D
:10327000034603F06FF906B0BDE8F081D0250020C9
:1032800000380240001402400008024000180240CA
:1032900000100240000C02400004024070B588B0EB
:1032A00000230293204B1A6C42F010021A641B6C2C
:1032B00003F010030293054601A903A8029B04F042
:1032C00019FB069B4BBB04F005FB184E184B3360F3
:1032D00040F2E733F360174BB0FBF3F3013B73604D
:1032E000304600233361B360B36105F041F9044611
:1032F00080B9304605F012F8044658B9362003F07C
:1033000011F80F2D0DD822462946362002F0D8FF9D
:10331000094B1D60204608B070BD04F0DBFA400088
:10332000D3E70124F6E700BF00380240D42500208F
:103330000010004040420F007C0000207047FEE774
:10334000FEE7FEE7FEE77047014805F025B800BF3D
:10335000D4250020014803F065BF00BF8C24002065
:10336000014803F029B800BF8825002001207047DC
:1033700008B524F04DF8162303604FF0FF3008BD68
:1033800008B524F045F816230360FEE770B50D4636
:1033900014460E46731B9C4201DC204670BDAFF301
:1033A000008006F8010BF5E770B50D4614460E4691
:1033B000731B9C4201DC204670BD16F8010BAFF375
:1033C0000080F5E74FF0FF3070474FF400534B603B
:1033D0000020704701207047002070470A4A11689A
:1033E00008B5034609B909491160106869460344E4
:1033F0008B4206D924F00CF80C2303604FF0FF3009
:1034000008BD1360FCE700BF1C260020F841012026
:10341000704708B5042914D8DFE801F00F03070B43
:103420000F0001F035FD406808BD01F031FD8068F6
:10343000FAE701F02DFDC068F6E701F029FD00680C
:10344000F2E70020F0E710B50421044621F0DAFC91
:10345000204610BD00487047FC9102080F207047BD
:1034600013B5002451B1036801948DF8034001AAFB
:103470009C680DF10303A04702B010BD0846FBE7AE
:10348000C0897047008A7047C0887047808870473D
:10349000807A00F07F007047807AC0097047002072
:1034A000704700009FED010A704700BF0000000058
:1034B000704710B50821044621F0A4FC204610BD39
:1034C0007047704700F598730868496803C37047F0
:1034D000704770474160704770477047064BC0F8AF
:1034E0004C310023C0F8503100F5A273C0F84801F8
:1034F000C0F84031704700BFAD3B000801230372A4
:1035000070477047704710B4C26841685410034652
:1035100001EB6200D20748BF0A599B685DF8044B73
:1035200048BFD35818470346406830B19A681AB963
:10353000D86800F0010070470120704710B50C21D9
:10354000044621F05FFC204610BD10B51021044652
:1035500021F058FC204610BD10B54FF4AE71044662
:1035600021F050FC204610BD10B54021044621F04A
:1035700049FC204610BD10B50EF090FC0368BDE874
:103580001040DB6B18470000054B1B7801462BB140
:10359000406818B103680C315B6E1847704700BF74
:1035A000B7340120037A70B50546BBB9406803689B
:1035B000DB69984704463CB96868036805F10C016B
:1035C0001B6EBDE870401847A1886B8FC91A23682D
:1035D00020461B6B09B29847A469ECE770BD10B593
:1035E0000446D0F8400158B10368DB68984738B109
:1035F000D4F8400103689B6898470023C4F8403121
:1036000010BD70B5044690F8390094F83830013098
:10361000C0B2984284F8390005D9012323720023EF
:1036200084F8393070BDB4F93A20002110F00EFE54
:10363000C30706D500284FF6FF73C8BF01231844FF
:1036400000B2238AC01AA08760680368DB699847C4
:1036500005462DB960680368BDE870405B6918478E
:10366000A988A38F19442B6828461B6B09B2984779
:10367000AD69EEE72DE9F14FD0E9556A0746B0682C
:1036800003681B6A9847B0F5AA7F05D2554B564A86
:10369000A321564823F0F8FB706803681B6A98471B
:1036A0000F2803D8524B504AA421F2E7F068036870
:1036B0001B6A98473F2803D84E4B4B4AA521E8E7A1
:1036C0000EF0ECFBDFF8409104300EF00CFCD9F862
:1036D000000010B10368DB689847D9F8000010B10A
:1036E00003681B689847DFF82481D8F8000010B100
:1036F00003685B699847D7F83C0110B103685B68C1
:103700009847D8F8000010B103681B689847D7F8AD
:103710003C0110B103689B689847F068036800217A
:103720005B6A984705460023334A4360037245F8B5
:103730000C2B044628460AF093FD142222872F4AB8
:1037400012780023A387002A35D101232372B068A1
:10375000036800215B6A9847054602F0A3FA706887
:10376000036800215B6A98472946064602F058FA2A
:10377000331DC7F83C61CAF80C302B68C6F808A0A6
:103780002846DB68C9F80040C8F80050EE63984747
:10379000336830461B6898472146284610F050FD94
:1037A000236820461B69984723685B69204601B05F
:1037B000BDE8F04F18471249124AB1F900B0E1686C
:1037C000236128468B6BB2F900109847E36859468D
:1037D000DB6B2846984728460AF0BDFC094A138847
:1037E0006387B4E766840208F4840208D985020876
:1037F00020860208C3860208D0930208B73401204D
:10380000AE340120AC34012000350120FC3401200D
:10381000044B1B6893F858200AB1D86C00B998681B
:10382000704700BFB8340120F8B5174604460E466D
:103830000EF0F6FB124B1C60124B2360124B00255E
:10384000C4E95135114BC4E9535518680368012187
:103850009B68C4E94F55C4E955769847284601F05E
:10386000CBFAFFF7D5FF19F0CAF9FFF7D1FF19F02E
:1038700041FAFFF7CDFF19F049FA2046F8BD00BF25
:103880000C3501205893020840930208B8340120F7
:10389000064BC0F84C310023C0F8503100F5A2733C
:1038A000C0F84801C0F84031704700BFAD3B000888
:1038B000064BC0F84C310023C0F8503100F5A2731C
:1038C000C0F84801C0F84031704700BF613A0008B5
:1038D000064BC0F84C310023C0F8503100F5A273FC
:1038E000C0F84801C0F84031704700BF19390008DE
:1038F000064BC0F84C310023C0F8503100F5A273DC
:10390000C0F84801C0F84031704700BF7536000864
:1039100003685B6A184700002DE9F14FD0E9556A4A
:103920000746B06803681B6A9847B0F5BA7F05D2AE
:10393000434B444AA321444823F0A6FA7068036825
:103940001B6A98470F2803D8404B3E4AA421F2E750
:10395000F06803681B6A98470B2803D83C4B394A28
:10396000A521E8E70EF09AFADFF8EC9004300EF0AB
:10397000BAFAD9F8000010B10368DB689847D9F8A3
:10398000000010B103681B689847DFF8D080D8F8B2
:10399000000010B103685B699847D7F83C0110B18B
:1039A00003685B689847D8F8000010B103681B688B
:1039B0009847D7F83C0110B103689B689847F068B6
:1039C0000021FFF7A5FF4FF0000B224BC0F804B019
:1039D000044680F808B00360B068036859465B6A23
:1039E0009847054602F0DAF87068036859465B6A42
:1039F00098472946064602F095F8331DC7F83C6102
:103A0000CAF80C302B68C6F808A02846DB68C9F84D
:103A10000040C8F80050EE639847336830461B6892
:103A200098472146284610F00BFC236820461B6966
:103A3000984723685B69204601B0BDE8F04F1847FE
:103A40006684020866870208D98502082086020873
:103A5000C3860208AC93020800350120FC34012023
:103A60002DE9F14FD0E9556A0746B06803681B6A33
:103A7000984740F65723984205D8444B444AA3211F
:103A8000444823F001FA706803681B6A98470F28BE
:103A900003D8414B3E4AA421F2E7F06803681B6A51
:103AA00098470B2803D83D4B394AA521E8E70EF08B
:103AB000F5F9DFF8F09004300EF015FAD9F80000AF
:103AC00010B10368DB689847D9F8000010B10368AB
:103AD0001B689847DFF8D080D8F8000010B1036861
:103AE0005B699847D7F83C0110B103685B68984759
:103AF000D8F8000010B103681B689847D7F83C015C
:103B000010B103689B689847F0680021FFF700FF39
:103B10004FF0000B224BC0F804B0044680F808B008
:103B20000360B068036859465B6A9847054601F030
:103B30002BFB7068036859465B6A9847294606461E
:103B400001F0FCF9331DC7F83C61CAF80C302B6852
:103B5000C6F808A02846DB68C9F80040C8F800503D
:103B6000EE639847336830461B68984721462846DD
:103B700010F066FB236820461B69984723685B6941
:103B8000204601B0BDE8F04F184700BF6684020828
:103B900038880208D985020820860208C3860208F0
:103BA000AC93020800350120FC3401202DE9F14FCF
:103BB000D0E9556A0746B06803681B6A9847EF2842
:103BC00005D8444B444AA321444823F05DF970686A
:103BD00003681B6A98470F2803D8414B3E4AA4212B
:103BE000F2E7F06803681B6A98470B2803D83D4B3F
:103BF000394AA521E8E70EF051F9DFF8F0900430DA
:103C00000EF071F9D9F8000010B10368DB6898472D
:103C1000D9F8000010B103681B689847DFF8D0801E
:103C2000D8F8000010B103685B699847D7F83C01E9
:103C300010B103685B689847D8F8000010B10368BA
:103C40001B689847D7F83C0110B103689B689847F8
:103C5000F0680021FFF75CFE4FF0000B224BC0F82C
:103C600004B0044680F808B00360B06803685946A1
:103C70005B6A9847054601F03BFF70680368594648
:103C80005B6A98472946064601F0F8FE331DC7F8DF
:103C90003C61CAF80C302B68C6F808A02846DB68DF
:103CA000C9F80040C8F80050EE63984733683046C2
:103CB0001B6898472146284610F0C2FA2368204620
:103CC0001B69984723685B69204601B0BDE8F04F47
:103CD000184700BF668402080A890208D9850208CD
:103CE00020860208C3860208AC9302080035012032
:103CF000FC340120406A7047806A704770478A88A8
:103D00000B8810B5D20A4C88C1699BB251F82200C9
:103D100043EA0443184410BD10B50446BAB1107B01
:103D200068B1537BD27A1B0203F4E0631A43236A1F
:103D300003EB82031A888A4202D193F9020010BD74
:103D400005D8013880B204330028F3D1F7E700200A
:103D5000F5E710B52C21044621F054F8204610BD9B
:103D600030B58BB00446BDF860500895BDF85C5086
:103D700007959DF8505006959DF84C5005959DF877
:103D8000485004959DF8445003959DF84050029585
:103D90009DF83C500195BDF8385000950FF088FE15
:103DA000064B2360159BE361169B2362199B63629C
:103DB0001A9BA36220460BB030BD00BFF4930208EB
:103DC0007047704770477047704730B5036885B0DB
:103DD0006D460181D3F88430014604462846984751
:103DE00095E807003C3484E8070005B030BD30B5E5
:103DF000036885B06D464181D3F88430014604469E
:103E00002846984795E807003C3484E8070005B049
:103E100030BD0022028042808280C280704780F8DC
:103E20003610704770B5036804461B6B15469847FB
:103E30002368294620465B6EBDE870401847002085
:103E40007047806C7047806C7047C06C70477047DB
:103E500070477047704710B54C21044620F0D2FFE0
:103E6000204610BD10B55021044620F0CBFF20465F
:103E700010BD10B54FF43471044620F0C3FF204646
:103E800010BD08B5FDF7D8FF08BD0000036870B588
:103E90005E6B124B1B6804468DB22BB9104B114A56
:103EA0006C21114822F0F0FF1049828D098891425F
:103EB00003D80F4B0B4A6D21F3E713F812200D4B7B
:103EC0001B6853F8220003681B6B9847291A334676
:103ED000204609B2BDE87040184700BF10350120E8
:103EE000DC8902081E8A0208598A0208143501205A
:103EF000A08A02081835012000224FF0FF31C0E9E6
:103F000000218260704770B5036804461B6B15463C
:103F100098472368294620465B6BBDE870401847E8
:103F200070B504461D46BDF91060FFF7ECFF23682D
:103F3000294620469B6B9847236831462046DB6B19
:103F4000BDE87040184700004FF480710022818462
:103F500005490160C0E90122C0E90322C0E9052248
:103F6000C0E9072282627047409902080022C0E936
:103F70000122C0E90322C0E90522C0E907224FF46B
:103F800080728284014A0260704700BF5C9402081C
:103F900038B5262204460D46002123F096F9204626
:103FA000FFF7E4FF064B23602B88E384FF232046C2
:103FB00084F8283029460BF072FA204638BD00BF3D
:103FC000189F020810B526220446002123F07DF92F
:103FD0002046FFF7CBFF0A4B23600A4BA3624FF644
:103FE000FF73A3854FF47F020023C4E90C322387BB
:103FF0004FF0FF32C4E91023E363204610BD00BF39
:10400000289D0208309302082DE9F04F044691B034
:10401000A04600250FF068FFC14BE56348F8403B20
:1040200026222946404623F050F94046FFF79EFFDE
:10403000BC4B236404F16C0AFF234FF6FF7B0EA9EF
:1040400084F866305046A56604F19C07ADF838B098
:10405000FFF79EFFB44BE36604F1C8093846A4F8A5
:104060009650A4F89850FFF76FFF0EA94846ADF898
:1040700038B00AF05FF904F1F4030EA9184603936F
:10408000ADF838B00AF056F904F590730EA9184649
:104090000493ADF838B00AF04DF904F5A67304F5B1
:1040A000BC7618460593FFF74FFF0EA93046ADF8D2
:1040B00038B009F0AFFB04F502730EA91846089357
:1040C000ADF838B0FFF764FF04F50D73184606939A
:1040D000FFF778FF954BC4F8343204F52073184687
:1040E000C4F87C524FF4A07B0793FFF76BFF904B13
:1040F000C4F880322A464046C4E9B255F023294626
:10410000CDF800B0FFF70CFF4FF07F43A366231DEF
:1041100041461846099306F01BFC082350460EA999
:10412000ADF838300AF0D4FEF12350462A4629462D
:10413000CDF800B0FFF7F4FE2A46504629460AF0B3
:10414000A5FE5146201D06F003FCFA232A463846F8
:1041500000932946F023FFF7E3FE4FF0010848469D
:104160000EA9ADF838800BF09AF912236FF0060211
:10417000484600936FF008014FF48173FFF7D0FEBB
:10418000484629460AF091F84946384606F0E0FBD1
:104190004FF48A790398ADF838800EA90BF07FF9B7
:1041A0000F230A220398CDF80090E621FFF7B8FE0E
:1041B000039829460AF079F83846039906F0C8FBB7
:1041C0000498ADF838800EA90BF069F90F23092285
:1041D0000498CDF800906FF00401FFF7A1FE049859
:1041E000DFF87891DFF8788129460AF05EF83846E2
:1041F000049906F0ADFB3946201D06F0A9FBF0231B
:104200000598CDF800B02A462946FFF789FE02221C
:1042100011463046FFF777FE0EA93046ADF838500C
:1042200009F09AFC434BC4F88031434BC4F8A431E5
:10423000424BC4F8A831304609F038FBB0EE040A0E
:10424000304609F09AFC3E4FC4F8D091304609F050
:104250002DFB3046C4F8C491C4F8BC81C4F8C071C9
:1042600009F024FB3046C4F8C881C4F8CC7109F0C9
:104270001DFBDFED340A9FED341ADFF8E890B0EE55
:10428000600A304609F071FC3146059884F8A15166
:1042900006F05EFB40F2191208986921FFF733FE21
:1042A0004FF00A0A0898ADF838A00EA90BF0F7F8FD
:1042B0000899059806F04CFB0599201D06F048FB6F
:1042C000182340F205120698009316216423FFF785
:1042D00027FE4FF07F43C4F86432D4F83432069995
:1042E000D3F88430A4F868520AAE3046984796E86E
:1042F000070004F51C7383E80700D9F800302BB9D8
:10430000124B134A6021134822F0BEFDDFF858809B
:10431000B8F80030052B29D80F4B0D4A6121F2E780
:10432000E4950208B89D0208209E0208C494020881
:1043300054950208F00050020000EB420080374321
:104340000000944300000000560EC940DC890208BA
:10435000DE8A0208598A0208A08A020800007A440C
:104360000000F04210350120143501202E4FDFF8F7
:10437000BCB03868052100F07BFD0B23C4F87C023B
:104380000EA90698ADF83C30CDF838B00AF024FDFF
:104390000699201D06F0DCFA17234FF48372079864
:1043A000009392214823FFF7BBFD4FF07F43C4F8F1
:1043B000B032D4F880320799D3F88430A4F8B452DC
:1043C0003046984796E8070004F52F7383E8070006
:1043D000D9F80030002B93D0B8F80030042B9BD9CB
:1043E0003868042100F044FDD9F80030C4F8C80250
:1043F000002B85D0B8F80030032B8DD93868032105
:1044000000F036FD0EA9C4F8CC020798CDF838B0FC
:10441000ADF83CA00AF0E0FC201D079906F098FAE0
:10442000204611B0BDE8F08F1C3501203093020802
:1044300070477047704730B4C268446855100346EF
:1044400004EB6200D20748BF62599B6830BC48BF8A
:10445000D35818470346406830B19A681AB9D868EB
:1044600000F0010070470120704710B5102104468C
:1044700020F0C8FC204610BD10B5F021044620F005
:10448000C1FC204610BD9830884208B505D10DF01A
:1044900005FDBDE80840FFF72BBA08BDF8B5194B7C
:1044A000018F1B888B4206462AD9174B1B682BB9F4
:1044B000164B174A17486C2122F0E6FC13F811201E
:1044C000154B1B6853F82250144B186800F0D0FCB1
:1044D0002B6807469B6B284698472B6804469B6CC5
:1044E0003946284698472B6814FB00F45B6A394626
:1044F00028469847A4B223181BB2A6F84630F8BD48
:104500000023FAE71435012010350120DC89020868
:104510001E8A0208598A0208183501201C3501201C
:104520002DE9F74304460FF0DFFC454B2360454B74
:104530000025C4E910354FF48072FF2304F16C07A5
:10454000A4F8642084F86630A4F890204FF6FF7336
:104550003D4AE26604F19806A4F8923084F894305B
:1045600001A93846C4E91255C4E91455C4E91655E1
:10457000C4E91C55C4E91E55C4E92055C4E92255B7
:10458000E5632566A566ADF804300AF088FF30467D
:104590000BF0BCF82D4BC4E938342D4B04F1400826
:1045A0002A46C4E93A3529464046FFF7ACFC404666
:1045B000F021FDF78BFB40464FF4A071FDF788FB1F
:1045C00004F104094FF07F43A3664146484606F0D4
:1045D000BFF92A4629463846FFF795FC0E2301A964
:1045E0003846ADF804300AF05AFF3946484606F01E
:1045F000AFF9304661222021FFF785FC042301AA90
:104600006946ADF8003030460523ADF804300AF0B5
:104610000DFE0623A4F8D0303046FFF73FFF0D4BC8
:104620004FF0FF32C4E9352304F1E0034846C4F8F3
:10463000C030314606F08CF9204603B0BDE8F08367
:1046400030960208B89D0208189F020818960208C2
:1046500087440008F5F5F5FF70477047704730B4A0
:10466000C26844685510034604EB6200D20748BF95
:1046700062599B6830BC48BFD3581847034640680E
:1046800030B19A681AB9D86800F00100704701206B
:10469000704710B51021044620F0B4FB204610BD31
:1046A00010B54FF4B871044620F0ACFB204610BDA5
:1046B0009830884208B505D10DF0F0FBBDE8084000
:1046C000FFF706B908BD00002DE9F04F04468BB096
:1046D000A04600250FF008FC894BE56348F8403BF5
:1046E00026222946404622F0F0FD4046FFF73EFCD8
:1046F00004F16C07834B2364FF264FF6FF792622D3
:10470000294684F866603846A566ADF8209022F008
:10471000DCFD3846FFF72AFC7B4BE366BDF8203012
:10472000A4F8923004F1980B08A9384684F89460F4
:104730000AF0B5FE04F1E00A58460AF0E7FF262227
:104740002946504622F0C1FD5046FFF70FFC4FF0BE
:10475000010304F58A7684F804316C4BC4F8E03028
:1047600026222946A4F80E91A4F8109184F81291FB
:10477000C4F8085184F80C51304622F0A6FD3046AA
:10478000FFF7F4FB624BC4F83C314FF47F03C4F8ED
:104790004831604BC4F814314FF0FF33C4E955354C
:1047A0005D4BA4F84091C4E958345C4BC4F84451C3
:1047B000C4E95A354FF4A0732A46A4F84C51C4F802
:1047C0005051C4F85C51294600934046F023FFF74E
:1047D000A7FB04F104094FF07F43A3664146484616
:1047E00006F0B6F86FF00A0238462946FFF78BFB51
:1047F0000D23384608A9ADF820300AF050FE39469E
:10480000484606F0A5F855224FF4B1715846FFF717
:104810007AFB062308AA07A9ADF81C3058460723DF
:10482000ADF820300AF002FD0223A4F8D03058463B
:10483000FFF734FE4FF0FF33C4E9353304F5B073AE
:10484000C4F8C0305946484606F082F87F2221213C
:104850005046FFF758FB042308AAADF81C3007A9FF
:1048600005235046ADF820300AF0E0FC514648469A
:1048700006F06EF81A238B2200932121AF233046D5
:10488000FFF74EFB4FF07F43C4F84431D4F81431A6
:10489000A4F8485102AFD3F88430314638469847DF
:1048A00097E8070004F5A87383E807001C4B1B6812
:1048B0002BB91C4B1C4A60211C4822F0E5FA1C4B0A
:1048C0001B881BB91B4B184A6121F5E71A4B294677
:1048D000186800F0CDFA0E4BC4F85C01089308A9E3
:1048E0004FF001033046ADF824300AF075FA48461F
:1048F000314606F02DF820460BB0BDE8F08F00BF22
:104900007C960208B89D0208189F0208A49E02081F
:1049100030930208C494020864960208B146000865
:1049200010350120DC890208DE8A0208598A020853
:1049300014350120A08A02081C35012070477047F9
:10494000704730B4C26844685510034604EB6200F7
:10495000D20748BF62599B6830BC48BFD35818473C
:104960000346406830B19A681AB9D86800F001006F
:1049700070470120704710B51021044620F042FA1C
:10498000204610BD10B54FF4AA71044620F03AFA43
:10499000204610BD38B500F1FC03994204460D468F
:1049A00007D10DF07BFAFEF783FF0DF077FAFEF7E3
:1049B0007FFFB434A54205D10DF070FABDE8384050
:1049C000FEF776BF38BD00002DE9F74F04460FF023
:1049D0008BFA514B2360514B0025C4E910354FF43D
:1049E000807304F16C09A4F86430FF2304F1B40867
:1049F00084F86630C4E91255C4E91455C4E9165563
:104A0000E5632566A56648460AF080FE04F1FC07CA
:104A100040460AF07BFE38460AF078FE404BC4E977
:104A20005134404B04F140062A46C4E95335294627
:104A30003046FFF768FA3046F021FDF747F9304677
:104A40004FF4A071FDF744F904F1040A4FF07F43DD
:104A5000A3663146504605F07BFF294648462B2287
:104A6000FFF751FA4FF0030B0223694601AA4846AB
:104A7000ADF80030ADF804B00AF0D8FB0922A4F874
:104A8000A4204FF0FF364846FFF708FD4946504640
:104A9000C4E92A6605F05CFF294640468722FFF7F5
:104AA00032FA0223694601AA4046ADF80030ADF85B
:104AB00004B00AF0BBFB0822A4F8EC20404604F541
:104AC000A279FFF7EBFC41465046C4E93C66C4F8C6
:104AD000DC9005F03DFF29463846DC22FFF713FA4B
:104AE00001AA694602233846ADF80030ADF804B09B
:104AF0000AF09CFB0723A4F834313846FFF7CEFCBC
:104B00005046C4E94E66C4F82491394605F020FFAA
:104B1000204603B0BDE8F08FC8960208B89D020891
:104B2000B0960208954900087047000030B5164D50
:104B30002C6814F001048FB0BFF35B8F21D128469D
:104B400020F062F9E8B13F230993104B0893104B12
:104B5000104911480A94CDE9064301220423CDE906
:104B60000332142300930322CDE90B44CDE9014421
:104B70000594FFF7F5F8094822F0A4F9284620F03B
:104B80004FF905480FB030BD2026002048B5020877
:104B90007CB502089CB3020824260020294B00089B
:104BA0007047000030B5164D2C6814F001048FB02A
:104BB000BFF35B8F20D1284620F026F9E0B13F23D8
:104BC0000993104B0893104B104911480A94012285
:104BD000CDE906430423CDE903320A230093CDE94E
:104BE0000B44CDE901440594FFF7BAF8094822F0D7
:104BF00069F9284620F014F905480FB030BD00BF10
:104C0000502600204CB5020880B50208C8B302083F
:104C100054260020A14B00087047000030B5174D06
:104C20002C6814F001048FB0BFF35B8F22D12846AB
:104C300020F0EAF8F0B13F230993114B0893114B90
:104C400007930123CDE9053304930423CDE90243FF
:104C500014230D49009319221823CDE90B440B4866
:104C60000A940194FFF77CF8094822F02BF92846B2
:104C700020F0D6F805480FB030BD00BF80260020D8
:104C800050B5020884B50208D8B302088426002073
:104C9000194C00087047000030B5164D2C6814F010
:104CA00001048FB0BFF35B8F20D1284620F0ACF811
:104CB000E0B13F230993104B0893104B1049114862
:104CC0000A940122CDE906430423CDE903322823C7
:104CD0000093CDE90B44CDE901440594FFF740F87A
:104CE000094822F0EFF8284620F09AF805480FB05E
:104CF00030BD00BFB026002078B5020888B5020894
:104D000038B50208B4260020954C000800207047F2
:104D1000002070470EB403B503AB002153F8042BF9
:104D200001930EF043F902B05DF804EB03B0704755
:104D30000CB407B504AB53F8042B01930EF036F90D
:104D400003B05DF804EB02B070470000436C10B58F
:104D5000044673B3038F2BB9184B194AC521194860
:104D600022F092F8C38E00EB43035B8C0BB30FF081
:104D7000F2FF238F012B03D8134B144ACB21EEE70C
:104D8000E28E531C9BB2092B194688BFA3F10A017E
:104D900004EB410140F63F10498C814209D10A2BB6
:104DA00004EB420228BF002304EB4303508C5884D9
:104DB00051842046BDE810400FF0D0BE298B020878
:104DC000328B0208DD8B0208278C0208358C020822
:104DD0000FF08BBE10B586B002AC84E806001A4610
:104DE0000AAB05930193099B00932146089B0CF0A5
:104DF000D7FB06B010BD000038B518BB124B1348E6
:104E00001C681349B4B122682244026062682244DB
:104E10000A60A26814440F4B00221A8000F038F890
:104E2000054600F033F80C4B1C600C4B1D600C4B1E
:104E3000188007E00B4B03600B4B0B600B4B1C689F
:104E4000002CE8D138BD00BFEC260020E42600206D
:104E5000E0260020E826002010350120183501202A
:104E600014350120BCB502088CB5020820B6020832
:104E7000044B1B6853F82100034B1B6803EB4000F5
:104E8000704700BFE0260020E42600200C20704779
:104E900000487047F026002010B5FFF7BFFE064C13
:104EA0002060FFF7F9FE6060FFF77CFEA060FFF76F
:104EB0003DFEE06010BD00BFF026002010B50024CC
:104EC00004600C6014601C6010BD704710B54FF496
:104ED000AE7104461FF096FF204610BD10B5044683
:104EE000D0F8580100F013F82046BDE810400DF04E
:104EF00057B8000010B50446FEF796FC014B23603E
:104F0000204610BDFC9602080022C2607047704720
:104F10000160704781607047006870478068704723
:104F2000704704387047704710B5102104461FF0D1
:104F300069FF204610BDA0F10400F5E70022826061
:104F4000024A026020324260C160704750970208F6
:104F500070472DE9F04F2DED028B044699B000F615
:104F6000F800FDF7FEF84D22014604A822F07DFA74
:104F700004AF00264FF00B0A04F5407802AD17F895
:104F8000019BB9F1000F3BD0B6FBFAF30AFB1362A9
:104F9000CDE90223D4F8F8320133C4F8F83223689B
:104FA0004946DB6A20469847D4F8E4B9DBF800307C
:104FB00095E806009B6D01934046FDF757F995E88B
:104FC00006004046B0EE408AFDF771F9BDEEC00A1A
:104FD000BDEEC88A10EE103A1AB218EE103A5846D2
:104FE00019B2019B984795E806004B464046FDF7ED
:104FF00000F995E80600D4F8E4394046FDF76EF96B
:1050000001364D2EBBD119B0BDEC028BBDE8F08F3F
:1050100010B5034B03600446FEF71BFF204610BD8E
:105020008097020810B50446FFF7F2FF204640F6CD
:1050300058211FF0E7FE204610BD000000000000D0
:1050400008B54FF4B47390FBF3F202FB130007EEC4
:10505000900AB8EEE77ADFED3C7AB4EEE77AF1EE4B
:1050600010FA04D5F6EE007A67EE877A0AE0DFEDF3
:10507000377AB4EEE77AF1EE10FA15D5F3EE0E7A40
:1050800077EE677A17EE900AFBF766FA2CA3D3E95E
:105090000023FBF7B9FA2E4B0022FBF7DFFBFBF7EF
:1050A00075FD00EE100A08BDDFED2A7AB4EEE77A4E
:1050B000F1EE10FA04D5DFED287A77EEC77AE1E752
:1050C000DFED267AB4EEE77AF1EE10FA04D577EE4A
:1050D000C77AB6EE007AC7E7DFED216AB4EEE67A6A
:1050E000F1EE10FA06D5DFED1F7AF6EE006AE7EE74
:1050F000667AC7E7DFED1C6AB4EEE67AF1EE10FAE5
:1051000002D5DFED1A7AD8E7DFED196AB4EEE67A58
:10511000F1EE10FA04D5F3EE0E7A77EE277AB1E7C6
:10512000DFED146AB4EEE67AF1EE10FA46BFF6EE61
:10513000006AE7EE267ADFED107AA3E7AFF300808E
:105140001F85EB51B81E0940000070420000B442B8
:10515000008066400000F042000016430000344327
:10516000000070430000E1430000874300800E44CC
:10517000000096430000B443000000008068FFF781
:10518000CBBE8068FFF7C6BE70B50446ADF5BF6DF7
:10519000FEF73AFF414B236004F54070FDF750F9EC
:1051A00004F6E81604F6F800FDF718F83046FCF7A8
:1051B00053FF4FF425756846FDF742F92A4601A9C9
:1051C00004F5417022F051F9A6A9A52204F5B360B7
:1051D00022F04BF92A46D0A904F5C86022F045F91F
:1051E000DDF8D435C4F8D438DDF8D835C4F8D8386B
:1051F000DDF8DC35C4F8DC38DDF8E035C4F8E0383B
:10520000DDF8E435C4F8E438DDF8E835C4F8E8380A
:10521000DDF8EC35C4F8EC38DDF8F035C4F8F038DA
:105220009DF8F43584F8F4380123002584F8D03251
:105230006423C4E9B553C4F8DC52C4F8E4596846A1
:10524000FCF70AFF69467022304622F00EF96846E4
:10525000FCF7C4FFE72201A904F6FC0022F005F9DF
:10526000D4F80C32C4F8E0320D4BC4F8E832002315
:10527000C4F8EC32C4F8F03244F62063C4F8F432D7
:105280001423201D84F8E452C4F8F852C4F8FC3208
:105290000DF0B6FF20460DF5BF6D70BD809702087A
:1052A0002CF985BF2DE9F041144DDFF858800446F4
:1052B00017461E462A460B4640460A2110F04AFC75
:1052C000C4F87C8204F50D70DFF83C800DF098FF87
:1052D0003B460B4F2A460A21404610F03BFC334622
:1052E0002A4638460A2110F035FCC4E9B28704F595
:1052F0002070BDE8F0410DF083BF00BF078D0208AC
:1053000000270020282700201427002070B504461D
:10531000FEF7A0FD236804F5347120465B6B9847C7
:105320002368E06BDD6B03681B6998472B460146D9
:105330002046BDE87040184713B50B78013B00F5D7
:105340000274032B0AD8DFE803F0020F11130923BC
:1053500001A92046ADF804300AF0A1F8204602B0B9
:10536000BDE810400DF04CBF0A23F1E70C23EFE736
:105370000B23EDE773B5054600F6E8100E46FCF783
:1053800073FE044618B3711E03290BD8DFE801F041
:105390000223272B03681B6E0922ADF8042001A904
:1053A00020469847B5F9E222B5F9E0122046FEF70B
:1053B000AAFD012384F82530FF2384F82830281D16
:1053C000214605F0C5FA236820465B699847C5F871
:1053D000E44902B070BD03680A221B6EDDE7036872
:1053E0000C221B6ED9E703680B221B6ED5E773B541
:1053F000054600F6E8100E46FCF736FE044620B3DC
:105400003378013B032B0BD8DFE803F00223272B73
:1054100003681B6E0922ADF8042001A920469847B5
:10542000B5F9E222B5F9E0122046FEF76CFD012342
:1054300084F82530FF2384F82830281D214605F004
:1054400087FA236820465B699847C5F8E44902B0AB
:1054500070BD03680A221B6EDDE703680C221B6E19
:10546000D9E703680B221B6ED5E72DE9F04FD0F882
:10547000E46900F540750446B6F9060007EE900AA7
:105480002DED028BF8EEE77AADF5077D17EE900A69
:10549000FBF762F841EC180BB6F9040007EE900A2E
:1054A000F8EEE77A402617EE900AFBF755F8B0EED3
:1054B000481AF0EE681A41EC100B294602A8FCF7D6
:1054C00027FF06AB98460022013EC3E9002203F104
:1054D0000803F9D1402300939DF80C209DF8081093
:1054E00043462846FCF7F0FFD4F8F832022803F1CF
:1054F00001038246C4F8F83233DD0DF11009B346DA
:1055000008EBC60393E8030089E80300284699E8FE
:105510000600FCF7F1FE0746A0B1036880F828B04A
:105520005B6980F825B09847394604F6E810FCF727
:10553000B1FDD4F8F832013BC4F8F8323946201DE9
:1055400005F047FA99E8060000232846FCF751FECB
:10555000013699E8060000232846FCF7BFFEB24555
:10556000CEDC2846FCF78CFF04AF41462846FDF709
:10557000A9F84FF000098246CB46D14516DB94F8D6
:10558000F438002BF1D0D4F8DC3203F003030133FC
:1055900084F8D032236804F534715B6B2046984759
:1055A0000DF5077DBDEC028BBDE8F08F08EBC9035C
:1055B00093E8030087E80300284697E80600FCF715
:1055C0009BFE0646A0B1036880F828B05B6980F8AE
:1055D00025B09847314604F6E810FCF75BFDD4F897
:1055E000F832013BC4F8F8323146201D05F0F1F9DC
:1055F00097E8060000232846FCF7FBFD97E8060025
:1056000000232846FCF76AFE09F10109B5E700000E
:105610002DE9F04FD0F8F4122DED088B00298BB056
:10562000044603DDD0F8F832132B0BDD0021C4F85B
:10563000F412E06B03685B6998470CF02FFCFEF7EF
:1056400047F901E0002BF4D0D4F8D4020130C4F8BB
:10565000D402FFF7F5FCD4F8F412236801391D6C6D
:10566000C4F8F4122046D4E9BE23B0EE409AA8470D
:10567000AF4D286803F010FA90B34FF0FF3328685D
:10568000002208A903F0D8F99DF82030542B27D127
:1056900094F8E46226BBD4F8D432C4F8DC32236830
:1056A00004F534751B6B294620469847236884F817
:1056B00030625B6B294620469847D4F8E409B4F978
:1056C000E2220368B4F9E0129B6D9847012384F845
:1056D000E4320023C4F8EC32C4F8F03284EDBA9A14
:1056E00094F8E432002B00F06C81D4F8E439D4F85B
:1056F000E802B3F90420B3F9063008EE102A08EEE8
:10570000903AFAF729FF86A3D3E90023FBF70CFAB6
:10571000F8EEE88A0028F3EE047AB8EEC88A18EEAC
:10572000900ABBEE04BA08BFB0EE67BA78EEE79A0B
:10573000FAF712FF7BEE087A41EC1A0B17EE900A8B
:10574000FAF70AFFB0EE4A1AF0EE6A1A04F540754D
:1057500002AF41EC100B29463846FCF7D9FD18EE94
:10576000100AFAF7F9FE41EC180B19EE900AFAF755
:10577000F3FEB0EE480AF0EE680A0DF1100A41ECB3
:10578000110BDDF808802946504606AEFCF7C0FD37
:10579000B0EE4A1AF0EE6A1AB0EE480AF0EE680A65
:1057A00029463046FCF7B4FDB8F1FF3FDDF81CB0E8
:1057B0006ED1D4F8E802FAF7CFFE59A3D3E900235B
:1057C00080468946FBF7B0F950B142464B4656A198
:1057D000D1E90001FAF760FDFBF7D8F9C4F8E80257
:1057E000D4F8E802FAF7B8FE41EC180BB0EE480A1C
:1057F000F0EE680A1FF084FB8DED000BB0EE480A56
:10580000F0EE680A1FF028FBDDE9000159EC108B6F
:10581000FBF7BCF9D4EDBB8A07EE900AF1EE089ACB
:10582000E7EEA98A40464946C4EDBB8AFBF7AEF9CC
:1058300094EDBC8A059B07EE900AA7EEE98A013336
:1058400084EDBC8A33D196E806002846FCF7F2FCCA
:1058500000286FD1D4F8E4793B6896E80600284622
:10586000D3F85880FCF702FD96E806002846B0EE13
:10587000408AFCF71CFDBDEEC00ABDEEC88A10EEE2
:10588000103A1AB218EE103A384619B2C0477CE006
:10589000B8F10B0FA4D1D4F8E802FAF75DFE20A30B
:1058A000D3E9002380468946FBF720F98CE797E887
:1058B00006002846FCF7BEFC0028C4D19AE8060082
:1058C0002846FCF7B7FC0028BDD1FDEEE88ABDEE06
:1058D000C88A18EE903A18EE102A134371D0D4F803
:1058E000E40918EE901A036812B25B6D09B298478A
:1058F000D4F8E40903685B699847D4EDBB7AF8EE05
:10590000E88AB8EEC88A77EEE87AC4EDBB7AD4EDBF
:10591000BC7A77EEC87AC4EDBC7A52E0AFF300806F
:105920001F85EB51B81E09401F85EB51B81E194069
:10593000F02300209AE806002846FCF77BFC80460E
:10594000002851D1D4F8E4793B6896E8060028464F
:10595000D3F85890FCF78AFC0BF101030993CDF8BA
:1059600020800AAB13E906002846B0EE408AFCF717
:105970009EFCBDEEC00ABDEEC88A10EE103A1AB207
:1059800018EE103A384619B2C84796E8060094F85F
:10599000D0322846FCF72DFC96E80600D4F8E4390E
:1059A0002846FCF79BFC236820469B6B9847FF2307
:1059B00084F8303204F502700DF022FC002384F8E4
:1059C000E43204F5BC752846D4ED6C0A94ED6B0AFC
:1059D000B0EE491A08F0C9F828460BB0BDEC088BA8
:1059E000BDE8F04F0DF00CBC97E806002846FCF728
:1059F00021FC07460028C8D1D4F8E802FAF7ACFD2C
:105A000015A3D3E90023FBF78FF8D4F8E489002825
:105A1000D8F8002014BF01234FF0FF335B44D2F8C5
:105A20005890099308970AAB13E906002846FCF73B
:105A30001DFC96E806002846B0EE408AFCF737FCCD
:105A4000BDEEC00ABDEEC88A10EE103A1AB218EECA
:105A5000103A404619B297E71F85EB51B81E09402E
:105A6000704704387047704710B5102104461FF086
:105A7000C9F9204610BDA0F10400F5E700228260BC
:105A8000024A026018324260C1607047CC97020837
:105A90007047000010B5034B03600446FEF7C9FCD5
:105AA000204610BDF497020810B50446FFF7F2FF38
:105AB0002046F0211FF0A6F9204610BD13B50B4C6F
:105AC000206802F0E9FF78B14FF0FF332068002230
:105AD0000DF1070102F0B0FF9DF80730542B03D100
