:020000040800F2
:1000000000000320F90F0008DD2D0008DF2D000897
:10001000E12D0008E32D0008E52D00080000000098
:100020000000000000000000000000005171000806
:10003000E72D000800000000E1710008616A000877
:10004000491000084910000849100008491000082C
:10005000491000084910000849100008491000081C
:10006000491000084910000849100008491000080C
:1000700049100008491000084910000849100008FC
:1000800049100008491000084910000849100008EC
:1000900049100008491000084910000849100008DC
:1000A00049100008491000084910000849100008CC
:1000B00049100008491000084910000849100008BC
:1000C00049100008491000084910000849100008AC
:1000D000491000084910000849100008491000089C
:1000E000491000084910000849100008491000088C
:1000F000491000084910000849100008491000087C
:10010000491000084910000849100008491000086B
:100110004910000849100008E92D0008491000089E
:10012000491000084910000849100008491000084B
:10013000491000084910000849100008491000083B
:10014000491000084910000849100008491000082B
:10015000491000084910000849100008491000081B
:10016000491000084910000849100008491000080B
:10017000491000084910000849100008000000005C
:1001800049100008491000084910000849100008EB
:1001900049100008491000084910000849100008DB
:0C01A000F52D000849100008012E000891
:1001B00010B5054C237833B9044B13B10448AFF3A1
:1001C00000800123237010BD800300200000000088
:1001D0006443020808B5034B1BB103490348AFF35E
:1001E000008008BD00000000840300206443020872
:1001F00001F0FF01102A2BDB10F0070F08D010F8D8
:10020000013B013A8B422DD010F0070F42B3F6D1DB
:10021000F0B441EA012141EA014122F007047FF0F4
:1002200000070023F0E80256083C85EA010586EA4B
:10023000010685FA47F5A3FA87F586FA47F6A5FA87
:1002400087F68EB9EED1F0BC01F0FF0102F0070293
:1002500032B110F8013B013A83EA010313B1F8D13E
:100260000020704701387047002D06BF354603381F
:10027000073815F0010F07D1013015F4807F02BF58
:10028000013015F4C03F0130F0BC0138704700BFA9
:1002900081F0004102E000BF83F0004330B54FEA37
:1002A00041044FEA430594EA050F08BF90EA020FA4
:1002B0001FBF54EA000C55EA020C7FEA645C7FEA37
:1002C000655C00F0E2804FEA5454D4EB5555B8BF5A
:1002D0006D420CDD2C4480EA020281EA030382EACB
:1002E000000083EA010180EA020281EA0303362D5D
:1002F00088BF30BD11F0004F4FEA01314FF4801C30
:100300004CEA113102D0404261EB410113F0004F41
:100310004FEA03334CEA133302D0524263EB4303F8
:1003200094EA050F00F0A780A4F10104D5F1200E96
:100330000DDB02FA0EFC22FA05F2801841F10001F1
:1003400003FA0EF2801843FA05F359410EE0A5F1C5
:1003500020050EF1200E012A03FA0EFC28BF4CF0F6
:10036000020C43FA05F3C01851EBE37101F00045AC
:1003700007D54FF0000EDCF1000C7EEB00006EEBB9
:100380000101B1F5801F1BD3B1F5001F0CD3490843
:100390005FEA30004FEA3C0C04F101044FEA44529A
:1003A00012F5800F80F09A80BCF1004F08BF5FEA21
:1003B000500C50F1000041EB045141EA050130BD01
:1003C0005FEA4C0C404141EB0101013C28BFB1F513
:1003D000801FE9D291F0000F04BF01460020B1FA5E
:1003E00081F308BF2033A3F10B03B3F120020CDA31
:1003F0000C3208DD02F1140CC2F10C0201FA0CF00F
:1004000021FA02F10CE002F11402D8BFC2F1200C73
:1004100001FA02F120FA0CFCDCBF41EA0C01904029
:10042000E41AA2BF01EB0451294330BD6FEA040472
:100430001F3C1CDA0C340EDC04F11404C4F120025D
:1004400020FA04F001FA02F340EA030021FA04F36F
:1004500045EA030130BDC4F10C04C4F1200220FAC6
:1004600002F001FA04F340EA0300294630BD21FA04
:1004700004F0294630BD94F0000F83F4801306BFCA
:1004800081F480110134013D4EE77FEA645C18BFBE
:100490007FEA655C29D094EA050F08BF90EA020F55
:1004A00005D054EA000C04BF1946104630BD91EA4D
:1004B000030F1EBF0021002030BD5FEA545C05D150
:1004C0004000494128BF41F0004130BD14F580048F
:1004D0003CBF01F5801130BD01F0004545F0FE4103
:1004E00041F470014FF0000030BD7FEA645C1ABF38
:1004F000194610467FEA655C1CBF0B46024650EA6F
:10050000013406BF52EA033591EA030F41F400219A
:1005100030BD00BF90F0000F04BF0021704730B520
:100520004FF4806404F132044FF000054FF00001F5
:1005300050E700BF90F0000F04BF0021704730B5B6
:100540004FF4806404F1320410F0004548BF40428B
:100550004FF000013EE700BF42004FEAE2014FEAE0
:1005600031014FEA02701FBF12F07F4393F07F4FBB
:1005700081F06051704732F07F4208BF704793F0BE
:100580007F4F04BF41F40021704730B54FF46074D1
:1005900001F0004521F000411CE700BF50EA0102D4
:1005A00008BF704730B54FF000050AE050EA01027D
:1005B00008BF704730B511F0004502D5404261EBED
:1005C00041014FF4806404F132045FEA915C3FF42E
:1005D000D8AE4FF003025FEADC0C18BF03325FEACB
:1005E000DC0C18BF033202EBDC02C2F1200300FA7C
:1005F00003FC20FA02F001FA03FE40EA0E0021FAA1
:1006000002F11444BDE600BF70B54FF0FF0C4CF48E
:10061000E06C1CEA11541DBF1CEA135594EA0C0F40
:1006200095EA0C0F00F0DEF82C4481EA030621EA7B
:100630004C5123EA4C5350EA013518BF52EA0335B6
:1006400041F4801143F4801338D0A0FB02CE4FF068
:100650000005E1FB02E506F00042E0FB03E54FF098
:100660000006E1FB03569CF0000F18BF4EF0010E90
:10067000A4F1FF04B6F5007F64F5407404D25FEA8C
:100680004E0E6D4146EB060642EAC62141EA55513F
:100690004FEAC52040EA5E504FEACE2EB4F1FD0C81
:1006A00088BFBCF5E06F1ED8BEF1004F08BF5FEAFF
:1006B000500E50F1000041EB045170BD06F00046B1
:1006C00046EA010140EA020081EA0301B4EB5C045E
:1006D000C2BFD4EB0C0541EA045170BD41F4801156
:1006E0004FF0000E013C00F3AB8014F1360FDEBF7B
:1006F000002001F0004170BDC4F10004203C35DA57
:100700000C341BDC04F11404C4F1200500FA05F3D9
:1007100020FA04F001FA05F240EA020001F000427A
:1007200021F0004110EBD37021FA04F642EB0601F0
:100730005EEA430E08BF20EAD37070BDC4F10C041A
:10074000C4F1200500FA04F320FA05F001FA04F2DE
:1007500040EA020001F0004110EBD37041F10001CA
:100760005EEA430E08BF20EAD37070BDC4F12005D5
:1007700000FA05F24EEA020E20FA04F301FA05F23D
:1007800043EA020321FA04F001F0004121FA04F2E5
:1007900020EA020000EBD3705EEA430E08BF20EAB5
:1007A000D37070BD94F0000F0FD101F000464000EF
:1007B00041EB010111F4801F08BF013CF7D041EA71
:1007C000060195F0000F18BF704703F00046520075
:1007D00043EB030313F4801F08BF013DF7D043EA46
:1007E0000603704794EA0C0F0CEA135518BF95EAFC
:1007F0000C0F0CD050EA410618BF52EA4306D1D183
:1008000081EA030101F000414FF0000070BD50EAA1
:10081000410606BF1046194652EA430619D094EA2B
:100820000C0F02D150EA013613D195EA0C0F05D115
:1008300052EA03361CBF104619460AD181EA030169
:1008400001F0004141F0FE4141F470014FF0000021
:1008500070BD41F0FE4141F4780170BD70B54FF0BC
:10086000FF0C4CF4E06C1CEA11541DBF1CEA13553C
:1008700094EA0C0F95EA0C0F00F0A7F8A4EB05041E
:1008800081EA030E52EA03354FEA013100F0888015
:100890004FEA03334FF0805545EA131343EA1263DE
:1008A0004FEA022245EA111545EA10654FEA002693
:1008B0000EF000419D4208BF964244F1FD0404F54C
:1008C000407402D25B084FEA3202B61A65EB0305A8
:1008D0005B084FEA32024FF480104FF4002CB6EB65
:1008E000020E75EB030E22BFB61A754640EA0C00E5
:1008F0005B084FEA3202B6EB020E75EB030E22BF25
:10090000B61A754640EA5C005B084FEA3202B6EB65
:10091000020E75EB030E22BFB61A754640EA9C0024
:100920005B084FEA3202B6EB020E75EB030E22BFF4
:10093000B61A754640EADC0055EA060E18D04FEAB2
:10094000051545EA16754FEA06164FEAC30343EA52
:1009500052734FEAC2025FEA1C1CC0D111F4801F1F
:100960000BD141EA00014FF000004FF0004CB6E718
:1009700011F4801F04BF01430020B4F1FD0C88BFB7
:10098000BCF5E06F3FF6AFAEB5EB030C04BFB6EBC2
:10099000020C5FEA500C50F1000041EB045170BDB5
:1009A0000EF0004E4EEA113114EB5C04C2BFD4EBE2
:1009B0000C0541EA045170BD41F480114FF0000E66
:1009C000013C90E645EA060E8DE60CEA135594EAE2
:1009D0000C0F08BF95EA0C0F3FF43BAF94EA0C0FE5
:1009E0000AD150EA01347FF434AF95EA0C0F7FF45A
:1009F00025AF104619462CE795EA0C0F06D152EAAE
:100A000003353FF4FDAE1046194622E750EA410691
:100A100018BF52EA43067FF4C5AE50EA41047FF4A2
:100A20000DAF52EA43057FF4EBAE12E74FF0FF3C07
:100A300006E000BF4FF0010C02E000BF4FF0010CD8
:100A40004DF804CD4FEA410C7FEA6C5C4FEA430C51
:100A500018BF7FEA6C5C1BD001B050EA410C0CBFA0
:100A600052EA430C91EA030F02BF90EA020F002002
:100A7000704710F1000F91EA030F58BF994208BF69
:100A800090422CBFD8176FEAE37040F00100704726
:100A90004FEA410C7FEA6C5C02D150EA013C07D17D
:100AA0004FEA430C7FEA6C5CD6D152EA033CD3D0C8
:100AB0005DF8040B704700BF8446104662468C46C2
:100AC0001946634600E000BF01B5FFF7B7FF0028F5
:100AD00048BF10F1000F01BD4DF808EDFFF7F4FF1E
:100AE0000CBF012000205DF808FB00BF4DF808EDA9
:100AF000FFF7EAFF34BF012000205DF808FB00BFCC
:100B00004DF808EDFFF7E0FF94BF012000205DF8ED
:100B100008FB00BF4DF808EDFFF7CEFF94BF0120A2
:100B200000205DF808FB00BF4DF808EDFFF7C4FF9B
:100B300034BF012000205DF808FB00BF4FEA4102EE
:100B400012F5001215D211D56FF47873B3EB62521F
:100B500012D94FEAC12343F0004343EA505311F046
:100B6000004F23FA02F018BF404270474FF00000D8
:100B7000704750EA013005D111F0004008BF6FF016
:100B8000004070474FF00000704700BF4FEA41023D
:100B9000B2F1E04324BFB3F5001CDCF1FE5C0DD9DB
:100BA00001F0004C4FEAC0024CEA5070B2F1004F25
:100BB00040EB830008BF20F00100704711F0804F28
:100BC00021D113F13872BCBF01F00040704741F4ED
:100BD00080114FEA5252C2F11802C2F1200C10FAF1
:100BE0000CF320FA02F018BF40F001004FEAC123D5
:100BF0004FEAD32303FA0CFC40EA0C0023FA02F379
:100C00004FEA4303CCE77FEA625307D150EA01334E
:100C10001EBF4FF0FE4040F44000704701F000401E
:100C200040F0FE4040F40000704700BF7BB972B94D
:100C30000029BEBF00204FF0004106E008BF002899
:100C40001CBF6FF000414FF0FF3000F0D3B9ADF1A1
:100C5000080C6DE904CE002909DB002B1ADB00F03B
:100C60004DF8DDF804E0DDE9022304B070474042AE
:100C700061EB4101002B1BDB00F040F8DDF804E0E4
:100C8000DDE9022304B0404261EB4101524263EBD3
:100C900043037047524263EB430300F02FF8DDF843
:100CA00004E0DDE9022304B0404261EB41017047FA
:100CB000524263EB430300F021F8DDF804E0DDE984
:100CC000022304B0524263EB4303704753B94AB95D
:100CD000002908BF00281CBF4FF0FF314FF0FF3044
:100CE00000F088B9ADF1080C6DE904CE00F006F80B
:100CF000DDF804E0DDE9022304B070472DE9F04798
:100D0000089D8E4604468846002B4AD18A421746E3
:100D100062D9B2FA82F64EB1C6F1200301FA06F8A2
:100D200020FA03F3B74043EA0808B4404FEA174EED
:100D30001FFA87FCB8FBFEF1230C0EFB118843EA77
:100D4000084301FB0CF29A4209D9FB1801F1FF306C
:100D500080F0EA809A4240F2E78002393B449A1AD6
:100D6000A3B2B2FBFEF00EFB102243EA024300FBEB
:100D70000CFC9C4509D9FB1800F1FF3280F0D680AD
:100D80009C4540F2D3803B44023840EA0140A3EB4B
:100D90000C0300211DB1F3400022C5E90032BDE87B
:100DA000F0878B4205D90DB1C5E900010021084645
:100DB000F5E7B3FA83F1002946D1734502D38242A5
:100DC00000F20581841A6EEB030201209046002D8B
:100DD000E5D0C5E90048E2E7002A00F09080B2FAC9
:100DE00082F6002E40F0A4808A1A030C4FEA174EB8
:100DF00080B2BCB20121B2FBFEFC0EFB1C2243EA16
:100E0000024304FB0CF29A4207D9FB180CF1FF389D
:100E100002D29A4200F2E080C4469B1AB3FBFEF273
:100E20000EFB123340EA034302FB04F49C4207D951
:100E3000FB1802F1FF3002D29C4200F2CA80024647
:100E40001B1B42EA0C40A5E7C1F120068B4022FAA9
:100E500006F71F430EFA01F420FA06F32EFA06FEF7
:100E60004FEA1749234300FA01F81FFA87FCBEFB3B
:100E7000F9F01C0C09FB10EE44EA0E4400FB0CFEDA
:100E8000A64502FA01F209D93C1900F1FF3A80F0B7
:100E90009C80A64540F2998002383C44A4EB0E04A5
:100EA0001FFA83FEB4FBF9F309FB13444EEA044432
:100EB00003FB0CFCA44508D93C1903F1FF3E80F06C
:100EC0008280A4457FD9023B3C4443EA0040A4EB26
:100ED0000C04A0FB02EC64457346E14662D35FD08C
:100EE0005DB1B8EB030264EB090404FA06F622FADA
:100EF00001F31E43CC40C5E9006400214FE7B1FB7C
:100F0000F2FC010C41EA0E4180B240EA01423B464C
:100F100038463C46B846BE462026B1FBF7F1A2EB68
:100F2000080241EA0C4166E7014618E710462CE743
:100F3000C6F120022EFA02F3B740B14020FA02F2C5
:100F40004FEA174E0A43B3FBFEF8BCB20EFB183350
:100F5000110C41EA034108FB04F9B04089454FEA0E
:100F6000104380B23ED9791808F1FF3C01D289457F
:100F70001FD8A1EB0901B1FBFEF909FB04F80EFB38
:100F8000191192B242EA0142424529D2BA1809F136
:100F9000FF31C4D24245C2D2A9F102013A44BEE7B0
:100FA000F0459DD2BEEB02036CEB070C0138E14625
:100FB00096E7A7EB09094944A8F1020CB1FBFEF939
:100FC00009FB04F8DBE773467FE7504666E708460F
:100FD000FDE63B44023A33E7ACF1020C3B441CE72C
:100FE00049469CE7A1EB0901C446B1FBFEF909FBA8
:100FF00004F8C4E7704700BFDFF834D0002103E0F5
:101000000C4B5B58435004310B480C4B42189A422E
:10101000F6D30B4A02E0002342F8043B094B9A4204
:10102000F9D303F09FFA22F02FFC01F073F9704717
:10103000000003204C240E08000000206401002062
:101040008003002020380120FEE7704708B500F03B
:10105000BBFDBDE8084000F03FBD00F0B7BD7047E4
:1010600010B50421044620F022F9204610BD0000EE
:1010700038B50C4B0C4C18800C4B822019806368DF
:10108000984740F6110398420AD1094D23682C6015
:10109000822098472B688220DB689847002038BD63
:1010A0000120FCE7A60300204C000020A403002040
:1010B000A80300204FF4A071F020FFF7D9BF000073
:1010C000F7B5394D2B6804461B698220984720806C
:1010D00000284ED02B680DF106025B6901A9822021
:1010E0009847324B1B78002B4BD0BDF8062040F6BA
:1010F00074639A423FD9ADF80630BDF806209B1ABA
:101100009BB20A2B42D90B22B3FBF2F3284A128876
:10111000934201D9013A93B2BDF80420254840F624
:10112000B8318A4234D8C2F571620E32016892B287
:101130000F25B2FBF5F2204D2D88AA4284BF05F1A0
:10114000FF35AAB28A4215468EB22AD9921B91B2B5
:101150001A4E3768BB42BAB28CBF9A1AD21A92B2F0
:1011600011440529C4BF0560336003686380336898
:10117000A38003B0F0BDB32A9CBFB422ADF8062013
:10118000BBE7BDF80630A3F5B473B9E70023C3E7A6
:10119000C2F56D62083292B20E2A0168C8D80025E5
:1011A0002A46891A89B2D3E7A80300206C1A0020C6
:1011B000A4030020A0030020A60300209C0300201D
:1011C00037B568460D461446FFF77AFFBDF80000B4
:1011D00030B1BDF802302B60BDF80430236001202F
:1011E00003B030BD032821D8DFE800F0020B12194C
:1011F0000F4B1A68B2FA82F2520904210D4803F02B
:1012000045BC0B4B5A68B2FA82F252090821F5E745
:10121000074B9A68B2FA82F252091021EEE7044BAA
:10122000DA68B2FA82F252092021E7E7704700BF7C
:10123000AC03002000100240032821D8DFE800F0B2
:10124000020B12190F4B1A68003A18BF0122042131
:101250000D4803F01BBC0B4B5A68003A18BF012223
:101260000821F5E7074B9A68003A18BF01221021C0
:10127000EEE7044BDA68003A18BF01222021E7E7C5
:10128000704700BFAC0300200010024003280DD8B7
:10129000DFE800F00206080A0421054803F0FBBB62
:1012A0000821FAE71021F8E72021F6E7704700BF90
:1012B0000010024008B5032811D8DFE800F0020A48
:1012C0000C0E0421074803F0DBFB431E5842584133
:1012D00008BD0821F6E71021F4E72021F2E70020FD
:1012E000F3E700BF0010024070B5084D002401264E
:1012F000E0B2FFF7DFFF18B12B68012B18BF2E609B
:101300000134052C05F10405F2D170BDAC030020B9
:10131000012380F8781080F87930704770470020FA
:1013200070470000034B4164003918BF0121197058
:10133000704700BFDF2A0120704700207047836B91
:101340000BB10846184770474FF6FF70704740686A
:1013500003689B691847704770477047704770472C
:1013600010B5044600F048FD23680349D3F89030D7
:101370002046BDE810401847000000D008B50368BB
:101380000446D3F88430984723682046DB6F98479B
:1013900000F0ECF8236820465B6F9847292001F0A5
:1013A0003DFA00F0E3F8236820465B6F9847F8E7C2
:1013B00010B5044608F0E4FC23682046D3F8BC309E
:1013C000BDE81040184700F0FBBC00F0FFBC00F087
:1013D00031BD00F0D1BC00F041BD00F049BD00F0CE
:1013E000D5BC07F0FBBE10B5842104461FF05FFF9B
:1013F000204610BD10B590F8341090F878400C4B92
:101400008C421A7809D03AB90A4A0B4914880888DC
:1014100010800C8001221A7010BD002AFCD0054AF1
:1014200005491488088810800C800022F3E700BF6B
:10143000D82A0120D42A0120D62A012070B50D46D1
:10144000194635B9094B0A4A0A4840F2FF2121F0F2
:101450006BFFC0E90F52084B003A18BF01221A7007
:101460000368BDE87040D3F890301847D8430208AD
:10147000104402085E440208DE2A012008B5094B28
:101480001B888B4203D8084B1B88934205D9074B16
:10149000074A0848A32121F047FF074B1980074B53
:1014A0001A8008BDD42A0120D62A0120A3440208AC
:1014B000064502085E440208DA2A0120DC2A0120DF
:1014C000034690F87A0018B1586803681B681847FB
:1014D00070470000012108B50022084605F04AFBCC
:1014E0000A4B186028B90A4B0A4A28210A4821F0F9
:1014F0001BFF00220421012005F0E4FB074B1860CC
:1015000018B9074B034A2C21F0E708BDC00300209F
:101510004945020892450208C1450208BC03002063
:101520001D460208024B4FF0FF31186805F06CBBF6
:10153000C0030020014B186805F092BBC0030020D7
:10154000024B0021186805F05FBB00BFC0030020FC
:10155000FFF7F0BF03480449006800231A4605F06E
:10156000ECBB00BFBC0300200400002013B5084CF6
:1015700000231A4601A9206805F010FC20684FF0EE
:10158000FF33002201A905F009FC02B010BD00BF25
:10159000BC03002003685B6C184701207047036898
:1015A0009B6A1847FEE740F2EF307047054B036037
:1015B000054B4FF08062C3F88820BFF34F8FBFF315
:1015C0006F8F7047184F020800E100E010B5044625
:1015D0004FF45A61FFF7EAFF20461FF068FE2046ED
:1015E00010BD000082B0002301930E4B1A6B42F431
:1015F00000021A631A6B02F400020192019A1A693E
:1016000042F400021A611A6922F400021A61064BC0
:10161000064A1A61064A5A61064B4FF080629A6088
:1016200002B0704700380240001C002085180008F6
:10163000A515000800E100E008B50A2809D8DFE890
:1016400000F006100E080808081010101000022004
:1016500008BD054B054A0648902121F065FE002093
:10166000F6E70120F4E700BF5F4602087A46020869
:10167000C546020838B50C46887FFFF7DDFFA58A0E
:10168000E28A164B2169586342EA05425A64628B2A
:10169000D963521B1A642568082D0ED19A611A610C
:1016A0005862207F0E4A42EA0062DA61E2681A62FA
:1016B0000C4A5961D9601A6038BD0022D8611A619C
:1016C000E1680A0A480902F4784200F4FC60024327
:1016D000C1F3C4010A439A63034AECE700B0024035
:1016E00009000100012302000123030008B50B28B3
:1016F0000BD8DFE800F00612100A0A0A0A080808E8
:101700000808022008BD0520FCE7054B054A0648ED
:101710006F2121F009FE0020F4E70120F2E700BF6D
:101720005F4602081F470208C54602082DE9F0413E
:1017300091F81D800C464046FFF7D8FFA77F05466D
:101740003846FFF7D3FF06463846FFF775FFA18AF4
:10175000628B444B521A1A649A61228B521A1A6194
:10176000E28A586342EA01425A6421696268D96395
:10177000DA602068802828D0227F0FD8202867D000
:10178000402865D004281AD0364B45EA026545F456
:101790000035B845DD6161D0334A44E0B0F5807F63
:1017A00004D0B0F5007FEFD1304800E0304840EA87
:1017B0000262DA61E2681A625E62596132E045EA09
:1017C000026242F40032DA61F6E7A068021DDA62D2
:1017D000227F45EA026545F40035DD615E625961AC
:1017E000017841B1012921D0224B234A23484FF4EB
:1017F0008D7121F099FDDA69418822F47F42013927
:1018000022F0100242EA0122DA610121154BDA6965
:1018100042F02002DA61DA699206FCD410229A6062
:101820000029B9D0164A1A60BDE8F081B2F1FF0173
:10183000DA69408822F47F4200F1FF3022F0100282
:1018400042EA002242F0100218BF0121DA61DDE70E
:1018500045EA0262034B42F40032B4E742F201323D
:10186000E1E700BF00B002400123010009000200CF
:101870000A0002006947020883470208C5460208B9
:1018800001230200024B1B68586803685B69184714
:10189000E02A012070B5044625460A4B0C3000268C
:1018A00060602672667245F8203B6022294608F087
:1018B000BDFB04F55A63EE6024359D42FBD1204602
:1018C00070BD00BF184F0208034B1A68D207FCD442
:1018D00023229A60704700BF00B0024070470000AA
:1018E00030B50F4C2568ED07FCD423250904A5600D
:1018F00041F001010225FF2B65636164E0630AD0BA
:101900000849656241EA0363E361074B2262606153
:10191000E060236030BDE561039BA363034BF8E700
:1019200000B00240090001000100020001000300B4
:1019300030B50E4C2568ED07FCD423251204A560B4
:1019400042F001020225FF2B65636264E063E160FF
:1019500008D01B0643F00213E361054B656260612A
:10196000236030BD034BE3610123F9E700B002407F
:1019700001000200020002FF30B50B4C2568ED07A4
:10198000FCD4232512041B06A56043F40033022572
:1019900042F0010265636264E063E160E361034B6E
:1019A00065626061236030BD00B00240010002004A
:1019B000012070470C2070470C2303FB0100083006
:1019C00070470C2303FB010008307047012070476B
:1019D00040F25C50704740F25C5303FB010008305A
:1019E000704740F25C5303FB010008307047012050
:1019F00070471020704700EB01100830704700EB73
:101A0000011008307047084601F0F6BB10B5034BD3
:101A10000360044607F037F9204610BDD04F020896
:101A200010B50446FFF7F2FF204614211FF03FFCDB
:101A3000204610BD10B5034B0360044607F023F9A0
:101A4000204610BD9C4F020810B50446FFF7F2FF78
:101A5000204640F264511FF02AFC204610BD0000D1
:101A600010B5034B0360044607F00DF9204610BD86
:101A7000684F020810B50446FFF7F2FF2046182110
:101A80001FF015FC204610BD10B5084B036004463E
:101A900000F5B260FFF7BAFF04F12C00FFF7CAFFB0
:101AA00004F11400FFF7DCFF204610BD04500208CB
:101AB00008B50248FFF7E8FF08BD00BF9C120020F0
:101AC00010B50446FFF7E0FF204640F204711FF016
:101AD000EEFB204610BD00002DE9F34101F00AFAAB
:101AE000054601F00BFA002401462346284622460B
:101AF000009410F049FB274B274A1A60204601F05A
:101B0000A7FF264D264B274A27489A6010F0A4FAD3
:101B10002B68BFF35B8FDB0735D428461FF0C9FB6A
:101B200088B3224C224B236004F5B56604F11400FF
:101B300004F12C0804F5B2676060C4F80880E7601F
:101B4000266107F0A1F81B4B6361404607F09CF843
:101B5000194BE362384607F097F8184BC4F89035F4
:101B600004F2A45001F0EEFF224604F2A4513046E4
:101B700001F0DEFF304601F03FFB114821F0F2FB9F
:101B800028461FF0A2FB0F4802B0BDE8F041FFF766
:101B9000E7BB00BF442B012048040020981200201E
:101BA000680400204C040020080000209C12002043
:101BB00004500208684F02089C4F0208D04F0208E8
:101BC000B11A0008C4030020704700000148FFF765
:101BD000D5BB00BFC403002070B5264E264C274D50
:101BE000274B23603046FFF755FE284615F0D2FB01
:101BF00024480EF043FA244B2448DC6000224FF4C2
:101C00008071C3E9121222491A86C3E91A122149C6
:101C100083F85820C3E91E011F49C3F880101F49EB
:101C20001F480B60F021C3E90422C3E90622C3E97F
:101C30000822C3E90A22C3E90E22C3E91022C3E93C
:101C40001422C3E917225A6683F870205A67C3E941
:101C5000016501801348018013484FF4A071018091
:101C60001248018012490A70012283F83420114A77
:101C70001A6070BDF4040020941200206804002053
:101C8000C84302084C040020C403002000000101E6
:101C900001000001000450001A001400E02A012095
:101CA000D42A0120DA2A0120D62A0120DC2A0120A8
:101CB000D82A01202C4E02080148FFF777BC00BF4C
:101CC000F40400200020704781807047C180704775
:101CD0000181704741817047704770477047704776
:101CE000704710B4C4880368121B84885B6D091B9D
:101CF00012B25DF8044B09B218474FF6FF738381A7
:101D00004FF0FF3303621368C36110607047002017
:101D100070478B88838001207047704780F82610B9
:101D2000704790F82600704710B50022B1F90840BE
:101D3000B1F90A10028042808480C18010BD002267
:101D4000028042808280C28070470177704780EDB8
:101D5000080A704780F82410704780F825107047F3
:101D600001207047983070478C307047843070473E
:101D70007047704770470000034B902283F85A2346
:101D800083F85823704700BF00E100E0094A0A4980
:101D9000D3680A48C3F30A03013B9BB20B80116965
:101DA000C1F30A01013901801364536B43F001034D
:101DB0005363704700680140A2190020A019002059
:101DC000014BD3F8AC00704700680140024B012280
:101DD000C3F8AC105A6270470068014010B52C215E
:101DE00004461FF064FA204610BD10B5BC2104461D
:101DF0001FF05DFA204610BD70B5044607F043FAA7
:101E000023689D6E0CF0D2FE01462046A847236849
:101E1000054AD3F88C502046AC460023BDE87040FC
:101E2000A2F51631604700BF00B004D007F012BA27
:101E300007F01CBA07F0D8B907F047BB90F8252087
:101E400012B103685B691847704790F825201AB1F2
:101E500090F8242002B1186070470000034B4FF047
:101E600080629A604FF080729A60704700E100E0F3
:101E7000084B4FF08062C3F88820BFF34F8FBFF349
:101E80006F8F4FF08072C3F88820BFF34F8FBFF37E
:101E90006F8F704700E100E070B50023124E838021
:101EA000124B0360336893F8582005460AB1D86C8A
:101EB00000B998680368DB6A98473368B0FA80F421
:101EC000D86C640930B10368DB6A9847002808BF02
:101ED00044F001042CB9064B064A07482C2121F096
:101EE00023FA284670BD00BFE02A012018500208DE
:101EF000C14702081F4802085848020870B5254E1D
:101F00003568BFF35B8F15F0010540D130461FF0F7
:101F1000D0F900283BD0204C204B256104F134003F
:101F2000C4E90035C4E90255E584A562A5850EF033
:101F30008AFB04F1580009F02FFD194BA3652046D8
:101F4000184B40F8843BFFF7A7FF174BC4F88430C9
:101F50002433C4F88C304FF4C803C4E92835002377
:101F6000C4F8AC30C4F8B030C4F8B430C4F8B830F9
:101F70000E480F4BC4F89050C4F89C50C4F8A850B9
:101F8000C4F8983021F0EEF930461FF09EF902486F
:101F900070BD00BFA4190020A8190020085602082F
:101FA00038500208B0500208BC550208751D0008E0
:101FB0009C55020838B5184C23685BB3174B184A78
:101FC0001B6C11888B4216D1164B198803F066FBE7
:101FD000236893F86A200025013283F86A2083F889
:101FE0007C50FFF7B7FA206807F0CAFE2846BDE824
:101FF0003840FFF7F7B803F051FB24682368204608
:102000001B6A9847012384F87C300020BDE83840E3
:10201000FFF712B938BD00BFE02A01200068014077
:10202000A2190020A0190020704710B5D1F8F44182
:1020300092FBF4F104FB1122C0E9002110BD13B59D
:1020400002AC04E906000B2404FB012200EB820031
:10205000436002B010BD82B002AB03E90600019BF1
:102060000A460B2101FB023300EB8300406802B0FB
:10207000704737B50C4602A901E90C00D0F8F021F1
:10208000D0F8E831009911FB0231236805461B6B3B
:10209000204609B29847D5E97B32019911FB0231FC
:1020A00023685B6B09B2204603B0BDE83040184797
:1020B000F7B5036804466E460D46DB6801463046B8
:1020C000984723689F6996E80C0029462046BC463D
:1020D00003B0BDE8F0406047D0F8F43191FBF3F273
:1020E00002FB1311D0F8F021D0F8E80102FB010047
:1020F0007047D0F8F43191FBF3F1D0E97B0202FB99
:102100000100704782B002AB03E90600D0F8F0117D
:10211000D0F8E831009A01FB023300EE103AB8EE35
:10212000C00A02B0704782B002AB03E90600D0E9F2
:102130007B3101FB023300EE103AB8EEC00A02B068
:1021400070472DE9F84F8246D1F8F00157EC116B3A
:1021500059EC108B8B46FEF7EDF90446DBF8E801ED
:102160000D46FEF7E7F902460B4640464946FEF7A4
:1021700093F822462B46FEF771FB41EC100B1FF043
:1021800093FADBF8EC0159EC108BFEF7D3F9024619
:102190000B4630463946FEF77FF822462B46FEF7BF
:1021A0005DFB41EC100B1FF003FA4946404655EC2D
:1021B000104BFEF7C3FC2946CAF800002046FEF784
:1021C000BDFCCAF804005046BDE8F88F10B54FF4C6
:1021D000FE7104461FF06BF8204610BD10B54FF499
:1021E000F27204460021043021F0A5FA0A23C4E962
:1021F0007A3314220B23C4E97C23C4F8F83110BDD0
:1022000010B5034B03600446FFF7E8FF204610BDFE
:10221000FC50020807B5064BADF806001B680548E0
:1022200001220DF1060103F0D9FF03B05DF804FBB4
:102230000C000020AC1A002037B50D4D0D4C0121CB
:10224000284602F01DFC01280ED1206804F0D6FDBE
:10225000012809D854238DF8073020680A2300226A
:102260000DF1070104F069FD012004F077FCE6E7B9
:1022700000000240681A002030B595B010220021FD
:102280000AA821F058FA1422002103A821F053FAD9
:1022900000241E4B01941A6C42F080521A641B6C8D
:1022A00003F080530193019B194B02941A6842F486
:1022B00040421A601B6803F4404302930122029BD0
:1022C0004FF48033CDE9082302254FF48003082121
:1022D000CDE90E534FF4B473CDE9101308A80423CD
:1022E0001393129503F032FA03F0F6F90F23CDE9B8
:1022F00003354FF4A0504FF48053CDE90603052178
:1023000003A8059403F0FEFB15B030BD0038024071
:102310000070004080B59AB002F032F9FFF7ACFFD0
:10232000142200210DA821F006FA0024C84B0094C5
:102330001A6BC848C84DDFF85C8342F010021A637C
:102340001A6B02F010020092009A01941A6B42F08C
:1023500020021A631A6B02F020020192019A029481
:102360001A6B42F080021A631A6B02F0800202922A
:10237000029A03941A6B42F004021A631A6B02F079
:1023800004020392039A04941A6B42F001021A6346
:102390001A6B02F001020492049A05941A6B42F03F
:1023A00002021A631A6B02F002020592059A069461
:1023B0001A6B42F040021A631A6B02F04002069256
:1023C000069A07941A6B42F008021A631B6B03F01B
:1023D0000803224607933C21079B02F057FB9F48C6
:1023E0000122022102F052FB22469C48042102F005
:1023F0004DFB22469A484FF4405102F047FB01261C
:102400003C23CDE90D3693480F9403230DA90227F1
:10241000109302F051FA91480DA9CDE90D76CDE95E
:102420000F4402F049FA04238C480DA9CDE90D367A
:10243000CDE90F4702F040FA4FF4405388480DA908
:10244000CDE90D36CDE90F4702F036FA0DA98548E2
:102450000F97CDE90D6402F02FFA8348834B036098
:1024600002F020F9DFF830E2814B2C62C5E900E38D
:1024700028464FF48043C5E90434C5E90244C5E960
:10248000064402F011FD1021284602F055FF2146B6
:102490002846784D02F06FFF4FF48273C5E9008340
:1024A0004FF400791823C5E9069328460A23C5E9A5
:1024B0000244C5E90444C5E90844AC62EB6203F098
:1024C00031FE8F232246394664488DF824308DF83A
:1024D000344002F0DBFA32464FF47A7309A92846F9
:1024E00003F07CFE4FF47A7332460DA9284604F0BF
:1024F00021F83246394659485F4D02F0C7FA9DF837
:102500003430D32B04BF5D4B1E705D4B0126C5E9F3
:102510000036102240230024C5E904234FF4C07381
:10252000C5E906344FF40063C5E908344FF400539D
:1025300002274FF00409AB624FF0030A07230DA9ED
:102540002846CDE90D73CDE90F934FF00808C5E992
:102550000249CDE911A7139703F0C8FC4FF6FF72AB
:1025600009A92846CDE90A86089409960C9403F037
:10257000DDFC304602F030F84FF6FF7209A928461C
:10258000CDE90978CDE90B6403F0D0FC4FF6FF727A
:1025900009A92846CDE909A8CDE90B9403F0C6FCAA
:1025A0004FF40C730893089B0C934FF6FF7209A924
:1025B0002846CDE909980B9603F0B8FC40F26A5121
:1025C000284603F0D1FC34220DEB0200214621F015
:1025D000B2F82C4D2C4B2C61C5E900340923C5E918
:1025E00005361D23C5E9073A40F20D1140F24313A9
:1025F000C5E9091340F2171040F24713C5E90B0370
:102600002846C5E90244AC8685F8364002F04EFF04
:10261000FF214FF4806CF022CDE912140521CDE9A1
:1026200014C14FF4A0730DA9CDE90E24CDE91642D3
:1026300028462246154D1893CDE910370D94ADF874
:1026400064408DF8664002F0FCFF114B2B6025E0E2
:102650000038024000100240AC1B0020000802407D
:10266000000C024000000240401C002000300240EC
:10267000A0860100AC1A0020781A00206C1A0020F5
:10268000400100A0041B002000680140641A0020E3
:102690001400002000500140005C00401B68984777
:1026A0002B68184DDB689847174B2846C5E900345E
:1026B000C5E90274C5E90A47C5E90C4402F002F80D
:1026C0003146284602F0B4F8FEF7C0FCFEF7BDFC28
:1026D00004F0D4F90D4A3146404604F0F3FA0C4BAD
:1026E0000C4A186021460C4804F0F4F90B4B0C4AD4
:1026F000186021460B4804F0EDF90B4B186004F00C
:10270000CFF9FEE7001C002000B002402C51020867
:10271000681A00206851020839220008741A002043
:10272000445102085B100008701A0020704770477F
:102730007FB5094B8DF817201B6802930DF1170226
:102740000123009201930A460146044802F054FC1A
:1027500007B05DF804FB00BF10000020AC1B002098
:102760007FB500238DF81730084B1B6802930A468B
:1027700001230DF11701009101930146044802F075
:10278000CBFC9DF8170007B05DF804FB100000209B
:10279000AC1B00201FB5084C24680092CDE9013421
:1027A0000A4601230146054802F0B6FC003818BF6E
:1027B000012004B010BD00BF10000020AC1B0020A1
:1027C00001F00ABF10B5064C00222046042102F099
:1027D0005DF920460122BDE81040042102F056B9FF
:1027E0000008024038B50B4D044601220A484FF458
:1027F000005102F04BF900220421284602F046F96C
:102800002046FFF707FD28460122BDE83840042195
:1028100002F03CB900080240000C024038B50B4DF4
:10282000044600220A484FF4005102F02FF900221A
:102830000421284602F02AF92046FFF7EBFC28463F
:102840000122BDE83840042102F020B9000802400E
:10285000000C0240F7B5144E144F05460C463046A6
:102860000022042102F012F900224FF400513846F0
:1028700002F00CF92846FFF7CDFC0D4B0D481B6804
:10288000224601A903F056FE384601224FF40051BA
:10289000019C02F0FBF830460122042102F0F6F818
:1028A000204603B0F0BD00BF00080240000C02400B
:1028B0000C000020AC1A002001F08EBE0268034B11
:1028C0009A4201D101F076BE704700BF001000406F
:1028D0007047000082B00E4B00220092596C41F408
:1028E00080415964596C01F4804100910099019232
:1028F000196C41F0805119641B6C03F080530193F3
:10290000019B0F216FF0010002B001F08BBE00BFF0
:10291000003802400268094B9A4282B00BD1002372
:102920000193074B1A6B42F480521A631B6B03F43A
:1029300080530193019B02B0704700BF00300240FA
:102940000038024007B50F4B02689A4216D10022A8
:10295000A3F5F0430192196B41F4000119631B6B5D
:1029600003F40003019305215A20019B01F05AFE54
:102970005A2003B05DF804EB01F086BE03B05DF8A9
:1029800004FB00BF00B002402DE9F043044689B0CB
:102990001422002103A820F0CEFE2268244B9A4284
:1029A00043D1244C244800250095236B43F00403B5
:1029B0002363236B03F004030093009B0195236BB7
:1029C00043F001032363236B03F001030193019B95
:1029D0004FF012094FF400734FF00108032704264B
:1029E00003A9CDE90339CDE90587079601F064FF16
:1029F0004FF480731148079603A9CDE90339CDE957
:102A0000058701F059FF0295236C43F4000323640A
:102A1000236C03F400030293029B236A43F4000334
:102A20002362236A23F40003236209B0BDE8F08324
:102A3000005C0040003802400008024000000240F4
:102A4000F0B599B004461422002107A820F073FEC7
:102A500030220DEB0200002120F06DFE22685E4B5B
:102A60009A4240F0B78008230C93C02310930423AC
:102A700012930CA84FF40033159303F00BF908B12F
:102A8000FFF726FF554B5648002400945A6C42F03D
:102A900080625A645A6C02F080620092009A01943B
:102AA0001A6B42F020021A631A6B02F020020192A4
:102AB000019A02941A6B42F001021A631A6B02F037
:102AC00001020292029A03941A6B42F002021A6304
:102AD0001A6B02F002020392039A04941A6B42F0FA
:102AE00040021A631A6B02F040020492049A0594A1
:102AF0001A6B42F004021A631A6B02F00402059288
:102B0000059A06941A6B42F008021A631B6B03F0D5
:102B10000803069302250E26069B0B964FF480634E
:102B200007A9CDE90735CDE9094501F0C5FE41F614
:102B300058032C480B9607A9CDE907350927CDE99D
:102B4000094501F0B9FE032327480B9707A9CDE9F2
:102B50000735CDE9094501F0AFFE4FF47063224817
:102B60000B9607A9CDE90735CDE9094501F0A4FE8B
:102B70004FF40C631D480B9607A9CDE90735CDE945
:102B8000094501F099FEC02319480B9607A9CDE924
:102B90000735CDE9094501F08FFE082315480B964E
:102BA00007A9CDE90735CDE9094501F085FE4FF4C8
:102BB000A0530E480B9707A9CDE90735CDE9094584
:102BC00001F07AFE58202246052101F02BFD582005
:102BD00001F05AFD19B0F0BD006801400038024014
:102BE00000140240000002400004024000180240AD
:102BF00000080240000C024010B5044688B01422C0
:102C0000002103A820F097FD2268144B9A4223D19B
:102C100003F56843002101915A6C114842F4801277
:102C20005A645A6C02F480120192019A02911A6B52
:102C300042F020021A631B6B03F020030293029BF5
:102C40004FF4607202230321CDE903230523CDE96C
:102C5000061303A901F030FE08B010BD005001407A
:102C6000001402402DE9F04186B0002303932B4B62
:102C70001C68002C4FD14FF00108C3F80080284B8E
:102C800000949A6B274842EA08029A639B6B03EA16
:102C900008030093022703260C25009B01A94FF689
:102CA0003F03CDE90137CDE9046501F005FE1E487B
:102CB000059501A9CDE90187CDE9034601F0FCFDA9
:102CC00048F233131948059501A9CDE90137CDE93B
:102CD000034601F0F1FD4FF683731548059501A9F0
:102CE000CDE90137CDE9034601F0E6FD4CF203736F
:102CF0001048059501A9CDE90137CDE9034601F05A
:102D0000DBFD60230C48059501A9CDE90137CDE92C
:102D1000034601F0D1FD06B0BDE8F081481C00205B
:102D2000003802400014024000080240001802402F
:102D300000100240000C02400004024070B588B050
:102D400000230293204B1A6C42F010021A641B6C91
:102D500003F010030293054601A903A8029B02F0A9
:102D60007BFF069B4BBB02F067FF184E184B33608E
:102D700040F2E733F360174BB0FBF3F3013B7360B2
:102D8000304600233361B360B36103F0A3FD044612
:102D900080B9304603F074FC044658B9362001F07F
:102DA00073FC0F2D0DD822462946362001F03AFC3F
:102DB000094B1D60204608B070BD02F03DFF400089
:102DC000D3E70124F6E700BF003802404C1C002086
:102DD0000010004040420F007C0000207047FEE7DA
:102DE000FEE7FEE7FEE77047014803F087BC00BF3F
:102DF0004C1C0020014802F0C7BB00BF041B002090
:102E0000014801F08BBC00BF001C0020012070476E
:102E100008B520F033FD162303604FF0FF3008BDE6
:102E200008B520F02BFD16230360FEE770B50D46B4
:102E300014460E46731B9C4201DC204670BDAFF366
:102E4000008006F8010BF5E770B50D4614460E46F6
:102E5000731B9C4201DC204670BD16F8010BAFF3DA
:102E60000080F5E74FF0FF3070474FF400534B60A0
:102E70000020704701207047002070470A4A1168FF
:102E800008B5034609B90949116010686946034449
:102E90008B4206D920F0F2FC0C2303604FF0FF3088
:102EA00008BD1360FCE700BF941C002020380120FF
:102EB000704710B5042104461EF0F9F9204610BDF4
:102EC00008B5032913D8DFE801F002060A0E00F066
:102ED000FDFD006808BD00F0F9FD4068FAE700F06C
:102EE000F5FD8068F6E700F0F1FDC068F2E700202C
:102EF000F0E7000000487047A05102080D2070471D
:102F000013B5002451B1036801948DF8034001AA60
:102F10009C680DF10303A04702B010BD0846FBE713
:102F2000C0897047008A7047C088704780887047A2
:102F3000807A00F07F007047807AC00970470020D7
:102F4000704700009FED010A704700BF00000000BD
:102F50007047704700F598730868496803C3704765
:102F6000704770474160704770477047064BC0F824
:102F70004C310023C0F8503100F5A273C0F848016D
:102F8000C0F84031704700BF2D30000801230372A4
:102F90007047704710B4C26841685410034601EB93
:102FA0006200D20748BF0A599B685DF8044B48BFCE
:102FB000D35818470346406830B19A681AB9D868A0
:102FC00000F0010070470120704710B50C21044645
:102FD0001EF06DF9204610BD10B5102104461EF0FC
:102FE00066F9204610BD10B54FF4AE7104461EF0D0
:102FF0005EF9204610BD10B50BF0D8FD0368BDE8A2
:103000001040DB6B184710B50446D0F8400158B1AA
:103010000368DB68984738B1D4F8400103689B68BF
:1030200098470023C4F8403110BD00002DE9F14F4E
:10303000D0E9556A0746B06803681B6A984740F2B2
:103040005B53984205D8444B444AA321444820F09E
:103050006BF9706803681B6A98470F2803D8414BC7
:103060003E4AA421F2E7F06803681B6A98470B28E0
:1030700003D83D4B394AA521E8E70BF097FDDFF86F
:10308000F09004300BF0B7FDD9F8000010B10368E0
:10309000DB689847D9F8000010B103681B689847AF
:1030A000DFF8D080D8F8000010B103685B6998475A
:1030B000D7F83C0110B103685B689847D8F8000066
:1030C00010B103681B689847D7F83C0110B103683A
:1030D0009B689847F068036800215B6A98474FF047
:1030E000000B224BC0F804B0044680F808B003601F
:1030F000B068036859465B6A9847054600F056FD7C
:103100007068036859465B6A98472946064600F08E
:103110002BFD331DC7F83C61C9F80040C8F80050CA
:10312000CAF800302B68C6F808A02846DB68EE63B2
:103130009847336830461B689847214628460DF06B
:1031400007FF236820461B69984723685B69204670
:1031500001B0BDE8F04F1847D6480208644902089C
:10316000364A02087D4A0208204B0208185302081A
:10317000282B0120242B0120044B1B6893F8582096
:103180000AB1D86C00B99868704700BFE02A0120E6
:10319000F8B5174604460E460BF0CAFD124B1C60EC
:1031A000124B2360124B0025C4E95135114BC4E981
:1031B00053551868036801219B68C4E94F55C4E959
:1031C00055769847284600F043FCFFF7D5FF15F0E9
:1031D0008AFFFFF7D1FF16F001F8FFF7CDFF16F0D9
:1031E00009F82046F8BD00BF342B0120C452020864
:1031F000AC520208E02A0120064BC0F84C310023F3
:10320000C0F8503100F5A273C0F84801C0F8403151
:10321000704700BF2D300008406A7047806A7047D1
:1032200070478A880B8810B5D20A4C88C1699BB256
:1032300051F8220043EA0443184410BD10B5044677
:10324000BAB1107B68B1537BD27A1B0203F4E063FE
:103250001A43236A03EB82031A888A4202D193F944
:10326000020010BD05D8013880B204330028F3D124
:10327000F7E70020F5E710B52C2104461EF017F8FB
:10328000204610BD30B58BB00446BDF8605008959F
:10329000BDF85C5007959DF8505006959DF84C5030
:1032A00005959DF8485004959DF8445003959DF868
:1032B000405002959DF83C500195BDF8385000955E
:1032C0000DF07EFA064B2360159BE361169B23628B
:1032D000199B63621A9BA36220460BB030BD00BFEE
:1032E0003C530208704770477047704770477047FB
:1032F000704710B54FF44F7104461DF0D8FF2046BB
:1033000010BD0000074A02600022C0E90122C0E9A6
:103310000322C0E90522C0E907224FF480728284AB
:10332000704700BF105A020870B5036804461B6B53
:10333000154698472368294620465B6BBDE87040D8
:10334000184770B504461D46BDF91060FFF7ECFF45
:103350002368294620469B6B9847236831462046C0
:10336000DB6BBDE87040184738B5262204460D4691
:10337000002120F0E0F92046FFF7C4FF064B236050
:103380002B88E384FF23204684F82830294609F05F
:10339000AAFC204638BD00BF405902082DE9F04F75
:1033A00004468FB0A04600250DF026FCD94BE563FE
:1033B00048F8403B26222946404620F0BCF94046CA
:1033C000FFF7A0FFD44B2364FF2384F8663004F199
:1033D0006C034FF6FF760DA9A566184604F19C090B
:1033E0000293ADF83460FFF7BFFFCC4BE366A4F85F
:1033F0009650A4F898504846FFF784FF04F1C80A95
:10340000C74BC4F89C30C4F8C4500DA95046ADF861
:10341000346009F095F804F1F4030DA918460393FC
:10342000ADF8346009F08CF804F590730DA91846D6
:103430000493ADF8346009F083F804F5A6731846D8
:1034400004F5BC770593FFF75DFFB54BC4F84C312D
:10345000C4F874510DA93846ADF8346008F08AFB01
:1034600004F5027304F50D7B0DA918460693ADF81B
:103470003460FFF779FF5846FFF744FFA84BC4F8C4
:10348000343204F51873C4F85C520DA9184607933A
:10349000ADF83460FFF768FF04F523730DA91846F3
:1034A0000893ADF83460FFF75FFF04F52E730DA9A4
:1034B00018460993ADF83460FFF756FF04F53973E9
:1034C0000DA918460A93ADF83460FFF74DFF04F5D7
:1034D00044730DA918460B93ADF83460FFF744FF11
:1034E0004FF4A0732A46009329464046F023FFF785
:1034F00028FF261D4FF07F43A3664146304605F066
:10350000D7FB029806230DA9ADF8343009F040FA34
:103510004FF4A073029800932A46F1232946FFF73F
:1035200010FF2A460298294609F010FA02993046FF
:1035300005F0BEFBFA232A4600932946F0234846AD
:10354000FFF7FFFE4FF001080DA95046ADF834809B
:1035500009F0C9FB12236FF00602009350464FF4A6
:1035600081736FF00801FFF7ECFE2946504608F022
:10357000A2FF5146484605F09BFB4FF48A7A039818
:10358000ADF834800DA909F0AEFB0F230A22039891
:10359000CDF800A0E621FFF7D4FE0398294608F0F5
:1035A0008AFF0399484605F083FB0498ADF8348000
:1035B0000DA909F098FB0F2309220498CDF800A06B
:1035C0006FF00401FFF7BDFE0498DFF86CA1DFF88F
:1035D0006C81294608F06FFF0499484605F068FBA6
:1035E0004946304605F064FB4FF4A07305980093FC
:1035F0002A46F0232946FFF7A4FE2A4629463846E4
:10360000FFF792FE0DA93846ADF8345008F054FC8F
:10361000444BC4F88031444BC4F8A431434BC4F844
:10362000A831384608F0F2FAB0EE040A384608F03D
:1036300054FCDFF80C91C4F8D0A1384608F0E6FA43
:103640003846C4F8BC91C4F8C081C4F8C4A108F0DD
:10365000DDFA3846C4F8C891C4F8CC8108F0D6FA2F
:10366000DFED330A9FED331AB0EE600A384608F0FA
:103670002CFC059884F8A151394605F019FB4FF44C
:103680008F7206986E21FFF74FFE09270698ADF856
:1036900034700DA909F027FBDDE9050105F008FBF1
:1036A0000599304605F004FB4FF4A07300932A46B9
:1036B000F12358464FF0FF31FFF743FE1D220798D4
:1036C0006FF01C01FFF730FE0C230798ADF8343083
:1036D0000DA909F008FB0799584605F0E9FA3A46A2
:1036E00008986FF01C01FFF71FFE0898ADF83470C2
:1036F0000DA909F0F8FA0899584605F0D9FA6FF0C3
:10370000080209986FF01C01FFF70EFE0A250998C0
:1037100018E000BFA453020854580208BC5802081D
:10372000DC540208F00050020000EB4200803743F6
:1037300000000000560EC94000007A440000944387
:103740000000F042ADF834500DA909F0CCFA099907
:10375000584605F0ADFA31220A986FF01C01FFF7C8
:10376000E3FD0A98ADF834500DA909F0BCFA0A99A6
:10377000584605F09DFA5946304605F099FAF92267
:103780000B984FF0FF31FFF7CFFD07230B98ADF8F3
:1037900034300DA909F0A7FA30460B9905F088FAE4
:1037A00020460FB0BDE8F08F7047000030B5164DD1
:1037B0002C6814F001048FB0BFF35B8F21D1284631
:1037C0001DF077FDE8B13F230993104B0893104B90
:1037D00007930123CDE9054304930423CDE9024374
:1037E00014230C4900930B22CDE90B440A480A9498
:1037F0000194FFF747FD09481FF0B4FD28461DF06E
:1038000064FD05480FB030BD981C0020F469020823
:103810000C6A0208286902089C1C0020A9370008CD
:103820007047000030B5164D2C6814F001048FB0BD
:10383000BFF35B8F20D128461DF03BFDE0B13F2355
:103840000993104B0893104B104911480A94012218
:10385000CDE906430423CDE903320A230093CDE9E1
:103860000B44CDE901440594FFF70CFD09481FF016
:1038700079FD28461DF029FD05480FB030BD00BF79
:10388000C81C0020006A0208106A0208C469020805
:10389000CC1C0020213800087047000030B5164DC0
:1038A0002C6814F001048FB0BFF35B8F20D1284641
:1038B0001DF0FFFCE0B13F230993104B0893104B20
:1038C000104911480A940122CDE906430423CDE9A9
:1038D000033214230093CDE90B44CDE90144059450
:1038E000FFF7D0FC09481FF03DFD28461DF0EDFC18
:1038F00005480FB030BD00BFF81C0020046A020864
:10390000146A0208D4690208FC1C002099380008D7
:103910007047000030B5164D2C6814F001048FB0CC
:10392000BFF35B8F20D128461DF0C3FCE0B13F23DD
:103930000993104B0893104B104911480A94012227
:10394000CDE906430423CDE9033228230093CDE9D2
:103950000B44CDE901440594FFF794FC09481FF09E
:1039600001FD28461DF0B1FC05480FB030BD00BF79
:10397000281D0020086A0208186A0208E469020883
:103980002C1D0020113900080020704700207047CE
:103990000EB403B503AB002153F8042B01930CF0D4
:1039A0008DF902B05DF804EB03B070470CB407B5B5
:1039B00004AB53F8042B01930CF080F903B05DF8CD
:1039C00004EB02B070470000436C10B5044673B3BB
:1039D000038F2BB9184B194AC52119481FF0A4FCB5
:1039E000C38E00EB43035B8C0BB30DF0A4FF238F5E
:1039F000012B03D8134B144ACB21EEE7E28E531C64
:103A00009BB2092B194688BFA3F10A0104EB4101BF
:103A100040F63F10498C814209D10A2B04EB420247
:103A200028BF002304EB4303508C58845184204664
:103A3000BDE810400DF082BEC34B0208CC4B02081B
:103A4000774C0208C14C0208CF4C02080DF03DBE75
:103A500038B518BB124B13481C681349B4B122681F
:103A600022440260626822440A60A26814440F4B38
:103A700000221A8000F02AF8054600F025F80C4BC9
:103A80001C600C4B1D600C4B188007E00B4B036057
:103A90000B4B0B600B4B1C68002CE8D138BD00BFF2
:103AA000641D00205C1D0020581D0020601D0020AA
:103AB000382B0120402B01203C2B0120246A0208D6
:103AC0001C6A0208446A02080220704700487047D6
:103AD000681D002010B5FFF7E1FE064C2060FFF7DF
:103AE00019FF6060FFF79EFEA060FFF75FFEE060D9
:103AF00010BD00BF681D002010B5002404600C60DC
:103B000014601C6010BD704710B54FF4AE710446D0
:103B10001DF0CDFB204610BD10B50446D0F858016D
:103B200000F013F82046BDE810400BF0C1B80000CB
:103B300010B50446FFF72CFB014B2360204610BD57
:103B4000D85302080022026070477047704704385B
:103B50007047704710B5102104461DF0A8FB2046A1
:103B600010BDA0F10400F5E700228260024A026065
:103B700018324260C16070472C5402087047000040
:103B800010B5034B03600446FFF7B1FB204610BDA0
:103B90005454020810B50446FFF7F2FF204640F2E5
:103BA0005C511DF084FB204610BD000010B504469A
:103BB000ADF5007DFFF7F2FB1B4B236004F5587059
:103BC000FEF71EFB00236422C4E9D123C4E9CF33EE
:103BD00084F85033D4F80C32C4F84C3301A8FEF703
:103BE0000FFB4FF4F27202A904F559701FF073FE37
:103BF0007B9BC4F848357C9BC4F84C357D9BC4F84E
:103C000050357E9BC4F854357F9BC4F85835074B1C
:103C1000C4F8543320460023C4F85833C4F85C3346
:103C20000DF5007D10BD00BF545402082CF985BF6E
:103C300008B54FF4B47390FBF3F202FB130007EEE8
:103C4000900AB8EEE77ADFED3C7AB4EEE77AF1EE6F
:103C500010FA04D5F6EE007A67EE877A0AE0DFED17
:103C6000377AB4EEE77AF1EE10FA15D5F3EE0E7A64
:103C700077EE677A17EE900AFCF76EFC2CA3D3E977
:103C80000023FCF7C1FC2E4B0022FCF7E7FDFCF7FC
:103C90007DFF00EE100A08BDDFED2A7AB4EEE77A68
:103CA000F1EE10FA04D5DFED287A77EEC77AE1E776
:103CB000DFED267AB4EEE77AF1EE10FA04D577EE6E
:103CC000C77AB6EE007AC7E7DFED216AB4EEE67A8E
:103CD000F1EE10FA06D5DFED1F7AF6EE006AE7EE98
:103CE000667AC7E7DFED1C6AB4EEE67AF1EE10FA09
:103CF00002D5DFED1A7AD8E7DFED196AB4EEE67A7D
:103D0000F1EE10FA04D5F3EE0E7A77EE277AB1E7EA
:103D1000DFED146AB4EEE67AF1EE10FA46BFF6EE85
:103D2000006AE7EE267ADFED107AA3E7AFF30080B2
:103D30001F85EB51B81E0940000070420000B442DC
:103D4000008066400000F04200001643000034434B
:103D5000000070430000E1430000874300800E44F0
:103D6000000096430000B44300000000FFF7C0BA13
:103D70002DE9F04304462DED048BD0F83C03A84D0B
:103D8000013085B0C4F83C03FFF752FF2868B0EE5D
:103D9000408A03F033F818B34FF0FF33286800224D
:103DA00002A902F0FBFF9DF80830542B18D194F8BB
:103DB0005033ABB9D4F83C33C4F84833B4F94E238C
:103DC000B4F94C1304F50270FDF78BFF012384F85E
:103DD00050330023C4F85833C4F85C3384EDD58ADB
:103DE00094F85033002B00F00681D4F85403FCF70C
:103DF000B3FB41EC190BB0EE490AF0EE690A1DF075
:103E0000D3FA51EC100BFCF7C1FEB0EE490AF0EE0C
:103E1000690A08EE900A1DF073FA51EC100BFCF7DA
:103E2000B5FE94EDD67AB4F90C3237EE287A07EE67
:103E3000900A84EDD67A94EDD77A08EE103A37EEF0
:103E4000677AB4F90E3284EDD77A07EE103AB8EEFD
:103E5000C77AF0EE086AA7EEE67A04F5587602AD66
:103E6000B8EEC88A17EE100AA8EEA68AFCF774FB13
:103E700041EC190B18EE100AFCF76EFBB0EE491A74
:103E8000F0EE691A41EC100B31466846FEF759F91D
:103E9000B4F90E02009FFCF74DFB41EC180BB4F98E
:103EA0000C02FCF747FBB0EE481AF0EE681A41EC42
:103EB000100B31462846FEF744F9002F3EDAD4F8BD
:103EC0005403FCF749FB52A3D3E9002380468946FB
:103ED000FCF72AFE50B142464B464FA1D1E9000102
:103EE000FCF7DAF9FCF752FEC4F85403019B002BEF
:103EF00032DA95E806003046FEF704F995E8060048
:103F00003046B0EE408AFEF70EF9BDEEC00ABDEEB7
:103F1000C88A10EE103A1AB218EE103A04F5027080
:103F200019B2FDF7DEFE002384F85033201D05B0E2
:103F3000BDEC048BBDE8F0430BF0EABF0A2FD5DDE2
:103F4000D4F85403FCF708FB31A3D3E900238046DF
:103F50008946FCF7CBFDBDE7D4EDD67AB7EE008AF3
:103F6000F4EEC87AF1EE10FA1FDD0022012104F50B
:103F700002700CF04FF8D4EDD67A77EEC87AC4ED23
:103F8000D67AD4EDD77AF4EEC87AF1EE10FA1FDDC6
:103F90000122002104F502700CF03CF8D4EDD77A30
:103FA00077EEC87AC4EDD77AC0E7BFEE007AF4EEB8
:103FB000C77AF1EE10FAE4D500224FF0FF3104F594
:103FC00002700CF027F8D4EDD67A77EE887AD6E72F
:103FD000BFEE007AF4EEC77AF1EE10FAA6D54FF0F4
:103FE000FF32002104F502700CF014F8D4EDD77AFA
:103FF00077EE887AD6E7D4ED6C0A94ED6B0AB0EED2
:10400000481A04F5BC7007F060FF8FE7AFF300803B
:104010001F85EB51B81E09401F85EB51B81E194092
:10402000681A0020F02070474FF4A07070472920D4
:10403000FEF7F4BB2820FEF7F1BB08B5FEF7C2FB84
:10404000CA20FEF7EBFBC320FEF7CCFB0820FEF7EF
:10405000C9FB5020FEF7C6FBCF20FEF7DFFB002098
:10406000FEF7C0FBC120FEF7BDFB3020FEF7BAFB18
:10407000ED20FEF7D3FB6420FEF7B4FB0320FEF730
:10408000B1FB1220FEF7AEFB8120FEF7ABFBE82070
:10409000FEF7C4FB8520FEF7A5FB0020FEF7A2FB80
:1040A0007820FEF79FFBCB20FEF7B8FB3920FEF708
:1040B00099FB2C20FEF796FB0020FEF793FB3420A3
:1040C000FEF790FB0220FEF78DFBF720FEF7A6FB24
:1040D0002020FEF787FBEA20FEF7A0FB0020FEF77A
:1040E00081FB0020FEF77EFBB120FEF797FB00204E
:1040F000FEF778FB1B20FEF775FBB620FEF78EFB64
:104100000A20FEF76FFBA220FEF76CFBC020FEF733
:1041100085FB1020FEF766FBC120FEF77FFB102019
:10412000FEF760FBC520FEF779FB4520FEF75AFB42
:104130001520FEF757FBC720FEF770FB9020FEF717
:1041400051FB3620FEF76AFBC820FEF74BFBF2203E
:10415000FEF764FB0020FEF745FBB020FEF75EFB98
:10416000C220FEF73FFBB620FEF758FB0A20FEF701
:1041700039FBA720FEF736FB2720FEF733FB042090
:10418000FEF730FB2A20FEF749FB0020FEF72AFB52
:104190000020FEF727FB0020FEF724FBEF20FEF7B0
:1041A00021FB2B20FEF73AFB0020FEF71BFB002033
:1041B000FEF718FB0120FEF715FB3F20FEF712FB70
:1041C000F620FEF72BFB0120FEF70CFB0020FEF78C
:1041D00009FB0620FEF706FB2C20FEF71FFBC8207C
:1041E000FEF76AFB2620FEF719FB0120FEF7FAFA1C
:1041F000E020FEF713FB0F20FEF7F4FA2920FEF76C
:10420000F1FA2420FEF7EEFA0C20FEF7EBFA0E206E
:10421000FEF7E8FA0920FEF7E5FA4E20FEF7E2FA8B
:104220007820FEF7DFFA3C20FEF7DCFA0920FEF7E3
:10423000D9FA1320FEF7D6FA0520FEF7D3FA172095
:10424000FEF7D0FA1120FEF7CDFA0020FEF7CAFAE9
:10425000E120FEF7E3FA0020FEF7C4FA1620FEF78D
:10426000C1FA1B20FEF7BEFA0420FEF7BBFA1120AC
:10427000FEF7B8FA0720FEF7B5FA3120FEF7B2FADA
:104280003320FEF7AFFA4220FEF7ACFA0520FEF726
:10429000A9FA0C20FEF7A6FA0A20FEF7A3FA2820B6
:1042A000FEF7A0FA2F20FEF79DFA0F20FEF79AFAEC
:1042B0001120FEF7B3FAC820FEF7FEFA2920FEF718
:1042C000ADFABDE808402C20FEF7A8BA08B5FEF705
:1042D00079FA0321D320FEF7BDFA80B208BD10B5EC
:1042E000C4B2022203212046FEF722FA0A20FEF77A
:1042F00067FA204600220321FEF71AFABDE81040B3
:104300000220FEF75DBA38B50446E4B2FEF70EFAB5
:1043100000212046FEF724FA012105462046FEF73B
:104320001FFA40EA052080B238BD10B5C4B2402162
:104330002046FEF715FA030607D54C212046FEF766
:104340000FFA003818BF012010BD01224B21204672
:10435000FEF7EEF9204600224B21FEF7E9F9002096
:10436000F2E773B50423C4B20E461546D7210DEB10
:1043700003022046FEF70EFA019B1BBA1A0DC3F387
:104380000B23328020462B8001224B21FEF7D0F9EF
:1043900000224B212046FEF7CBF902B070BD000091
:1043A00010B50A4A1378984204460DD051788842D5
:1043B0000AD00BB141B90123D454FEF7B7F9204616
:1043C000BDE81040FFF78BBF10BD00BF781D002077
:1043D00010B5C4B209212046FEF7C2F940F001022F
:1043E000D2B220460921BDE81040FEF7A1B910B5B0
:1043F000C4B209212046FEF7B3F9092100F0FE02FC
:104400002046BDE81040FEF793B938B5C4B20D465A
:1044100020460A21FEF7A4F940EA0502D2B220465E
:104420000A21BDE83840FEF783B910B50446FEF70F
:104430007EF920461F21FFF7E8FF2046BDE8104027
:10444000FFF7C6BF38B5C4B20D4620460A21FEF7B5
:1044500087F920EA0502D2B220460A21BDE8384099
:10446000FEF766B910B50446FFF7C1FF20461F21CD
:10447000BDE81040FFF7E6BF10B5C0B20C460B21F7
:10448000FEF76EF9204010BD1F21FFF7F5BF0A4669
:10449000C0B20B21FEF74CB91F21FFF7F8BF38B5AA
:1044A000C4B20D4620461721FEF75AF920EA05024C
:1044B000D2B220461721BDE83840FEF739B970B5B1
:1044C000C4B2064604212046FEF74AF9042100F052
:1044D000FB0205462046FEF72BF93046F021FFF798
:1044E000DEFF05F0F80220460421FEF721F94922FB
:1044F00020212046FEF71CF90220FEF761F9204634
:1045000001222121FEF714F920469A224121FEF7CB
:104510000FF9204601224A21FEF70AF9204601221E
:104520004B21FEF705F9204600224B21FEF700F94A
:10453000204601225621FEF7FBF820460122582191
:10454000FEF7F6F8204601224021FEF7F1F820465A
:10455000FF220B21FEF7ECF8BDE870400220FEF7C9
:104560002FB90000054BD3F8882042F47002C3F83D
:1045700088204FF000629A60704700BF00ED00E0B5
:1045800008B50B4B1A6842F400721A601A6842F4BC
:1045900080621A601A6842F480721A60032000F088
:1045A0002FF80020FEF7CAFBFEF794F9002008BDA3
:1045B000003C0240034A044B11681B780B44136013
:1045C000704700BF7C1D002078000020014B186858
:1045D000704700BF7C1D002038B50446FFF7F6FF8A
:1045E000631C1CBF054B1B78054618BFE418FFF77A
:1045F000EDFF431BA342FAD338BD00BF7800002073
:104600000749CA6822F4E0620302120403F4E0637B
:10461000120C134343F0BF6343F40033CB60704785
:1046200000ED00E0164B30B5DC68C4F30224C4F1A1
:104630000703251D042B28BF0423062D4FF0FF354B
:104640008CBF033C002405FA03F321EA0303A540D1
:1046500022EA0502A340002843EA0203ACBF00F1AE
:104660006040084A4FEA0313B8BF00F00F00DBB206
:10467000AABF00F56140135480F8003330BD00BF7D
:1046800000ED00E014ED00E0002807DB044A4109DA
:10469000012300F01F00834042F82130704700BF23
:1046A00000E100E010B5044650B1437903F0FF0289
:1046B00013B90271FEF72EF901236371002010BDBA
:1046C0000120FCE710B5044620B390F8393003F020
:1046D000FF021BB980F83820FEF734F9022384F872
:1046E0003930236861681A6822F440320A431A603C
:1046F0005A6BA16822F007020A435A631A6CE168F8
:104700006FF30D020A431A6400200123E06384F86A
:10471000393010BD0120FCE770477047036870B561
:104720005E681D68F207044614D5E90512D51A68BB
:1047300022F480721A60C26B42F00102C26301224D
:104740009A60042380F83930002380F838304369B8
:1047500003B19847B20616D5AB0414D523681A687E
:1047600022F400521A6020229A60E36B43F00203A5
:10477000E363042384F83930002384F83830636914
:104780000BB120469847300716D5290514D5236864
:104790001A6822F400621A6008229A60E36B43F000
:1047A0000403E363042384F83930002384F83830A9
:1047B00063690BB12046984772070BD56B0509D585
:1047C00023681A6822F480621A6004229A602046E4
:1047D000FFF7A2FFB00714D5A90512D523681A6800
:1047E00022F400721A6002229A60E36BE3630123F1
:1047F00084F83930002384F8383023690BB120461F
:104800009847F20613D5EB0411D523681A6822F4F1
:1048100080521A6010229A60E36BE363012384F8EC
:104820003930002384F838302046FFF776FF70BD1A
:10483000F0B590F83820012A03464FF002002BD043
:10484000012283F8382083F8390003EB0112D2E902
:104850000740556A174F44EA0040093C012C9CBFB1
:1048600005F07F4210434FEA01161A6888BF40EAFC
:10487000056091B9516A394001435162012C99692F
:10488000916103D8596A21F07F4191620122002091
:1048900083F8392083F83800F0BDD16939400143ED
:1048A000D1619919012C896911619CBF25F07F455F
:1048B0001562EBE7F0FFFC002DE9F74FDFF8BC9144
:1048C0006C4A00230D6801249C4004EA0506AC43B1
:1048D00040F0B7804D68032705F003044FEA430812
:1048E00007FA08FC671E012F6FEA0C0C34D88768A2
:1048F00007EA0C0ECF6807FA08F747EA0E07876049
:10490000476827EA060EC5F300179F4047EA0E07DF
:104910004760C76807EA0C0E8F6807FA08F747EA8E
:104920000E07022CC76019D14FEAD30A00EB8A0A9E
:1049300003F0070BDAF820704FEA8B0B4FF00F0EE5
:104940000EFA0BFE27EA0E0E0F6907FA0BF747EA7D
:104950000E07CAF8207001E0032CDAD1076804FAC8
:1049600008F407EA0C073C4315F4403F046068D0A4
:1049700000240194D9F8444044F48044C9F84440E8
:10498000D9F8444023F0030707F1804704F480443A
:1049900007F59C37019403F0030C019CD7F808E05D
:1049A0004FEA8C0C0F2404FA0CF42EEA040E324C5D
:1049B000A0424DD004F58064A0424BD004F5806441
:1049C000A04249D004F58064A04247D004F5806439
:1049D000A04245D004F58064A04243D004F5806431
:1049E000A04241D004F58064A0423FD004F5806429
:1049F000A0423DD004F58064A04214BF0A240924DB
:104A000004FA0CF444EA0E04BC609468F74315F40D
:104A1000801F0CBF3C4034439460D46815F4001FE1
:104A20000CBF3C403443D460546815F4003F0CBFC5
:104A30003C40344354601468ED0354BF3C4034435D
:104A400014600133102B7FF43DAF03B0BDE8F08F4D
:104A50000024D5E70124D3E70224D1E70324CFE7DC
:104A60000424CDE70524CBE70624C9E70724C7E7DC
:104A70000824C5E7003C0140000002400038024025
:104A80000369194214BF0120002070470AB18161F7
:104A900070470904FBE7436901EA030221EA0301C5
:104AA00041EA02418161704701684B6913F48063F8
:104AB0004FF0000210D06FF480634B61202302633B
:104AC00080F83D3080F83E20036C80F83C2043F0B5
:104AD0000403036401207047184670472DE9F84627
:104AE00006460F4691461D464FEA114A3368BAF111
:104AF000010F0CBF5C699C6927EA0404A4B2B4FAF4
:104B000084F46409A14501D0002025E06A1CEED0A0
:104B1000FFF75CFD089BC01AA84201D8002DE5D123
:104B20003368BAF1010F0CBF5B699B6927EA030385
:104B30009BB2B3FA83F35B099945D7D100232022B6
:104B4000336386F83D2086F83E30326C86F83C3080
:104B500042F0200232640120BDE8F8862DE9F041E0
:104B600004460F46164698462568686927EA0000FD
:104B700080B2C0B16B695A0517D52B6843F4007336
:104B80002B606FF480636B6120220023236384F821
:104B90003D2084F83E30236C43F00403236400235B
:104BA00084F83C300120BDE8F081731CDDD0FFF7B4
:104BB0000DFDA0EB0800B04201D8002ED4D123682F
:104BC0005A6927EA020292B2002ACDD0002320229D
:104BD000236384F83D2084F83E30236C1343DDE7E3
:104BE00070B504460D46164623685B691B0601D561
:104BF00000201EE02046FFF757FFC8B96A1CF3D01B
:104C0000FFF7E4FC801BA84201D8002DECD12368FB
:104C10005B6913F08003E7D12022236384F83D20F1
:104C200084F83E30226C84F83C3042F0200222644A
:104C3000012070BD2DE9F0431546026885B0DDE91D
:104C40000C789946136843F4807313600E463B4614
:104C5000CDF8008000224FF001110446FFF73EFF1F
:104C6000236838B11B68DB0502D54FF40073236459
:104C7000032620E006F0FE061E611A4943463A4626
:104C80002046FFF76BFFA8B9236803905A69039287
:104C90009B690393424639462046039BFFF7A0FFDA
:104CA000064660B1236C042B01BF2268136843F4ED
:104CB000007313600126304605B0BDE8F083B9F1FA
:104CC000010F236802D1EDB21D61F4E72A0A1A61CF
:104CD000394642462046FFF783FF0028E2D1236889
:104CE000F1E700BF020001002DE9FF479A46036883
:104CF00015461A6842F480621A601A68DDE90C7879
:104D000042F480721A600E463B46CDF800800022C5
:104D10004FF001110446FFF7E1FE236838B11B682C
:104D2000DB0544BF4FF400732364032021E05FFAE6
:104D300086F906F0FE061E612B4943463A46204698
:104D4000FFF70CFFA0B9236803905A6903929B698F
:104D50000393424639462046039BFFF741FF58B173
:104D6000236C042B01BF2268136843F400731360A3
:104D7000012004B0BDE8F087BAF1010F23681AD111
:104D8000EDB242461D6139462046FFF729FF024633
:104D90000028E5D121680B6843F480730B6020463E
:104DA000CDF800803B464FF00111FFF797FE2268D7
:104DB00060B11368B4E72A0A1A61394642462046B0
:104DC000FFF70EFF0028CBD12368D9E749F0010394
:104DD0001361054943463A462046FFF7BFFE0038B7
:104DE00018BF0120C5E700BF0200010070B50446EE
:104DF0000D46164623685B695B0701D500201EE05F
:104E00002046FFF751FEC8B96A1CF3D0FFF7DEFB5E
:104E1000801BA84201D8002DECD123685B6913F0F8
:104E20000403E7D12022236384F83D2084F83E3038
:104E3000226C84F83C3042F020022264012070BDD4
:104E400070B504460D46164621684B6913F04003C1
:104E500001D0002011E04A69D2060FD56FF0100290
:104E60004A612022236384F83D2084F83E30236C7D
:104E70002364002384F83C30012070BDFFF7A6FBBB
:104E8000801BA84201D8002DDED123685B6913F096
:104E90004003D9D12022236384F83D2084F83E309A
:104EA000236C1343E4E7000070B5044608B9012001
:104EB00070BD90F83D3003F0FF021BB980F83C2034
:104EC000FDF762FD242384F83D3023681A6822F040
:104ED00001021A601A6842F400421A601A6822F449
:104EE00000421A6000F0A8FE3F4B65689D4294BFE7
:104EF0003E4B3F4B98428CBF00230123002BD6D161
:104F00002268394E51683B4BB0FBF3F321F03F016F
:104F10001943B542516088BF4FF49676116A88BF35
:104F2000734321F03F0184BF4FF47A76B3FBF6F36D
:104F300001330B431362D169431E2B4821F44F41C7
:104F4000854221F0FF0132D86D0040F6FC70B3FBC2
:104F5000F5F30133034242D0C3F30B031943D1618C
:104F6000D4E907301168034321F0C0010B431360FB
:104F70009168D4E9030321F40341034321F0FF01C5
:104F80000B439360D4E90530D168034321F0FF015E
:104F90000B43D360136843F0010313600020202308
:104FA000206484F83D30206384F83E0080E7A068E8
:104FB00050B905EB4505B3FBF5F30133C3F30B0320
:104FC0007BB143F40043C9E719206843B3FBF0F316
:104FD0000133C3F30B0323B143F44043BEE704237F
:104FE000BCE70123BAE700BFA08601007F841E0052
:104FF000FF083D0040420F002DE9F7430446994663
:105000000C9E0F469046FFF7E1FA94F83D30202BB6
:10501000054603D0022003B0BDE8F08300903C4970
:10502000192301222046FFF759FD0028F2D194F8F8
:105030003C30012BEED02068012384F83C3003681B
:10504000D9075EBF036843F001030360036823F4DC
:1050500000630360212384F83D30402384F83E3010
:10506000002323640A9B6362BDF82C306385638D43
:105070002385284BE3624246CDE900654B4639461D
:105080002046FFF7D7FD00282AD00120C3E7FFF70D
:10509000A7FD40B1236C042B01BF2268136843F4C1
:1050A00000731360F1E7636A27681A4612F8011B60
:1050B00039616262628D218D013A92B262857A69AC
:1050C000481E80B2520720850AD548B15A783A6105
:1050D00002336362638D013B02399BB22185638594
:1050E000238D2A4631462046002BD0D1FFF77EFE85
:1050F0000028CFD12268136843F400731360202383
:1051000084F83D3084F83C0084F83E0083E700BF1B
:10511000020010000000FFFF2DE9F043044687B0B5
:105120009946109F0D469046FFF750FA94F83D308F
:10513000202B064604D00225284607B0BDE8F083A0
:1051400000907A49192301222046FFF7C7FC002866
:10515000F1D194F83C30012BEDD02068012384F884
:105160003C300368DB075EBF036843F00103036064
:10517000036823F400630360222384F83D30402356
:1051800084F83E30002323640E9B6362BDF83C30FC
:105190006385638D2385664BE3622946CDE90076FE
:1051A0004B4642462046FFF79FFD054608B10125C4
:1051B000C2E7228D2368B2B902905A6902929A69B5
:1051C0000292029A1A6842F400721A60DFF864814F
:1051D000238D002B2CD1202284F83D2084F83C30F4
:1051E00084F83E30A8E7012A0AD11A6822F48062C6
:1051F0001A6003905A6903929A690392039AE1E74D
:10520000022A0ED11A6822F480621A601A6842F4E7
:1052100000621A6004905A6904929B690493049B8B
:10522000D4E705905A6905929B690593059BCDE7E4
:10523000032B56D8012B15D1324639462046FFF7AD
:10524000FFFD0028B3D123681A69636A1A70636A84
:1052500001336362238D013B2385638D013B9BB248
:105260006385B5E7022B00963B464FF000024146AE
:10527000204619D1FFF732FC002898D123681A681C
:1052800042F400721A601A69636A1A70626A531CE7
:105290006362238D013B2385638D013B9BB2638554
:1052A00023681B695370D2E7FFF718FC02460028F9
:1052B0007FF47DAF2368196821F480611960196952
:1052C000636A1970636A01336362238D013B23852E
:1052D000638D013B9BB26385414600963B46204669
:1052E000C8E7324639462046FFF7AAFD00287FF47A
:1052F0005EAF23681A69636A1A70628D616A013A47
:1053000092B24B1C628522686362238D5069013B17
:105310009BB2400723857FF55BAF032B02BF136869
:1053200023F48063136013694B7090E70200100050
:105330000000FFFF0400010010B590F83D30202B65
:10534000DCB216D1242380F83D3003681A6822F0BD
:1053500001021A605A6A22F010025A625A6A114314
:1053600059621A6842F001021A6080F83D4000203C
:1053700010BD0220FCE730B590F83D30202BDCB2A8
:1053800016D10268242380F83D30136823F001030E
:105390001360556A4FF6F0732B400B439BB2536278
:1053A000136843F00103136080F83D40002030BDD6
:1053B0000220FCE70068D1F800C0D20184328318D3
:1053C0002DE9F043C6685D684C68D1F8189005F483
:1053D00070455D60C5680CF10107C5F30B45C6F368
:1053E0000B4626443D4445EA06455D60C668CD68E7
:1053F000C6F30A062E449D6805F470459D60C76893
:105400008D68C7F30A0701353D4445EA06459D60AE
:105410001D690E6925F007051D614FF0000E1E6124
:1054200091F832709D6991F83180C3F818E091F8D5
:10543000305045EA096545EA082545EA07459D617A
:105440005D6925F0FF055D614D695D61DD6925F4EC
:10545000E06525F00705DD61D1E907573D43DD61D2
:105460009D6A4D6AC3F828E0072E9D629CBF0E4DD1
:10547000AE5DDD6A05F0E025DD6288BF01268D6A3C
:10548000C96AA4EB0C0474437543033444EA05442D
:10549000DC621C6B6FF30A041C631963835843F0CE
:1054A00001038350BDE8F0839854020838B50446E0
:1054B000002863D090F8A13003F0FF021BB980F8F8
:1054C000A020FDF7BDFA022384F8A13023689A6971
:1054D00022F070429A61D4E901200243E0689969A0
:1054E0000243206902430A439A619A682449606929
:1054F0000A409A609A6842EA0042A06902439A60B0
:10550000DA68E0690A40DA60DA6842EA0042206A52
:105510000243DA601A69606A0A401A611A6942EA4B
:105520000042A06A02431A615A690A405A615A69E4
:10553000E16A42EA0142216B0A435A61DA6A94F84D
:10554000350094F8361002F07F42DA62DD6A94F892
:1055500034202A4342EA002242EA0142DA625A6BCC
:1055600042F006025A639A6942F001029A610020F1
:105570000123C4F8A40084F8A13038BD0120FCE761
:1055800000F800F070477047036870B59E6B5D6B64
:105590007207044614D5690712D55A6B22F004022B
:1055A0005A630422DA63D0F8A43043F00103C0F850
:1055B000A430002380F8A12080F8A030FFF7E2FF9C
:1055C000B20716D5AB0714D523685A6B22F0020236
:1055D0005A630222DA63D4F8A4301343C4F8A43027
:1055E000042384F8A130002384F8A0302046FFF77C
:1055F000C9FFF00710D5E9070ED523685A6B22F0D2
:1056000001025A630122DA63002384F8A12084F89E
:10561000A0302046FCF7CEFC320711D52B070FD562
:1056200023685A6B22F008025A630822DA630123C6
:1056300084F8A130002384F8A0302046FFF7A3FFB0
:1056400070BD2DE9F04190F8A030012B06460F46C1
:1056500094464FF002001FD04FF0010886F8A0805A
:1056600086F8A10034240D4604FB02640FCD3834C3
:105670000FC40FCD0FC40FCD0FC42B68236030466D
:1056800062463946FFF796FE33680020C3F824804F
:1056900086F8A18086F8A000BDE8F08190F8A020EF
:1056A000012A03464FF0020012D01A6883F8A100C5
:1056B000506B20F00100506306480164516B41F0CB
:1056C000010151630020012283F8A12083F8A0008A
:1056D000704700BF0068014037B500230193184BA5
:1056E000184D1A6C42F080521A641B6C03F0805300
:1056F0000193019B144B01221A64FEF767FF0446D5
:105700006B68DA030BD5104B0E4D01225A64FEF77D
:105710005DFF04466B689B030AD5002006E0FEF798
:1057200055FF001BB0F57A7FEAD9032003B030BDE6
:10573000FEF74CFF001BB0F57A7FEBD9F5E700BF11
:10574000003802400070004000000E422DE9F34195
:10575000044640B30368DE0710D423689D075BD47A
:105760002368190700F19D8023685A0700F1BD8066
:10577000A369002B40F0248100202CE08D4B9A6817
:1057800002F00C02042A07D09A6802F00C02082AE0
:105790000BD15B68590208D5864B1B689A03DCD590
:1057A0006368002BD9D1012015E06368814DB3F502
:1057B000803F13D12B6843F480332B60FEF706FF44
:1057C0007C4E054633689B03C7D4FEF7FFFE401BA3
:1057D0006428F7D9032002B0BDE8F081B3F5A02F0B
:1057E00004D12B6843F480232B60E3E72A6822F47A
:1057F00080322A602A6822F480222A60002BDDD1C0
:10580000FEF7E4FE06462B689F03A6D5FEF7DEFEF4
:10581000801B6428F7D9DDE7664B9A6812F00C0FFD
:1058200007D09A6802F00C02082A11D15B685D0269
:105830000ED4604A1368990702D5E368012BB2D1F0
:105840001368216923F0F80343EAC103136087E773
:10585000E268594BB2B101221A60FEF7B7FE554D0E
:1058600006462B689B0707D52B68226923F0F803AF
:1058700043EAC2032B6073E7FEF7A8FE801B0228F1
:10588000EFD9A7E71A60FEF7A1FE4A4E0546336836
:105890009F077FF565AFFEF799FE401B0228F6D9FA
:1058A00098E76269444B82B10122C3F8802EFEF76B
:1058B0008DFE404E0546736F9B073FF555AFFEF7D3
:1058C00085FE401B0228F6D984E7C3F8802EFEF738
:1058D0007DFE384E0546736F9F077FF545AFFEF797
:1058E00075FE401B0228F6D974E7324B1A6C12F091
:1058F000805228D101921A6C42F080521A641B6CBB
:1059000003F080530193019B01272C4D2B68D80590
:105910001BD5A368274D012B27D12B6F43F0010323
:105920002B67FEF753FE234E054641F28838336F4E
:105930009A0739D5002F3FF41BAF1E4A136C23F092
:105940008053136414E70027DFE72B6843F4807368
:105950002B60FEF73BFE06462B68D905D9D4FEF72F
:1059600035FE801B0228F7D934E7052B04D12B6FB5
:1059700043F004032B67D0E72A6F22F001022A6765
:105980002A6F22F004022A67002BCAD1FEF71EFEFE
:1059900041F2883806462B6F9B07CBD5FEF716FEE3
:1059A000801B4045F7D915E7FEF710FE401B404528
:1059B000BDD90FE7003802400000474200700040A8
:1059C000374DAA6802F00C02082A3ED0022B354B54
:1059D0004FF000021A662BD1FEF7F8FD06462B6841
:1059E00099011FD4D4E907321343626A43EA821350
:1059F000E26A43EA0263A26A5208013A43EA0243B6
:105A00006B60284B264D01221A66FEF7DFFD044627
:105A10002B689A013FF5B0AEFEF7D8FD001B0228B7
:105A2000F6D9D7E6FEF7D2FD801B0228D7D9D1E6FA
:105A3000FEF7CCFD04462B689B017FF59DAEFEF77B
:105A4000C5FD001B0228F6D9C4E6012B3FF4ABAE1E
:105A50006B68E26903F4800191427FF4A4AE216A8D
:105A600003F03F028A427FF49EAE616A47F6C0723D
:105A70001A40B2EB811F7FF496AEA26A520803F47B
:105A80004031013AB1EB024F7FF48DAEE26A03F090
:105A90007063B3EB026F14BF012000209BE600BFD0
:105AA0000038024000004742134908B58B6803F0F4
:105AB0000C03042B1CD0082B1CD14A684B68496886
:105AC00013F4800314BF0D480D48C1F3881118BFAB
:105AD000002302F03F02A1FB0001FBF7F7F8064BA1
