:020000040800F2
:1000000000000320F90F00082D2400082F24000809
:1000100031240008332400083524000800000000C3
:100020000000000000000000000000003195000802
:100030003724000800000000C1950008418E000828
:10004000491000084910000849100008491000082C
:10005000491000084910000849100008491000081C
:10006000491000084910000849100008491000080C
:1000700049100008491000084910000849100008FC
:1000800049100008491000084910000849100008EC
:1000900049100008491000084910000849100008DC
:1000A00049100008491000084910000849100008CC
:1000B00049100008491000084910000849100008BC
:1000C00049100008491000084910000849100008AC
:1000D000491000084910000849100008491000089C
:1000E000491000084910000849100008491000088C
:1000F000491000084910000849100008491000087C
:10010000491000084910000849100008491000086B
:100110004910000849100008392400084910000857
:10012000491000084910000849100008491000084B
:10013000491000084910000849100008491000083B
:10014000491000084910000849100008491000082B
:10015000491000084910000849100008491000081B
:10016000491000084910000849100008491000080B
:10017000491000084910000849100008000000005C
:1001800049100008491000084910000849100008EB
:1001900049100008491000084910000849100008DB
:0C01A00045240008491000085124000804
:1001B00010B5054C237833B9044B13B10448AFF3A1
:1001C00000800123237010BD800300200000000088
:1001D0005C86020808B5034B1BB103490348AFF323
:1001E000008008BD00000000840300205C86020837
:1001F00001F0FF01102A2BDB10F0070F08D010F8D8
:10020000013B013A8B422DD010F0070F42B3F6D1DB
:10021000F0B441EA012141EA014122F007047FF0F4
:1002200000070023F0E80256083C85EA010586EA4B
:10023000010685FA47F5A3FA87F586FA47F6A5FA87
:1002400087F68EB9EED1F0BC01F0FF0102F0070293
:1002500032B110F8013B013A83EA010313B1F8D13E
:100260000020704701387047002D06BF354603381F
:10027000073815F0010F07D1013015F4807F02BF58
:10028000013015F4C03F0130F0BC0138704700BFA9
:1002900081F0004102E000BF83F0004330B54FEA37
:1002A00041044FEA430594EA050F08BF90EA020FA4
:1002B0001FBF54EA000C55EA020C7FEA645C7FEA37
:1002C000655C00F0E2804FEA5454D4EB5555B8BF5A
:1002D0006D420CDD2C4480EA020281EA030382EACB
:1002E000000083EA010180EA020281EA0303362D5D
:1002F00088BF30BD11F0004F4FEA01314FF4801C30
:100300004CEA113102D0404261EB410113F0004F41
:100310004FEA03334CEA133302D0524263EB4303F8
:1003200094EA050F00F0A780A4F10104D5F1200E96
:100330000DDB02FA0EFC22FA05F2801841F10001F1
:1003400003FA0EF2801843FA05F359410EE0A5F1C5
:1003500020050EF1200E012A03FA0EFC28BF4CF0F6
:10036000020C43FA05F3C01851EBE37101F00045AC
:1003700007D54FF0000EDCF1000C7EEB00006EEBB9
:100380000101B1F5801F1BD3B1F5001F0CD3490843
:100390005FEA30004FEA3C0C04F101044FEA44529A
:1003A00012F5800F80F09A80BCF1004F08BF5FEA21
:1003B000500C50F1000041EB045141EA050130BD01
:1003C0005FEA4C0C404141EB0101013C28BFB1F513
:1003D000801FE9D291F0000F04BF01460020B1FA5E
:1003E00081F308BF2033A3F10B03B3F120020CDA31
:1003F0000C3208DD02F1140CC2F10C0201FA0CF00F
:1004000021FA02F10CE002F11402D8BFC2F1200C73
:1004100001FA02F120FA0CFCDCBF41EA0C01904029
:10042000E41AA2BF01EB0451294330BD6FEA040472
:100430001F3C1CDA0C340EDC04F11404C4F120025D
:1004400020FA04F001FA02F340EA030021FA04F36F
:1004500045EA030130BDC4F10C04C4F1200220FAC6
:1004600002F001FA04F340EA0300294630BD21FA04
:1004700004F0294630BD94F0000F83F4801306BFCA
:1004800081F480110134013D4EE77FEA645C18BFBE
:100490007FEA655C29D094EA050F08BF90EA020F55
:1004A00005D054EA000C04BF1946104630BD91EA4D
:1004B000030F1EBF0021002030BD5FEA545C05D150
:1004C0004000494128BF41F0004130BD14F580048F
:1004D0003CBF01F5801130BD01F0004545F0FE4103
:1004E00041F470014FF0000030BD7FEA645C1ABF38
:1004F000194610467FEA655C1CBF0B46024650EA6F
:10050000013406BF52EA033591EA030F41F400219A
:1005100030BD00BF90F0000F04BF0021704730B520
:100520004FF4806404F132044FF000054FF00001F5
:1005300050E700BF90F0000F04BF0021704730B5B6
:100540004FF4806404F1320410F0004548BF40428B
:100550004FF000013EE700BF42004FEAE2014FEAE0
:1005600031014FEA02701FBF12F07F4393F07F4FBB
:1005700081F06051704732F07F4208BF704793F0BE
:100580007F4F04BF41F40021704730B54FF46074D1
:1005900001F0004521F000411CE700BF50EA0102D4
:1005A00008BF704730B54FF000050AE050EA01027D
:1005B00008BF704730B511F0004502D5404261EBED
:1005C00041014FF4806404F132045FEA915C3FF42E
:1005D000D8AE4FF003025FEADC0C18BF03325FEACB
:1005E000DC0C18BF033202EBDC02C2F1200300FA7C
:1005F00003FC20FA02F001FA03FE40EA0E0021FAA1
:1006000002F11444BDE600BF70B54FF0FF0C4CF48E
:10061000E06C1CEA11541DBF1CEA135594EA0C0F40
:1006200095EA0C0F00F0DEF82C4481EA030621EA7B
:100630004C5123EA4C5350EA013518BF52EA0335B6
:1006400041F4801143F4801338D0A0FB02CE4FF068
:100650000005E1FB02E506F00042E0FB03E54FF098
:100660000006E1FB03569CF0000F18BF4EF0010E90
:10067000A4F1FF04B6F5007F64F5407404D25FEA8C
:100680004E0E6D4146EB060642EAC62141EA55513F
:100690004FEAC52040EA5E504FEACE2EB4F1FD0C81
:1006A00088BFBCF5E06F1ED8BEF1004F08BF5FEAFF
:1006B000500E50F1000041EB045170BD06F00046B1
:1006C00046EA010140EA020081EA0301B4EB5C045E
:1006D000C2BFD4EB0C0541EA045170BD41F4801156
:1006E0004FF0000E013C00F3AB8014F1360FDEBF7B
:1006F000002001F0004170BDC4F10004203C35DA57
:100700000C341BDC04F11404C4F1200500FA05F3D9
:1007100020FA04F001FA05F240EA020001F000427A
:1007200021F0004110EBD37021FA04F642EB0601F0
:100730005EEA430E08BF20EAD37070BDC4F10C041A
:10074000C4F1200500FA04F320FA05F001FA04F2DE
:1007500040EA020001F0004110EBD37041F10001CA
:100760005EEA430E08BF20EAD37070BDC4F12005D5
:1007700000FA05F24EEA020E20FA04F301FA05F23D
:1007800043EA020321FA04F001F0004121FA04F2E5
:1007900020EA020000EBD3705EEA430E08BF20EAB5
:1007A000D37070BD94F0000F0FD101F000464000EF
:1007B00041EB010111F4801F08BF013CF7D041EA71
:1007C000060195F0000F18BF704703F00046520075
:1007D00043EB030313F4801F08BF013DF7D043EA46
:1007E0000603704794EA0C0F0CEA135518BF95EAFC
:1007F0000C0F0CD050EA410618BF52EA4306D1D183
:1008000081EA030101F000414FF0000070BD50EAA1
:10081000410606BF1046194652EA430619D094EA2B
:100820000C0F02D150EA013613D195EA0C0F05D115
:1008300052EA03361CBF104619460AD181EA030169
:1008400001F0004141F0FE4141F470014FF0000021
:1008500070BD41F0FE4141F4780170BD70B54FF0BC
:10086000FF0C4CF4E06C1CEA11541DBF1CEA13553C
:1008700094EA0C0F95EA0C0F00F0A7F8A4EB05041E
:1008800081EA030E52EA03354FEA013100F0888015
:100890004FEA03334FF0805545EA131343EA1263DE
:1008A0004FEA022245EA111545EA10654FEA002693
:1008B0000EF000419D4208BF964244F1FD0404F54C
:1008C000407402D25B084FEA3202B61A65EB0305A8
:1008D0005B084FEA32024FF480104FF4002CB6EB65
:1008E000020E75EB030E22BFB61A754640EA0C00E5
:1008F0005B084FEA3202B6EB020E75EB030E22BF25
:10090000B61A754640EA5C005B084FEA3202B6EB65
:10091000020E75EB030E22BFB61A754640EA9C0024
:100920005B084FEA3202B6EB020E75EB030E22BFF4
:10093000B61A754640EADC0055EA060E18D04FEAB2
:10094000051545EA16754FEA06164FEAC30343EA52
:1009500052734FEAC2025FEA1C1CC0D111F4801F1F
:100960000BD141EA00014FF000004FF0004CB6E718
:1009700011F4801F04BF01430020B4F1FD0C88BFB7
:10098000BCF5E06F3FF6AFAEB5EB030C04BFB6EBC2
:10099000020C5FEA500C50F1000041EB045170BDB5
:1009A0000EF0004E4EEA113114EB5C04C2BFD4EBE2
:1009B0000C0541EA045170BD41F480114FF0000E66
:1009C000013C90E645EA060E8DE60CEA135594EAE2
:1009D0000C0F08BF95EA0C0F3FF43BAF94EA0C0FE5
:1009E0000AD150EA01347FF434AF95EA0C0F7FF45A
:1009F00025AF104619462CE795EA0C0F06D152EAAE
:100A000003353FF4FDAE1046194622E750EA410691
:100A100018BF52EA43067FF4C5AE50EA41047FF4A2
:100A20000DAF52EA43057FF4EBAE12E74FF0FF3C07
:100A300006E000BF4FF0010C02E000BF4FF0010CD8
:100A40004DF804CD4FEA410C7FEA6C5C4FEA430C51
:100A500018BF7FEA6C5C1BD001B050EA410C0CBFA0
:100A600052EA430C91EA030F02BF90EA020F002002
:100A7000704710F1000F91EA030F58BF994208BF69
:100A800090422CBFD8176FEAE37040F00100704726
:100A90004FEA410C7FEA6C5C02D150EA013C07D17D
:100AA0004FEA430C7FEA6C5CD6D152EA033CD3D0C8
:100AB0005DF8040B704700BF8446104662468C46C2
:100AC0001946634600E000BF01B5FFF7B7FF0028F5
:100AD00048BF10F1000F01BD4DF808EDFFF7F4FF1E
:100AE0000CBF012000205DF808FB00BF4DF808EDA9
:100AF000FFF7EAFF34BF012000205DF808FB00BFCC
:100B00004DF808EDFFF7E0FF94BF012000205DF8ED
:100B100008FB00BF4DF808EDFFF7CEFF94BF0120A2
:100B200000205DF808FB00BF4DF808EDFFF7C4FF9B
:100B300034BF012000205DF808FB00BF4FEA4102EE
:100B400012F5001215D211D56FF47873B3EB62521F
:100B500012D94FEAC12343F0004343EA505311F046
:100B6000004F23FA02F018BF404270474FF00000D8
:100B7000704750EA013005D111F0004008BF6FF016
:100B8000004070474FF00000704700BF4FEA41023D
:100B9000B2F1E04324BFB3F5001CDCF1FE5C0DD9DB
:100BA00001F0004C4FEAC0024CEA5070B2F1004F25
:100BB00040EB830008BF20F00100704711F0804F28
:100BC00021D113F13872BCBF01F00040704741F4ED
:100BD00080114FEA5252C2F11802C2F1200C10FAF1
:100BE0000CF320FA02F018BF40F001004FEAC123D5
:100BF0004FEAD32303FA0CFC40EA0C0023FA02F379
:100C00004FEA4303CCE77FEA625307D150EA01334E
:100C10001EBF4FF0FE4040F44000704701F000401E
:100C200040F0FE4040F40000704700BF7BB972B94D
:100C30000029BEBF00204FF0004106E008BF002899
:100C40001CBF6FF000414FF0FF3000F0D3B9ADF1A1
:100C5000080C6DE904CE002909DB002B1ADB00F03B
:100C60004DF8DDF804E0DDE9022304B070474042AE
:100C700061EB4101002B1BDB00F040F8DDF804E0E4
:100C8000DDE9022304B0404261EB4101524263EBD3
:100C900043037047524263EB430300F02FF8DDF843
:100CA00004E0DDE9022304B0404261EB41017047FA
:100CB000524263EB430300F021F8DDF804E0DDE984
:100CC000022304B0524263EB4303704753B94AB95D
:100CD000002908BF00281CBF4FF0FF314FF0FF3044
:100CE00000F088B9ADF1080C6DE904CE00F006F80B
:100CF000DDF804E0DDE9022304B070472DE9F04798
:100D0000089D8E4604468846002B4AD18A421746E3
:100D100062D9B2FA82F64EB1C6F1200301FA06F8A2
:100D200020FA03F3B74043EA0808B4404FEA174EED
:100D30001FFA87FCB8FBFEF1230C0EFB118843EA77
:100D4000084301FB0CF29A4209D9FB1801F1FF306C
:100D500080F0EA809A4240F2E78002393B449A1AD6
:100D6000A3B2B2FBFEF00EFB102243EA024300FBEB
:100D70000CFC9C4509D9FB1800F1FF3280F0D680AD
:100D80009C4540F2D3803B44023840EA0140A3EB4B
:100D90000C0300211DB1F3400022C5E90032BDE87B
:100DA000F0878B4205D90DB1C5E900010021084645
:100DB000F5E7B3FA83F1002946D1734502D38242A5
:100DC00000F20581841A6EEB030201209046002D8B
:100DD000E5D0C5E90048E2E7002A00F09080B2FAC9
:100DE00082F6002E40F0A4808A1A030C4FEA174EB8
:100DF00080B2BCB20121B2FBFEFC0EFB1C2243EA16
:100E0000024304FB0CF29A4207D9FB180CF1FF389D
:100E100002D29A4200F2E080C4469B1AB3FBFEF273
:100E20000EFB123340EA034302FB04F49C4207D951
:100E3000FB1802F1FF3002D29C4200F2CA80024647
:100E40001B1B42EA0C40A5E7C1F120068B4022FAA9
:100E500006F71F430EFA01F420FA06F32EFA06FEF7
:100E60004FEA1749234300FA01F81FFA87FCBEFB3B
:100E7000F9F01C0C09FB10EE44EA0E4400FB0CFEDA
:100E8000A64502FA01F209D93C1900F1FF3A80F0B7
:100E90009C80A64540F2998002383C44A4EB0E04A5
:100EA0001FFA83FEB4FBF9F309FB13444EEA044432
:100EB00003FB0CFCA44508D93C1903F1FF3E80F06C
:100EC0008280A4457FD9023B3C4443EA0040A4EB26
:100ED0000C04A0FB02EC64457346E14662D35FD08C
:100EE0005DB1B8EB030264EB090404FA06F622FADA
:100EF00001F31E43CC40C5E9006400214FE7B1FB7C
:100F0000F2FC010C41EA0E4180B240EA01423B464C
:100F100038463C46B846BE462026B1FBF7F1A2EB68
:100F2000080241EA0C4166E7014618E710462CE743
:100F3000C6F120022EFA02F3B740B14020FA02F2C5
:100F40004FEA174E0A43B3FBFEF8BCB20EFB183350
:100F5000110C41EA034108FB04F9B04089454FEA0E
:100F6000104380B23ED9791808F1FF3C01D289457F
:100F70001FD8A1EB0901B1FBFEF909FB04F80EFB38
:100F8000191192B242EA0142424529D2BA1809F136
:100F9000FF31C4D24245C2D2A9F102013A44BEE7B0
:100FA000F0459DD2BEEB02036CEB070C0138E14625
:100FB00096E7A7EB09094944A8F1020CB1FBFEF939
:100FC00009FB04F8DBE773467FE7504666E708460F
:100FD000FDE63B44023A33E7ACF1020C3B441CE72C
:100FE00049469CE7A1EB0901C446B1FBFEF909FBA8
:100FF00004F8C4E7704700BFDFF834D0002103E0F5
:101000000C4B5B58435004310B480C4B42189A422E
:10101000F6D30B4A02E0002342F8043B094B9A4204
:10102000F9D305F0C7FA26F0ABFD00F09BFC704742
:1010300000000320C4F70F08000000206401002016
:1010400080030020BC420120FEE70000034B18682B
:10105000B0F57A7F88BF0020704700BF00000E08FF
:1010600070B5114E86B0044605F0CEFC3368A3423D
:1010700003D105F0DBFC06B070BD0023CDE90033E1
:101080000B2201230225694601A8CDE9032305951A
:1010900005F0AEFD03460028EBD122463146284636
:1010A00005F0F6FCE5E700BF00000E0800207047E1
:1010B00081807047C18070470181704741817047CE
:1010C0007047704770477047704710B4C488036812
:1010D000121B84885B6D091B12B25DF8044B09B2C8
:1010E00018474FF6FF7383814FF0FF330362136895
:1010F000C3611060704790F8252012B103685B69E6
:101100001847704790F825201AB190F8242002B1B2
:101110001860704770B50B4C00211925C26E192A52
:101120000AD0836E40F8234001330132B3FBF5F659
:1011300005FB16338366C2660131192904F12C04BC
:10114000ECD170BD9C03002008B50022C0E9192233
:10115000C266FFF7DFFF08BDC16E30B5034679B147
:10116000426E002450F8220043F822400132192434
:101170000139B2FBF4F504FB15225A66D96630BD7D
:101180000846FCE770B589B1C26E192A0ED0002559
:101190001924AA420BD1836E40F823100133013287
:1011A000B3FBF4F104FB11338366C26670BD436E7A
:1011B0002B44B3FBF4F604FB163350F8233099426A
:1011C000F4D00135E5E700002DE9F341154CDFF8D7
:1011D000588019264FF6FF7700250123C4E90555ED
:1011E000A580E58025816581A581E58125826582CF
:1011F000E5612584658484F8245084F82530C4F89A
:101200000080E78484F82870204601A9ADF80470B6
:101210000EF0E5FC013E04F12C04DED102B0BDE885
:10122000F08100BF9C030020D4A60208074838B50F
:101230001A24013CA0F12C0507D0D0F8203400F589
:1012400084601B6898472846F3E738BD9C0300205C
:1012500070474D2303FB01000430704710B5EC21AB
:10126000044624F06FF9204610BD10B54D22044607
:1012700026F0C3FB204610BD30B595B004464D2581
:101280000F496846FFF7F1FF2A466946201D26F000
:101290009EFC0C496846FFF7E8FF2A46694604F1C0
:1012A000510026F094FC08496846FFF7DEFF2A4605
:1012B000694604F19E0026F08AFC15B030BD00BFDF
:1012C0006A8702081D870208D086020810B5034B02
:1012D00003600446FFF7D0FF204610BDC086020819
:1012E000704782B00DF1080C0CE906001146009A17
:1012F000C2EB02120A4400EB82025360D0F8E825E8
:101300008A42D8BF0131D0F8F025D8BFC0F8E8151F
:10131000002B0CBF4FF0FF3301231A44C0F8F02517
:1013200002B0704782B002AB002903E906000B4609
:1013300012DBD0F8E0258A420EDD019A002A0BDB91
:10134000D0F8E815914207DDC3EB0313134400EB1B
:101350008300406802B070470020FBE782B002AB18
:10136000002903E906000A4606DA00F2D45393ED99
:10137000000AB8EEC00A07E0D0F8E0358B4205DA83
:1013800007EE903AB8EEE70A02B07047D0F8DC15E5
:10139000D0F8D43501FB023300EE103AE9E782B011
:1013A000002A02AB03E90600D0F8D835A3BFD0F875
:1013B000DC1501FB023300EE103A07EE903AACBFA9
:1013C000B8EEC00AB8EEE70A02B0704782B00DF17D
:1013D000080C0CE90600C1EB011201990A44D03255
:1013E00040F8223002B0704782B002AB03E9060039
:1013F000C1EB01131344D03350F8230002B07047FF
:101400002DE9F84F8246D1F8DC0557EC116B59EC09
:10141000108B8B46FFF78EF80446DBF8D4050D469B
:10142000FFF788F802460B4640464946FEF734FF70
:1014300022462B46FFF712FA41EC100B24F002FA79
:1014400051EC100BFFF77AFB8046DBF8D805FFF76D
:1014500071F802460B4630463946FEF71DFF2B4613
:101460002246FFF7FBF941EC100B24F0EBF951ECAD
:10147000100BFFF763FBB8F1000F034610DBDBF83E
:10148000E0254245A8BF4246002B0CDBDBF8E41503
:101490008B42A8BF0B46CAE900235046BDE8F88F2F
:1014A0004FF0FF32F0E74FF0FF33F4E710B54FF4A1
:1014B000BF61044624F046F8204610BD73B50346CC
:1014C0006846D3F80852402D80E806000ED0D3F8C5
:1014D000044203C803EBC406013404F03F040135A1
:1014E00086E80500C3F80442C3F8085202B070BD94
:1014F00010B54FF4257204460021043026F097FA07
:101500000A23C4F8D435C4F8D8351423C4F8DC351C
:101510000B23C4F8E0350F23C4F8E4350123C4F8E5
:10152000E8350023C4F8EC35C4F8F03510BD0000F0
:1015300010B5074B03600446A522002100F5267074
:1015400026F075FA2046FFF7D3FF204610BD00BFF6
:10155000C087020800230439D8B2824201D8002093
:101560007047013351F833000028F5D1012070474E
:1015700030B50024D0F8E855C0F8EC4500F29723C8
:1015800000F54F701946002202E001F8014F0132C8
:101590009542FADC0F338342F4D130BD024600F5A8
:1015A00000710023C2E9003308328A42FAD1C0E94F
:1015B0008033C0F8083270472DE9F04FADF50B7D50
:1015C00088461646C8EB08141F469DF85032019312
:1015D0000546FFF7CDFFA31905EB830307A85B685A
:1015E00000932C44FFF7DAFF3444CDE9058601234C
:1015F00084F8983205AB93E8060007A8FFF75EFF72
:101600000DF1100840F2FF1303930024274BC8F894
:101610000030A146899A22B920460DF50B7DBDE820
:10162000F08F879B07A907A851F833A040F83390A3
:1016300001EBC301013303F03F038793019BD1F812
:1016400004B0C1F80490013A9C42899207D207EB9A
:10165000C402631C47F834A0C2F804B0DCB2002610
:1016600003AB995751440A291CD818F906205A444B
:101670000E2A17D8C1EB011005EB000C94449CF81E
:1016800098327BB9104405EB80009DF800E040687B
:10169000704507D101208CF8980207A8CDE9051202
:1016A000FFF70CFF0136042EDAD1B3E70000FF018B
:1016B0002DE9F04FADF50B7D0E4604469A4607A87E
:1016C0009DF8503200931746FFF768FFC6EB0613EC
:1016D00023443B44012205AD83F89822C5E9006705
:1016E000D4F8EC351344C4F8EC3595E8060007A8A7
:1016F0000DF10C08FFF7E2FE0DF1100940F2FF13A7
:10170000C8F800302A4BC9F800300026899921B961
:1017100030460DF50B7DBDE8F08F879A07AB0DF1D4
:101720001C0C002753F832B04CF8327003EBC200A7
:10173000013202F03F028792009A43684760013904
:101740009642899106D20AEBC601721C4AF836B05D
:101750004B60D6B2002718F9071059440A2923D83C
:1017600019F907201A440E2A1ED8C1EB011004EB08
:10177000000C94449CF898E2BEF1000F14D1104480
:1017800004EB8000406800280EDD01208CF89802F0
:10179000D4F8EC0501930130C4F8EC05C5E900125A
:1017A00007A8FFF78BFE019B0137042FD3D1ADE7CC
:1017B0000000FF012DE9F04FADF5057D04AB8B4630
:1017C000044640229A460021013AC3E9001103F180
:1017D0000803F9D1D4F8F035D4F8EC259A4208BFC3
:1017E0000123A4EB840908BF84F8F43504F2972898
:1017F000A9F65C290025EBB247460026039325E0B5
:1018000017F8013F0BBB59F82730F3B14023039978
:101810000093F2B253462046FFF74AFF5146024674
:101820002046FFF797FE034678B99A4204DC10463B
:101830000DF5057DBDE8F08F0AEBC30103C90BEB85
:10184000C30484E803000133EFE70136D4F8E83538
:10185000B342D5DC01350B2D08F10F08CBD10022A6
:10186000E5E7000007B5064BADF806001B68054824
:1018700001220DF1060106F0A1FE03B05DF804FBA4
:10188000040000203008002037B50D4D0D4C01211B
:10189000284605F0E5FA01280ED1206807F09EFCE5
:1018A000012809D854238DF8073020680A23002224
:1018B0000DF1070107F031FC642007F03FFBE6E77C
:1018C00000000240EC07002030B595B01022002146
:1018D0000AA826F0ACF81422002103A826F0A7F8E5
:1018E00000241E4B01941A6C42F080521A641B6C47
:1018F00003F080530193019B194B02941A6842F440
:1019000040421A601B6803F4404302930122029B89
:101910004FF48033CDE9082302254FF480030821DA
:10192000CDE90E534FF4B473CDE9101308A8042386
:101930001393129506F0FAF806F0BEF80F23CDE9DE
:1019400003354FF4A0504FF48053CDE90603052131
:1019500003A8059406F0C6FA15B030BD0038024061
:101960000070004080B59AB004F032FEFFF7ACFF83
:10197000142200210DA826F05AF80024C84B009428
:101980001A6BC848C84DDFF85C8342F010021A6336
:101990001A6B02F010020092009A01941A6B42F046
:1019A00020021A631A6B02F020020192019A02943B
:1019B0001A6B42F080021A631A6B02F080020292E4
:1019C000029A03941A6B42F004021A631A6B02F033
:1019D00004020392039A04941A6B42F001021A6300
:1019E0001A6B02F001020492049A05941A6B42F0F9
:1019F00002021A631A6B02F002020592059A06941B
:101A00001A6B42F040021A631A6B02F0400206920F
:101A1000069A07941A6B42F008021A631B6B03F0D4
:101A20000803224607933C21079B05F01FFA9F48B5
:101A30000122022105F01AFA22469C48042105F0F1
:101A400015FA22469A484FF4405105F00FFA012644
:101A50003C23CDE90D3693480F9403230DA90227AB
:101A6000109305F019F991480DA9CDE90D76CDE94E
:101A70000F4405F011F904238C480DA9CDE90D366A
:101A8000CDE90F4705F008F94FF4405388480DA9F8
:101A9000CDE90D36CDE90F4705F0FEF80DA98548D3
:101AA0000F97CDE90D6405F0F7F88348834B036089
:101AB00004F020FEDFF830E2814B2C62C5E900E340
:101AC00028464FF48043C5E90434C5E90244C5E91A
:101AD000064405F0D9FB1021284605F01DFE2146DD
:101AE0002846784D05F037FE4FF48273C5E9008330
:101AF0004FF400791823C5E9069328460A23C5E95F
:101B00000244C5E90444C5E90844AC62EB6206F04E
:101B1000F9FC8F232246394664488DF824308DF82D
:101B2000344005F0A3F932464FF47A7309A92846E8
:101B300006F044FD4FF47A7332460DA9284606F0AC
:101B4000E9FE3246394659485F4D05F08FF99DF858
:101B50003430D32B04BF5D4B1E705D4B0126C5E9AD
:101B60000036102240230024C5E904234FF4C0733B
:101B7000C5E906344FF40063C5E908344FF4005357
:101B800002274FF00409AB624FF0030A07230DA9A7
:101B90002846CDE90D73CDE90F934FF00808C5E94C
:101BA0000249CDE911A7139706F090FB4FF6FF729B
:101BB00009A92846CDE90A86089409960C9406F0EE
:101BC000A5FB304604F030FD4FF6FF7209A9284608
:101BD000CDE90978CDE90B6406F098FB4FF6FF726A
:101BE00009A92846CDE909A8CDE90B9406F08EFB9A
:101BF0004FF40C730893089B0C934FF6FF7209A9DE
:101C00002846CDE909980B9606F080FB40F26A5110
:101C1000284606F099FB34220DEB0200214625F000
:101C200006FF2C4D2C4B2C61C5E900340923C5E976
:101C300005361D23C5E9073A40F20D1140F2431362
:101C4000C5E9091340F2171040F24713C5E90B0329
:101C50002846C5E90244AC8685F8364005F016FEF4
:101C6000FF214FF4806CF022CDE912140521CDE95B
:101C700014C14FF4A0730DA9CDE90E24CDE916428D
:101C800028462246154D1893CDE910370D94ADF82E
:101C900064408DF8664005F0C4FE114B2B6025E0D2
:101CA00000380240001002403009002000080240C5
:101CB000000C024000000240C40900200030024035
:101CC000A086010030080020FC070020F00700205B
:101CD000400100A08808002000680140E8070020BB
:101CE0001400002000500140005C00401B68984731
:101CF0002B68184DDB689847174B2846C5E9003418
:101D0000C5E90274C5E90A47C5E90C4404F002FDBF
:101D10003146284604F0B4FD00F0F3FB00F0F0FB80
:101D200007F09CF80D4A3146404607F0BBF90C4BD2
:101D30000C4A186021460C4807F0BCF80B4B0C4AC3
:101D4000186021460B4807F0B5F80B4B186007F0F8
:101D500097F8FEE78409002000B002402C960208A4
:101D6000EC0700206896020889180008F807002090
:101D70004496020811250008F407002070477047B8
:101D80007FB5094B8DF817201B6802930DF11702E0
:101D90000123009201930A460146044805F01CFB0A
:101DA00007B05DF804FB00BF0800002030090020E8
:101DB0007FB500238DF81730084B1B6802930A4645
:101DC00001230DF11701009101930146044805F02C
:101DD00093FB9DF8170007B05DF804FB0800002096
:101DE000300900201FB5084C24680092CDE9013469
:101DF0000A4601230146054805F07EFB003818BF5E
:101E0000012004B010BD00BF0800002030090020F0
:101E100004F00ABC10B5064C00222046042105F04F
:101E200025F820460122BDE81040042105F01EB827
:101E30000008024038B50B4D044601220A484FF411
:101E4000005105F013F800220421284605F00EF891
:101E50002046FFF707FD28460122BDE8384004214F
:101E600005F004B800080240000C024038B50B4DE4
:101E7000044600220A484FF4005104F0F7FF002204
:101E80000421284604F0F2FF2046FFF7EBFC284629
:101E90000122BDE83840042104F0E8BF00080240F8
:101EA000000C0240F7B5144E144F05460C46304660
:101EB0000022042104F0DAFF00224FF400513846DA
:101EC00004F0D4FF2846FFF7CDFC0D4B0D481B68EE
:101ED000224601A906F01EFD384601224FF40051AA
:101EE000019C04F0C3FF30460122042104F0BEFF30
:101EF000204603B0F0BD00BF00080240000C0240C5
:101F0000040000203008002004F08EBB0268034B60
:101F10009A4201D104F076BB704700BF0010004028
:101F20007047000082B00E4B00220092596C41F4C1
:101F300080415964596C01F48041009100990192EB
:101F4000196C41F0805119641B6C03F080530193AC
:101F5000019B0F216FF0010002B004F08BBB00BFAA
:101F6000003802400268094B9A4282B00BD100232C
:101F70000193074B1A6B42F480521A631B6B03F4F4
:101F800080530193019B02B0704700BF00300240B4
:101F90000038024007B50F4B02689A4216D1002262
:101FA000A3F5F0430192196B41F4000119631B6B17
:101FB00003F40003019305215A20019B04F05AFB0E
:101FC0005A2003B05DF804EB04F086BB03B05DF863
:101FD00004FB00BF00B002402DE9F043044689B085
:101FE0001422002103A825F022FD2268244B9A42E6
:101FF00043D1244C244800250095236B43F004036F
:102000002363236B03F004030093009B0195236B70
:1020100043F001032363236B03F001030193019B4E
:102020004FF012094FF400734FF001080327042604
:1020300003A9CDE90339CDE90587079604F02CFE05
:102040004FF480731148079603A9CDE90339CDE910
:10205000058704F021FE0295236C43F400032364FA
:10206000236C03F400030293029B236A43F40003EE
:102070002362236A23F40003236209B0BDE8F083DE
:10208000005C0040003802400008024000000240AE
:10209000F0B599B004461422002107A825F0C7FC2A
:1020A00030220DEB0200002125F0C1FC22685E4BBE
:1020B0009A4240F0B78008230C93C0231093042366
:1020C00012930CA84FF40033159305F0D3FF08B119
:1020D000FFF726FF554B5648002400945A6C42F0F7
:1020E00080625A645A6C02F080620092009A0194F5
:1020F0001A6B42F020021A631A6B02F0200201925E
:10210000019A02941A6B42F001021A631A6B02F0F0
:1021100001020292029A03941A6B42F002021A63BD
:102120001A6B02F002020392039A04941A6B42F0B3
:1021300040021A631A6B02F040020492049A05945A
:102140001A6B42F004021A631A6B02F00402059241
:10215000059A06941A6B42F008021A631B6B03F08F
:102160000803069302250E26069B0B964FF4806308
:1021700007A9CDE90735CDE9094504F08DFD41F604
:1021800058032C480B9607A9CDE907350927CDE957
:10219000094504F081FD032327480B9707A9CDE9E2
:1021A0000735CDE9094504F077FD4FF47063224807
:1021B0000B9607A9CDE90735CDE9094504F06CFD7B
:1021C0004FF40C631D480B9607A9CDE90735CDE9FF
:1021D000094504F061FDC02319480B9607A9CDE914
:1021E0000735CDE9094504F057FD082315480B963E
:1021F00007A9CDE90735CDE9094504F04DFD4FF4B8
:10220000A0530E480B9707A9CDE90735CDE909453D
:1022100004F042FD58202246052104F02BFA5820F4
:1022200004F05AFA19B0F0BD0068014000380240CD
:102230000014024000000240000402400018024066
:1022400000080240000C024010B5044688B0142279
:10225000002103A825F0EBFB2268144B9A4223D1FE
:1022600003F56843002101915A6C114842F4801231
:102270005A645A6C02F480120192019A02911A6B0C
:1022800042F020021A631B6B03F020030293029BAF
:102290004FF4607202230321CDE903230523CDE926
:1022A000061303A904F0F8FC08B010BD005001406B
:1022B000001402402DE9F04186B0002303932B4B1C
:1022C0001C68002C4FD14FF00108C3F80080284B48
:1022D00000949A6B274842EA08029A639B6B03EAD0
:1022E00008030093022703260C25009B01A94FF643
:1022F0003F03CDE90137CDE9046504F0CDFC1E486C
:10230000059501A9CDE90187CDE9034604F0C4FC98
:1023100048F233131948059501A9CDE90137CDE9F4
:10232000034604F0B9FC4FF683731548059501A9DF
:10233000CDE90137CDE9034604F0AEFC4CF203735E
:102340001048059501A9CDE90137CDE9034604F010
:10235000A3FC60230C48059501A9CDE90137CDE91F
:10236000034604F099FC06B0BDE8F081CC090020DA
:1023700000380240001402400008024000180240E9
:1023800000100240000C02400004024070B588B00A
:1023900000230293204B1A6C42F010021A641B6C4B
:1023A00003F010030293054601A903A8029B05F060
:1023B00043FE069B4BBB05F02FFE184E184B3360B7
:1023C00040F2E733F360174BB0FBF3F3013B73606C
:1023D000304600233361B360B36106F06BFC044602
:1023E00080B9304606F03CFB044658B9362004F06C
:1023F00073F90F2D0DD822462946362004F03AF9FC
:10240000094B1D60204608B070BD05F005FE400078
:10241000D3E70124F6E700BF00380240D0090020CE
:102420000010004040420F007C0000207047FEE793
:10243000FEE7FEE7FEE77047014806F04FBB00BF2E
:10244000D0090020014805F08FBA00BF880800209D
:10245000014804F08BB900BF8409002001207047B7
:1024600008B525F087FB162303604FF0FF3008BD49
:1024700008B525F07FFB16230360FEE770B50D4617
:1024800014460E46731B9C4201DC204670BDAFF320
:10249000008006F8010BF5E770B50D4614460E46B0
:1024A000731B9C4201DC204670BD16F8010BAFF394
:1024B0000080F5E74FF0FF3070474FF400534B605A
:1024C0000020704701207047002070470A4A1168B9
:1024D00008B5034609B90949116010686946034403
:1024E0008B4206D925F046FB0C2303604FF0FF30EA
:1024F00008BD1360FCE700BF180A0020C04201209D
:10250000704708B500F0B8FDBDE8084000F03CBDDC
:1025100000F0B4BD704710B50421044623F012F852
:10252000204610BD38B50C4B0C4C18800C4B82204B
:1025300019806368984740F6110398420AD1094D03
:1025400023682C60822098472B688220DB6898479C
:10255000002038BD0120FCE7260A00204C000020A6
:10256000240A0020280A00204FF4A071F020FFF771
:10257000D9BF0000F7B5394D2B6804461B6982208E
:102580009847208000284ED02B680DF106025B6929
:1025900001A982209847324B1B78002B4BD0BDF805
:1025A000062040F674639A423FD9ADF80630BDF874
:1025B00006209B1A9BB20A2B42D90B22B3FBF2F3E3
:1025C000284A1288934201D9013A93B2BDF80420F7
:1025D000254840F6B8318A4234D8C2F571620E32CD
:1025E000016892B20F25B2FBF5F2204D2D88AA4268
:1025F00084BF05F1FF35AAB28A4215468EB22AD9A8
:10260000921B91B21A4E3768BB42BAB28CBF9A1A6B
:10261000D21A92B211440529C4BF05603360036821
:1026200063803368A38003B0F0BDB32A9CBFB4229B
:10263000ADF80620BBE7BDF80630A3F5B473B9E7E3
:102640000023C3E7C2F56D62083292B20E2A016818
:10265000C8D800252A46891A89B2D3E7280A00205B
:10266000F0070020240A0020200A0020260A00206B
:102670001C0A002037B568460D461446FFF77AFF5E
:10268000BDF8000030B1BDF802302B60BDF8043059
:102690002360012003B030BD032821D8DFE800F01B
:1026A000020B12190F4B1A68B2FA82F25209042176
:1026B0000D4804F0DBBB0B4B5A68B2FA82F25209A8
:1026C0000821F5E7074B9A68B2FA82F25209102105
:1026D000EEE7044BDA68B2FA82F252092021E7E70A
:1026E000704700BF2C0A002000100240032821D8A8
:1026F000DFE800F0020B12190F4B1A68003A18BFFE
:10270000012204210D4804F0B1BB0B4B5A68003A7A
:1027100018BF01220821F5E7074B9A68003A18BF55
:1027200001221021EEE7044BDA68003A18BF0122BB
:102730002021E7E7704700BF2C0A0020001002406C
:1027400003280DD8DFE800F00206080A0421054836
:1027500004F091BB0821FAE71021F8E72021F6E701
:10276000704700BF0010024008B5032811D8DFE809
:1027700000F0020A0C0E0421074804F071FB431E0E
:102780005842584108BD0821F6E71021F4E72021FE
:10279000F2E70020F3E700BF0010024070B5084DDB
:1027A00000240126E0B2FFF7DFFF18B12B68012BF0
:1027B00018BF2E600134052C05F10405F2D170BD5F
:1027C0002C0A0020012380F8781080F879307047B7
:1027D0007047002070470000034B4164003918BF68
:1027E00001211970704700BF7B3501207047002020
:1027F0007047836B0BB10846184770474FF6FF7060
:102800007047406803689B69184770477047704776
:102810007047704710B5044600F020FD2368034957
:10282000D3F890302046BDE810401847000000D093
:1028300008B503680446D3F88430984723682046D7
:10284000DB6F984700F0ECF8236820465B6F9847F1
:102850002920FFF70BFB00F0E3F8236820465B6FAD
:102860009847F8E710B5044609F07AFC236820463B
:10287000D3F8BC30BDE81040184700F0D3BC00F0DE
:10288000D7BC00F009BD00F0A9BC00F009BD00F004
:1028900011BD00F0ADBC08F091BE10B58421044616
:1028A00022F050FE204610BD10B590F8341090F87C
:1028B00078400C4B8C421A7809D03AB90A4A0B4935
:1028C0001488088810800C8001221A7010BD002A1C
:1028D000FCD0054A05491488088810800C80002225
:1028E000F3E700BF743501207035012072350120F7
:1028F00070B50D46194635B9094B0A4A0A4840F2E7
:10290000FF2124F061FEC0E90F52084B003A18BFC6
:1029100001221A700368BDE87040D3F89030184760
:102920000088020838880208868802087A35012063
:1029300008B5094B1B888B4203D8084B1B88934270
:1029400005D9074B074A0848A32124F03DFE074B51
:102950001980074B1A8008BD70350120723501209F
:10296000CB8802082E890208868802087635012065
:1029700078350120034690F87A0018B1586803684A
:102980001B68184770470000012108B5002208465F
:1029900006F0E0FA0A4B186028B90A4B0A4A2821C7
:1029A0000A4824F011FE00220421012006F07AFBDF
:1029B000074B186018B9074B034A2C21F0E708BDF4
:1029C000400A002071890208BA890208E9890208D0
:1029D0003C0A0020458A0208024B4FF0FF3118687C
:1029E00006F002BB400A0020014B186806F028BB25
:1029F000400A0020024B0021186806F0F5BA00BF1B
:102A0000400A0020FFF7F0BF034804490068002394
:102A10001A4606F082BB00BF3C0A00200C000020D2
:102A200013B5084C00231A4601A9206806F0A6FB3E
:102A300020684FF0FF33002201A906F09FFB02B08F
:102A400010BD00BF3C0A002003685B6C18470120E2
:102A5000704703689B6A1847FEE740F2EF30704703
:102A6000054B0360054B4FF08062C3F88820BFF32D
:102A70004F8FBFF36F8F70479897020800E100E017
:102A800010B504464FF45A61FFF7EAFF204622F0E2
:102A900059FD204610BD000082B0002301930E4B6B
:102AA0001A6B42F400021A631A6B02F400020192DC
:102AB000019A1A6942F400021A611A6922F40002AA
:102AC0001A61064B064A1A61064A5A61064B4FF0D4
:102AD00080629A6002B0704700380240840900208A
:102AE000392D0008592A000800E100E008B50A283D
:102AF00009D8DFE800F006100E08080808101010CA
:102B00001000022008BD054B054A0648902124F01C
:102B10005BFD0020F6E70120F4E700BF878A02088A
:102B2000A28A0208ED8A020838B50C46887FFFF7B2
:102B3000DDFFA58AE28A164B2169586342EA054205
:102B40005A64628BD963521B1A642568082D0ED112
:102B50009A611A615862207F0E4A42EA0062DA6185
:102B6000E2681A620C4A5961D9601A6038BD0022C5
:102B7000D8611A61E1680A0A480902F4784200F44F
:102B8000FC600243C1F3C4010A439A63034AECE7C1
:102B900000B00240090001000123020001230300EC
:102BA00008B50B280BD8DFE800F00612100A0A0A55
:102BB0000A0808080808022008BD0520FCE7054BA4
:102BC000054A06486F2124F0FFFC0020F4E70120AD
:102BD000F2E700BF878A0208478B0208ED8A0208E5
:102BE0002DE9F04191F81D800C464046FFF7D8FFD3
:102BF000A77F05463846FFF7D3FF06463846FFF75E
:102C000075FFA18A628B444B521A1A649A61228B17
:102C1000521A1A61E28A586342EA01425A642169EF
:102C20006268D963DA602068802828D0227F0FD8B4
:102C3000202867D0402865D004281AD0364B45EAB2
:102C4000026545F40035B845DD6161D0334A44E0A2
:102C5000B0F5807F04D0B0F5007FEFD1304800E0C0
:102C6000304840EA0262DA61E2681A625E625961E3
:102C700032E045EA026242F40032DA61F6E7A06827
:102C8000021DDA62227F45EA026545F40035DD6106
:102C90005E625961017841B1012921D0224B234A5A
:102CA00023484FF48D7124F08FFCDA69418822F4B7
:102CB0007F42013922F0100242EA0122DA61012149
:102CC000154BDA6942F02002DA61DA699206FCD427
:102CD00010229A600029B9D0164A1A60BDE8F08126
:102CE000B2F1FF01DA69408822F47F4200F1FF303F
:102CF00022F0100242EA002242F0100218BF012125
:102D0000DA61DDE745EA0262034B42F40032B4E7E0
:102D100042F20132E1E700BF00B0024001230100AE
:102D2000090002000A000200918B0208AB8B020826
:102D3000ED8A020801230200024B1B6858680368F1
:102D40005B6918477C35012070B5044625460A4B5F
:102D50000C30002660602672667245F8203B6022C7
:102D6000294609F053FB04F55A63EE6024359D4271
:102D7000FBD1204670BD00BF98970208034B1A682C
:102D8000D207FCD423229A60704700BF00B00240F3
:102D90007047000030B50F4C2568ED07FCD42325A3
:102DA0000904A56041F001010225FF2B6563616400
:102DB000E0630AD00849656241EA0363E361074BB7
:102DC00022626061E060236030BDE561039BA36324
:102DD000034BF8E700B002400900010001000200C7
:102DE0000100030030B50E4C2568ED07FCD4232507
:102DF0001204A56042F001020225FF2B65636264A4
:102E0000E063E16008D01B0643F00213E361054B69
:102E100065626061236030BD034BE3610123F9E724
:102E200000B0024001000200020002FF30B50B4C6E
:102E30002568ED07FCD4232512041B06A56043F486
:102E40000033022542F0010265636264E063E160E1
:102E5000E361034B65626061236030BD00B00240F6
:102E600001000200012070474020704700EB8110F4
:102E70000830704700EB8110083070470120704720
:102E800040F6BC20704740F6BC2303FB010008302D
:102E9000704740F6BC2303FB010008307047012057
:102EA00070471020704700EB01100830704700EBAE
:102EB000011008307047084600F018BD10B5034BEC
:102EC0000360044608F0CFF8204610BD5098020871
:102ED00010B50446FFF7F2FF2046482122F032FBEE
:102EE000204610BD10B5034B0360044608F0BBF844
:102EF000204610BD1C98020810B50446FFF7F2FFEB
:102F0000204640F6C42122F01DFB204610BD0000E3
:102F100010B5034B0360044608F0A5F8204610BD29
:102F2000E897020810B50446FFF7F2FF2046182183
:102F300022F008FB204610BD10B5084B0360044684
:102F400000F52F60FFF7BAFF04F12C00FFF7CAFF6E
:102F500004F11400FFF7DCFF204610BD849802083E
:102F600008B50248FFF7E8FF08BD00BF1C190020A4
:102F700010B50446FFF7E0FF204640F6A44122F0DA
:102F8000E1FA204610BD00002DE9F34100F090FA6F
:102F9000054600F091FA00240146234628462246C1
:102FA000009413F01DFA274B274A1A60204601F0BF
:102FB000DBFF264D264B274A27489A6013F078F905
:102FC0002B68BFF35B8FDB0735D4284622F0BCFAB1
:102FD00088B3224C224B236004F6483604F11400D7
:102FE00004F12C0804F52F676060C4F80880E760DE
:102FF000266108F039F81B4B6361404608F034F84D
:10300000194BE362384608F02FF8184BC4F8F03A31
:1030100004F6383002F030F8224604F638313046F3
:1030200002F020F8304600F061FC114824F0EAFA82
:10303000284622F095FA0F4802B0BDE8F041FFF7AC
:10304000E9BB00BFE0350120C80A002018190020A4
:10305000E80A0020CC0A0020100000201C190020E3
:1030600084980208E89702081C9802085098020801
:10307000612F0008440A0020704700000148FFF754
:10308000D7BB00BF440A002070B5264E264C274D02
:10309000274B23603046FFF757FE284618F0A6FA64
:1030A000244810F003FD244B2448DC6000224FF438
:1030B0008071C3E9121222491A86C3E91A12214902
:1030C00083F85820C3E91E011F49C3F880101F4927
:1030D0001F480B60F021C3E90422C3E90622C3E9BB
:1030E0000822C3E90A22C3E90E22C3E91022C3E978
:1030F0001422C3E917225A6683F870205A67C3E97D
:10310000016501801348018013484FF4A0710180CC
:103110001248018012490A70012283F83420114AB2
:103120001A6070BD740B002014190020E80A0020FA
:1031300094960208CC0A0020440A002000000101F5
:1031400001000001000450001A0014007C35012029
:103150007035012076350120723501207835012047
:1031600074350120AC9602080148FFF779BC00BF16
:10317000740B0020002070478B88838001207047EB
:10318000704780F82610704790F82600704710B5F9
:103190000022B1F90840B1F90A100280428084800F
:1031A000C18010BD0022028042808280C2807047B0
:1031B0000177704780ED080A704780F82410704747
:1031C00080F82510704701207047983070478C3088
:1031D000704784307047704770477047034B9022A8
:1031E00083F85A2383F85823704700BF00E100E0BA
:1031F000094A0A49D3680A48C3F30A03013B9BB250
:103200000B801169C1F30A01013901801364536B0A
:1032100043F001035363704700680140C22500205A
:10322000C0250020014BD3F8AC0070470068014076
:10323000024B0122C3F8AC105A627047006801408B
:1032400010B52C21044622F07DF9204610BD10B5A2
:10325000BC21044622F076F9204610BD70B5044624
:1032600008F001FA23689D6E0FF0B8F90146204678
:10327000A8472368054AD3F88C502046AC46002363
:10328000BDE87040A2F51631604700BF00B004D021
:1032900008F0D0B908F0DAB908F096B908F005BB23
:1032A000034B4FF080629A604FF080729A607047D3
:1032B00000E100E0084B4FF08062C3F88820BFF3C4
:1032C0004F8FBFF36F8F4FF08072C3F88820BFF32A
:1032D0004F8FBFF36F8F704700E100E070B50023A0
:1032E000124E8380124B0360336893F858200546D2
:1032F0000AB1D86C00B998680368DB6A98473368EC
:10330000B0FA80F4D86C640930B10368DB6A98477E
:10331000002808BF44F001042CB9064B064A0748B0
:103320002C2124F051F9284670BD00BF7C350120C6
:1033300098980208E98B0208478C0208808C0208E2
:1033400070B5254E3568BFF35B8F15F0010540D190
:10335000304622F0F9F800283BD0204C204B256164
:1033600004F13400C4E90035C4E90255E584A562DE
:10337000A58510F080FE04F158000AF0FDFC194B01
:10338000A3652046184B40F8843BFFF7A7FF174B77
:10339000C4F884302433C4F88C304FF4C803C4E933
:1033A00028350023C4F8AC30C4F8B030C4F8B430C9
:1033B000C4F8B8300E480F4BC4F89050C4F89C5075
:1033C000C4F8A850C4F8983024F01CF9304622F014
:1033D000C7F8024870BD00BFC4250020C8250020E2
:1033E00028A20208B898020830990208DCA1020855
:1033F000DB310008BCA1020838B5184C23685BB368
:10340000174B184A1B6C11888B4216D1164B198822
:1034100004F034FB236893F86A200025013283F816
:103420006A2083F87C50FFF7EFFA206808F098FED6
:103430002846BDE83840FFF72FB904F01FFB246889
:10344000236820461B6A9847012384F87C300020BB
:10345000BDE83840FFF74AB938BD00BF7C350120D0
:1034600000680140C2250020C0250020704708B533
:10347000042914D8DFE801F00F03070B0F0001F057
:10348000BFFD406808BD01F0BBFD8068FAE701F0B0
:10349000B7FDC068F6E701F0B3FD0068F2E7002071
:1034A000F0E710B50421044622F04CF8204610BD88
:1034B00000487047889902081020704713B500240F
:1034C00051B1036801948DF8034001AA9C680DF185
:1034D0000303A04702B010BD0846FBE7C089704750
:1034E000008A7047C088704780887047807A00F0F3
:1034F0007F007047807AC009704700207047000045
:103500009FED010A704700BF00000000704710B532
:103510000821044622F016F8204610BD7047704777
:1035200000F598730868496803C37047704770478F
:103530004160704770477047064BC0F84C3100231C
:10354000C0F8503100F5A273C0F84801C0F840310E
:10355000704700BF093C00080123037270477047A1
:10356000704710B4C26841685410034601EB620012
:10357000D20748BF0A599B685DF8044B48BFD3582F
:1035800018470346406830B19A681AB9D86800F005
:10359000010070470120704710B50C21044621F04E
:1035A000D1FF204610BD10B51021044621F0CAFFFE
:1035B000204610BD10B54FF4AE71044621F0C2FF95
:1035C000204610BD10B54021044621F0BBFF204627
:1035D00010BD10B50FF002F80368BDE81040DB6BBA
:1035E00018470000054B1B7801462BB1406818B105
:1035F00003680C315B6E1847704700BF7B350120B4
:10360000037A70B50546BBB940680368DB69984723
:1036100004463CB96868036805F10C011B6EBDE8FF
:1036200070401847A1886B8FC91A236820461B6B0E
:1036300009B29847A469ECE770BD10B50446D0F80C
:10364000400158B10368DB68984738B1D4F84001AD
:1036500003689B6898470023C4F8403110BD70B5DB
:10366000044690F8390094F838300130C0B29842DE
:1036700084F8390005D901232372002384F83930F6
:1036800070BDB4F93A20002111F080F9C30706D5C6
:1036900000284FF6FF73C8BF0123184400B2238AE5
:1036A000C01AA08760680368DB69984705462DB992
:1036B00060680368BDE870405B691847A988A38FFC
:1036C00019442B6828461B6B09B29847AD69EEE791
:1036D0002DE9F14FD0E9556A0746B06803681B6AC7
:1036E0009847B0F5AA7F05D2554B564AA3215648B4
:1036F00023F06AFF706803681B6A98470F2803D895
:10370000524B504AA421F2E7F06803681B6A9847BD
:103710003F2803D84E4B4B4AA521E8E70EF05EFF49
:10372000DFF8409104300EF07EFFD9F8000010B1B0
:103730000368DB689847D9F8000010B103681B687C
:103740009847DFF82481D8F8000010B103685B695E
:103750009847D7F83C0110B103685B689847D8F8E0
:10376000000010B103681B689847D7F83C0110B1FE
:1037700003689B689847F068036800215B6A984774
:1037800005460023334A4360037245F80C2B044678
:1037900028460BF005F9142222872F4A12780023BD
:1037A000A387002A35D101232372B0680368002162
:1037B0005B6A9847054602F04FFC70680368002179
:1037C0005B6A98472946064602F0E0FB331DC7F8BE
:1037D0003C61CAF80C302B68C6F808A02846DB68A4
:1037E000C9F80040C8F80050EE6398473368304687
:1037F0001B6898472146284611F0C2F823682046E6
:103800001B69984723685B69204601B0BDE8F04F0B
:1038100018471249124AB1F900B0E16823612846FD
:103820008B6BB2F900109847E3685946DB6B28466A
:10383000984728460BF02FF8094A13886387B4E7A6
:10384000E28C0208708D0208558E02089C8E0208D8
:103850003F8F0208709B02087B35012072350120E2
:1038600070350120C4350120C0350120044B1B6890
:1038700093F858200AB1D86C00B99868704700BF17
:103880007C350120F8B5174604460E460EF068FF59
:10389000124B1C60124B2360124B0025C4E95135BA
:1038A000114BC4E953551868036801219B68C4E9AA
:1038B0004F55C4E955769847284601F055FBFFF768
:1038C000D5FF19F03CFDFFF7D1FF19F0B3FDFFF76D
:1038D000CDFF19F0BBFD2046F8BD00BFD03501205B
:1038E000F89A0208E09A02087C350120064BC0F8DD
:1038F0004C310023C0F8503100F5A273C0F84801E4
:10390000C0F84031704700BF093C0008064BC0F8C2
:103910004C310023C0F8503100F5A273C0F84801C3
:10392000C0F84031704700BFBD3A0008064BC0F8F0
:103930004C310023C0F8503100F5A273C0F84801A3
:10394000C0F84031704700BF75390008064BC0F819
:103950004C310023C0F8503100F5A273C0F8480183
:10396000C0F84031704700BFD136000803685B6A79
:10397000184700002DE9F14FD0E9556A0746B068B5
:1039800003681B6A9847B0F5037F05D2434B444A4E
:10399000A321444823F018FE706803681B6A984707
:1039A0000F2803D8404B3E4AA421F2E7F068036891
:1039B0001B6A98470B2803D83C4B394AA521E8E7F6
:1039C0000EF00CFEDFF8EC9004300EF02CFED9F86F
:1039D000000010B10368DB689847D9F8000010B107
:1039E00003681B689847DFF8D080D8F8000010B152
:1039F00003685B699847D7F83C0110B103685B68BE
:103A00009847D8F8000010B103681B689847D7F8AA
:103A10003C0110B103689B689847F0680021FFF7EC
:103A2000A5FF4FF0000B224BC0F804B0044680F80D
:103A300008B00360B068036859465B6A984705465A
:103A400002F048FA7068036859465B6A984729464D
:103A5000064602F003FA331DC7F83C61CAF80C3081
:103A60002B68C6F808A02846DB68C9F80040C8F8EB
:103A70000050EE639847336830461B6898472146EC
:103A8000284610F07DFF236820461B69984723686D
:103A90005B69204601B0BDE8F04F1847E28C020890
:103AA000E28F0208558E02089C8E02083F8F0208A2
:103AB0004C9B0208C4350120C03501202DE9F14F8F
:103AC000D0E9556A0746B06803681B6A984740F614
:103AD000BB23984205D8444B444AA321444823F0D1
:103AE00073FD706803681B6A98470F2803D8414B21
:103AF0003E4AA421F2E7F06803681B6A98470B2846
:103B000003D83D4B394AA521E8E70EF067FDDFF801
:103B1000F09004300EF087FDD9F8000010B1036872
:103B2000DB689847D9F8000010B103681B68984714
:103B3000DFF8D080D8F8000010B103685B699847BF
:103B4000D7F83C0110B103685B689847D8F80000CB
:103B500010B103681B689847D7F83C0110B103689F
:103B60009B689847F0680021FFF700FF4FF0000BBB
:103B7000224BC0F804B0044680F808B00360B06877
:103B8000036859465B6A9847054601F07BFB7068FD
:103B9000036859465B6A98472946064601F094FA3D
:103BA000331DC7F83C61CAF80C302B68C6F808A072
:103BB0002846DB68C9F80040C8F80050EE63984713
:103BC000336830461B6898472146284610F0D8FED7
:103BD000236820461B69984723685B69204601B02B
:103BE000BDE8F04F184700BFE28C0208B49002080D
:103BF000558E02089C8E02083F8F02084C9B0208DB
:103C0000C4350120C03501202DE9F14FD0E9556AB6
:103C10000746B06803681B6A9847EF2805D8444BED
:103C2000444AA321444823F0CFFC706803681B6A10
:103C300098470F2803D8414B3E4AA421F2E7F06889
:103C400003681B6A98470B2803D83D4B394AA521C6
:103C5000E8E70EF0C3FCDFF8F09004300EF0E3FC70
:103C6000D9F8000010B10368DB689847D9F8000064
:103C700010B103681B689847DFF8D080D8F80000BF
:103C800010B103685B699847D7F83C0110B103682D
:103C90005B689847D8F8000010B103681B68984724
:103CA000D7F83C0110B103689B689847F068002181
:103CB000FFF75CFE4FF0000B224BC0F804B0044647
:103CC00080F808B00360B068036859465B6A98479B
:103CD000054602F0A9F87068036859465B6A984780
:103CE0002946064602F066F8331DC7F83C61CAF85B
:103CF0000C302B68C6F808A02846DB68C9F80040DD
:103D0000C8F80050EE639847336830461B68984700
:103D10002146284610F034FE236820461B69984748
:103D200023685B69204601B0BDE8F04F184700BF2B
:103D3000E28C020886910208558E02089C8E0208C9
:103D40003F8F02084C9B0208C4350120C03501207A
:103D5000406A7047806A704770478A880B8810B540
:103D6000D20A4C88C1699BB251F8220043EA04434D
:103D7000184410BD10B50446BAB1107B68B1537B2E
:103D8000D27A1B0203F4E0631A43236A03EB820333
:103D90001A888A4202D193F9020010BD05D8013871
:103DA00080B204330028F3D1F7E70020F5E710B51F
:103DB0002C21044621F0C6FB204610BD30B58BB047
:103DC0000446BDF860500895BDF85C5007959DF815
:103DD000505006959DF84C5005959DF84850049517
:103DE0009DF8445003959DF8405002959DF83C5035
:103DF0000195BDF83850009510F0FAF9064B236094
:103E0000159BE361169B2362199B63621A9BA36255
:103E100020460BB030BD00BF949B0208704770472E
:103E200070477047704730B5036885B06D460181B3
:103E3000D3F88430014604462846984795E80700A1
:103E40003C3484E8070005B030BD30B5036885B068
:103E50006D464181D3F88430014604462846984790
:103E600095E807003C3484E8070005B030BD002227
:103E7000028042808280C280704780F8361070478E
:103E800070B5036804461B6B15469847236829469E
:103E900020465B6EBDE87040184700207047806C7C
:103EA0007047806C7047C06C7047704770477047B0
:103EB000704710B54C21044621F044FB204610BD4C
:103EC00010B55021044621F03DFB204610BD10B531
:103ED0004FF43F71044621F035FB204610BD08B574
:103EE000FDF709F908BD0000036870B55E6B124B61
:103EF0001B6804468DB22BB9104B114A6C21114836
:103F000023F062FB1049828D0988914203D80F4B40
:103F10000B4A6D21F3E713F812200D4B1B6853F881
:103F2000220003681B6B9847291A3346204609B2C2
:103F3000BDE87040184700BFD435012058920208F0
:103F40009A920208D5920208D83501201C930208E3
:103F5000DC35012000224FF0FF31C0E900218260F2
:103F6000704770B5036804461B6B15469847236875
:103F7000294620465B6BBDE87040184770B5044683
:103F80001D46BDF91060FFF7ECFF23682946204667
:103F90009B6B9847236831462046DB6BBDE8704039
:103FA000184700004FF480710022818405490160A8
:103FB000C0E90122C0E90322C0E90522C0E90722C5
:103FC00082627047FCA002080022C0E90122C0E919
:103FD0000322C0E90522C0E907224FF480728284DF
:103FE000014A0260704700BFFC9B020838B52622D8
:103FF00004460D46002123F01AFD2046FFF7E4FF9A
:10400000064B23602B88E384FF23204684F8283066
:1040100029460BF0E4FD204638BD00BFD4A60208B7
:1040200010B526220446002123F001FD2046FFF7AB
:10403000CBFF0A4B23600A4BA3624FF6FF73A385A5
:104040004FF47F020023C4E90C3223874FF0FF3284
:10405000C4E91023E363204610BD00BFE4A40208B6
:10406000D09A02082DE9F04F044691B0274600256A
:1040700010F0DAFAC74BE56347F8403B26222946A1
:10408000384623F0D4FC3846FFF79EFFC24B23642A
:1040900004F16C0AFF234FF6FF7B0EA984F866300B
:1040A0005046A56604F19C08ADF838B0FFF79EFFB6
:1040B000BA4BE36604F1C8094046A4F89650A4F848
:1040C0009850FFF76FFF0EA94846ADF838B00AF0D8
:1040D000D1FC04F1F4030EA918460393ADF838B0EF
:1040E0000AF0C8FC04F590730EA918460493ADF8C5
:1040F00038B00AF0BFFC04F5A67304F5BC76184688
:104100000593FFF74FFF0EA93046ADF838B009F020
:1041100021FF04F502730EA918460893ADF838B0D4
:10412000FFF764FF04F50D7318460693FFF778FF59
:104130009B4BC4F8343204F520731846C4F87C5203
:104140000793FFF76DFF974BC4F8803204F5347383
:104150000EA91846C4E9B2550993ADF838B0FFF777
:1041600045FF4FF4A0732A46384600932946F023B2
:10417000FFF704FF04F1040B4FF07F433946A366B9
:10418000584606F085FF4FF0080350460EA9ADF8DB
:1041900038300BF03DFA4FF4A073504600932A4696
:1041A000F1232946FFF7EAFE2A46504629460BF03E
:1041B0000DFA5146584606F06BFFFA232A46404650
:1041C00000932946F023FFF7D9FE012748460EA9A0
:1041D000ADF838700BF003FD12236FF0060248466D
:1041E00000936FF008014FF48173FFF7C7FE484654
:1041F00029460AF0FAFB4946404606F049FF4FF4CB
:104200008A790398ADF838700EA90BF0E8FC0F23FB
:104210000A220398CDF80090E621FFF7AFFE03983D
:1042200029460AF0E2FB4046039906F031FF049864
:10423000ADF838700EA90BF0D2FC0F2309220498B8
:10424000CDF800906FF00401FFF798FE0498DFF8B6
:104250008091554F29460AF0C8FB4046049906F064
:1042600017FF4146584606F013FF4FF4A073059818
:1042700000932A46F0232946FFF780FE02221146CA
:104280003046FFF76EFE0EA93046ADF838500AF002
:1042900003F8464BC4F88031454BC4F8A431454B74
:1042A000C4F8A831304609F0A1FEB0EE040A304649
:1042B0000AF003F8DFF81C81C4F8D091304609F009
:1042C00095FE3046C4F8C491C4F8BC81C4F8C071EE
:1042D00009F08CFE3046C4F8C881C4F8CC7109F0EE
:1042E00085FEDFED350A9FED351ADFF8EC90B0EE74
:1042F000600A304609F0D9FF3146059884F8A1518B
:1043000006F0C6FE40F2191208986921FFF729FE4F
:104310000B230898ADF838300EA90BF060FC089913
:10432000059806F0B5FE4FF0180A0599584606F0B4
:10433000AFFE40F205120698CDF800A064231621C6
:10434000FFF71CFE4FF07F43C4F86432D4F83432D8
:104350000699D3F88430A4F868520AAE30469847DC
:1043600096E8070004F51C7383E80700D9F80030CD
:104370002BB9134B134A6021134823F025F9DFF8BA
:104380005C80B8F80030082B2AD8104B0D4A612108
:10439000F2E700BF849D020874A50208DCA50208AC
:1043A000649C0208F49C020800009443F000500250
:1043B0000000EB420080374300000000560EC94069
:1043C000589202085A930208D59202081C930208D8
:1043D00000007A440000F042D4350120D835012095
:1043E000374F0821386800F0FBFD364BC4F87C02DB
:1043F0000E9306980E230EA9ADF83C300BF08CF806
:104400000699584606F044FE1723079800934FF488
:10441000837248239221FFF7B1FDD4F880320799C7
:10442000D3F88430A4F8B4524FF07F42C4F8B022DD
:104430003046984796E8070004F52F7383E8070095
:10444000D9F80030002B94D0B8F80030072B9CD955
:104450003868072100F0C4FDD9F80030C4F8C8025C
:10446000002B86D0B8F80030062B8ED9386806218C
:1044700000F0B6FD134BC4F8CC020E9307980D2341
:104480000EA9ADF83C300BF047F80799584606F0F6
:10449000FFFD524609982321FFF763FD0A2309987F
:1044A000ADF838300EA90BF09AFB5846099984F8FC
:1044B000F55206F0EDFD204611B0BDE8F08F00BFCB
:1044C000E0350120D09A020870477047704730B439
:1044D000C26844685510034604EB6200D20748BF27
:1044E00062599B6830BC48BFD358184703464068A0
:1044F00030B19A681AB9D86800F0010070470120FD
:10450000704710B51021044621F01CF8204610BD5C
:1045100010B5F021044621F015F8204610BD983062
:10452000884208B505D10EF059F8BDE80840FFF7FC
:104530000DBA08BDF8B5194B018F1B888B42064692
:104540002AD9174B1B682BB9164B174A17486C21F1
:1045500023F03AF813F81120154B1B6853F822503A
:10456000144B186800F03CFD2B6807469B6B2846EF
:1045700098472B6804469B6C3946284698472B6819
:1045800014FB00F45B6A394628469847A4B2231806
:104590001BB2A6F84630F8BD0023FAE7D835012053
:1045A000D4350120589202089A920208D592020846
:1045B000DC350120E03501202DE9F743044610F0F9
:1045C00033F8464B2360464B0025C4E910354FF4C1
:1045D0008072FF2304F16C07A4F8642084F866302D
:1045E000A4F890204FF6FF733E4AE26604F1980665
:1045F000A4F8923084F8943001A93846C4E91255E1
:10460000C4E91455C4E91655C4E91C55C4E91E553E
:10461000C4E92055C4E92255E5632566A566ADF8D1
:1046200004300BF0DCFA30460BF010FC2E4BC4E9E2
:1046300038342E4B04F140082A46C4E93A3529465D
:104640004046FFF78EFC4046F021FCF735FD404622
:104650004FF4A071FCF732FD04F104094FF07F43E1
:10466000A3664146484606F013FD2A4629463846C9
:10467000FFF777FC0F2301A93846ADF804300BF0A3
:10468000AEFA3946484606F003FD304640F20712BE
:104690002121FFF766FC042301AA6946ADF800302A
:1046A00030460523ADF804300BF060F90923A4F877
:1046B000D0303046FFF73EFF0D4B4FF0FF32C4E9DC
:1046C000352304F1E0034846C4F8C030314606F013
:1046D000DFFC204603B0BDE8F08300BFD09D020898
:1046E00074A50208D4A60208B89D02081F45000858
:1046F000F5F5F5FF70477047704730B4C2684468FD
:104700005510034604EB6200D20748BF62599B680C
:1047100030BC48BFD35818470346406830B19A6848
:104720001AB9D86800F0010070470120704710B531
:104730001021044620F006FF204610BD10B54FF4AE
:104740000171044620F0FEFE204610BD98308842DC
:1047500008B505D10DF042FFBDE80840FFF7E6B807
:1047600008BD00002DE9F04F04468DB0A04600259D
:104770000FF05AFFB24BE56348F8403B262229462A
:10478000404623F054F94046FFF71EFC04F16C0745
:10479000AC4B23644FF0FF094FF6FF7626222946E3
:1047A00084F866903846A566ADF8286023F03FF996
:1047B0003846FFF709FCA44BE366BDF82830A4F89F
:1047C000923004F1980B0AA9384684F894900BF0C3
:1047D00006FA04F1E00A58460BF038FB2622294677
:1047E000504623F024F95046FFF7EEFB4FF001034B
:1047F00004F58A7984F80431944BC4F8E030A4F8C5
:104800000E61A4F8106184F81261C4F8085184F8AC
:104810000C514846FFF704FC8D4EC4F8146104F5B2
:10482000B0731846C4F85C510393FFF7F9FB04F525
:10483000D673C4F860611846C4F8A8510293FFF714
:10484000EFFB844BC4E97D34834BC4E97F354FF4DF
:10485000A0732A46404600932946F023FFF78EFBBB
:10486000261D4FF07F43A3664146304606F010FCFC
:104870006FF00A0238462946FFF773FB0E233846CD
:104880000AA9ADF828300BF0AAF93946304606F0EF
:10489000FFFB584655224FF4B171FFF762FB062328
:1048A0000AAA09A958460527ADF824300723ADF810
:1048B00028300BF05BF85846A4F8D070FFF73AFEAA
:1048C0004FF0FF33C4E9353304F5FA73C4F8C03050
:1048D0005946304606F0DCFB7F2221215046FFF787
:1048E00040FB4FF004080AAA09A95046ADF8287009
:1048F000ADF824800BF03AF85146304606F0C8FB7C
:104900001E2389220093282146234846FFF736FBC1
:104910004FF07F43C4F84431D4F81431A4F848511F
:1049200004AFD3F88430DFF84CB149463846984795
:1049300097E8070004F5A87383E80700DBF8003068
:104940002BB9464B464A6021464822F03DFE464B75
:104950001B88032B03D8454B414A6121F4E7444BA4
:10496000DFF814A11868032100F03AFB0AA9C4F883
:104970005C014846CDF828A0ADF82C800AF0CCFDAB
:104980004946304606F084FB1E22039800924623D7
:1049900089228321FFF7F2FAD4F860310399D3F822
:1049A0008430A4F894514FF07F42C4F890213846E7
:1049B000984797E8070004F5CE7383E80700DBF813
:1049C0000030002BBDD0284A1388012BC3D9284BB7
:1049D0000121186800F004FB0223C4F8A8010AA909
:1049E0000398ADF82C30CDF828A00AF095FD039976
:1049F000304606F04DFB029889226F21FFF7B1FA8D
:104A00004FF07F430299C4F8DC313846A4F8E051F6
:104A10000AF0DAFA97E8070004F5F47383E8070070
:104A20000298CDF828A00AA9ADF82C500AF074FD20
:104A30003046029906F02CFB20460DB0BDE8F08F01
:104A40001C9E020874A50208D4A6020860A60208EB
:104A5000649C0208049E02084D4700085892020810
:104A60005A930208D5920208D83501201C930208F7
:104A7000E0350120D4350120D09A020870477047F4
:104A8000704770477047704730B4C268446855102B
:104A9000034604EB6200D20748BF62599B6830BCF2
:104AA00048BFD35818470346406830B19A681AB9CE
:104AB000D86800F0010070470120704710B5102140
:104AC000044620F03FFD204610BD10B54FF4AA71FA
:104AD000044620F037FD204610BD38B500F1FC0338
:104AE000994204460D460AD10368DB6A9847236859
:104AF00020465B6B98470DF071FDFEF707FF04F150
:104B0000B4039D4207D1236820461B6B98470DF0E4
:104B100065FDFEF7FBFE6C34A54205D10DF05EFD90
:104B2000BDE83840FEF7F2BE38BD00002DE9F04F79
:104B3000044685B00FF078FD534B2360534B00259E
:104B4000C4E910354FF4807304F16C09A4F86430A3
:104B5000FF2304F1B40884F86630C4E91255C4E9AF
:104B60001455C4E91655E5632566A56648460BF05D
:104B70006DF904F1FC0740460BF068F938460BF07C
:104B800065F9434BC4E95134424B04F140062A46CF
:104B9000C4E9533529463046FFF7E3F93046F021A2
:104BA000FCF78AFA30464FF4A071FCF787FA04F15B
:104BB000040A4FF07F43A3663146504606F068FA78
:104BC000294648465022FFF7CCF94FF0030B022349
:104BD00002A903AA4846ADF80830ADF80CB00AF0B7
:104BE000C5FE0C22A4F8A4204846FFF7A3FC4FF012
:104BF000FF3604F5A273C4F8943049465046C4E920
:104C00002A66019306F044FA29464046A022FFF79F
:104C1000A8F9022302A903AA4046ADF80830ADF86E
:104C20000CB00AF0A3FE0B22A4F8EC204046FFF7DC
:104C300081FC019BC4F8DC3041465046C4E93C6627
:104C400006F026FA29463846F122FFF78AF903AA28
:104C500002A902233846ADF80830ADF80CB00AF0CE
:104C600085FE0A23A4F834313846FFF763FC019B24
:104C7000C4F824315046C4E94E66394606F008FAB5
:104C8000204605B0BDE8F08F689E020874A50208B2
:104C9000509E0208DB4A00087047000030B5164DF0
:104CA0002C6814F001048FB0BFF35B8F21D128462C
:104CB00020F04AFCE8B13F230993104B0893104BB6
:104CC000104911480A94CDE9064301220423CDE995
:104CD0000332142300930322CDE90B44CDE90144B0
:104CE0000594FFF76BF8094822F08CFC284620F069
:104CF00037FC05480FB030BD842600201CBD0208DB
:104D000060BD020864BB020888260020994C000898
:104D10007047000030B5164D2C6814F001048FB0B8
:104D2000BFF35B8F20D1284620F00EFCE0B13F237B
:104D30000993104B0893104B104911480A94012213
:104D4000CDE906430423CDE903320A230093CDE9DC
:104D50000B44CDE901440594FFF730F8094822F0EF
:104D600051FC284620F0FCFB05480FB030BD00BFC9
:104D7000B426002020BD020864BD020890BB0208D2
:104D8000B8260020114D00087047000030B5174DBF
:104D90002C6814F001048FB0BFF35B8F22D128463A
:104DA00020F0D2FBF0B13F230993114B0893114B34
:104DB00007930123CDE9053304930423CDE902438E
:104DC00014230D4900931A221823CDE90B440B48F4
:104DD0000A940194FEF7F2FF094822F013FC2846DA
:104DE00020F0BEFB05480FB030BD00BFE426002018
:104DF00024BD020868BD0208A0BB0208E826002006
:104E0000894D00087047000030B5164D2C6814F02D
:104E100001048FB0BFF35B8F20D1284620F094FBB4
:104E2000E0B13F230993104B0893104B10491148F0
:104E30000A940122CDE906430423CDE90332282355
:104E40000093CDE90B44CDE901440594FEF7B6FF8C
:104E5000094822F0D7FB284620F082FB05480FB016
:104E600030BD00BF142700205CBD02086CBD0208E5
:104E70000CBD020818270020054E000800207047CE
:104E8000002070470EB403B503AB002153F8042B88
:104E900001930EF02BFC02B05DF804EB03B07047F9
:104EA0000CB407B504AB53F8042B01930EF01EFCB1
:104EB00003B05DF804EB02B070470000436C10B51E
:104EC000044673B3038F2BB9184B194AC5211948EF
:104ED00022F07AFBC38E00EB43035B8C0BB310F024
:104EE000DAFA238F012B03D8134B144ACB21EEE7B8
:104EF000E28E531C9BB2092B194688BFA3F10A010D
:104F000004EB410140F63F10498C814209D10A2B44
:104F100004EB420228BF002304EB4303508C588467
:104F200051842046BDE8104010F0B8B9A59302089E
:104F3000AE93020859940208A3940208B19402089F
:104F400010F073B910B586B002AC84E806001A46BA
:104F50000AAB05930193099B00932146089B0CF033
:104F6000BFFE06B010BD000038B518BB124B134889
:104F70001C681349B4B1226822440260626822446A
:104F80000A60A26814440F4B00221A8000F038F81F
:104F9000054600F033F80C4B1C600C4B1D600C4BAD
:104FA000188007E00B4B03600B4B0B600B4B1C682E
:104FB000002CE8D138BD00BF502700204827002032
:104FC000442700204C270020D4350120DC35012067
:104FD000D8350120ACBD020870BD020814BE02081D
:104FE000044B1B6853F82100034B1B6803EB400084
:104FF000704700BF44270020482700200F2070473B
:10500000004870475427002010B5FFF7BFFE064C3C
:105010002060FFF7F9FE6060FFF77CFEA060FFF7FD
:105020003DFEE06010BD00BF5427002010B50024F5
:1050300004600C6014601C6010BD704710B54FF424
:10504000AE71044620F07EFA204610BD10B504462D
:10505000D0F8580100F013F82046BDE810400DF0DC
:105060003FBB000010B50446FEF70CFC014B23606B
:10507000204610BDA89E02080022C26070477047FB
:105080000160704710B581600C46FBF7DFFFA0425E
:1050900004DA2046BDE81040FBF7E2BF10BD00680F
:1050A000704780687047FBF7D1BF7047043870477E
:1050B000704710B51021044620F044FA204610BD78
:1050C000A0F10400F5E7000000228260024A0260BD
:1050D00020324260C1607047FC9E0208704713B5E1
:1050E0000B78013B00F50274032B0AD8DFE803F0CC
:1050F000020F1113092301A92046ADF804300AF06C
:105100006EFD204602B0BDE810400EF019BC0B2326
:10511000F1E70D23EFE70C23EDE700002DE9F04F59
:105120002DED028B002599B00446C0F8245300F6FB
:1051300024100091FCF78DF84D22014604A822F0BE
:1051400046FD04AF4FF00B0A04F54B7802AE17F89A
:10515000019BB9F1000F3BD0D4F82433B5FBFAF230
:105160000133C4F8243323680AFB1251CDE902123B
:10517000DB6A494620469847D4F810BADBF800307D
:1051800096E806009B6D01934046FCF7E7F896E829
:1051900006004046B0EE408AFCF701F9BDEEC00AB9
:1051A000BDEEC88A10EE103A1AB218EE103A584600
:1051B00019B2019B984796E806004B464046FCF71B
:1051C00090F896E80600D4F8103A4046FCF7FEF84E
:1051D00001354D2DBBD1D4F824230099034819B0D3
:1051E000BDEC028BBDE8F04F22F0B2BB8395020804
:1051F0002DE9F041144DDFF85880044617461E464D
:105200002A460B4640460A2111F044F8C4F87C8235
:1052100004F50D70DFF83C800EF092FB3B460B4F1F
:105220002A460A21404611F035F833462A463846C8
:105230000A2111F02FF8C4E9B28704F52070BDE807
:10524000F0410EF07DBB00BFA8950208902700201A
:10525000B8270020A427002010B5034B03600446A4
:10526000FEF725FE204610BD2C9F020810B504460F
:10527000FFF7F2FF204640F6BC2120F063F92046FC
:1052800010BD0000F0B50446ADF2FC5DFEF7EAFE8D
:10529000484B236004F54B70FCF74AF904F61426DA
:1052A00004F624100025FCF711F83046FBF74CFFFC
:1052B0004FF6FF736946C4F8845A04F52960ADF8C7
:1052C00000304FF42577FEF791FE6846FCF730F981
:1052D0003A4601A904F54C7022F079FCA6A9A52252
:1052E00004F2C45022F073FC3A46D0A904F26C6078
:1052F00022F06DFCDDF8D435C4F80039DDF8D8357E
:10530000C4F80439DDF8DC35C4F80839DDF8E035D7
:10531000C4F80C39DDF8E435C4F81039DDF8E835A7
:10532000C4F81439DDF8EC35C4F81839DDF8F03577
:10533000C4F81C399DF8F43584F82039012384F829
:10534000FC326423C4E9C135C4F80053C4F8105AD0
:105350006846FBF7F9FE69467022304622F037FCBA
:105360006846FBF7B3FFE72201A904F6281022F0F4
:105370002EFCD4F80C32C4F80C330F4BC4F81433A1
:105380000023C4F81833C4F81C3344F62063C4F86F
:1053900020331E23201D84F81053C4F82453C4F86E
:1053A00028330EF0CDFA2046C4F8845A0DF2FC5D85
:1053B000F0BD00BF2C9F02082CF985BF0000000043
:1053C00008B54FF4B47390FBF3F202FB130007EE41
:1053D000900AB8EEE77ADFED3C7AB4EEE77AF1EEC8
:1053E00010FA04D5F6EE007A67EE877A0AE0DFED70
:1053F000377AB4EEE77AF1EE10FA15D5F3EE0E7ABD
:1054000077EE677A17EE900AFBF7A6F82CA3D3E99C
:105410000023FBF7F9F82E4B0022FBF71FFAFBF7EE
:10542000B5FB00EE100A08BDDFED2A7AB4EEE77A8C
:10543000F1EE10FA04D5DFED287A77EEC77AE1E7CE
:10544000DFED267AB4EEE77AF1EE10FA04D577EEC6
:10545000C77AB6EE007AC7E7DFED216AB4EEE67AE6
:10546000F1EE10FA06D5DFED1F7AF6EE006AE7EEF0
:10547000667AC7E7DFED1C6AB4EEE67AF1EE10FA61
:1054800002D5DFED1A7AD8E7DFED196AB4EEE67AD5
:10549000F1EE10FA04D5F3EE0E7A77EE277AB1E743
:1054A000DFED146AB4EEE67AF1EE10FA46BFF6EEDE
:1054B000006AE7EE267ADFED107AA3E7AFF300800B
:1054C0001F85EB51B81E0940000070420000B44235
:1054D000008066400000F0420000164300003443A4
:1054E000000070430000E1430000874300800E4449
:1054F000000096430000B443000000008068FFF7FE
:10550000CEBD8068FFF7BEBD07B54FF6FF7301A99A
:105510000348ADF80430FEF769FD03B05DF804FB05
:105520006427002073B50446FEF7C2FC236804F527
:105530003F7120465B6B98472368E06BDD6B036827
:105540001B69984704F5296601462046A8470A23A7
:1055500001A930460025ADF804300AF040FBFF23D6
:1055600084F8B83A2A462946304684F8B55AFEF7F8
:10557000F8FC3146201D05F08BFD30460EF0E0F9B9
:10558000C4F8885A84F88C5A02B070BD73B50546C9
:1055900000F614200E46FBF7DFFD044618B3711E1B
:1055A00003290BD8DFE801F00223272B03681B6EC9
:1055B0000922ADF8042001A920469847B5F90E2329
:1055C000B5F90C132046FEF7CCFC012384F82530F6
:1055D000FF2384F82830281D214605F059FD236853
:1055E00020465B699847C5F8104A02B070BD036851
:1055F0000B221B6EDDE703680D221B6ED9E70368E3
:105600000C221B6ED5E773B5054600F614200E4636
:10561000FBF7A2FD044620B33378013B032B0BD8E4
:10562000DFE803F00223272B03681B6E0922ADF885
:10563000042001A920469847B5F90E23B5F90C13AB
:105640002046FEF78EFC012384F82530FF2384F8E2
:105650002830281D214605F01BFD236820465B6984
:105660009847C5F8104A02B070BD03680B221B6E44
:10567000DDE703680D221B6ED9E703680C221B6E61
:10568000D5E72DE9F04FD0F8106A00F54B750446C8
:10569000B6F9060007EE900A2DED028BF8EEE77AD8
:1056A000ADF5097D17EE900AFAF756FF41EC180B9D
:1056B000B6F9040007EE900AF8EEE77A402617EEF6
:1056C000900AFAF749FFB0EE481AF0EE681A41EC7A
:1056D000100B294602A8FBF793FE08AB9846002260
:1056E000013EC3E9002203F10803F9D140230093EE
:1056F0009DF80C209DF8081043462846FBF75CFFF8
:10570000D4F82433022803F101038146C4F824337A
:1057100074DDD4F8842A0A2313FB002398E80300DD
:1057200004AF87E80300C4F8843A97E806002846E7
:10573000FBF714FEFDEEC07A97E80600284617EE48
:1057400090AAFBF72CFEB4F99A3AFDEEC07AC3F1A9
:10575000140317EE902A03EBD37302EB6302B4F940
:10576000983AC3F1140303EBD3730AEB630104F516
:10577000296007464FF0010A12B209B2FEF7F1FBA9
:1057800084F8B5AA38460EF0DBF806AF84F88CAA88
:10579000C4F8886AB246B34608EBCA0393E803002C
:1057A00087E80300284697E80600FBF71DFE06463B
:1057B000A0B1036880F828B05B6980F825B09847ED
:1057C000314604F61420FBF7DDFCD4F82433013B0A
:1057D000C4F824333146201D05F09BFC97E80600F1
:1057E00000232846FBF77DFD0AF1010A97E8060031
:1057F00000232846FBF7EAFDD145CDDC2846FBF720
:10580000B7FE06AE41462846FBF7D4FF4FF000092D
:105810008246CB46D14516DB94F82039002BF1D0D7
:10582000D4F8083303F00303013384F8FC3223680F
:1058300004F53F715B6B204698470DF5097DBDEC83
:10584000028BBDE8F08F08EBC90393E8030086E8FC
:105850000300284696E80600FBF7C6FD0746A0B100
:10586000036880F828B05B6980F825B0984739460E
:1058700004F61420FBF786FCD4F82433013BC4F86B
:1058800024333946201D05F044FC96E80600002329
:105890002846FBF726FD96E8060000232846FBF77E
:1058A00095FD09F10109B5E72DE9F04FD0F8203356
:1058B0002DED088B002B8BB0044603DDD0F824338C
:1058C0001D2B49DD0027C4F8207304F54B7908AD82
:1058D0004FF00008CDE90887484695E80600FBF739
:1058E00021FD18B395E806004846FBF77DFD064606
:1058F00080B1002380F8283080F8253003685B6988
:105900009847314604F61420FBF73CFC3146201D35
:1059100005F0FFFB95E8060000234846FBF7E1FC95
:1059200095E8060000234846FBF750FD08F1010802
:10593000B8F10B0FCED101370F2FC9D10023C4F816
:105940002433E06BD4F8841A03685B6998470CF041
:1059500045FEFDF7EBFF01E0002BF2D094F88C3A06
:105960007BB1D4F8883A01330A2BC4F8883A08DDB1
:10597000002584F8B55A04F529600DF0E1FF84F89C
:105980008C5AD4F800030130C4F80003FFF718FD67
:10599000D4F82013236801391D6CC4F82013204665
:1059A000D4E9C923B0EE409AA847AF4D286803F068
:1059B00015FC90B34FF0FF332868002208A903F0CC
:1059C000DDFB9DF82030542B27D194F8106326BBC3
:1059D000D4F80033C4F80833236804F53F751B6B13
:1059E000294620469847236884F830625B6B294635
:1059F00020469847D4F8100AB4F90E230368B4F986
:105A00000C139B6D9847012384F810330023C4F8CE
:105A10001833C4F81C3384EDC59A94F81033002B66
:105A200000F06B81D4F8103AD4F81403B3F90420D1
:105A3000B3F9063008EE102A08EE903AFAF78CFD1A
:105A400085A3D3E90023FBF76FF8F8EEE88A002876
:105A5000F3EE047AB8EEC88A18EE900ABBEE04AAF8
:105A600008BFB0EE67AA78EEE79AFAF775FD7AEE0E
:105A7000087A41EC1B0B17EE900AFAF76DFDB0EEB9
:105A80004B1AF0EE6B1A04F54B7502AF41EC100B9C
:105A900029463846FBF7B4FC18EE100AFAF75CFD0D
:105AA00041EC180B19EE900AFAF756FDB0EE480AD1
:105AB000F0EE680A0DF1100A41EC110BDDF80880D8
:105AC0002946504606AEFBF79BFCB0EE4B1AF0EEB3
:105AD0006B1AB0EE480AF0EE680A29463046FBF72A
