:020000040800F2
:1000000000000320F90F00085D3000085F30000891
:10001000613000086330000865300008000000000F
:10002000000000000000000000000000E175000872
:10003000673000080000000071760008E56E0008D7
:10004000491000084910000849100008491000082C
:10005000491000084910000849100008491000081C
:10006000491000084910000849100008491000080C
:1000700049100008491000084910000849100008FC
:1000800049100008491000084910000849100008EC
:1000900049100008491000084910000849100008DC
:1000A00049100008491000084910000849100008CC
:1000B00049100008491000084910000849100008BC
:1000C00049100008491000084910000849100008AC
:1000D000491000084910000849100008491000089C
:1000E000491000084910000849100008491000088C
:1000F000491000084910000849100008491000087C
:10010000491000084910000849100008491000086B
:10011000491000084910000869300008491000081B
:10012000491000084910000849100008491000084B
:10013000491000084910000849100008491000083B
:10014000491000084910000849100008491000082B
:10015000491000084910000849100008491000081B
:10016000491000084910000849100008491000080B
:10017000491000084910000849100008000000005C
:1001800049100008491000084910000849100008EB
:1001900049100008491000084910000849100008DB
:0C01A0007530000849100008813000088C
:1001B00010B5054C237833B9044B13B10448AFF3A1
:1001C00000800123237010BD800300200000000088
:1001D000FC47020808B5034B1BB103490348AFF3C2
:1001E000008008BD0000000084030020FC470208D6
:1001F00001F0FF01102A2BDB10F0070F08D010F8D8
:10020000013B013A8B422DD010F0070F42B3F6D1DB
:10021000F0B441EA012141EA014122F007047FF0F4
:1002200000070023F0E80256083C85EA010586EA4B
:10023000010685FA47F5A3FA87F586FA47F6A5FA87
:1002400087F68EB9EED1F0BC01F0FF0102F0070293
:1002500032B110F8013B013A83EA010313B1F8D13E
:100260000020704701387047002D06BF354603381F
:10027000073815F0010F07D1013015F4807F02BF58
:10028000013015F4C03F0130F0BC0138704700BFA9
:1002900081F0004102E000BF83F0004330B54FEA37
:1002A00041044FEA430594EA050F08BF90EA020FA4
:1002B0001FBF54EA000C55EA020C7FEA645C7FEA37
:1002C000655C00F0E2804FEA5454D4EB5555B8BF5A
:1002D0006D420CDD2C4480EA020281EA030382EACB
:1002E000000083EA010180EA020281EA0303362D5D
:1002F00088BF30BD11F0004F4FEA01314FF4801C30
:100300004CEA113102D0404261EB410113F0004F41
:100310004FEA03334CEA133302D0524263EB4303F8
:1003200094EA050F00F0A780A4F10104D5F1200E96
:100330000DDB02FA0EFC22FA05F2801841F10001F1
:1003400003FA0EF2801843FA05F359410EE0A5F1C5
:1003500020050EF1200E012A03FA0EFC28BF4CF0F6
:10036000020C43FA05F3C01851EBE37101F00045AC
:1003700007D54FF0000EDCF1000C7EEB00006EEBB9
:100380000101B1F5801F1BD3B1F5001F0CD3490843
:100390005FEA30004FEA3C0C04F101044FEA44529A
:1003A00012F5800F80F09A80BCF1004F08BF5FEA21
:1003B000500C50F1000041EB045141EA050130BD01
:1003C0005FEA4C0C404141EB0101013C28BFB1F513
:1003D000801FE9D291F0000F04BF01460020B1FA5E
:1003E00081F308BF2033A3F10B03B3F120020CDA31
:1003F0000C3208DD02F1140CC2F10C0201FA0CF00F
:1004000021FA02F10CE002F11402D8BFC2F1200C73
:1004100001FA02F120FA0CFCDCBF41EA0C01904029
:10042000E41AA2BF01EB0451294330BD6FEA040472
:100430001F3C1CDA0C340EDC04F11404C4F120025D
:1004400020FA04F001FA02F340EA030021FA04F36F
:1004500045EA030130BDC4F10C04C4F1200220FAC6
:1004600002F001FA04F340EA0300294630BD21FA04
:1004700004F0294630BD94F0000F83F4801306BFCA
:1004800081F480110134013D4EE77FEA645C18BFBE
:100490007FEA655C29D094EA050F08BF90EA020F55
:1004A00005D054EA000C04BF1946104630BD91EA4D
:1004B000030F1EBF0021002030BD5FEA545C05D150
:1004C0004000494128BF41F0004130BD14F580048F
:1004D0003CBF01F5801130BD01F0004545F0FE4103
:1004E00041F470014FF0000030BD7FEA645C1ABF38
:1004F000194610467FEA655C1CBF0B46024650EA6F
:10050000013406BF52EA033591EA030F41F400219A
:1005100030BD00BF90F0000F04BF0021704730B520
:100520004FF4806404F132044FF000054FF00001F5
:1005300050E700BF90F0000F04BF0021704730B5B6
:100540004FF4806404F1320410F0004548BF40428B
:100550004FF000013EE700BF42004FEAE2014FEAE0
:1005600031014FEA02701FBF12F07F4393F07F4FBB
:1005700081F06051704732F07F4208BF704793F0BE
:100580007F4F04BF41F40021704730B54FF46074D1
:1005900001F0004521F000411CE700BF50EA0102D4
:1005A00008BF704730B54FF000050AE050EA01027D
:1005B00008BF704730B511F0004502D5404261EBED
:1005C00041014FF4806404F132045FEA915C3FF42E
:1005D000D8AE4FF003025FEADC0C18BF03325FEACB
:1005E000DC0C18BF033202EBDC02C2F1200300FA7C
:1005F00003FC20FA02F001FA03FE40EA0E0021FAA1
:1006000002F11444BDE600BF70B54FF0FF0C4CF48E
:10061000E06C1CEA11541DBF1CEA135594EA0C0F40
:1006200095EA0C0F00F0DEF82C4481EA030621EA7B
:100630004C5123EA4C5350EA013518BF52EA0335B6
:1006400041F4801143F4801338D0A0FB02CE4FF068
:100650000005E1FB02E506F00042E0FB03E54FF098
:100660000006E1FB03569CF0000F18BF4EF0010E90
:10067000A4F1FF04B6F5007F64F5407404D25FEA8C
:100680004E0E6D4146EB060642EAC62141EA55513F
:100690004FEAC52040EA5E504FEACE2EB4F1FD0C81
:1006A00088BFBCF5E06F1ED8BEF1004F08BF5FEAFF
:1006B000500E50F1000041EB045170BD06F00046B1
:1006C00046EA010140EA020081EA0301B4EB5C045E
:1006D000C2BFD4EB0C0541EA045170BD41F4801156
:1006E0004FF0000E013C00F3AB8014F1360FDEBF7B
:1006F000002001F0004170BDC4F10004203C35DA57
:100700000C341BDC04F11404C4F1200500FA05F3D9
:1007100020FA04F001FA05F240EA020001F000427A
:1007200021F0004110EBD37021FA04F642EB0601F0
:100730005EEA430E08BF20EAD37070BDC4F10C041A
:10074000C4F1200500FA04F320FA05F001FA04F2DE
:1007500040EA020001F0004110EBD37041F10001CA
:100760005EEA430E08BF20EAD37070BDC4F12005D5
:1007700000FA05F24EEA020E20FA04F301FA05F23D
:1007800043EA020321FA04F001F0004121FA04F2E5
:1007900020EA020000EBD3705EEA430E08BF20EAB5
:1007A000D37070BD94F0000F0FD101F000464000EF
:1007B00041EB010111F4801F08BF013CF7D041EA71
:1007C000060195F0000F18BF704703F00046520075
:1007D00043EB030313F4801F08BF013DF7D043EA46
:1007E0000603704794EA0C0F0CEA135518BF95EAFC
:1007F0000C0F0CD050EA410618BF52EA4306D1D183
:1008000081EA030101F000414FF0000070BD50EAA1
:10081000410606BF1046194652EA430619D094EA2B
:100820000C0F02D150EA013613D195EA0C0F05D115
:1008300052EA03361CBF104619460AD181EA030169
:1008400001F0004141F0FE4141F470014FF0000021
:1008500070BD41F0FE4141F4780170BD70B54FF0BC
:10086000FF0C4CF4E06C1CEA11541DBF1CEA13553C
:1008700094EA0C0F95EA0C0F00F0A7F8A4EB05041E
:1008800081EA030E52EA03354FEA013100F0888015
:100890004FEA03334FF0805545EA131343EA1263DE
:1008A0004FEA022245EA111545EA10654FEA002693
:1008B0000EF000419D4208BF964244F1FD0404F54C
:1008C000407402D25B084FEA3202B61A65EB0305A8
:1008D0005B084FEA32024FF480104FF4002CB6EB65
:1008E000020E75EB030E22BFB61A754640EA0C00E5
:1008F0005B084FEA3202B6EB020E75EB030E22BF25
:10090000B61A754640EA5C005B084FEA3202B6EB65
:10091000020E75EB030E22BFB61A754640EA9C0024
:100920005B084FEA3202B6EB020E75EB030E22BFF4
:10093000B61A754640EADC0055EA060E18D04FEAB2
:10094000051545EA16754FEA06164FEAC30343EA52
:1009500052734FEAC2025FEA1C1CC0D111F4801F1F
:100960000BD141EA00014FF000004FF0004CB6E718
:1009700011F4801F04BF01430020B4F1FD0C88BFB7
:10098000BCF5E06F3FF6AFAEB5EB030C04BFB6EBC2
:10099000020C5FEA500C50F1000041EB045170BDB5
:1009A0000EF0004E4EEA113114EB5C04C2BFD4EBE2
:1009B0000C0541EA045170BD41F480114FF0000E66
:1009C000013C90E645EA060E8DE60CEA135594EAE2
:1009D0000C0F08BF95EA0C0F3FF43BAF94EA0C0FE5
:1009E0000AD150EA01347FF434AF95EA0C0F7FF45A
:1009F00025AF104619462CE795EA0C0F06D152EAAE
:100A000003353FF4FDAE1046194622E750EA410691
:100A100018BF52EA43067FF4C5AE50EA41047FF4A2
:100A20000DAF52EA43057FF4EBAE12E74FF0FF3C07
:100A300006E000BF4FF0010C02E000BF4FF0010CD8
:100A40004DF804CD4FEA410C7FEA6C5C4FEA430C51
:100A500018BF7FEA6C5C1BD001B050EA410C0CBFA0
:100A600052EA430C91EA030F02BF90EA020F002002
:100A7000704710F1000F91EA030F58BF994208BF69
:100A800090422CBFD8176FEAE37040F00100704726
:100A90004FEA410C7FEA6C5C02D150EA013C07D17D
:100AA0004FEA430C7FEA6C5CD6D152EA033CD3D0C8
:100AB0005DF8040B704700BF8446104662468C46C2
:100AC0001946634600E000BF01B5FFF7B7FF0028F5
:100AD00048BF10F1000F01BD4DF808EDFFF7F4FF1E
:100AE0000CBF012000205DF808FB00BF4DF808EDA9
:100AF000FFF7EAFF34BF012000205DF808FB00BFCC
:100B00004DF808EDFFF7E0FF94BF012000205DF8ED
:100B100008FB00BF4DF808EDFFF7CEFF94BF0120A2
:100B200000205DF808FB00BF4DF808EDFFF7C4FF9B
:100B300034BF012000205DF808FB00BF4FEA4102EE
:100B400012F5001215D211D56FF47873B3EB62521F
:100B500012D94FEAC12343F0004343EA505311F046
:100B6000004F23FA02F018BF404270474FF00000D8
:100B7000704750EA013005D111F0004008BF6FF016
:100B8000004070474FF00000704700BF4FEA41023D
:100B9000B2F1E04324BFB3F5001CDCF1FE5C0DD9DB
:100BA00001F0004C4FEAC0024CEA5070B2F1004F25
:100BB00040EB830008BF20F00100704711F0804F28
:100BC00021D113F13872BCBF01F00040704741F4ED
:100BD00080114FEA5252C2F11802C2F1200C10FAF1
:100BE0000CF320FA02F018BF40F001004FEAC123D5
:100BF0004FEAD32303FA0CFC40EA0C0023FA02F379
:100C00004FEA4303CCE77FEA625307D150EA01334E
:100C10001EBF4FF0FE4040F44000704701F000401E
:100C200040F0FE4040F40000704700BF7BB972B94D
:100C30000029BEBF00204FF0004106E008BF002899
:100C40001CBF6FF000414FF0FF3000F0D3B9ADF1A1
:100C5000080C6DE904CE002909DB002B1ADB00F03B
:100C60004DF8DDF804E0DDE9022304B070474042AE
:100C700061EB4101002B1BDB00F040F8DDF804E0E4
:100C8000DDE9022304B0404261EB4101524263EBD3
:100C900043037047524263EB430300F02FF8DDF843
:100CA00004E0DDE9022304B0404261EB41017047FA
:100CB000524263EB430300F021F8DDF804E0DDE984
:100CC000022304B0524263EB4303704753B94AB95D
:100CD000002908BF00281CBF4FF0FF314FF0FF3044
:100CE00000F088B9ADF1080C6DE904CE00F006F80B
:100CF000DDF804E0DDE9022304B070472DE9F04798
:100D0000089D8E4604468846002B4AD18A421746E3
:100D100062D9B2FA82F64EB1C6F1200301FA06F8A2
:100D200020FA03F3B74043EA0808B4404FEA174EED
:100D30001FFA87FCB8FBFEF1230C0EFB118843EA77
:100D4000084301FB0CF29A4209D9FB1801F1FF306C
:100D500080F0EA809A4240F2E78002393B449A1AD6
:100D6000A3B2B2FBFEF00EFB102243EA024300FBEB
:100D70000CFC9C4509D9FB1800F1FF3280F0D680AD
:100D80009C4540F2D3803B44023840EA0140A3EB4B
:100D90000C0300211DB1F3400022C5E90032BDE87B
:100DA000F0878B4205D90DB1C5E900010021084645
:100DB000F5E7B3FA83F1002946D1734502D38242A5
:100DC00000F20581841A6EEB030201209046002D8B
:100DD000E5D0C5E90048E2E7002A00F09080B2FAC9
:100DE00082F6002E40F0A4808A1A030C4FEA174EB8
:100DF00080B2BCB20121B2FBFEFC0EFB1C2243EA16
:100E0000024304FB0CF29A4207D9FB180CF1FF389D
:100E100002D29A4200F2E080C4469B1AB3FBFEF273
:100E20000EFB123340EA034302FB04F49C4207D951
:100E3000FB1802F1FF3002D29C4200F2CA80024647
:100E40001B1B42EA0C40A5E7C1F120068B4022FAA9
:100E500006F71F430EFA01F420FA06F32EFA06FEF7
:100E60004FEA1749234300FA01F81FFA87FCBEFB3B
:100E7000F9F01C0C09FB10EE44EA0E4400FB0CFEDA
:100E8000A64502FA01F209D93C1900F1FF3A80F0B7
:100E90009C80A64540F2998002383C44A4EB0E04A5
:100EA0001FFA83FEB4FBF9F309FB13444EEA044432
:100EB00003FB0CFCA44508D93C1903F1FF3E80F06C
:100EC0008280A4457FD9023B3C4443EA0040A4EB26
:100ED0000C04A0FB02EC64457346E14662D35FD08C
:100EE0005DB1B8EB030264EB090404FA06F622FADA
:100EF00001F31E43CC40C5E9006400214FE7B1FB7C
:100F0000F2FC010C41EA0E4180B240EA01423B464C
:100F100038463C46B846BE462026B1FBF7F1A2EB68
:100F2000080241EA0C4166E7014618E710462CE743
:100F3000C6F120022EFA02F3B740B14020FA02F2C5
:100F40004FEA174E0A43B3FBFEF8BCB20EFB183350
:100F5000110C41EA034108FB04F9B04089454FEA0E
:100F6000104380B23ED9791808F1FF3C01D289457F
:100F70001FD8A1EB0901B1FBFEF909FB04F80EFB38
:100F8000191192B242EA0142424529D2BA1809F136
:100F9000FF31C4D24245C2D2A9F102013A44BEE7B0
:100FA000F0459DD2BEEB02036CEB070C0138E14625
:100FB00096E7A7EB09094944A8F1020CB1FBFEF939
:100FC00009FB04F8DBE773467FE7504666E708460F
:100FD000FDE63B44023A33E7ACF1020C3B441CE72C
:100FE00049469CE7A1EB0901C446B1FBFEF909FBA8
:100FF00004F8C4E7704700BFDFF834D0002103E0F5
:101000000C4B5B58435004310B480C4B42189A422E
:10101000F6D30B4A02E0002342F8043B094B9A4204
:10102000F9D303F0E1FC22F07BFE01F0B3FA704744
:1010300000000320CC290E080000002064010020DD
:1010400080030020B4450120FEE7704708B500F09A
:10105000B9FDBDE8084000F03DBD00F0B5BD7047EA
:1010600010B50421044620F06AFB204610BD0000A4
:1010700038B50C4B0C4C18800C4B822019806368DF
:10108000984740F6110398420AD1094D23682C6015
:10109000822098472B688220DB689847002038BD63
:1010A0000120FCE7A60300204C000020A403002040
:1010B000A80300204FF4A071F020FFF7D9BF000073
:1010C000F7B5394D2B6804461B698220984720806C
:1010D00000284ED02B680DF106025B6901A9822021
:1010E0009847324B1B78002B4BD0BDF8062040F6BA
:1010F00074639A423FD9ADF80630BDF806209B1ABA
:101100009BB20A2B42D90B22B3FBF2F3284A128876
:10111000934201D9013A93B2BDF80420254840F624
:10112000B8318A4234D8C2F571620E32016892B287
:101130000F25B2FBF5F2204D2D88AA4284BF05F1A0
:10114000FF35AAB28A4215468EB22AD9921B91B2B5
:101150001A4E3768BB42BAB28CBF9A1AD21A92B2F0
:1011600011440529C4BF0560336003686380336898
:10117000A38003B0F0BDB32A9CBFB422ADF8062013
:10118000BBE7BDF80630A3F5B473B9E70023C3E7A6
:10119000C2F56D62083292B20E2A0168C8D80025E5
:1011A0002A46891A89B2D3E7A80300200028002024
:1011B000A4030020A0030020A60300209C0300201D
:1011C00037B568460D461446FFF77AFFBDF80000B4
:1011D00030B1BDF802302B60BDF80430236001202F
:1011E00003B030BD032821D8DFE800F0020B12194C
:1011F0000F4B1A68B2FA82F2520904210D4803F02B
:1012000087BE0B4B5A68B2FA82F252090821F5E701
:10121000074B9A68B2FA82F252091021EEE7044BAA
:10122000DA68B2FA82F252092021E7E7704700BF7C
:10123000AC03002000100240032821D8DFE800F0B2
:10124000020B12190F4B1A68003A18BF0122042131
:101250000D4803F05DBE0B4B5A68003A18BF0122DF
:101260000821F5E7074B9A68003A18BF01221021C0
:10127000EEE7044BDA68003A18BF01222021E7E7C5
:10128000704700BFAC0300200010024003280DD8B7
:10129000DFE800F00206080A0421054803F03DBE1D
:1012A0000821FAE71021F8E72021F6E7704700BF90
:1012B0000010024008B5032811D8DFE800F0020A48
:1012C0000C0E0421074803F01DFE431E58425841EE
:1012D00008BD0821F6E71021F4E72021F2E70020FD
:1012E000F3E700BF0010024070B5084D002401264E
:1012F000E0B2FFF7DFFF18B12B68012B18BF2E609B
:101300000134052C05F10405F2D170BDAC030020B9
:10131000012380F8781080F87930704770470020FA
:1013200070470000034B4164003918BF0121197058
:10133000704700BF73380120704700207047836BEF
:101340000BB10846184770474FF6FF70704740686A
:1013500003689B691847704770477047704770472C
:1013600010B5044600F046FD23680349D3F89030D9
:101370002046BDE810401847000000D008B50368BB
:101380000446D3F88430984723682046DB6F98479B
:1013900000F0ECF8236820465B6F9847292001F0A5
:1013A0007DFB00F0E3F8236820465B6F9847F8E781
:1013B00010B5044608F02CFF23682046D3F8BC3053
:1013C000BDE81040184700F0F9BC00F0FDBC00F08B
:1013D0002FBD00F0CFBC00F03FBD00F047BD00F0D6
:1013E000D3BC08F043B910B58421044620F0A7F916
:1013F000204610BD10B590F8341090F878400C4B92
:101400008C421A7809D03AB90A4A0B4914880888DC
:1014100010800C8001221A7010BD002AFCD0054AF1
:1014200005491488088810800C800022F3E700BF6B
:101430006C380120683801206A38012070B50D46EB
:10144000194635B9094B0A4A0A4840F2FF2122F0F1
:10145000B7F9C0E90F52084B003A18BF01221A70C1
:101460000368BDE87040D3F8903018477048020810
:10147000A8480208F64802087238012008B5094B4E
:101480001B888B4203D8084B1B88934205D9074B16
:10149000074A0848A32122F093F9074B1980074B0C
:1014A0001A8008BD683801206A3801203B490208CB
:1014B0009E490208F64802086E3801207038012063
:1014C000034690F87A0018B1586803681B681847FB
:1014D00070470000012108B50022084605F08CFD88
:1014E0000A4B186028B90A4B0A4A28210A4822F0F8
:1014F00067F900220421012005F026FE074B186041
:1015000018B9074B034A2C21F0E708BDC00300209F
:10151000E14902082A4A0208594A0208BC0300208D
:10152000B54A0208024B4FF0FF31186805F0AEBD16
:10153000C0030020014B186805F0D4BDC003002093
:10154000024B0021186805F0A1BD00BFC0030020B8
:10155000FFF7F0BF03480449006800231A4605F06E
:101560002EBE00BFBC0300200400002013B5084CB1
:1015700000231A4601A9206805F052FE20684FF0AA
:10158000FF33002201A905F04BFE02B010BD00BFE1
:10159000BC03002003685B6C184701207047036898
:1015A0009B6A1847FEE740F2EF307047054B036037
:1015B000054B4FF08062C3F88820BFF34F8FBFF315
:1015C0006F8F70479454020800E100E010B50446A4
:1015D0004FF45A61FFF7EAFF204620F0B0F82046AA
:1015E00010BD000082B0002301930E4B1A6B42F431
:1015F00000021A631A6B02F400020192019A1A693E
:1016000042F400021A611A6922F400021A61064BC0
:10161000064A1A61064A5A61064B4FF080629A6088
:1016200002B0704700380240942900208518000855
:10163000A515000800E100E008B50A2809D8DFE890
:1016400000F006100E080808081010101000022004
:1016500008BD054B054A0648902122F0B1F800204C
:10166000F6E70120F4E700BFF74A0208124B020830
:101670005D4B020838B50C46887FFFF7DDFFA58A71
:10168000E28A164B2169586342EA05425A64628B2A
:10169000D963521B1A642568082D0ED19A611A610C
:1016A0005862207F0E4A42EA0062DA61E2681A62FA
:1016B0000C4A5961D9601A6038BD0022D8611A619C
:1016C000E1680A0A480902F4784200F4FC60024327
:1016D000C1F3C4010A439A63034AECE700B0024035
:1016E00009000100012302000123030008B50B28B3
:1016F0000BD8DFE800F00612100A0A0A0A080808E8
:101700000808022008BD0520FCE7054B054A0648ED
:101710006F2122F055F80020F4E70120F2E700BF26
:10172000F74A0208B74B02085D4B02082DE9F04169
:1017300091F81D800C464046FFF7D8FFA77F05466D
:101740003846FFF7D3FF06463846FFF775FFA18AF4
:10175000628B444B521A1A649A61228B521A1A6194
:10176000E28A586342EA01425A6421696268D96395
:10177000DA602068802828D0227F0FD8202867D000
:10178000402865D004281AD0364B45EA026545F456
:101790000035B845DD6161D0334A44E0B0F5807F63
:1017A00004D0B0F5007FEFD1304800E0304840EA87
:1017B0000262DA61E2681A625E62596132E045EA09
:1017C000026242F40032DA61F6E7A068021DDA62D2
:1017D000227F45EA026545F40035DD615E625961AC
:1017E000017841B1012921D0224B234A23484FF4EB
:1017F0008D7121F0E5FFDA69418822F47F420139D9
:1018000022F0100242EA0122DA610121154BDA6965
:1018100042F02002DA61DA699206FCD410229A6062
:101820000029B9D0164A1A60BDE8F081B2F1FF0173
:10183000DA69408822F47F4200F1FF3022F0100282
:1018400042EA002242F0100218BF0121DA61DDE70E
:1018500045EA0262034B42F40032B4E742F201323D
:10186000E1E700BF00B002400123010009000200CF
:101870000A000200014C02081B4C02085D4B0208E2
:1018800001230200024B1B68586803685B69184714
:101890007438012070B5044625460A4B0C300026EA
:1018A00060602672667245F8203B6022294608F087
:1018B00005FE04F55A63EE6024359D42FBD12046B7
:1018C00070BD00BF94540208034B1A68D207FCD4C1
:1018D00023229A60704700BF00B0024070470000AA
:1018E00030B50F4C2568ED07FCD423250904A5600D
:1018F00041F001010225FF2B65636164E0630AD0BA
:101900000849656241EA0363E361074B2262606153
:10191000E060236030BDE561039BA363034BF8E700
:1019200000B00240090001000100020001000300B4
:1019300030B50E4C2568ED07FCD423251204A560B4
:1019400042F001020225FF2B65636264E063E160FF
:1019500008D01B0643F00213E361054B656260612A
:10196000236030BD034BE3610123F9E700B002407F
:1019700001000200020002FF30B50B4C2568ED07A4
:10198000FCD4232512041B06A56043F40033022572
:1019900042F0010265636264E063E160E361034B6E
:1019A00065626061236030BD00B00240010002004A
:1019B000012070474020704700EB811008307047CD
:1019C00000EB8110083070470120704740F624205A
:1019D000704740F6242303FB01000830704740F6AF
:1019E000242303FB010008307047012070471020BA
:1019F000704700EB01100830704700EB0110083011
:101A00007047084601F038BD10B5034B036004462B
:101A100007F081FB204610BD4C55020810B5044666
:101A2000FFF7F2FF204648211FF089FE204610BD37
:101A300010B5034B0360044607F06DFB204610BD54
:101A40001855020810B50446FFF7F2FF204640F68D
:101A50002C211FF074FE204610BD000010B5034B72
:101A60000360044607F057FB204610BDE45402080B
:101A700010B50446FFF7F2FF204618211FF05FFE65
:101A8000204610BD10B5084B0360044600F65820F0
:101A9000FFF7BAFF04F12C00FFF7CAFF04F11400AE
:101AA000FFF7DCFF204610BD8055020808B502484C
:101AB000FFF7E8FF08BD00BF9C12002010B50446E8
:101AC000FFF7E0FF20464FF440611FF038FE20464C
:101AD00010BD00002DE9F34101F04CFB054601F07B
:101AE0004DFB00240146234628462246009410F070
:101AF00093FD274B274A1A60204602F0E9F8264D4D
:101B0000264B274A27489A6010F0EEFC2B68BFF35B
:101B10005B8FDB0735D428461FF013FE88B3224CB9
:101B2000224B236004F6A42604F1140004F12C08CF
:101B300004F658276060C4F80880E760266107F063
:101B4000EBFA1B4B6361404607F0E6FA194BE36280
:101B5000384607F0E1FA184BC4F8583A04F52A6001
:101B600002F030F9224604F52A61304602F020F9ED
:101B7000304601F081FC114821F040FE28461FF05C
:101B8000ECFD0F4802B0BDE8F041FFF7E9BB00BF34
:101B9000D838012048040020981200206804002052
:101BA0004C040020080000209C12002080550208F0
:101BB000E4540208185502084C550208AD1A0008F2
:101BC000C4030020704700000148FFF7D7BB00BFE7
:101BD000C403002070B5264E264C274D274B2360AA
:101BE0003046FFF757FE284615F01CFE24480EF03D
:101BF0008DFC244B2448DC6000224FF48071C3E943
:101C0000121222491A86C3E91A12214983F8582070
:101C1000C3E91E011F49C3F880101F491F480B600C
:101C2000F021C3E90422C3E90622C3E90822C3E97B
:101C30000A22C3E90E22C3E91022C3E91422C3E930
:101C400017225A6683F870205A67C3E9016501803C
:101C50001348018013484FF4A0710180124801809D
:101C600012490A70012283F83420114A1A6070BDAB
:101C7000F404002094120020680400206048020848
:101C80004C040020C40300200000010101000001F9
:101C9000000450001A001400743801206838012034
:101CA0006E3801206A380120703801206C3801201C
:101CB000A85302080148FFF779BC00BFF4040020D4
:101CC0000020704781807047C18070470181704754
:101CD000418170477047704770477047704710B434
:101CE000C4880368121B84885B6D091B12B25DF8FF
:101CF000044B09B218474FF6FF7383814FF0FF334F
:101D000003621368C36110607047002070478B88BE
:101D1000838001207047704780F82610704790F844
:101D20002600704710B50022B1F90840B1F90A1039
:101D3000028042808480C18010BD002202804280E7
:101D40008280C28070470177704780ED080A704733
:101D500080F82410704780F82510704701207047E4
:101D6000983070478C3070478430704770477047A8
:101D700070470000034B902283F85A2383F85823BE
:101D8000704700BF00E100E0094A0A49D3680A48E9
:101D9000C3F30A03013B9BB20B801169C1F30A0133
:101DA000013901801364536B43F00103536370479F
:101DB000006801409E1E00209C1E0020014BD3F8AD
:101DC000AC00704700680140024B0122C3F8AC1020
:101DD0005A6270470068014010B52C2104461FF07C
:101DE000AEFC204610BD10B5BC2104461FF0A7FC78
:101DF000204610BD70B5044607F08DFC23689D6E2B
:101E00000DF01CF901462046A8472368054AD3F87F
:101E10008C502046AC460023BDE87040A2F5163138
:101E2000604700BF00B004D007F05CBC07F066BCA0
:101E300007F022BC07F091BD90F8252012B103688D
:101E40005B691847704790F825201AB190F8242054
:101E500002B1186070470000034B4FF080629A6037
:101E60004FF080729A60704700E100E0084B4FF03D
:101E70008062C3F88820BFF34F8FBFF36F8F4FF09E
:101E80008072C3F88820BFF34F8FBFF36F8F704706
:101E900000E100E070B50023124E8380124B036016
:101EA000336893F8582005460AB1D86C00B9986891
:101EB0000368DB6A98473368B0FA80F4D86C640929
:101EC00030B10368DB6A9847002808BF44F001047A
:101ED0002CB9064B064A07482C2121F071FC2846F4
:101EE00070BD00BF7438012094550208594C020897
:101EF000B74C0208F04C020870B5254E3568BFF3A8
:101F00005B8F15F0010540D130461FF01AFC002808
:101F10003BD0204C204B256104F13400C4E900354E
:101F2000C4E90255E584A562A5850EF0D4FD04F14F
:101F3000580009F079FF194BA3652046184B40F86B
:101F4000843BFFF7A7FF174BC4F884302433C4F851
:101F50008C304FF4C803C4E928350023C4F8AC30F2
:101F6000C4F8B030C4F8B430C4F8B8300E480F4BE1
:101F7000C4F89050C4F89C50C4F8A850C4F89830E5
:101F800021F03CFC30461FF0E8FB024870BD00BF6A
:101F9000A01E0020A41E0020805B0208B455020889
:101FA0002C560208345B0208711D0008145B0208FD
:101FB00038B5184C23685BB3174B184A1B6C118853
:101FC0008B4216D1164B198803F0AAFD236893F8AB
:101FD0006A200025013283F86A2083F87C50FFF7DD
:101FE000B9FA206808F014F92846BDE83840FFF730
:101FF000F9B803F095FD2468236820461B6A9847CA
:10200000012384F87C300020BDE83840FFF714B984
:1020100038BD00BF74380120006801409E1E0020BA
:102020009C1E002070B50D4C00213225D0F8D02028
:10203000322A0DD0D0F8CC3040F8234001330132A1
:10204000B3FBF5F605FB1633C0F8CC30C0F8D02052
:102050000131322904F12C04E8D170BD601F002049
:1020600008B50022C0E93222C0F8D020FFF7DAFF1D
:1020700008BDD0F8D01030B5034679B1D0F8C820EB
:10208000322450F8220001320139B2FBF4F504FB8E
:102090001522C3F8C820C3F8D01030BD0846FCE7AD
:1020A00010B591B1D0F8D020322A0ED0D0F8CC3073
:1020B00040F82310013332210132B3FBF1F401FB6C
:1020C0001433C0F8CC30C0F8D02010BD2DE9F34156
:1020D000154CDFF8588032264FF6FF770025012394
:1020E000C4E90555A580E58025816581A581E58147
:1020F00025826582E5612584658484F8245084F80E
:102100002530C4F80080E78484F82870204601A9AF
:10211000ADF804700BF02FF8013E04F12C04DED171
:1021200002B0BDE8F08100BF601F0020B85E020869
:10213000074838B53324013CA0F12C0507D0D0F86E
:102140006C3800F66C001B6898472846F3E738BDEA
:10215000601F0020704782B00DF1080C0CE90600EA
:10216000C1EB011201990A4400EB8200436002B006
:10217000704782B002AB002903E906000B4612DB70
:10218000D0F8E0258A420EDD019A002A0BDBD0F858
:10219000E415914207DDC3EB0313134400EB830006
:1021A000406802B070470020FBE782B002AB002914
:1021B00003E906000A4606DA00F2D45393ED000A5A
:1021C000B8EEC00A07E0D0F8E0358B4205DA07EE3A
:1021D000903AB8EEE70A02B07047D0F8DC15D0F8B4
:1021E000D43501FB023300EE103AE9E782B0002A51
:1021F00002AB03E90600D0F8D835A3BFD0F8DC1550
:1022000001FB023300EE103A07EE903AACBFB8EE95
:10221000C00AB8EEE70A02B0704782B00DF1080CB0
:102220000CE90600C1EB011201990A44D03240F8D2
:10223000223002B0704782B002AB03E90600C1EB66
:1022400001131344D03350F8230002B070472DE936
:10225000F84F8246D1F8DC0557EC116B59EC108B26
:102260008B46FEF767F90446DBF8D4050D46FEF70A
:1022700061F902460B4640464946FEF70DF82246F4
:102280002B46FEF7EBFA41EC100B1FF0D7FB51EC9D
:10229000100BFEF753FC8046DBF8D805FEF74AF931
:1022A00002460B4630463946FDF7F6FF2B462246DE
:1022B000FEF7D4FA41EC100B1FF0C0FB51EC100BF1
:1022C000FEF73CFCB8F1000F034610DBDBF8E0251D
:1022D0004245A8BF4246002B0CDBDBF8E4158B42DD
:1022E000A8BF0B46CAE900235046BDE8F88F4FF05F
:1022F000FF32F0E74FF0FF33F4E710B54FF4BD6164
:1023000004461FF01CFA204610BD10B54FF425728C
:1023100004460021043021F05AFC0A23C4F8D435C5
:10232000C4F8D8351423C4F8DC350B23C4F8E035E1
:102330000F23C4F8E43510BD10B5074B0360044605
:10234000A522002100F5267021F041FC2046FFF770
:10235000DCFF204610BD00BF785602082DE9F04F83
:10236000ADF50B7D0D46044616460021A522984684
:1023700000F526709DF85032029321F028FCC5EB41
:102380000512324404EB820207AF51682B01402052
:102390003A464FF0000C0138C7E900CC07F10807B6
:1023A000F9D15B1B23443344012783F898720DF164
:1023B000180E40F2FF130593354BCEF80030CBB228
:1023C000C2E90056C2E98177C2F80002039307AA66
:1023D000D2F8081219B90DF50B7DBDE8F08FD2F8CF
:1023E000003252F83350009502EBC305013303F07D
:1023F0003F03C2F80032029BD5F80490013998429D
:10240000C2F8081208D208EBC001009D48F830500D
:10241000431CC1F80490D8B20DF1140A00271AF930
:10242000016B009B1E440A2E2ED81EF907504D4406
:102430000E2D29D8C6EB061163182B44019393F88F
:1024400098C2BCF1000F1FD1294404EB8101039B0A
:102450004968994218D1DDF824C2019B4FF0010B65
:10246000BCF1400F07A983F898B20DD0889B41F8C2
:10247000336001EBC30B013303F03F03CBF804508F
:1024800088930CF1010389930137042FC7D19FE78B
:102490000000FF0107B5064BADF806001B680548B4
:1024A00001220DF1060104F0DBF803B05DF804FB36
:1024B0000C0000204028002037B50D4D0D4C0121A7
:1024C000284602F01FFD01280ED1206804F0D8FE36
:1024D000012809D854238DF8073020680A230022E8
:1024E0000DF1070104F06BFE012004F079FDE6E731
:1024F00000000240FC27002030B595B010220021DA
:102500000AA821F064FB1422002103A821F05FFB3C
:1025100000241E4B01941A6C42F080521A641B6C0A
:1025200003F080530193019B194B02941A6842F403
:1025300040421A601B6803F4404302930122029B4D
:102540004FF48033CDE9082302254FF4800308219E
:10255000CDE90E534FF4B473CDE9101308A804234A
:102560001393129503F034FB03F0F8FA0F23CDE92F
:1025700003354FF4A0504FF48053CDE906030521F5
:1025800003A8059403F000FD15B030BD00380240EB
:102590000070004080B59AB002F034FAFFF7ACFF4B
:1025A000142200210DA821F012FB0024C84B009436
:1025B0001A6BC848C84DDFF85C8342F010021A63FA
:1025C0001A6B02F010020092009A01941A6B42F00A
:1025D00020021A631A6B02F020020192019A0294FF
:1025E0001A6B42F080021A631A6B02F080020292A8
:1025F000029A03941A6B42F004021A631A6B02F0F7
:1026000004020392039A04941A6B42F001021A63C3
:102610001A6B02F001020492049A05941A6B42F0BC
:1026200002021A631A6B02F002020592059A0694DE
:102630001A6B42F040021A631A6B02F040020692D3
:10264000069A07941A6B42F008021A631B6B03F098
:102650000803224607933C21079B02F059FC9F4840
:102660000122022102F054FC22469C48042102F07F
:102670004FFC22469A484FF4405102F049FC012693
:102680003C23CDE90D3693480F9403230DA902276F
:10269000109302F053FB91480DA9CDE90D76CDE9D9
:1026A0000F4402F04BFB04238C480DA9CDE90D36F5
:1026B000CDE90F4702F042FB4FF4405388480DA983
:1026C000CDE90D36CDE90F4702F038FB0DA985485D
:1026D0000F97CDE90D6402F031FB8348834B036013
:1026E00002F022FADFF830E2814B2C62C5E900E308
:1026F00028464FF48043C5E90434C5E90244C5E9DE
:10270000064402F013FE1021284603F057F8214634
:102710002846784D03F071F84FF48273C5E90083C1
:102720004FF400791823C5E9069328460A23C5E922
:102730000244C5E90444C5E90844AC62EB6203F015
:1027400033FF8F232246394664488DF824308DF8B4
:10275000344002F0DDFB32464FF47A7309A9284673
:1027600003F07EFF4FF47A7332460DA9284604F039
:1027700023F93246394659485F4D02F0C9FB9DF8AE
:102780003430D32B04BF5D4B1E705D4B0126C5E971
:102790000036102240230024C5E904234FF4C073FF
:1027A000C5E906344FF40063C5E908344FF400531B
:1027B00002274FF00409AB624FF0030A07230DA96B
:1027C0002846CDE90D73CDE90F934FF00808C5E910
:1027D0000249CDE911A7139703F0CAFD4FF6FF7226
:1027E00009A92846CDE90A86089409960C9403F0B5
:1027F000DFFD304602F032F94FF6FF7209A9284694
:10280000CDE90978CDE90B6403F0D2FD4FF6FF72F4
:1028100009A92846CDE909A8CDE90B9403F0C8FD24
:102820004FF40C730893089B0C934FF6FF7209A9A1
:102830002846CDE909980B9603F0BAFD40F26A519B
:10284000284603F0D3FD34220DEB0200214621F08F
:10285000BEF92C4D2C4B2C61C5E900340923C5E988
:1028600005361D23C5E9073A40F20D1140F2431326
:10287000C5E9091340F2171040F24713C5E90B03ED
:102880002846C5E90244AC8685F8364003F050F886
:10289000FF214FF4806CF022CDE912140521CDE91F
:1028A00014C14FF4A0730DA9CDE90E24CDE9164251
:1028B00028462246154D1893CDE910370D94ADF8F2
:1028C00064408DF8664003F0FEF8114B2B6025E064
:1028D0000038024000100240402900200008024059
:1028E000000C024000000240D429002000300240C9
:1028F000A0860100402800200C280020002800208D
:10290000400100A09828002000680140F82700201E
:102910001400002000500140005C00401B689847F4
:102920002B68184DDB689847174B2846C5E90034DB
:10293000C5E90274C5E90A47C5E90C4402F004F987
:102940003146284602F0B6F9FEF780FBFEF77DFB24
:1029500004F0D6FA0D4A3146404604F0F5FB0C4B24
:102960000C4A186021460C4804F0F6FA0B4B0C4A4E
:10297000186021460B4804F0EFFA0B4B186004F086
:10298000D1FAFEE79429002000B002409C560208CC
:10299000FC270020D8560208B92400080828002087
:1029A000B45602085B1000080428002070477047E6
:1029B0007FB5094B8DF817201B6802930DF11702A4
:1029C0000123009201930A460146044802F056FD95
:1029D00007B05DF804FB00BF100000204029002074
:1029E0007FB500238DF81730084B1B6802930A4609
:1029F00001230DF11701009101930146044802F0F3
:102A0000CDFD9DF8170007B05DF804FB1000002015
:102A1000402900201FB5084C24680092CDE90134FC
:102A20000A4601230146054802F0B8FD003818BFE8
:102A3000012004B010BD00BF10000020402900207C
:102A400002F00CB810B5064C00222046042102F01A
:102A50005FFA20460122BDE81040042102F058BA76
:102A60000008024038B50B4D044601220A484FF4D5
:102A7000005102F04DFA00220421284602F048FAE3
:102A80002046FFF707FD28460122BDE83840042113
:102A900002F03EBA00080240000C024038B50B4D6F
:102AA000044600220A484FF4005102F031FA002295
:102AB0000421284602F02CFA2046FFF7EBFC2846BA
:102AC0000122BDE83840042102F022BA0008024089
:102AD000000C0240F7B5144E144F05460C46304624
:102AE0000022042102F014FA00224FF4005138466B
:102AF00002F00EFA2846FFF7CDFC0D4B0D481B687F
:102B0000224601A903F058FF384601224FF4005134
:102B1000019C02F0FDF930460122042102F0F8F98F
:102B2000204603B0F0BD00BF00080240000C024088
:102B30000C0000204028002001F090BF0268034BE9
:102B40009A4201D101F078BF704700BF00100040E9
:102B50007047000082B00E4B00220092596C41F485
:102B600080415964596C01F48041009100990192AF
:102B7000196C41F0805119641B6C03F08053019370
:102B8000019B0F216FF0010002B001F08DBF00BF6B
:102B9000003802400268094B9A4282B00BD10023F0
:102BA0000193074B1A6B42F480521A631B6B03F4B8
:102BB00080530193019B02B0704700BF0030024078
:102BC0000038024007B50F4B02689A4216D1002226
:102BD000A3F5F0430192196B41F4000119631B6BDB
:102BE00003F40003019305215A20019B01F05CFFCF
:102BF0005A2003B05DF804EB01F088BF03B05DF824
:102C000004FB00BF00B002402DE9F043044689B048
:102C10001422002103A820F0DAFF2268244B9A42F4
:102C200043D1244C244800250095236B43F0040332
:102C30002363236B03F004030093009B0195236B34
:102C400043F001032363236B03F001030193019B12
:102C50004FF012094FF400734FF0010803270426C8
:102C600003A9CDE90339CDE90587079602F066F897
:102C70004FF480731148079603A9CDE90339CDE9D4
:102C8000058702F05BF80295236C43F4000323648C
:102C9000236C03F400030293029B236A43F40003B2
:102CA0002362236A23F40003236209B0BDE8F083A2
:102CB000005C004000380240000802400000024072
:102CC000F0B599B004461422002107A820F07FFF38
:102CD00030220DEB0200002120F079FF22685E4BCC
:102CE0009A4240F0B78008230C93C023109304232A
:102CF00012930CA84FF40033159303F00DFA08B1AA
:102D0000FFF726FF554B5648002400945A6C42F0BA
:102D100080625A645A6C02F080620092009A0194B8
:102D20001A6B42F020021A631A6B02F02002019221
:102D3000019A02941A6B42F001021A631A6B02F0B4
:102D400001020292029A03941A6B42F002021A6381
:102D50001A6B02F002020392039A04941A6B42F077
:102D600040021A631A6B02F040020492049A05941E
:102D70001A6B42F004021A631A6B02F00402059205
:102D8000059A06941A6B42F008021A631B6B03F053
:102D90000803069302250E26069B0B964FF48063CC
:102DA00007A9CDE90735CDE9094501F0C7FF41F68F
:102DB00058032C480B9607A9CDE907350927CDE91B
:102DC000094501F0BBFF032327480B9707A9CDE96D
:102DD0000735CDE9094501F0B1FF4FF47063224892
:102DE0000B9607A9CDE90735CDE9094501F0A6FF06
:102DF0004FF40C631D480B9607A9CDE90735CDE9C3
:102E0000094501F09BFFC02319480B9607A9CDE99E
:102E10000735CDE9094501F091FF082315480B96C8
:102E200007A9CDE90735CDE9094501F087FF4FF442
:102E3000A0530E480B9707A9CDE90735CDE9094501
:102E400001F07CFF58202246052101F02DFE58207C
:102E500001F05CFE19B0F0BD00680140003802408E
:102E6000001402400000024000040240001802402A
:102E700000080240000C024010B5044688B014223D
:102E8000002103A820F0A3FE2268144B9A4223D10C
:102E900003F56843002101915A6C114842F48012F5
:102EA0005A645A6C02F480120192019A02911A6BD0
:102EB00042F020021A631B6B03F020030293029B73
:102EC0004FF4607202230321CDE903230523CDE9EA
:102ED000061303A901F032FF08B010BD00500140F5
:102EE000001402402DE9F04186B0002303932B4BE0
:102EF0001C68002C4FD14FF00108C3F80080284B0C
:102F000000949A6B274842EA08029A639B6B03EA93
:102F100008030093022703260C25009B01A94FF606
:102F20003F03CDE90137CDE9046501F007FF1E48F5
:102F3000059501A9CDE90187CDE9034601F0FEFE23
:102F400048F233131948059501A9CDE90137CDE9B8
:102F5000034601F0F3FE4FF683731548059501A96A
:102F6000CDE90137CDE9034601F0E8FE4CF20373E9
:102F70001048059501A9CDE90137CDE9034601F0D7
:102F8000DDFE60230C48059501A9CDE90137CDE9A7
:102F9000034601F0D3FE06B0BDE8F081DC29002035
:102FA00000380240001402400008024000180240AD
:102FB00000100240000C02400004024070B588B0CE
:102FC00000230293204B1A6C42F010021A641B6C0F
:102FD00003F010030293054601A903A8029B03F026
:102FE0007DF8069B4BBB03F069F8184E184B336015
:102FF00040F2E733F360174BB0FBF3F3013B736030
:10300000304600233361B360B36103F0A5FE04468C
:1030100080B9304603F076FD044658B9362001F0F9
:1030200075FD0F2D0DD822462946362001F03CFDB6
:10303000094B1D60204608B070BD03F03FF840000A
:10304000D3E70124F6E700BF00380240E029002062
:103050000010004040420F007C0000207047FEE757
:10306000FEE7FEE7FEE77047014803F089BD00BFB9
:10307000E0290020014802F0C9BC00BF98280020C8
:10308000014801F08DBD00BF942900200120704748
:1030900008B520F03FFE162303604FF0FF3008BD57
:1030A00008B520F037FE16230360FEE770B50D4625
:1030B00014460E46731B9C4201DC204670BDAFF3E4
:1030C000008006F8010BF5E770B50D4614460E4674
:1030D000731B9C4201DC204670BD16F8010BAFF358
:1030E0000080F5E74FF0FF3070474FF400534B601E
:1030F0000020704701207047002070470A4A11687D
:1031000008B5034609B909491160106869460344C6
:103110008B4206D920F0FEFD0C2303604FF0FF30F8
:1031200008BD1360FCE700BF282A0020B845012035
:10313000704710B5042104461EF001FB204610BD67
:1031400008B5032913D8DFE801F002060A0E00F0E3
:10315000FDFD006808BD00F0F9FD4068FAE700F0E9
:10316000F5FD8068F6E700F0F1FDC068F2E70020A9
:10317000F0E7000000487047105702080D20704724
:1031800013B5002451B1036801948DF8034001AADE
:103190009C680DF10303A04702B010BD0846FBE791
:1031A000C0897047008A7047C08870478088704720
:1031B000807A00F07F007047807AC0097047002055
:1031C000704700009FED010A704700BF000000003B
:1031D0007047704700F598730868496803C37047E3
:1031E000704770474160704770477047064BC0F8A2
:1031F0004C310023C0F8503100F5A273C0F84801EB
:10320000C0F84031704700BFAD320008012303729F
:103210007047704710B4C26841685410034601EB10
:103220006200D20748BF0A599B685DF8044B48BF4B
:10323000D35818470346406830B19A681AB9D8681D
:1032400000F0010070470120704710B50C210446C2
:103250001EF075FA204610BD10B5102104461EF070
:103260006EFA204610BD10B54FF4AE7104461EF044
:1032700066FA204610BD10B50BF0E0FE0368BDE80D
:103280001040DB6B184710B50446D0F8400158B128
:103290000368DB68984738B1D4F8400103689B683D
:1032A00098470023C4F8403110BD00002DE9F14FCC
:1032B000D0E9556A0746B06803681B6A984740F62C
:1032C0002323984205D8444B444AA321444820F084
:1032D00077FA706803681B6A98470F2803D8414B38
:1032E0003E4AA421F2E7F06803681B6A98470B285E
:1032F00003D83D4B394AA521E8E70BF09FFEDFF8E4
:10330000F09004300BF0BFFED9F8000010B1036854
:10331000DB689847D9F8000010B103681B6898472C
:10332000DFF8D080D8F8000010B103685B699847D7
:10333000D7F83C0110B103685B689847D8F80000E3
:1033400010B103681B689847D7F83C0110B10368B7
:103350009B689847F068036800215B6A98474FF0C4
:10336000000B224BC0F804B0044680F808B003609C
:10337000B068036859465B6A9847054600F0C2FD8D
:103380007068036859465B6A98472946064600F00C
:103390002BFD331DC7F83C61C9F80040C8F8005048
:1033A000CAF800302B68C6F808A02846DB68EE6330
:1033B0009847336830461B689847214628460EF0E8
:1033C0000FF8236820461B69984723685B692046ED
:1033D00001B0BDE8F04F18476E4D02086E5002086C
:1033E000E14E0208284F0208CB4F02088858020815
:1033F000BC380120B8380120044B1B6893F85820D2
:103400000AB1D86C00B99868704700BF74380120C1
:10341000F8B5174604460E460BF0D2FE124B1C6060
:10342000124B2360124B0025C4E95135114BC4E9FE
:1034300053551868036801219B68C4E94F55C4E9D6
:1034400055769847284600F043FCFFF7D5FF16F065
:1034500092F8FFF7D1FF16F009F9FFF7CDFF16F04C
:1034600011F92046F8BD00BFC838012034580208C1
:103470001C58020874380120064BC0F84C31002358
:10348000C0F8503100F5A273C0F84801C0F84031CF
:10349000704700BFAD320008406A7047806A7047CD
:1034A00070478A880B8810B5D20A4C88C1699BB2D4
:1034B00051F8220043EA0443184410BD10B50446F5
:1034C000BAB1107B68B1537BD27A1B0203F4E0637C
:1034D0001A43236A03EB82031A888A4202D193F9C2
:1034E000020010BD05D8013880B204330028F3D1A2
:1034F000F7E70020F5E710B52C2104461EF01FF970
:10350000204610BD30B58BB00446BDF8605008951C
:10351000BDF85C5007959DF8505006959DF84C50AD
:1035200005959DF8485004959DF8445003959DF8E5
:10353000405002959DF83C500195BDF838500095DB
:103540000DF086FB064B2360159BE361169B2362FF
:10355000199B63621A9BA36220460BB030BD00BF6B
:10356000AC58020870477047704770477047704703
:10357000704710B54FF44F7104461EF0E0F8204636
:1035800010BD0000074A02600022C0E90122C0E924
:103590000322C0E90522C0E907224FF48072828429
:1035A000704700BF885F020870B5036804461B6B54
:1035B000154698472368294620465B6BBDE8704056
:1035C000184770B504461D46BDF91060FFF7ECFFC3
:1035D0002368294620469B6B98472368314620463E
:1035E000DB6BBDE87040184738B5262204460D460F
:1035F000002120F0ECFA2046FFF7C4FF064B2360C1
:103600002B88E384FF23204684F82830294609F0DC
:10361000B2FD204638BD00BFB85E02082DE9F04F6C
:1036200004468FB0A04600250DF02EFDD94BE56372
:1036300048F8403B26222946404620F0C8FA40463A
:10364000FFF7A0FFD44B236404F16C0BFF234FF66C
:10365000FF760DA984F86630A566584604F19C09EA
:10366000ADF83460FFF7C0FFCC4BE366A4F896508A
:10367000A4F898504846FFF785FF04F1C80AC84BE4
:10368000C4F89C30C4F8C4500DA95046ADF834605D
:1036900009F09EF904F1F4030DA918460393ADF85F
:1036A000346009F095F904F590730DA91846049358
:1036B000ADF8346009F08CF904F5A673184604F5EA
:1036C000BC770593FFF75EFFB54BC4F84C31C4F8E7
:1036D00074510DA93846ADF8346008F093FC04F538
:1036E00002730DA918460693ADF83460FFF77CFF0E
:1036F00004F50D7318460293FFF744FFA84BC4F876
:10370000343204F51873C4F85C520DA918460793B7
:10371000ADF83460FFF768FF04F523730DA9184670
:103720000893ADF83460FFF75FFF04F52E730DA921
:1037300018460993ADF83460FFF756FF04F5397366
:103740000DA918460A93ADF83460FFF74DFF04F554
:1037500044730DA918460B93ADF83460FFF744FF8E
:103760004FF4A0732A46009329464046F023FFF702
:1037700028FF261D4FF07F43A3664146304605F0E3
:10378000DFFC06230DA95846ADF8343009F048FB9C
:103790004FF4A07300932A46F12329465846FFF7B9
:1037A00010FF2A462946584609F018FB594630466C
:1037B00005F0C6FCFA232A4600932946F023484622
:1037C000FFF7FFFE4FF001080DA95046ADF8348019
:1037D00009F0D1FC12236FF00602009350464FF41B
:1037E00081736FF00801FFF7ECFE2946504609F09F
:1037F000AAF85146484605F0A3FC4FF48A7A03988C
:10380000ADF834800DA909F0B6FC0F230A22039805
:10381000CDF800A0E621FFF7D4FE0398DFF898B1B9
:10382000294609F090F80399484605F089FC049868
:10383000ADF834800DA909F09EFC0F2309220498ED
:10384000CDF800A06FF00401FFF7BBFE0498DFF88D
:103850006CA1294609F077F80499484605F070FCF8
:103860004946304605F06CFC4FF4A0730598009370
:103870002A46F0232946FFF7A4FE2A464146384649
:10388000FFF792FE0DA93846ADF8345008F05CFD04
:10389000444BC4F88031444BC4F8A431434BC4F8C2
:1038A000A831384608F0FAFBB0EE040A384608F0B2
:1038B0005CFDDFF80C91C4F8D0B1384608F0EEFB9F
:1038C0003846C4F8BCA1C4F8C091C4F8C4B108F02B
:1038D000E5FB3846C4F8C8A1C4F8CC9108F0DEFB7B
:1038E000DFED330A9FED331AB0EE600A384608F078
:1038F00034FD059884F8A151394605F021FC4FF4B8
:103900008F7206986F21FFF74FFE09270698ADF8D2
:1039100034700DA909F02FFCDDE9050184F82D5262
:1039200005F00EFC0599304605F00AFC4FF4A07333
:10393000029800932A46F1234FF0FF31FFF741FE32
:103940001D2207986FF01C01FFF72EFE0C2307982D
:10395000ADF834300DA909F00EFC0799029805F076
:10396000EFFB3A4608986FF01C01FFF71DFE089820
:10397000ADF834700DA909F0FEFB0899029805F026
:10398000DFFB6FF0080209986FF01C01FFF70CFED7
:103990000A2517E014590208CC5D0208345E0208BB
:1039A000545A0208F00050020000EB4200803743F6
:1039B00000000000560EC94000007A440000F042AA
:1039C000000094430998ADF834500DA909F0D3FBD9
:1039D0000999029805F0B4FB31220A986FF01C0196
:1039E000FFF7E2FD0A98ADF834500DA909F0C3FBCA
:1039F0000A99029805F0A4FB0299304605F0A0FB55
:103A0000F9220B984146FFF7CFFD07230B98ADF83D
:103A100034300DA909F0AFFB30460B9905F090FB4F
:103A200020460FB0BDE8F08F7047000030B5164D4E
:103A30002C6814F001048FB0BFF35B8F21D12846AE
:103A40001DF07FFEE8B13F230993104B0893104B04
:103A500007930123CDE9054304930423CDE90243F1
:103A600014230C4900930B22CDE90B440A480A9415
:103A70000194FFF747FD09481FF0C0FE28461DF0DE
:103A80006CFE05480FB030BD2C2A00206C6F020878
:103A9000846F0208A06E0208302A0020293A00082C
:103AA0007047000030B5164D2C6814F001048FB03B
:103AB000BFF35B8F20D128461DF043FEE0B13F23CA
:103AC0000993104B0893104B104911480A94012296
:103AD000CDE906430423CDE903320A230093CDE95F
:103AE0000B44CDE901440594FFF70CFD09481FF094
:103AF00085FE28461DF031FE05480FB030BD00BFE1
:103B00005C2A0020786F0208886F02083C6F020868
:103B1000602A0020A13A00087047000030B5164D19
:103B20002C6814F001048FB0BFF35B8F20D12846BE
:103B30001DF007FEE0B13F230993104B0893104B93
:103B4000104911480A940122CDE906430423CDE926
:103B5000033214230093CDE90B44CDE901440594CD
:103B6000FFF7D0FC09481FF049FE28461DF0F5FD7F
:103B700005480FB030BD00BF8C2A00207C6F0208C2
:103B80008C6F02084C6F0208902A0020193B000835
:103B90007047000030B5164D2C6814F001048FB04A
:103BA000BFF35B8F20D128461DF0CBFDE0B13F2352
:103BB0000993104B0893104B104911480A940122A5
:103BC000CDE906430423CDE9033228230093CDE950
:103BD0000B44CDE901440594FFF794FC09481FF01C
:103BE0000DFE28461DF0B9FD05480FB030BD00BFE1
:103BF000BC2A0020806F0208906F02085C6F0208E8
:103C0000C02A0020913B0008002070470020704728
:103C10000EB403B503AB002153F8042B01930CF051
:103C200095FA02B05DF804EB03B070470CB407B529
:103C300004AB53F8042B01930CF088FA03B05DF841
:103C400004EB02B070470000436C10B5044673B338
:103C5000038F2BB9184B194AC52119481FF0B0FD25
:103C6000C38E00EB43035B8C0BB30EF0ACF8238FD9
:103C7000012B03D8134B144ACB21EEE7E28E531CE1
:103C80009BB2092B194688BFA3F10A0104EB41013D
:103C900040F63F10498C814209D10A2B04EB4202C5
:103CA00028BF002304EB4303508C588451842046E2
:103CB000BDE810400DF08ABF40510208495102088A
:103CC000F45102083E5202084C5202080DF045BF62
:103CD00038B518BB124B13481C681349B4B122689D
:103CE00022440260626822440A60A26814440F4BB6
:103CF00000221A8000F02AF8054600F025F80C4B47
:103D00001C600C4B1D600C4B188007E00B4B0360D4
:103D10000B4B0B600B4B1C68002CE8D138BD00BF6F
:103D2000F82A0020F02A0020EC2A0020F42A0020A3
:103D3000CC380120D4380120D03801209C6F0208F3
:103D4000946F0208BC6F0208022070470048704759
:103D5000FC2A002010B5FFF7E1FE064C2060FFF7BB
:103D600019FF6060FFF79EFEA060FFF75FFEE06056
:103D700010BD00BFFC2A002010B5002404600C60B8
:103D800014601C6010BD704710B54FF4AE7104464E
:103D90001DF0D5FC204610BD10B50446D0F85801E2
:103DA00000F013F82046BDE810400BF0C9B9000040
:103DB00010B50446FFF72CFB014B2360204610BDD5
:103DC0004859020800220260704770477047043863
:103DD0007047704710B5102104461DF0B0FC204616
:103DE00010BDA0F10400F5E700228260024A0260E3
:103DF00018324260C16070479C59020870472DE933
:103E0000F047D0F8484900F558768146B4F90600E5
:103E100007EE900A2DED028BF8EEE77AADF5047D02
:103E200017EE900AFCF798FB41EC180BB4F904006C
:103E300007EE900AF8EEE77A402417EE900AFCF7B6
:103E40008BFBB0EE481AF0EE681A41EC100B3146CD
:103E500002A8FEF7FCF904AB98460022013CC3E936
:103E6000002203F10803F9D1402300939DF80C20B0
:103E70009DF8081043463046FEF770FA03280746BF
:103E800023DDA24609F5156908EBC405002395E872
:103E900006003046FEF75FF995E806003046FEF76B
:103EA000CAF995E8060080F825A03046FEF7C3F968
:103EB00001464846FEF7F4F8013495E80600002371
:103EC0003046FEF7AAF9A742DEDC0DF5047DBDEC15
:103ED000028BBDE8F087000010B5034B0360044679
:103EE000FFF745FB204610BDC459020810B5044633
:103EF000FFF7F2FF204640F624211DF020FC20466B
:103F000010BD0000F0B50446ADF2EC5DFFF786FB96
:103F10002C4B236004F5156604F55870FEF70CFA77
:103F20003046FEF79DF800256423C4E9D135D4F866
:103F30000C32C4F84C334FF42577C4E9CF5584F8DC
:103F400050536846FEF7F8F93A4601A904F559704E
:103F50001FF00DFFA6A9A52204F5BF601FF007FF03
:103F60003A46D0A904F5D4601FF001FFDDF8D4353E
:103F7000C4F83439DDF8D835C4F83839DDF8DC3523
:103F8000C4F83C39DDF8E035C4F84039DDF8E435F3
:103F9000C4F844390C4BC4F854330023C4F85833E4
:103FA000C4F85C33C4F84C59C4F848596846FEF765
:103FB00057F8D422694630461FF0D9FE20460DF24C
:103FC000EC5DF0BDC45902082CF985BF000000006B
:103FD00008B54FF4B47390FBF3F202FB130007EE45
:103FE000900AB8EEE77ADFED3C7AB4EEE77AF1EECC
:103FF00010FA04D5F6EE007A67EE877A0AE0DFED74
:10400000377AB4EEE77AF1EE10FA15D5F3EE0E7AC0
:1040100077EE677A17EE900AFCF79EFA2CA3D3E9A5
:104020000023FCF7F1FA2E4B0022FCF717FCFCF7FB
:10403000ADFD00EE100A08BDDFED2A7AB4EEE77A96
:10404000F1EE10FA04D5DFED287A77EEC77AE1E7D2
:10405000DFED267AB4EEE77AF1EE10FA04D577EECA
:10406000C77AB6EE007AC7E7DFED216AB4EEE67AEA
:10407000F1EE10FA06D5DFED1F7AF6EE006AE7EEF4
:10408000667AC7E7DFED1C6AB4EEE67AF1EE10FA65
:1040900002D5DFED1A7AD8E7DFED196AB4EEE67AD9
:1040A000F1EE10FA04D5F3EE0E7A77EE277AB1E747
:1040B000DFED146AB4EEE67AF1EE10FA46BFF6EEE2
:1040C000006AE7EE267ADFED107AA3E7AFF300800F
:1040D0001F85EB51B81E0940000070420000B44239
:1040E000008066400000F0420000164300003443A8
:1040F000000070430000E1430000874300800E444D
:10410000000096430000B44300000000FFF730BAFF
:1041100073B5054600F51560FDF7ABFF044608B31F
:1041200003680922ADF804201B6E01A99847236893
:10413000B5F94C131B6BB5F94E63204698472368BD
:1041400031465B6B20469847012384F82530FF23D6
:1041500084F82830281D214604F0F2FF2368204609
:104160005B699847D5F84C39C5F848490133C5F81B
:104170004C3902B070BD00002DE9F04704462DED2A
:10418000068BD0F83C03C44D013088B0C4F83C0322
:10419000FFF71EFF2868B0EE408A03F071F840B3C5
:1041A0004FF0FF332868002206A903F039F89DF884
:1041B0001830542B1DD194F85033D3B9D4F83C3374
:1041C000C4F8483323682046DB6A9847D4F8480986
:1041D000B4F94E230368B4F94C139B6D984701233F
:1041E00084F850330023C4F85833C4F85C3384EDAA
:1041F000D58A94F85033002B00F03881D4F8483930
:10420000B3F90400B3F9062007EE900AF8EEE77A56
:1042100009EE102A17EE900AFCF79EF941EC180BF4
:10422000D4F85403FCF798F997A3D3E90023FCF7DB
:104230007BFCB8EEC99A4FF00008002800F0CD8052
:10424000DFF85C9219EE100AFCF786F9B2EE04AAC8
:1042500039EE4AAA914B41EC190B002240464946DF
:10426000FCF7D2F953EC182BFCF718F8FCF78EFC8E
:10427000FCF772F9B0EE491AF0EE691A04F55875B8
:1042800002AF41EC100B29463846FDF7E0FF1AEE6D
:10429000100AFCF761F9B0EE480AF0EE680A0DF179
:1042A000100A41EC110BDDF808802946504606AE95
:1042B000FDF7CDFFB0EE491AF0EE691AB0EE480AEC
:1042C000F0EE680A29463046FDF7C1FFB8F1FF3F1E
:1042D00040F08680D4F85403FCF73EF96AA3D3E992
:1042E000002380468946FCF71FFC50B142464B46EE
:1042F00067A1D1E90001FBF7CFFFFCF747FCC4F849
:104300005403D4F85403FCF727F941EC180BB0EE32
:10431000480AF0EE680A1DF08FFA8DED000BB0EE42
:10432000480AF0EE680A1DF033FADDE9000159ECA5
:10433000108BFCF72BFCD4EDD68A07EE900AB0EE7A
:10434000089AE7EE898A40464946C4EDD68AFCF7CA
:104350001DFC94EDD78A059B07EE900AA7EEC98A4B
:10436000013384EDD78A4AD1D4F848793B6896E87E
:1043700006002846D3F85880FDF717FF96E8060098
:104380002846B0EE408AFDF731FFBDEEC00ABDEE13
:10439000C88A10EE103A1AB218EE103A384619B21E
:1043A000C04796E8060001232846FDF7D4FE96E8AC
:1043B0000600D4F848392846FDF72FFF2368204629
:1043C0001B6B9847002384F85033201D08B0BDECC8
:1043D000068BBDE8F0470BF0E3BFDFF8C89031E78C
:1043E000B8F10B0F8DD1D4F85403FCF7B5F826A320
:1043F000D3E9002380468946FCF778FB75E79AE805
:1044000006002846FDF7B5FE0028ADD197E8060066
:104410002846FDF7AEFE0028A6D1FDEEE88ABDEEE7
:10442000C88A18EE903A18EE102A1343CDD0D4F86B
:10443000480918EE901A036812B25B6D09B29847EA
:10444000D4F8480903685B699847D4EDD67AF8EE4A
:10445000E88AB8EEC88A77EEE87AC4EDD67AD4ED69
:10446000D77A77EEC87AC4EDD77AAEE7D4ED6C0A86
:1044700094ED6B0AB0EE481A04F5BC7007F06DFFBE
:10448000A3E700BFAFF300801F85EB51B81E0940C2
:104490001F85EB51B81E1940FC2700200000244066
:1044A0000000F0BF0000F03FF02070474FF4A07014
:1044B00070472920FEF7F2BA2820FEF7EFBA08B5B8
:1044C000FEF7C0FACA20FEF7E9FAC320FEF7CAFADF
:1044D0000820FEF7C7FA5020FEF7C4FACF20FEF7F7
:1044E000DDFA0020FEF7BEFAC120FEF7BBFA30204D
:1044F000FEF7B8FAED20FEF7D1FA6420FEF7B2FA23
:104500000320FEF7AFFA1220FEF7ACFA8120FEF787
:10451000A9FAE820FEF7C2FA8520FEF7A3FA0020E8
:10452000FEF7A0FA7820FEF79DFACB20FEF7B6FA48
:104530003920FEF797FA2C20FEF794FA0020FEF7B8
:1045400091FA3420FEF78EFA0220FEF78BFAF7205C
:10455000FEF7A4FA2020FEF785FAEA20FEF79EFA7D
:104560000020FEF77FFA0020FEF77CFAB120FEF76C
:1045700095FA0020FEF776FA1B20FEF773FAB620B4
:10458000FEF78CFA0A20FEF76DFAA220FEF76AFA0F
:10459000C020FEF783FA1020FEF764FAC120FEF770
:1045A0007DFA1020FEF75EFAC520FEF777FA452067
:1045B000FEF758FA1520FEF755FAC720FEF76EFAF7
:1045C0009020FEF74FFA3620FEF768FAC820FEF773
:1045D00049FAF220FEF762FA0020FEF743FAB02013
:1045E000FEF75CFAC220FEF73DFAB620FEF756FA57
:1045F0000A20FEF737FAA720FEF734FA2720FEF745
:1046000031FA0420FEF72EFA2A20FEF747FA00209E
:10461000FEF728FA0020FEF725FA0020FEF722FA1E
:10462000EF20FEF71FFA2B20FEF738FA0020FEF7E6
:1046300019FA0020FEF716FA0120FEF713FA3F20C0
:10464000FEF710FAF620FEF729FA0120FEF70AFA23
:104650000020FEF707FA0620FEF704FA2C20FEF7EA
:104660001DFAC820FEF768FA2620FEF717FA012087
:10467000FEF7F8F9E020FEF711FA0F20FEF7F2F945
:104680002920FEF7EFF92420FEF7ECF90C20FEF7C5
:10469000E9F90E20FEF7E6F90920FEF7E3F94E20CE
:1046A000FEF7E0F97820FEF7DDF93C20FEF7DAF9B5
:1046B0000920FEF7D7F91320FEF7D4F90520FEF7FD
:1046C000D1F91720FEF7CEF91120FEF7CBF9002023
:1046D000FEF7C8F9E120FEF7E1F90020FEF7C2F984
:1046E0001620FEF7BFF91B20FEF7BCF90420FEF7E9
:1046F000B9F91120FEF7B6F90720FEF7B3F931201A
:10470000FEF7B0F93320FEF7ADF94220FEF7AAF923
:104710000520FEF7A7F90C20FEF7A4F90A20FEF702
:10472000A1F92820FEF79EF92F20FEF79BF90F2014
:10473000FEF798F91120FEF7B1F9C820FEF7FCF951
:104740002920FEF7ABF9BDE808402C20FEF7A6B9FA
:1047500008B5FEF777F90321D320FEF7BBF980B245
:1047600008BD10B5C4B2022203212046FEF720F98D
:104770000A20FEF765F9204600220321FEF718F90A
:10478000BDE810400220FEF75BB938B50446E4B23C
:10479000FEF70CF900212046FEF722F9012105461B
:1047A0002046FEF71DF940EA052080B238BD10B55D
:1047B000C4B240212046FEF713F9030607D54C2169
:1047C0002046FEF70DF9003818BF012010BD012268
:1047D0004B212046FEF7ECF8204600224B21FEF745
:1047E000E7F80020F2E773B50423C4B20E4615467D
:1047F000D7210DEB03022046FEF70CF9019B1BBAF3
:104800001A0DC3F30B23328020462B8001224B214B
:10481000FEF7CEF800224B212046FEF7C9F802B081
:1048200070BD000010B50A4A1378984204460DD0B6
:10483000517888420AD00BB141B90123D454FEF714
:10484000B5F82046BDE81040FFF78BBF10BD00BF94
:104850000C2B002010B5C4B209212046FEF7C0F889
:1048600040F00102D2B220460921BDE81040FEF717
:104870009FB810B5C4B209212046FEF7B1F809214E
:1048800000F0FE022046BDE81040FEF791B838B5B2
:10489000C4B20D4620460A21FEF7A2F840EA0502FE
:1048A000D2B220460A21BDE83840FEF781B810B5E3
:1048B0000446FEF77CF820461F21FFF7E8FF20465C
:1048C000BDE81040FFF7C6BF38B5C4B20D4620465C
:1048D0000A21FEF785F820EA0502D2B220460A2115
:1048E000BDE83840FEF764B810B50446FFF7C1FFD5
:1048F00020461F21BDE81040FFF7E6BF10B5C0B24B
:104900000C460B21FEF76CF8204010BD1F21FFF76D
:10491000F5BF0A46C0B20B21FEF74AB81F21FFF7C8
:10492000F8BF38B5C4B20D4620461721FEF758F837
:1049300020EA0502D2B220461721BDE83840FEF732
:1049400037B870B5C4B2064604212046FEF748F8D1
:10495000042100F0FB0205462046FEF729F8304608
:10496000F021FFF7DEFF05F0F80220460421FEF7F4
:104970001FF8492220212046FEF71AF80220FEF7F0
:104980005FF8204601222121FEF712F820469A22E4
:104990004121FEF70DF8204601224A21FEF708F8D2
:1049A000204601224B21FEF703F8204600224B212E
:1049B000FDF7FEFF204601225621FDF7F9FF2046B4
:1049C00001225821FDF7F4FF204601224021FDF786
:1049D000EFFF2046FF220B21FDF7EAFFBDE8704004
:1049E0000220FEF72DB80000054BD3F8882042F4D2
:1049F0007002C3F888204FF000629A60704700BFD1
:104A000000ED00E008B50B4B1A6842F400721A6022
:104A10001A6842F480621A601A6842F480721A605E
:104A2000032000F02FF80020FEF7C8FAFEF792F8F6
:104A3000002008BD003C0240034A044B11681B786B
:104A40000B441360704700BF102B0020780000203B
:104A5000014B1868704700BF102B002038B5044682
:104A6000FFF7F6FF631C1CBF054B1B78054618BFFC
:104A7000E418FFF7EDFF431BA342FAD338BD00BF94
:104A8000780000200749CA6822F4E0620302120499
:104A900003F4E063120C134343F0BF6343F40033A9
:104AA000CB60704700ED00E0164B30B5DC68C4F316
:104AB0000224C4F10703251D042B28BF0423062D5F
:104AC0004FF0FF358CBF033C002405FA03F321EAC5
:104AD0000303A54022EA0502A340002843EA02039B
:104AE000ACBF00F16040084A4FEA0313B8BF00F0C2
:104AF0000F00DBB2AABF00F56140135480F8003309
:104B000030BD00BF00ED00E014ED00E0002807DB41
:104B1000044A4109012300F01F00834042F821307C
:104B2000704700BF00E100E010B5044650B1437982
:104B300003F0FF0213B90271FEF72CF80123637131
:104B4000002010BD0120FCE710B5044620B390F80A
:104B5000393003F0FF021BB980F83820FEF732F835
:104B6000022384F83930236861681A6822F44032DD
:104B70000A431A605A6BA16822F007020A435A637B
:104B80001A6CE1686FF30D020A431A6400200123D6
:104B9000E06384F8393010BD0120FCE770477047AE
:104BA000036870B55E681D68F207044614D5E90510
:104BB00012D51A6822F480721A60C26B42F00102A8
:104BC000C26301229A60042380F83930002380F800
:104BD0003830436903B19847B20616D5AB0414D5F3
:104BE00023681A6822F400521A6020229A60E36B4C
:104BF00043F00203E363042384F83930002384F88C
:104C0000383063690BB120469847300716D529051F
:104C100014D523681A6822F400621A6008229A6088
:104C2000E36B43F00403E363042384F83930002387
:104C300084F8383063690BB12046984772070BD56A
:104C40006B0509D523681A6822F480621A60042271
:104C50009A602046FFF7A2FFB00714D5A90512D528
:104C600023681A6822F400721A6002229A60E36BC9
:104C7000E363012384F83930002384F83830236952
:104C80000BB120469847F20613D5EB0411D52368E3
:104C90001A6822F480521A6010229A60E36BE36370
:104CA000012384F83930002384F838302046FFF798
:104CB00076FF70BDF0B590F83820012A03464FF01A
:104CC00002002BD0012283F8382083F8390003EB4F
:104CD0000112D2E90740556A174F44EA0040093CE7
:104CE000012C9CBF05F07F4210434FEA01161A6861
:104CF00088BF40EA056091B9516A39400143516269
:104D0000012C9969916103D8596A21F07F41916220
:104D10000122002083F8392083F83800F0BDD169E2
:104D200039400143D1619919012C896911619CBFF6
:104D300025F07F451562EBE7F0FFFC002DE9F74F0A
:104D4000DFF8BC916C4A00230D6801249C4004EA02
:104D50000506AC4340F0B7804D68032705F0030417
:104D60004FEA430807FA08FC671E012F6FEA0C0C94
:104D700034D8876807EA0C0ECF6807FA08F747EAC5
:104D80000E078760476827EA060EC5F300179F40A5
:104D900047EA0E074760C76807EA0C0E8F6807FAF4
:104DA00008F747EA0E07022CC76019D14FEAD30A69
:104DB00000EB8A0A03F0070BDAF820704FEA8B0B3E
:104DC0004FF00F0E0EFA0BFE27EA0E0E0F6907FAD0
:104DD0000BF747EA0E07CAF8207001E0032CDAD17E
:104DE000076804FA08F407EA0C073C4315F4403F4F
:104DF000046068D000240194D9F8444044F480440D
:104E0000C9F84440D9F8444023F0030707F180472C
:104E100004F4804407F59C37019403F0030C019CD3
:104E2000D7F808E04FEA8C0C0F2404FA0CF42EEAB1
:104E3000040E324CA0424DD004F58064A0424BD009
:104E400004F58064A04249D004F58064A04247D0B4
:104E500004F58064A04245D004F58064A04243D0AC
:104E600004F58064A04241D004F58064A0423FD0A4
:104E700004F58064A0423DD004F58064A04214BFD4
:104E80000A24092404FA0CF444EA0E04BC60946871
:104E9000F74315F4801F0CBF3C4034439460D46842
:104EA00015F4001F0CBF3C403443D460546815F423
:104EB000003F0CBF3C40344354601468ED0354BFC2
:104EC0003C40344314600133102B7FF43DAF03B0FA
:104ED000BDE8F08F0024D5E70124D3E70224D1E711
:104EE0000324CFE70424CDE70524CBE70624C9E754
:104EF0000724C7E70824C5E7003C01400000024042
:104F0000003802400369194214BF01200020704795
:104F10000AB1816170470904FBE7436901EA0302B2
:104F200021EA030141EA02418161704701684B694E
:104F300013F480634FF0000210D06FF480634B6174
:104F40002023026380F83D3080F83E20036C80F817
:104F50003C2043F004030364012070471846704767
:104F60002DE9F84606460F4691461D464FEA114A7E
:104F70003368BAF1010F0CBF5C699C6927EA04042D
:104F8000A4B2B4FA84F46409A14501D0002025E05C
:104F90006A1CEED0FFF75CFD089BC01AA84201D83E
:104FA000002DE5D13368BAF1010F0CBF5B699B6935
:104FB00027EA03039BB2B3FA83F35B099945D7D180
:104FC00000232022336386F83D2086F83E30326C81
:104FD00086F83C3042F0200232640120BDE8F886B9
:104FE0002DE9F04104460F46164698462568686943
:104FF00027EA000080B2C0B16B695A0517D52B684B
:1050000043F400732B606FF480636B6120220023F4
:10501000236384F83D2084F83E30236C43F004037E
:105020002364002384F83C300120BDE8F081731C28
:10503000DDD0FFF70DFDA0EB0800B04201D8002E37
:10504000D4D123685A6927EA020292B2002ACDD04D
:1050500000232022236384F83D2084F83E30236C13
:105060001343DDE770B504460D46164623685B69B9
:105070001B0601D500201EE02046FFF757FFC8B9E8
:105080006A1CF3D0FFF7E4FC801BA84201D8002D76
:10509000ECD123685B6913F08003E7D120222363FE
:1050A00084F83D2084F83E30226C84F83C3042F095
:1050B00020022264012070BD2DE9F04315460268EC
:1050C00085B0DDE90C789946136843F4807313606A
:1050D0000E463B46CDF8008000224FF001110446F9
:1050E000FFF73EFF236838B11B68DB0502D54FF49C
:1050F00000732364032620E006F0FE061E611A49B1
:1051000043463A462046FFF76BFFA8B92368039051
:105110005A6903929B690393424639462046039B92
:10512000FFF7A0FF064660B1236C042B01BF226885
:10513000136843F4007313600126304605B0BDE8E0
:10514000F083B9F1010F236802D1EDB21D61F4E7DC
:105150002A0A1A61394642462046FFF783FF002893
:10516000E2D12368F1E700BF020001002DE9FF470B
:105170009A46036815461A6842F480621A601A68F3
:10518000DDE90C7842F480721A600E463B46CDF899
:10519000008000224FF001110446FFF7E1FE236872
:1051A00038B11B68DB0544BF4FF400732364032050
:1051B00021E05FFA86F906F0FE061E612B494346A0
:1051C0003A462046FFF70CFFA0B9236803905A69BE
:1051D00003929B690393424639462046039BFFF79F
:1051E00041FF58B1236C042B01BF2268136843F4BC
:1051F00000731360012004B0BDE8F087BAF1010F1D
:1052000023681AD1EDB242461D6139462046FFF7A8
:1052100029FF02460028E5D121680B6843F480731A
:105220000B602046CDF800803B464FF00111FFF7A0
:1052300097FE226860B11368B4E72A0A1A613946FA
:1052400042462046FFF70EFF0028CBD12368D9E75E
:1052500049F001031361054943463A462046FFF7EA
:10526000BFFE003818BF0120C5E700BF02000100E3
:1052700070B504460D46164623685B695B0701D589
:1052800000201EE02046FFF751FEC8B96A1CF3D08B
:10529000FFF7DEFB801BA84201D8002DECD123686C
:1052A0005B6913F00403E7D12022236384F83D20D7
:1052B00084F83E30226C84F83C3042F020022264B4
:1052C000012070BD70B504460D46164621684B6935
:1052D00013F0400301D0002011E04A69D2060FD537
:1052E0006FF010024A612022236384F83D2084F885
:1052F0003E30236C2364002384F83C30012070BDD1
:10530000FFF7A6FB801BA84201D8002DDED1236841
:105310005B6913F04003D9D12022236384F83D2038
:1053200084F83E30236C1343E4E7000070B5044674
:1053300008B9012070BD90F83D3003F0FF021BB9A1
:1053400080F83C20FDF760FC242384F83D3023687E
:105350001A6822F001021A601A6842F400421A60C8
:105360001A6822F400421A6000F0A8FE3F4B6568FC
:105370009D4294BF3E4B3F4B98428CBF002301237C
:10538000002BD6D12268394E51683B4BB0FBF3F36A
:1053900021F03F011943B542516088BF4FF4967622
:1053A000116A88BF734321F03F0184BF4FF47A76BE
:1053B000B3FBF6F301330B431362D169431E2B4851
:1053C00021F44F41854221F0FF0132D86D0040F6B3
:1053D000FC70B3FBF5F30133034242D0C3F30B037C
:1053E0001943D161D4E907301168034321F0C001AA
:1053F0000B4313609168D4E9030321F40341034391
:1054000021F0FF010B439360D4E90530D1680343D9
:1054100021F0FF010B43D360136843F001031360D5
:1054200000202023206484F83D30206384F83E006F
:1054300080E7A06850B905EB4505B3FBF5F30133F0
:10544000C3F30B037BB143F40043C9E7192068435E
:10545000B3FBF0F30133C3F30B0323B143F4404335
:10546000BEE70423BCE70123BAE700BFA086010022
:105470007F841E00FF083D0040420F002DE9F743E6
:10548000044699460C9E0F469046FFF7E1FA94F8C1
:105490003D30202B054603D0022003B0BDE8F08349
:1054A00000903C49192301222046FFF759FD0028AE
:1054B000F2D194F83C30012BEED02068012384F81F
:1054C0003C300368D9075EBF036843F00103036003
:1054D000036823F400630360212384F83D304023F4
:1054E00084F83E30002323640A9B6362BDF82C30AD
:1054F0006385638D2385284BE3624246CDE90065D1
:105500004B4639462046FFF7D7FD00282AD0012018
:10551000C3E7FFF7A7FD40B1236C042B01BF22684E
:10552000136843F400731360F1E7636A27681A464F
:1055300012F8011B39616262628D218D013A92B2CB
:1055400062857A69481E80B2520720850AD548B123
:105550005A783A6102336362638D013B02399BB230
:1055600021856385238D2A4631462046002BD0D1E4
:10557000FFF77EFE0028CFD12268136843F4007342
:105580001360202384F83D3084F83C0084F83E000A
:1055900083E700BF020010000000FFFF2DE9F04389
:1055A000044687B09946109F0D469046FFF750FA83
:1055B00094F83D30202B064604D00225284607B03B
:1055C000BDE8F08300907A49192301222046FFF7B5
:1055D000C7FC0028F1D194F83C30012BEDD02068B5
:1055E000012384F83C300368DB075EBF036843F0A7
:1055F00001030360036823F400630360222384F83B
:105600003D30402384F83E30002323640E9B6362C8
:10561000BDF83C306385638D2385664BE362294684
:10562000CDE900764B4642462046FFF79FFD0546F2
:1056300008B10125C2E7228D2368B2B902905A69E8
:1056400002929A690292029A1A6842F400721A60EF
:10565000DFF86481238D002B2CD1202284F83D209B
:1056600084F83C3084F83E30A8E7012A0AD11A6851
:1056700022F480621A6003905A6903929A69039235
:10568000039AE1E7022A0ED11A6822F480621A60B6
:105690001A6842F400621A6004905A6904929B6985
:1056A0000493049BD4E705905A6905929B6905937E
:1056B000059BCDE7032B56D8012B15D13246394631
:1056C0002046FFF7FFFD0028B3D123681A69636AFB
:1056D0001A70636A01336362238D013B2385638DF6
:1056E000013B9BB26385B5E7022B00963B464FF02A
:1056F00000024146204619D1FFF732FC002898D11C
:1057000023681A6842F400721A601A69636A1A7090
:10571000626A531C6362238D013B2385638D013BC9
:105720009BB2638523681B695370D2E7FFF718FCAF
:10573000024600287FF47DAF2368196821F4806158
:1057400019601969636A1970636A01336362238D92
:10575000013B2385638D013B9BB2638541460096E7
:105760003B462046C8E7324639462046FFF7AAFDA9
:1057700000287FF45EAF23681A69636A1A70628D2D
:10578000616A013A92B24B1C628522686362238D82
:105790005069013B9BB2400723857FF55BAF032B2C
:1057A00002BF136823F48063136013694B7090E7A2
:1057B000020010000000FFFF0400010010B590F887
:1057C0003D30202BDCB216D1242380F83D30036815
:1057D0001A6822F001021A605A6A22F010025A6214
:1057E0005A6A114359621A6842F001021A6080F83D
:1057F0003D40002010BD0220FCE730B590F83D3060
:10580000202BDCB216D10268242380F83D301368C7
:1058100023F001031360556A4FF6F0732B400B43DE
:105820009BB25362136843F00103136080F83D405C
:10583000002030BD0220FCE70068D1F800C0D20192
:10584000843283182DE9F043C6685D684C68D1F84E
:10585000189005F470455D60C5680CF10107C5F34B
:105860000B45C6F30B4626443D4445EA06455D60BC
:10587000C668CD68C6F30A062E449D6805F47045D7
:105880009D60C7688D68C7F30A0701353D4445EA46
:1058900006459D601D690E6925F007051D614FF0E5
:1058A000000E1E6191F832709D6991F83180C3F845
:1058B00018E091F8305045EA096545EA082545EABF
:1058C00007459D615D6925F0FF055D614D695D617D
:1058D000DD6925F4E06525F00705DD61D1E90757AD
:1058E0003D43DD619D6A4D6AC3F828E0072E9D6245
:1058F0009CBF0E4DAE5DDD6A05F0E025DD6288BF20
:1059000001268D6AC96AA4EB0C0474437543033401
:1059100044EA0544DC621C6B6FF30A041C631963E0
:10592000835843F001038350BDE8F083105A020806
:1059300038B50446002863D090F8A13003F0FF0288
:105940001BB980F8A020FDF7BBF9022384F8A13031
:1059500023689A6922F070429A61D4E901200243D7
:10596000E06899690243206902430A439A619A6890
:10597000244960690A409A609A6842EA0042A06934
:1059800002439A60DA68E0690A40DA60DA6842EA5B
:105990000042206A0243DA601A69606A0A401A61AA
:1059A0001A6942EA0042A06A02431A615A690A402F
:1059B0005A615A69E16A42EA0142216B0A435A611B
:1059C000DA6A94F8350094F8361002F07F42DA6211
:1059D000DD6A94F834202A4342EA002242EA014276
:1059E000DA625A6B42F006025A639A6942F0010287
:1059F0009A6100200123C4F8A40084F8A13038BDC6
:105A00000120FCE700F800F070477047036870B5AC
:105A10009E6B5D6B7207044614D5690712D55A6BED
:105A200022F004025A630422DA63D0F8A43043F06F
:105A30000103C0F8A430002380F8A12080F8A03032
:105A4000FFF7E2FFB20716D5AB0714D523685A6BF0
:105A500022F002025A630222DA63D4F8A43013431C
:105A6000C4F8A430042384F8A130002384F8A030C3
:105A70002046FFF7C9FFF00710D5E9070ED52368C8
:105A80005A6B22F001025A630122DA63002384F880
:105A9000A12084F8A0302046FCF78AFA320711D5FD
:105AA0002B070FD523685A6B22F008025A6308228D
:105AB000DA63012384F8A130002384F8A030204663
:105AC000FFF7A3FF70BD2DE9F04190F8A030012B46
:105AD00006460F4694464FF002001FD04FF00108D3
