:020000040800F2
:1000000000000320F90F0008B1320008B3320008E5
:10001000B5320008B7320008B9320008000000000D
:10002000000000000000000000000000317800081F
:10003000BB32000800000000C178000835710008DC
:10004000491000084910000849100008491000082C
:10005000491000084910000849100008491000081C
:10006000491000084910000849100008491000080C
:1000700049100008491000084910000849100008FC
:1000800049100008491000084910000849100008EC
:1000900049100008491000084910000849100008DC
:1000A00049100008491000084910000849100008CC
:1000B00049100008491000084910000849100008BC
:1000C00049100008491000084910000849100008AC
:1000D000491000084910000849100008491000089C
:1000E000491000084910000849100008491000088C
:1000F000491000084910000849100008491000087C
:10010000491000084910000849100008491000086B
:100110004910000849100008BD32000849100008C5
:10012000491000084910000849100008491000084B
:10013000491000084910000849100008491000083B
:10014000491000084910000849100008491000082B
:10015000491000084910000849100008491000081B
:10016000491000084910000849100008491000080B
:10017000491000084910000849100008000000005C
:1001800049100008491000084910000849100008EB
:1001900049100008491000084910000849100008DB
:0C01A000C932000849100008D5320008E0
:1001B00010B5054C237833B9044B13B10448AFF3A1
:1001C00000800123237010BD800300200000000088
:1001D0004C4A020808B5034B1BB103490348AFF36F
:1001E000008008BD00000000840300204C4A020883
:1001F00001F0FF01102A2BDB10F0070F08D010F8D8
:10020000013B013A8B422DD010F0070F42B3F6D1DB
:10021000F0B441EA012141EA014122F007047FF0F4
:1002200000070023F0E80256083C85EA010586EA4B
:10023000010685FA47F5A3FA87F586FA47F6A5FA87
:1002400087F68EB9EED1F0BC01F0FF0102F0070293
:1002500032B110F8013B013A83EA010313B1F8D13E
:100260000020704701387047002D06BF354603381F
:10027000073815F0010F07D1013015F4807F02BF58
:10028000013015F4C03F0130F0BC0138704700BFA9
:1002900081F0004102E000BF83F0004330B54FEA37
:1002A00041044FEA430594EA050F08BF90EA020FA4
:1002B0001FBF54EA000C55EA020C7FEA645C7FEA37
:1002C000655C00F0E2804FEA5454D4EB5555B8BF5A
:1002D0006D420CDD2C4480EA020281EA030382EACB
:1002E000000083EA010180EA020281EA0303362D5D
:1002F00088BF30BD11F0004F4FEA01314FF4801C30
:100300004CEA113102D0404261EB410113F0004F41
:100310004FEA03334CEA133302D0524263EB4303F8
:1003200094EA050F00F0A780A4F10104D5F1200E96
:100330000DDB02FA0EFC22FA05F2801841F10001F1
:1003400003FA0EF2801843FA05F359410EE0A5F1C5
:1003500020050EF1200E012A03FA0EFC28BF4CF0F6
:10036000020C43FA05F3C01851EBE37101F00045AC
:1003700007D54FF0000EDCF1000C7EEB00006EEBB9
:100380000101B1F5801F1BD3B1F5001F0CD3490843
:100390005FEA30004FEA3C0C04F101044FEA44529A
:1003A00012F5800F80F09A80BCF1004F08BF5FEA21
:1003B000500C50F1000041EB045141EA050130BD01
:1003C0005FEA4C0C404141EB0101013C28BFB1F513
:1003D000801FE9D291F0000F04BF01460020B1FA5E
:1003E00081F308BF2033A3F10B03B3F120020CDA31
:1003F0000C3208DD02F1140CC2F10C0201FA0CF00F
:1004000021FA02F10CE002F11402D8BFC2F1200C73
:1004100001FA02F120FA0CFCDCBF41EA0C01904029
:10042000E41AA2BF01EB0451294330BD6FEA040472
:100430001F3C1CDA0C340EDC04F11404C4F120025D
:1004400020FA04F001FA02F340EA030021FA04F36F
:1004500045EA030130BDC4F10C04C4F1200220FAC6
:1004600002F001FA04F340EA0300294630BD21FA04
:1004700004F0294630BD94F0000F83F4801306BFCA
:1004800081F480110134013D4EE77FEA645C18BFBE
:100490007FEA655C29D094EA050F08BF90EA020F55
:1004A00005D054EA000C04BF1946104630BD91EA4D
:1004B000030F1EBF0021002030BD5FEA545C05D150
:1004C0004000494128BF41F0004130BD14F580048F
:1004D0003CBF01F5801130BD01F0004545F0FE4103
:1004E00041F470014FF0000030BD7FEA645C1ABF38
:1004F000194610467FEA655C1CBF0B46024650EA6F
:10050000013406BF52EA033591EA030F41F400219A
:1005100030BD00BF90F0000F04BF0021704730B520
:100520004FF4806404F132044FF000054FF00001F5
:1005300050E700BF90F0000F04BF0021704730B5B6
:100540004FF4806404F1320410F0004548BF40428B
:100550004FF000013EE700BF42004FEAE2014FEAE0
:1005600031014FEA02701FBF12F07F4393F07F4FBB
:1005700081F06051704732F07F4208BF704793F0BE
:100580007F4F04BF41F40021704730B54FF46074D1
:1005900001F0004521F000411CE700BF50EA0102D4
:1005A00008BF704730B54FF000050AE050EA01027D
:1005B00008BF704730B511F0004502D5404261EBED
:1005C00041014FF4806404F132045FEA915C3FF42E
:1005D000D8AE4FF003025FEADC0C18BF03325FEACB
:1005E000DC0C18BF033202EBDC02C2F1200300FA7C
:1005F00003FC20FA02F001FA03FE40EA0E0021FAA1
:1006000002F11444BDE600BF70B54FF0FF0C4CF48E
:10061000E06C1CEA11541DBF1CEA135594EA0C0F40
:1006200095EA0C0F00F0DEF82C4481EA030621EA7B
:100630004C5123EA4C5350EA013518BF52EA0335B6
:1006400041F4801143F4801338D0A0FB02CE4FF068
:100650000005E1FB02E506F00042E0FB03E54FF098
:100660000006E1FB03569CF0000F18BF4EF0010E90
:10067000A4F1FF04B6F5007F64F5407404D25FEA8C
:100680004E0E6D4146EB060642EAC62141EA55513F
:100690004FEAC52040EA5E504FEACE2EB4F1FD0C81
:1006A00088BFBCF5E06F1ED8BEF1004F08BF5FEAFF
:1006B000500E50F1000041EB045170BD06F00046B1
:1006C00046EA010140EA020081EA0301B4EB5C045E
:1006D000C2BFD4EB0C0541EA045170BD41F4801156
:1006E0004FF0000E013C00F3AB8014F1360FDEBF7B
:1006F000002001F0004170BDC4F10004203C35DA57
:100700000C341BDC04F11404C4F1200500FA05F3D9
:1007100020FA04F001FA05F240EA020001F000427A
:1007200021F0004110EBD37021FA04F642EB0601F0
:100730005EEA430E08BF20EAD37070BDC4F10C041A
:10074000C4F1200500FA04F320FA05F001FA04F2DE
:1007500040EA020001F0004110EBD37041F10001CA
:100760005EEA430E08BF20EAD37070BDC4F12005D5
:1007700000FA05F24EEA020E20FA04F301FA05F23D
:1007800043EA020321FA04F001F0004121FA04F2E5
:1007900020EA020000EBD3705EEA430E08BF20EAB5
:1007A000D37070BD94F0000F0FD101F000464000EF
:1007B00041EB010111F4801F08BF013CF7D041EA71
:1007C000060195F0000F18BF704703F00046520075
:1007D00043EB030313F4801F08BF013DF7D043EA46
:1007E0000603704794EA0C0F0CEA135518BF95EAFC
:1007F0000C0F0CD050EA410618BF52EA4306D1D183
:1008000081EA030101F000414FF0000070BD50EAA1
:10081000410606BF1046194652EA430619D094EA2B
:100820000C0F02D150EA013613D195EA0C0F05D115
:1008300052EA03361CBF104619460AD181EA030169
:1008400001F0004141F0FE4141F470014FF0000021
:1008500070BD41F0FE4141F4780170BD70B54FF0BC
:10086000FF0C4CF4E06C1CEA11541DBF1CEA13553C
:1008700094EA0C0F95EA0C0F00F0A7F8A4EB05041E
:1008800081EA030E52EA03354FEA013100F0888015
:100890004FEA03334FF0805545EA131343EA1263DE
:1008A0004FEA022245EA111545EA10654FEA002693
:1008B0000EF000419D4208BF964244F1FD0404F54C
:1008C000407402D25B084FEA3202B61A65EB0305A8
:1008D0005B084FEA32024FF480104FF4002CB6EB65
:1008E000020E75EB030E22BFB61A754640EA0C00E5
:1008F0005B084FEA3202B6EB020E75EB030E22BF25
:10090000B61A754640EA5C005B084FEA3202B6EB65
:10091000020E75EB030E22BFB61A754640EA9C0024
:100920005B084FEA3202B6EB020E75EB030E22BFF4
:10093000B61A754640EADC0055EA060E18D04FEAB2
:10094000051545EA16754FEA06164FEAC30343EA52
:1009500052734FEAC2025FEA1C1CC0D111F4801F1F
:100960000BD141EA00014FF000004FF0004CB6E718
:1009700011F4801F04BF01430020B4F1FD0C88BFB7
:10098000BCF5E06F3FF6AFAEB5EB030C04BFB6EBC2
:10099000020C5FEA500C50F1000041EB045170BDB5
:1009A0000EF0004E4EEA113114EB5C04C2BFD4EBE2
:1009B0000C0541EA045170BD41F480114FF0000E66
:1009C000013C90E645EA060E8DE60CEA135594EAE2
:1009D0000C0F08BF95EA0C0F3FF43BAF94EA0C0FE5
:1009E0000AD150EA01347FF434AF95EA0C0F7FF45A
:1009F00025AF104619462CE795EA0C0F06D152EAAE
:100A000003353FF4FDAE1046194622E750EA410691
:100A100018BF52EA43067FF4C5AE50EA41047FF4A2
:100A20000DAF52EA43057FF4EBAE12E74FF0FF3C07
:100A300006E000BF4FF0010C02E000BF4FF0010CD8
:100A40004DF804CD4FEA410C7FEA6C5C4FEA430C51
:100A500018BF7FEA6C5C1BD001B050EA410C0CBFA0
:100A600052EA430C91EA030F02BF90EA020F002002
:100A7000704710F1000F91EA030F58BF994208BF69
:100A800090422CBFD8176FEAE37040F00100704726
:100A90004FEA410C7FEA6C5C02D150EA013C07D17D
:100AA0004FEA430C7FEA6C5CD6D152EA033CD3D0C8
:100AB0005DF8040B704700BF8446104662468C46C2
:100AC0001946634600E000BF01B5FFF7B7FF0028F5
:100AD00048BF10F1000F01BD4DF808EDFFF7F4FF1E
:100AE0000CBF012000205DF808FB00BF4DF808EDA9
:100AF000FFF7EAFF34BF012000205DF808FB00BFCC
:100B00004DF808EDFFF7E0FF94BF012000205DF8ED
:100B100008FB00BF4DF808EDFFF7CEFF94BF0120A2
:100B200000205DF808FB00BF4DF808EDFFF7C4FF9B
:100B300034BF012000205DF808FB00BF4FEA4102EE
:100B400012F5001215D211D56FF47873B3EB62521F
:100B500012D94FEAC12343F0004343EA505311F046
:100B6000004F23FA02F018BF404270474FF00000D8
:100B7000704750EA013005D111F0004008BF6FF016
:100B8000004070474FF00000704700BF4FEA41023D
:100B9000B2F1E04324BFB3F5001CDCF1FE5C0DD9DB
:100BA00001F0004C4FEAC0024CEA5070B2F1004F25
:100BB00040EB830008BF20F00100704711F0804F28
:100BC00021D113F13872BCBF01F00040704741F4ED
:100BD00080114FEA5252C2F11802C2F1200C10FAF1
:100BE0000CF320FA02F018BF40F001004FEAC123D5
:100BF0004FEAD32303FA0CFC40EA0C0023FA02F379
:100C00004FEA4303CCE77FEA625307D150EA01334E
:100C10001EBF4FF0FE4040F44000704701F000401E
:100C200040F0FE4040F40000704700BF7BB972B94D
:100C30000029BEBF00204FF0004106E008BF002899
:100C40001CBF6FF000414FF0FF3000F0D3B9ADF1A1
:100C5000080C6DE904CE002909DB002B1ADB00F03B
:100C60004DF8DDF804E0DDE9022304B070474042AE
:100C700061EB4101002B1BDB00F040F8DDF804E0E4
:100C8000DDE9022304B0404261EB4101524263EBD3
:100C900043037047524263EB430300F02FF8DDF843
:100CA00004E0DDE9022304B0404261EB41017047FA
:100CB000524263EB430300F021F8DDF804E0DDE984
:100CC000022304B0524263EB4303704753B94AB95D
:100CD000002908BF00281CBF4FF0FF314FF0FF3044
:100CE00000F088B9ADF1080C6DE904CE00F006F80B
:100CF000DDF804E0DDE9022304B070472DE9F04798
:100D0000089D8E4604468846002B4AD18A421746E3
:100D100062D9B2FA82F64EB1C6F1200301FA06F8A2
:100D200020FA03F3B74043EA0808B4404FEA174EED
:100D30001FFA87FCB8FBFEF1230C0EFB118843EA77
:100D4000084301FB0CF29A4209D9FB1801F1FF306C
:100D500080F0EA809A4240F2E78002393B449A1AD6
:100D6000A3B2B2FBFEF00EFB102243EA024300FBEB
:100D70000CFC9C4509D9FB1800F1FF3280F0D680AD
:100D80009C4540F2D3803B44023840EA0140A3EB4B
:100D90000C0300211DB1F3400022C5E90032BDE87B
:100DA000F0878B4205D90DB1C5E900010021084645
:100DB000F5E7B3FA83F1002946D1734502D38242A5
:100DC00000F20581841A6EEB030201209046002D8B
:100DD000E5D0C5E90048E2E7002A00F09080B2FAC9
:100DE00082F6002E40F0A4808A1A030C4FEA174EB8
:100DF00080B2BCB20121B2FBFEFC0EFB1C2243EA16
:100E0000024304FB0CF29A4207D9FB180CF1FF389D
:100E100002D29A4200F2E080C4469B1AB3FBFEF273
:100E20000EFB123340EA034302FB04F49C4207D951
:100E3000FB1802F1FF3002D29C4200F2CA80024647
:100E40001B1B42EA0C40A5E7C1F120068B4022FAA9
:100E500006F71F430EFA01F420FA06F32EFA06FEF7
:100E60004FEA1749234300FA01F81FFA87FCBEFB3B
:100E7000F9F01C0C09FB10EE44EA0E4400FB0CFEDA
:100E8000A64502FA01F209D93C1900F1FF3A80F0B7
:100E90009C80A64540F2998002383C44A4EB0E04A5
:100EA0001FFA83FEB4FBF9F309FB13444EEA044432
:100EB00003FB0CFCA44508D93C1903F1FF3E80F06C
:100EC0008280A4457FD9023B3C4443EA0040A4EB26
:100ED0000C04A0FB02EC64457346E14662D35FD08C
:100EE0005DB1B8EB030264EB090404FA06F622FADA
:100EF00001F31E43CC40C5E9006400214FE7B1FB7C
:100F0000F2FC010C41EA0E4180B240EA01423B464C
:100F100038463C46B846BE462026B1FBF7F1A2EB68
:100F2000080241EA0C4166E7014618E710462CE743
:100F3000C6F120022EFA02F3B740B14020FA02F2C5
:100F40004FEA174E0A43B3FBFEF8BCB20EFB183350
:100F5000110C41EA034108FB04F9B04089454FEA0E
:100F6000104380B23ED9791808F1FF3C01D289457F
:100F70001FD8A1EB0901B1FBFEF909FB04F80EFB38
:100F8000191192B242EA0142424529D2BA1809F136
:100F9000FF31C4D24245C2D2A9F102013A44BEE7B0
:100FA000F0459DD2BEEB02036CEB070C0138E14625
:100FB00096E7A7EB09094944A8F1020CB1FBFEF939
:100FC00009FB04F8DBE773467FE7504666E708460F
:100FD000FDE63B44023A33E7ACF1020C3B441CE72C
:100FE00049469CE7A1EB0901C446B1FBFEF909FBA8
:100FF00004F8C4E7704700BFDFF834D0002103E0F5
:101000000C4B5B58435004310B480C4B42189A422E
:10101000F6D30B4A02E0002342F8043B094B9A4204
:10102000F9D303F009FE22F0A3FF01F0DDFB7047C6
:10103000000003209C1B0E0800000020640100201B
:1010400080030020C0440120FEE7704708B500F08F
:10105000B9FDBDE8084000F03DBD00F0B5BD7047EA
:1010600010B50421044620F092FC204610BD00007B
:1010700038B50C4B0C4C18800C4B822019806368DF
:10108000984740F6110398420AD1094D23682C6015
:10109000822098472B688220DB689847002038BD63
:1010A0000120FCE7A60300204C000020A403002040
:1010B000A80300204FF4A071F020FFF7D9BF000073
:1010C000F7B5394D2B6804461B698220984720806C
:1010D00000284ED02B680DF106025B6901A9822021
:1010E0009847324B1B78002B4BD0BDF8062040F6BA
:1010F00074639A423FD9ADF80630BDF806209B1ABA
:101100009BB20A2B42D90B22B3FBF2F3284A128876
:10111000934201D9013A93B2BDF80420254840F624
:10112000B8318A4234D8C2F571620E32016892B287
:101130000F25B2FBF5F2204D2D88AA4284BF05F1A0
:10114000FF35AAB28A4215468EB22AD9921B91B2B5
:101150001A4E3768BB42BAB28CBF9A1AD21A92B2F0
:1011600011440529C4BF0560336003686380336898
:10117000A38003B0F0BDB32A9CBFB422ADF8062013
:10118000BBE7BDF80630A3F5B473B9E70023C3E7A6
:10119000C2F56D62083292B20E2A0168C8D80025E5
:1011A0002A46891A89B2D3E7A80300200C27002019
:1011B000A4030020A0030020A60300209C0300201D
:1011C00037B568460D461446FFF77AFFBDF80000B4
:1011D00030B1BDF802302B60BDF80430236001202F
:1011E00003B030BD032821D8DFE800F0020B12194C
:1011F0000F4B1A68B2FA82F2520904210D4803F02B
:10120000AFBF0B4B5A68B2FA82F252090821F5E7D8
:10121000074B9A68B2FA82F252091021EEE7044BAA
:10122000DA68B2FA82F252092021E7E7704700BF7C
:10123000AC03002000100240032821D8DFE800F0B2
:10124000020B12190F4B1A68003A18BF0122042131
:101250000D4803F085BF0B4B5A68003A18BF0122B6
:101260000821F5E7074B9A68003A18BF01221021C0
:10127000EEE7044BDA68003A18BF01222021E7E7C5
:10128000704700BFAC0300200010024003280DD8B7
:10129000DFE800F00206080A0421054803F065BFF4
:1012A0000821FAE71021F8E72021F6E7704700BF90
:1012B0000010024008B5032811D8DFE800F0020A48
:1012C0000C0E0421074803F045FF431E58425841C5
:1012D00008BD0821F6E71021F4E72021F2E70020FD
:1012E000F3E700BF0010024070B5084D002401264E
:1012F000E0B2FFF7DFFF18B12B68012B18BF2E609B
:101300000134052C05F10405F2D170BDAC030020B9
:10131000012380F8781080F87930704770470020FA
:1013200070470000034B4164003918BF0121197058
:10133000704700BF7F370120704700207047836BE4
:101340000BB10846184770474FF6FF70704740686A
:1013500003689B691847704770477047704770472C
:1013600010B5044600F046FD23680349D3F89030D9
:101370002046BDE810401847000000D008B50368BB
:101380000446D3F88430984723682046DB6F98479B
:1013900000F0ECF8236820465B6F9847292001F0A5
:1013A000A7FC00F0E3F8236820465B6F9847F8E756
:1013B00010B5044609F054F823682046D3F8BC3031
:1013C000BDE81040184700F0F9BC00F0FDBC00F08B
:1013D0002FBD00F0CFBC00F03FBD00F047BD00F0D6
:1013E000D3BC08F06BBA10B58421044620F0CFFAC4
:1013F000204610BD10B590F8341090F878400C4B92
:101400008C421A7809D03AB90A4A0B4914880888DC
:1014100010800C8001221A7010BD002AFCD0054AF1
:1014200005491488088810800C800022F3E700BF6B
:1014300078370120743701207637012070B50D46CA
:10144000194635B9094B0A4A0A4840F2FF2122F0F1
:10145000DFFAC0E90F52084B003A18BF01221A7098
:101460000368BDE87040D3F890301847C04A0208BE
:10147000F84A0208464B02087E37012008B5094B9E
:101480001B888B4203D8084B1B88934205D9074B16
:10149000074A0848A32122F0BBFA074B1980074BE3
:1014A0001A8008BD74370120763701208B4B020863
:1014B000EE4B0208464B02087A3701207C370120A8
:1014C000034690F87A0018B1586803681B681847FB
:1014D00070470000012108B50022084605F0B4FE5F
:1014E0000A4B186028B90A4B0A4A28210A4822F0F8
:1014F0008FFA00220421012005F04EFF074B1860EF
:1015000018B9074B034A2C21F0E708BDC00300209F
:10151000314C02087A4C0208A94C0208BC03002096
:10152000054D0208024B4FF0FF31186805F0D6BE9A
:10153000C0030020014B186805F0FCBEC00300206A
:10154000024B0021186805F0C9BE00BFC00300208F
:10155000FFF7F0BF03480449006800231A4605F06E
:1015600056BF00BFBC0300200400002013B5084C88
:1015700000231A4601A9206805F07AFF20684FF081
:10158000FF33002201A905F073FF02B010BD00BFB8
:10159000BC03002003685B6C184701207047036898
:1015A0009B6A1847FEE740F2EF307047054B036037
:1015B000054B4FF08062C3F88820BFF34F8FBFF315
:1015C0006F8F7047E456020800E100E010B5044652
:1015D0004FF45A61FFF7EAFF204620F0D8F9204681
:1015E00010BD000082B0002301930E4B1A6B42F431
:1015F00000021A631A6B02F400020192019A1A693E
:1016000042F400021A611A6922F400021A61064BC0
:10161000064A1A61064A5A61064B4FF080629A6088
:1016200002B0704700380240A0280020851800084A
:10163000A515000800E100E008B50A2809D8DFE890
:1016400000F006100E080808081010101000022004
:1016500008BD054B054A0648902122F0D9F9002023
:10166000F6E70120F4E700BF474D0208624D02088B
:10167000AD4D020838B50C46887FFFF7DDFFA58A1F
:10168000E28A164B2169586342EA05425A64628B2A
:10169000D963521B1A642568082D0ED19A611A610C
:1016A0005862207F0E4A42EA0062DA61E2681A62FA
:1016B0000C4A5961D9601A6038BD0022D8611A619C
:1016C000E1680A0A480902F4784200F4FC60024327
:1016D000C1F3C4010A439A63034AECE700B0024035
:1016E00009000100012302000123030008B50B28B3
:1016F0000BD8DFE800F00612100A0A0A0A080808E8
:101700000808022008BD0520FCE7054B054A0648ED
:101710006F2122F07DF90020F4E70120F2E700BFFD
:10172000474D0208074E0208AD4D02082DE9F04171
:1017300091F81D800C464046FFF7D8FFA77F05466D
:101740003846FFF7D3FF06463846FFF775FFA18AF4
:10175000628B444B521A1A649A61228B521A1A6194
:10176000E28A586342EA01425A6421696268D96395
:10177000DA602068802828D0227F0FD8202867D000
:10178000402865D004281AD0364B45EA026545F456
:101790000035B845DD6161D0334A44E0B0F5807F63
:1017A00004D0B0F5007FEFD1304800E0304840EA87
:1017B0000262DA61E2681A625E62596132E045EA09
:1017C000026242F40032DA61F6E7A068021DDA62D2
:1017D000227F45EA026545F40035DD615E625961AC
:1017E000017841B1012921D0224B234A23484FF4EB
:1017F0008D7122F00DF9DA69418822F47F420139B6
:1018000022F0100242EA0122DA610121154BDA6965
:1018100042F02002DA61DA699206FCD410229A6062
:101820000029B9D0164A1A60BDE8F081B2F1FF0173
:10183000DA69408822F47F4200F1FF3022F0100282
:1018400042EA002242F0100218BF0121DA61DDE70E
:1018500045EA0262034B42F40032B4E742F201323D
:10186000E1E700BF00B002400123010009000200CF
:101870000A000200514E02086B4E0208AD4D0208EC
:1018800001230200024B1B68586803685B69184714
:101890008037012070B5044625460A4B0C300026DF
:1018A00060602672667245F8203B6022294608F087
:1018B0002DFF04F55A63EE6024359D42FBD120468E
:1018C00070BD00BFE4560208034B1A68D207FCD46F
:1018D00023229A60704700BF00B0024070470000AA
:1018E00030B50F4C2568ED07FCD423250904A5600D
:1018F00041F001010225FF2B65636164E0630AD0BA
:101900000849656241EA0363E361074B2262606153
:10191000E060236030BDE561039BA363034BF8E700
:1019200000B00240090001000100020001000300B4
:1019300030B50E4C2568ED07FCD423251204A560B4
:1019400042F001020225FF2B65636264E063E160FF
:1019500008D01B0643F00213E361054B656260612A
:10196000236030BD034BE3610123F9E700B002407F
:1019700001000200020002FF30B50B4C2568ED07A4
:10198000FCD4232512041B06A56043F40033022572
:1019900042F0010265636264E063E160E361034B6E
:1019A00065626061236030BD00B00240010002004A
:1019B000012070474020704700EB811008307047CD
:1019C00000EB811008307047012070474FF413601E
:1019D00070474FF4136303FB0100083070474FF466
:1019E000136303FB0100083070470120704710208B
:1019F000704700EB01100830704700EB0110083011
:101A00007047084601F062BE10B5034B0360044600
:101A100007F0A9FC204610BD9C57020810B50446EB
:101A2000FFF7F2FF204648211FF0B1FF204610BD0E
:101A300010B5034B0360044607F095FC204610BD2B
:101A40006857020810B50446FFF7F2FF204640F63B
:101A500038111FF09CFF204610BD000010B5034B4D
:101A60000360044607F07FFC204610BD345702088F
:101A700010B50446FFF7F2FF204618211FF087FF3C
:101A8000204610BD10B5084B0360044600F66410F4
:101A9000FFF7BAFF04F12C00FFF7CAFF04F11400AE
:101AA000FFF7DCFF204610BDD057020808B50248FA
:101AB000FFF7E8FF08BD00BF9C12002010B50446E8
:101AC000FFF7E0FF204640F60C311FF060FF204694
:101AD00010BD00002DE9F34101F076FC054601F050
:101AE00077FC00240146234628462246009410F045
:101AF000BBFE274B274A1A60204602F077F9264D95
:101B0000264B274A27489A6010F016FE2B68BFF331
:101B10005B8FDB0735D428461FF03BFF88B3224C90
:101B2000224B236004F51B6604F1140004F12C0819
:101B300004F664176060C4F80880E760266107F067
:101B400013FC1B4B6361404607F00EFC194BE3622C
:101B5000384607F009FC184BC4F8643904F6AC1099
:101B600002F0BEF9224604F6AC11304602F0AEF99E
:101B7000304601F0ABFD114821F068FF28461FF008
:101B800014FF0F4802B0BDE8F041FFF7E9BB00BF0A
:101B9000E437012048040020981200206804002047
:101BA0004C040020080000209C120020D05702089E
:101BB00034570208685702089C570208AD1A0008FB
:101BC000C4030020704700000148FFF7D7BB00BFE7
:101BD000C403002070B5264E264C274D274B2360AA
:101BE0003046FFF757FE284615F044FF24480EF014
:101BF000B5FD244B2448DC6000224FF48071C3E91A
:101C0000121222491A86C3E91A12214983F8582070
:101C1000C3E91E011F49C3F880101F491F480B600C
:101C2000F021C3E90422C3E90622C3E90822C3E97B
:101C30000A22C3E90E22C3E91022C3E91422C3E930
:101C400017225A6683F870205A67C3E9016501803C
:101C50001348018013484FF4A0710180124801809D
:101C600012490A70012283F83420114A1A6070BDAB
:101C7000F40400209412002068040020B04A0208F6
:101C80004C040020C40300200000010101000001F9
:101C9000000450001A00140080370120743701201E
:101CA0007A370120763701207C37012078370120F0
:101CB000F85502080148FFF779BC00BFF404002082
:101CC0000020704781807047C18070470181704754
:101CD000418170477047704770477047704710B434
:101CE000C4880368121B84885B6D091B12B25DF8FF
:101CF000044B09B218474FF6FF7383814FF0FF334F
:101D000003621368C36110607047002070478B88BE
:101D1000838001207047704780F82610704790F844
:101D20002600704710B50022B1F90840B1F90A1039
:101D3000028042808480C18010BD002202804280E7
:101D40008280C28070470177704780ED080A704733
:101D500080F82410704780F82510704701207047E4
:101D6000983070478C3070478430704770477047A8
:101D700070470000034B902283F85A2383F85823BE
:101D8000704700BF00E100E0094A0A49D3680A48E9
:101D9000C3F30A03013B9BB20B801169C1F30A0133
:101DA000013901801364536B43F00103536370479F
:101DB00000680140AA1D0020A81D0020014BD3F897
:101DC000AC00704700680140024B0122C3F8AC1020
:101DD0005A6270470068014010B52C2104461FF07C
:101DE000D6FD204610BD10B5BC2104461FF0CFFD26
:101DF000204610BD70B5044607F0B5FD23689D6E02
:101E00000DF044FA01462046A8472368054AD3F856
:101E10008C502046AC460023BDE87040A2F5163138
:101E2000604700BF00B004D007F084BD07F08EBD4E
:101E300007F04ABD07F0B9BE90F8252012B103683B
:101E40005B691847704790F825201AB190F8242054
:101E500002B1186070470000034B4FF080629A6037
:101E60004FF080729A60704700E100E0084B4FF03D
:101E70008062C3F88820BFF34F8FBFF36F8F4FF09E
:101E80008072C3F88820BFF34F8FBFF36F8F704706
:101E900000E100E070B50023124E8380124B036016
:101EA000336893F8582005460AB1D86C00B9986891
:101EB0000368DB6A98473368B0FA80F4D86C640929
:101EC00030B10368DB6A9847002808BF44F001047A
:101ED0002CB9064B064A07482C2121F099FD2846CB
:101EE00070BD00BF80370120E4570208A94E0208E8
:101EF000074F0208404F020870B5254E3568BFF302
:101F00005B8F15F0010540D130461FF042FD0028DF
:101F10003BD0204C204B256104F13400C4E900354E
:101F2000C4E90255E584A562A5850EF0FCFE04F126
:101F300058000AF0A1F8194BA3652046184B40F849
:101F4000843BFFF7A7FF174BC4F884302433C4F851
:101F50008C304FF4C803C4E928350023C4F8AC30F2
:101F6000C4F8B030C4F8B430C4F8B8300E480F4BE1
:101F7000C4F89050C4F89C50C4F8A850C4F89830E5
:101F800021F064FD30461FF010FD024870BD00BF17
:101F9000AC1D0020B01D0020D45D020804580208CA
:101FA0007C580208885D0208711D0008685D0208FF
:101FB00038B5184C23685BB3174B184A1B6C118853
:101FC0008B4216D1164B198803F0D2FE236893F882
:101FD0006A200025013283F86A2083F87C50FFF7DD
:101FE000B9FA206808F03CFA2846BDE83840FFF707
:101FF000F9B803F0BDFE2468236820461B6A9847A1
:10200000012384F87C300020BDE83840FFF714B984
:1020100038BD00BF8037012000680140AA1D0020A4
:10202000A81D002070B50D4C00213225D0F8D0201D
:10203000322A0DD0D0F8CC3040F8234001330132A1
:10204000B3FBF5F605FB1633C0F8CC30C0F8D02052
:102050000131322904F12C04E8D170BD6C1E00203E
:1020600008B50022C0E93222C0F8D020FFF7DAFF1D
:1020700008BDD0F8D01030B5034679B1D0F8C820EB
:10208000322450F8220001320139B2FBF4F504FB8E
:102090001522C3F8C820C3F8D01030BD0846FCE7AD
:1020A00010B591B1D0F8D020322A0ED0D0F8CC3073
:1020B00040F82310013332210132B3FBF1F401FB6C
:1020C0001433C0F8CC30C0F8D02010BD2DE9F34156
:1020D000154CDFF8588032264FF6FF770025012394
:1020E000C4E90555A580E58025816581A581E58147
:1020F00025826582E5612584658484F8245084F80E
:102100002530C4F80080E78484F82870204601A9AF
:10211000ADF804700BF057F9013E04F12C04DED148
:1021200002B0BDE8F08100BF6C1E00200C61020807
:10213000074838B53324013CA0F12C0507D0D0F86E
:102140006C3800F66C001B6898472846F3E738BDEA
:102150006C1E0020704782B00DF1080C0CE90600DF
:102160001146009AC2EB02120A4400EB820253604D
:10217000D0F8E8258A42D8BF0131D0F8F025D8BF81
:10218000C0F8E815002B0CBF4FF0FF3301231A44B1
:10219000C0F8F02502B0704782B002AB002903E915
:1021A00006000B4612DBD0F8E0258A420EDD019ACC
:1021B000002A0BDBD0F8E815914207DDC3EB0313CF
:1021C000134400EB8300406802B070470020FBE737
:1021D00082B002AB002903E906000A4606DA00F2E3
:1021E000D45393ED000AB8EEC00A07E0D0F8E0350A
:1021F0008B4205DA07EE903AB8EEE70A02B0704774
:10220000D0F8DC15D0F8D43501FB023300EE103ADB
:10221000E9E782B0002A02AB03E90600D0F8D8351E
:10222000A3BFD0F8DC1501FB023300EE103A07EE35
:10223000903AACBFB8EEC00AB8EEE70A02B07047F9
:1022400082B00DF1080C0CE90600C1EB01120199F6
:102250000A44D03240F8223002B0704782B002AB5C
:1022600003E90600C1EB01131344D03350F82300F7
:1022700002B070472DE9F84F8246D1F8DC0557ECE3
:10228000116B59EC108B8B46FEF754F90446DBF8C2
:10229000D4050D46FEF74EF902460B464046494628
:1022A000FDF7FAFF22462B46FEF7D8FA41EC100B59
:1022B0001FF0ECFC51EC100BFEF740FC8046DBF805
:1022C000D805FEF737F902460B4630463946FDF78A
:1022D000E3FF2B462246FEF7C1FA41EC100B1FF03C
:1022E000D5FC51EC100BFEF729FCB8F1000F0346AA
:1022F00010DBDBF8E0254245A8BF4246002B0CDB93
:10230000DBF8E4158B42A8BF0B46CAE90023504610
:10231000BDE8F88F4FF0FF32F0E74FF0FF33F4E7FE
:1023200010B54FF4BF6104461FF031FB204610BDCD
:1023300073B503466846D3F80852402D80E806007E
:102340000ED0D3F8044203C803EBC406013404F0F2
:102350003F04013586E80500C3F80442C3F808527B
:1023600002B070BD10B54FF4257204460021043050
:1023700021F055FD0A23C4F8D435C4F8D835142308
:10238000C4F8DC350B23C4F8E0350F23C4F8E4357A
:102390000123C4F8E8350023C4F8EC35C4F8F0355F
:1023A00010BD000010B5074B03600446A5220021B4
:1023B00000F5267021F033FD2046FFF7D3FF2046BD
:1023C00010BD00BFC858020800230439D8B28242A9
:1023D00001D800207047013351F833000028F5D1AF
:1023E0000120704730B50024D0F8E855C0F8EC451E
:1023F00000F2972300F54F701946002202E001F821
:10240000014F01329542FADC0F338342F4D130BDE3
:10241000024600F500710023C2E9003308328A4207
:10242000FAD1C0E98033C0F8083270472DE9F04F87
:10243000ADF50D7D0F469146C7EB071598469DF803
:10244000583202930646FFF7CDFF05EB090306EB72
:10245000830309AC5B68019320463544FFF7D8FF3E
:102460004D44CDE90779012385F8983207AB93E80D
:10247000060020460DF11409FFF75AFF0DF1180A66
:1024800040F2FF13C9F80030274BCAF8003000258E
:10249000D4F8081221B928460DF50D7DBDE8F08F5E
:1024A000D4F8002204EBC20354F832B05B68013266
:1024B00002F03F02C4F80022029A01399542C4F8A2
:1024C000081206D208EBC5016A1C48F835B04B600B
:1024D000D5B2002719F9071059440A2920D81AF94A
:1024E00007201A440E2A1BD8C1EB011006EB000C82
:1024F00094449CF898E2BEF1000F11D1104406EB11
:1025000080009DF804E04068704509D101208CF8F6
:10251000980220460393CDE90712FFF709FF039BBA
:102520000137042FD6D1B3E70000FF012DE9F04FAA
:10253000ADF50D7D09AC0F4605469B4620469DF83E
:10254000583202939046FFF763FFC7EB07132B4403
:102550004344012207AE83F89822C6E90078D5F8F3
:10256000EC351344C5F8EC3596E8060020460DF12D
:102570001409FFF7DDFE0DF1180A40F2FF13C9F848
:1025800000302C4BCAF800300027D4F8081221B9CB
:1025900038460DF50D7DBDE8F08FD4F8002254F8D3
:1025A0003230019304EBC203013202F03F02C4F85F
:1025B0000022029A5B6801399742C4F8081207D2D8
:1025C0000BEBC70101984BF837007A1C4B60D7B270
:1025D0004FF0000819F90810019A11440A2923D86C
:1025E0001AF908201A440E2A1ED8C1EB011005EB77
:1025F000000C94449CF898E2BEF1000F14D11044F2
:1026000005EB8000406800280EDD01208CF8980260
:10261000D5F8EC0503930130C5F8EC05C6E90012C6
:102620002046FFF785FE039B08F10108B8F1040F6F
:10263000D0D1AAE70000FF012DE9F04FADF5057DEF
:1026400004AB8B46044640229A460021013AC3E976
:10265000001103F10803F9D1D4F8F035D4F8EC25D2
:102660009A4208BF0123A4EB840908BF84F8F4351B
:1026700004F29728A9F65C290025EBB2474600260C
:10268000039325E017F8013F0BBB59F82730F3B14E
:10269000402303990093F2B253462046FFF746FFCA
:1026A000514602462046FFF78FFE034678B99A420C
:1026B00004DC10460DF5057DBDE8F08F0AEBC30183
:1026C00003C90BEBC30484E803000133EFE70136D1
:1026D000D4F8E835B342D5DC01350B2D08F10F08ED
:1026E000CBD10022E5E7000007B5064BADF80600A8
:1026F0001B68054801220DF1060104F0D9F803B06A
:102700005DF804FB0C0000204C27002037B50D4D70
:102710000D4C0121284602F01DFD01280ED1206834
:1027200004F0D6FE012809D854238DF8073020681C
:102730000A2300220DF1070104F069FE012004F0D4
:1027400077FDE6E7000002400827002030B595B08D
:10275000102200210AA821F062FB1422002103A804
:1027600021F05DFB00241E4B01941A6C42F0805254
:102770001A641B6C03F080530193019B194B029464
:102780001A6842F440421A601B6803F44043029303
:102790000122029B4FF48033CDE9082302254FF438
:1027A00080030821CDE90E534FF4B473CDE9101323
:1027B00008A804231393129503F032FB03F0F6FAF2
:1027C0000F23CDE903354FF4A0504FF48053CDE9EA
:1027D0000603052103A8059403F0FEFC15B030BDE7
:1027E000003802400070004080B59AB002F032FA22
:1027F000FFF7ACFF142200210DA821F010FB0024EC
:10280000C84B00941A6BC848C84DDFF85C8342F08F
:1028100010021A631A6B02F010020092009A0194DF
:102820001A6B42F020021A631A6B02F02002019226
:10283000019A02941A6B42F080021A631A6B02F03A
:1028400080020292029A03941A6B42F004021A6305
:102850001A6B02F004020392039A04941A6B42F07A
:1028600001021A631A6B02F001020492049A0594A1
:102870001A6B42F002021A631A6B02F0020205920E
:10288000059A06941A6B42F040021A631A6B02F022
:1028900040020692069A07941A6B42F008021A63E5
:1028A0001B6B03F00803224607933C21079B02F0B1
:1028B00057FC9F480122022102F052FC22469C480C
:1028C000042102F04DFC22469A484FF4405102F098
:1028D00047FC01263C23CDE90D3693480F94032392
:1028E0000DA90227109302F051FB91480DA9CDE9E3
:1028F0000D76CDE90F4402F049FB04238C480DA965
:10290000CDE90D36CDE90F4702F040FB4FF44053BF
:1029100088480DA9CDE90D36CDE90F4702F036FB09
:102920000DA985480F97CDE90D6402F02FFB834870
:10293000834B036002F020FADFF830E2814B2C6217
:10294000C5E900E328464FF48043C5E90434C5E9EE
:102950000244C5E9064402F011FE1021284603F0A6
:1029600055F821462846784D03F06FF84FF48273EE
:10297000C5E900834FF400791823C5E9069328467A
:102980000A23C5E90244C5E90444C5E90844AC6228
:10299000EB6203F031FF8F232246394664488DF8FD
:1029A00024308DF8344002F0DBFB32464FF47A736A
:1029B00009A9284603F07CFF4FF47A7332460DA92B
:1029C000284604F021F93246394659485F4D02F055
:1029D000C7FB9DF83430D32B04BF5D4B1E705D4B9D
:1029E0000126C5E90036102240230024C5E904234E
:1029F0004FF4C073C5E906344FF40063C5E90834E9
:102A00004FF4005302274FF00409AB624FF0030A62
:102A100007230DA92846CDE90D73CDE90F934FF09B
:102A20000808C5E90249CDE911A7139703F0C8FDCD
:102A30004FF6FF7209A92846CDE90A86089409963F
:102A40000C9403F0DDFD304602F030F94FF6FF72D2
:102A500009A92846CDE90978CDE90B6403F0D0FD3A
:102A60004FF6FF7209A92846CDE909A8CDE90B94D4
:102A700003F0C6FD4FF40C730893089B0C934FF6BC
:102A8000FF7209A92846CDE909980B9603F0B8FD15
:102A900040F26A51284603F0D1FD34220DEB0200CA
:102AA000214621F0BCF92C4D2C4B2C61C5E900349A
:102AB0000923C5E905361D23C5E9073A40F20D1182
:102AC00040F24313C5E9091340F2171040F24713CF
:102AD000C5E90B032846C5E90244AC8685F83640B3
:102AE00003F04EF8FF214FF4806CF022CDE9121470
:102AF0000521CDE914C14FF4A0730DA9CDE90E2431
:102B0000CDE9164228462246154D1893CDE91037D7
:102B10000D94ADF864408DF8664003F0FCF8114B5D
:102B20002B6025E000380240001002404C280020B5
:102B300000080240000C024000000240E028002093
:102B400000300240A08601004C27002018270020FA
:102B50000C270020400100A0A427002000680140AD
:102B6000042700201400002000500140005C0040B9
:102B70001B6898472B68184DDB689847174B284609
:102B8000C5E90034C5E90274C5E90A47C5E90C4442
:102B900002F002F93146284602F0B4F9FEF756FA7F
:102BA000FEF753FA04F0D4FA0D4A3146404604F0D9
:102BB000F3FB0C4B0C4A186021460C4804F0F4FA65
:102BC0000B4B0C4A186021460B4804F0EDFA0B4BF6
:102BD000186004F0CFFAFEE7A028002000B0024001
:102BE000EC58020808270020285902080D27000881
:102BF00014270020045902085B1000081027002049
:102C0000704770477FB5094B8DF817201B680293FA
:102C10000DF117020123009201930A460146044870
:102C200002F054FD07B05DF804FB00BF1000002067
:102C30004C2800207FB500238DF81730084B1B6807
:102C400002930A4601230DF11701009101930146F9
:102C5000044802F0CBFD9DF8170007B05DF804FBB7
:102C6000100000204C2800201FB5084C246800925A
:102C7000CDE901340A4601230146054802F0B6FDBC
:102C8000003818BF012004B010BD00BF10000020A4
:102C90004C28002002F00AB810B5064C002220464D
:102CA000042102F05DFA20460122BDE81040042113
:102CB00002F056BA0008024038B50B4D0446012216
:102CC0000A484FF4005102F04BFA00220421284632
:102CD00002F046FA2046FFF707FD28460122BDE82C
:102CE0003840042102F03CBA00080240000C0240C7
:102CF00038B50B4D044600220A484FF4005102F04B
:102D00002FFA00220421284602F02AFA2046FFF773
:102D1000EBFC28460122BDE83840042102F020BA2D
:102D200000080240000C0240F7B5144E144F05464F
:102D30000C4630460022042102F012FA00224FF421
:102D40000051384602F00CFA2846FFF7CDFC0D4B37
:102D50000D481B68224601A903F056FF38460122A0
:102D60004FF40051019C02F0FBF93046012204218E
:102D700002F0F6F9204603B0F0BD00BF00080240A3
:102D8000000C02400C0000204C27002001F08EBFF8
:102D90000268034B9A4201D101F076BF704700BF31
:102DA000001000407047000082B00E4B00220092DD
:102DB000596C41F480415964596C01F4804100918F
:102DC00000990192196C41F0805119641B6C03F059
:102DD00080530193019B0F216FF0010002B001F0BD
:102DE0008BBF00BF003802400268094B9A4282B094
:102DF0000BD100230193074B1A6B42F480521A63E4
:102E00001B6B03F480530193019B02B0704700BF1A
:102E1000003002400038024007B50F4B02689A426A
:102E200016D10022A3F5F0430192196B41F4000181
:102E300019631B6B03F40003019305215A20019BC6
:102E400001F05AFF5A2003B05DF804EB01F086BF91
:102E500003B05DF804FB00BF00B002402DE9F04371
:102E6000044689B01422002103A820F0D8FF22686C
:102E7000244B9A4243D1244C244800250095236BCF
:102E800043F004032363236B03F004030093009BCC
:102E90000195236B43F001032363236B03F00103CC
:102EA0000193019B4FF012094FF400734FF001089A
:102EB0000327042603A9CDE90339CDE90587079641
:102EC00002F064F84FF480731148079603A9CDE926
:102ED0000339CDE9058702F059F80295236C43F4D4
:102EE00000032364236C03F400030293029B236A10
:102EF00043F400032362236A23F40003236209B02E
:102F0000BDE8F083005C0040003802400008024049
:102F100000000240F0B599B004461422002107A831
:102F200020F07DFF30220DEB0200002120F077FF22
:102F300022685E4B9A4240F0B78008230C93C0236E
:102F40001093042312930CA84FF40033159303F04D
:102F50000BFA08B1FFF726FF554B564800240094A2
:102F60005A6C42F080625A645A6C02F0806200929D
:102F7000009A01941A6B42F020021A631A6B02F055
:102F800020020192019A02941A6B42F001021A6324
:102F90001A6B02F001020292029A03941A6B42F039
:102FA00002021A631A6B02F002020392039A04945B
:102FB0001A6B42F040021A631A6B02F0400204924C
:102FC000049A05941A6B42F004021A631A6B02F019
:102FD00004020592059A06941A6B42F008021A63DD
:102FE0001B6B03F00803069302250E26069B0B9627
:102FF0004FF4806307A9CDE90735CDE9094501F014
:10300000C5FF41F658032C480B9607A9CDE90735B3
:103010000927CDE9094501F0B9FF032327480B979C
:1030200007A9CDE90735CDE9094501F0AFFF4FF418
:10303000706322480B9607A9CDE90735CDE909450C
:1030400001F0A4FF4FF40C631D480B9607A9CDE9CE
:103050000735CDE9094501F099FFC02319480B96C2
:1030600007A9CDE90735CDE9094501F08FFF082310
:1030700015480B9607A9CDE90735CDE9094501F0BB
:1030800085FF4FF4A0530E480B9707A9CDE90735EC
:10309000CDE9094501F07AFF58202246052101F0CB
:1030A0002BFE582001F05AFE19B0F0BD0068014017
:1030B00000380240001402400000024000040240B8
:1030C0000018024000080240000C024010B50446FF
:1030D00088B01422002103A820F0A1FE2268144B1E
:1030E0009A4223D103F56843002101915A6C11489B
:1030F00042F480125A645A6C02F480120192019ACE
:1031000002911A6B42F020021A631B6B03F020033A
:103110000293029B4FF4607202230321CDE9032343
:103120000523CDE9061303A901F030FF08B010BD57
:1031300000500140001402402DE9F04186B0002308
:1031400003932B4B1C68002C4FD14FF00108C3F8A0
:103150000080284B00949A6B274842EA08029A6341
:103160009B6B03EA08030093022703260C25009BB0
:1031700001A94FF63F03CDE90137CDE9046501F020
:1031800005FF1E48059501A9CDE90187CDE9034654
:1031900001F0FCFE48F233131948059501A9CDE969
:1031A0000137CDE9034601F0F1FE4FF68373154870
:1031B000059501A9CDE90137CDE9034601F0E6FE09
:1031C0004CF203731048059501A9CDE90137CDE90B
:1031D000034601F0DBFE60230C48059501A9CDE90B
:1031E0000137CDE9034601F0D1FE06B0BDE8F0811C
:1031F000E828002000380240001402400008024085
:103200000018024000100240000C0240000402407E
:1032100070B588B000230293204B1A6C42F0100264
:103220001A641B6C03F010030293054601A903A85E
:10323000029B03F07BF8069B4BBB03F067F8184E2C
:10324000184B336040F2E733F360174BB0FBF3F3F6
:10325000013B7360304600233361B360B36103F018
:10326000A3FE044680B9304603F074FD044658B905
:10327000362001F073FD0F2D0DD822462946362049
:1032800001F03AFD094B1D60204608B070BD03F007
:103290003DF84000D3E70124F6E700BF00380240C4
:1032A000EC2800200010004040420F007C0000206D
:1032B0007047FEE7FEE7FEE7FEE77047014803F0D0
:1032C00087BD00BFEC280020014802F0C7BC00BF4A
:1032D000A4270020014801F08BBD00BFA0280020DA
:1032E0000120704708B520F03DFE162303604FF023
:1032F000FF3008BD08B520F035FE16230360FEE759
:1033000070B50D4614460E46731B9C4201DC2046E8
:1033100070BDAFF3008006F8010BF5E770B50D4600
:1033200014460E46731B9C4201DC204670BD16F805
:10333000010BAFF30080F5E74FF0FF3070474FF41B
:1033400000534B60002070470120704700207047F9
:103350000A4A116808B5034609B90949116010689D
:10336000694603448B4206D920F0FCFD0C23036020
:103370004FF0FF3008BD1360FCE700BF3429002088
:10338000C0440120704710B5042104461EF0FFFA26
:10339000204610BD08B5032913D8DFE801F0020666
:1033A0000A0E00F061FD006808BD00F05DFD406898
:1033B000FAE700F059FD8068F6E700F055FDC068B7
:1033C000F2E70020F0E7000000487047605902086B
:1033D0000D20704713B5002451B1036801948DF896
:1033E000034001AA9C680DF10303A04702B010BD81
:1033F0000846FBE7C0897047008A7047C08870475D
:1034000080887047807A00F07F007047807AC0091A
:1034100070470020704700009FED010A704700BF11
:10342000000000007047704700F59873086849680D
:1034300003C37047704770474160704770477047DB
:10344000064BC0F84C310023C0F8503100F5A27390
:10345000C0F84801C0F84031704700BF013500088E
:10346000012303727047704710B4C268416854105A
:10347000034601EB6200D20748BF0A599B685DF81A
:10348000044B48BFD35818470346406830B19A6888
:103490001AB9D86800F0010070470120704710B5D4
:1034A0000C2104461EF073FA204610BD10B5102101
:1034B00004461EF06CFA204610BD10B54FF4AE71F4
:1034C00004461EF064FA204610BD10B50BF0DEFE77
:1034D0000368BDE81040DB6B184710B50446D0F810
:1034E000400158B10368DB68984738B1D4F840010F
:1034F00003689B6898470023C4F8403110BD000062
:103500002DE9F14FD0E9556A0746B06803681B6A98
:103510009847B0F5136F05D2444B454AA32145485F
:1035200020F076FA706803681B6A98470F2803D862
:10353000414B3F4AA421F2E7F06803681B6A9847B1
:103540000B2803D83D4B3A4AA521E8E70BF09EFE35
:10355000DFF8F09004300BF0BEFED9F8000010B197
:103560000368DB689847D9F8000010B103681B684E
:103570009847DFF8D480D8F8000010B103685B6981
:103580009847D7F83C0110B103685B689847D8F8B2
:10359000000010B103681B689847D7F83C0110B1D0
:1035A00003689B689847F068036800215B6A984746
:1035B0004FF0000B224BC0F804B0044680F808B06E
:1035C0000360B068036859465B6A9847054600F097
:1035D00029FE7068036859465B6A98472946064683
:1035E00000F090FC331DC7F83C61C9F80040C8F8F2
:1035F0000050CAF800302B68C6F808A02846DB68DF
:10360000EE639847336830461B6898472146284642
:103610000EF00EF8236820461B69984723685B6903
:10362000204601B0BDE8F04F184700BFBE4F02086A
:10363000BE52020831510208785102081B5202089A
:10364000D85A0208C8370120C4370120044B1B6830
:1036500093F858200AB1D86C00B99868704700BF39
:1036600080370120F8B5174604460E460BF0D0FE11
:10367000124B1C60124B2360124B0025C4E95135DC
:10368000114BC4E953551868036801219B68C4E9CC
:103690004F55C4E955769847284600F0A7FBFFF739
:1036A000D5FF16F090F8FFF7D1FF16F007F9FFF7F6
:1036B000CDFF16F00FF92046F8BD00BFD43701202A
:1036C000845A02086C5A020880370120064BC0F861
:1036D0004C310023C0F8503100F5A273C0F8480106
:1036E000C0F84031704700BF01350008406A70479C
:1036F000806A704770478A880B8810B5D20A4C8858
:10370000C1699BB251F8220043EA0443184410BD3A
:1037100010B50446BAB1107B68B1537BD27A1B0254
:1037200003F4E0631A43236A03EB82031A888A4294
:1037300002D193F9020010BD05D8013880B20433DC
:103740000028F3D1F7E70020F5E710B52C21044657
:103750001EF01DF9204610BD30B58BB00446BDF8F3
:1037600060500895BDF85C5007959DF8505006953F
:103770009DF84C5005959DF8485004959DF844508F
:1037800003959DF8405002959DF83C500195BDF879
:10379000385000950DF084FB064B2360159BE361C8
:1037A000169B2362199B63621A9BA36220460BB08F
:1037B00030BD00BFFC5A0208704770477047704721
:1037C00070477047704710B54FF40D7104461EF0F6
:1037D000DEF8204610BD0000074A02600022C0E962
:1037E0000122C0E90322C0E90522C0E907224FF403
:1037F00080728284704700BFDC61020870B5036884
:1038000004461B6B154698472368294620465B6B88
:10381000BDE87040184770B504461D46BDF91060FC
:10382000FFF7ECFF2368294620469B6B98472368E7
:1038300031462046DB6BBDE87040184738B526227C
:1038400004460D46002120F0EAFA2046FFF7C4FFA7
:10385000064B23602B88E384FF23204684F828301E
:10386000294609F0B0FD204638BD00BF0C610208B2
:103870002DE9F04F044689B0A04600250DF02CFD3F
:10388000A44BE56348F8403B26222946404620F0F9
:10389000C6FA4046FFF7A0FF9F4B236404F16C0B70
:1038A000FF234FF6FF7907A984F86630A5665846CE
:1038B00004F19C07ADF81C90FFF7C0FF974BE3663F
:1038C00004F1C80A964EA4F89650A4F898503846C9
:1038D000FFF782FFC4F89C6007A9C4F8C4505046A3
:1038E000ADF81C9009F09CF904F1F40307A91846FF
:1038F0000293ADF81C9009F093F904F5907307A9B1
:1039000018460393ADF81C9009F08AF904F5A673E4
:1039100018460493FFF760FFC4F84C6104F5BC76C9
:1039200007A9C4F874513046ADF81C9008F092FC19
:1039300004F5027307A918460593ADF81C90FFF72C
:103940007DFF4FF4A0732A46009329464046F0239A
:10395000FFF761FF04F104094FF07F43A36641467E
:10396000484605F015FD062307A95846ADF81C305A
:1039700009F07EFB4FF4A07300932A46F1232946F9
:103980005846FFF748FF2A462946584609F04EFB9D
:103990005946484605F0FCFCFA232A46009329467E
:1039A000F0233846FFF737FF4FF0010807A95046CC
:1039B000ADF81C8009F007FD12236FF0060200939A
:1039C00050464FF481736FF00801FFF724FF29463A
:1039D000504609F0E0F85146384605F0D9FC4FF45E
:1039E0008A7A0298ADF81C8007A909F0ECFC0F2335
:1039F0000A220298CDF800A0E621FFF70CFF0298FA
:103A0000294609F0C8F80299384605F0C1FC039828
:103A1000ADF81C8007A909F0D6FC0F2309220398F2
:103A2000CDF800A06FF00401FFF7F5FE0398DFF872
:103A30000CA1294609F0AFF80399384605F0A8FC17
:103A40003946484605F0A4FC4FF4A073049800934F
:103A50002A46F0232946FFF7DEFE2A464146304635
:103A6000FFF7CCFE07A93046ADF81C5008F094FDD6
:103A70002C4BC4F880312C4BC4F8A4312B4BC4F828
:103A8000A831304608F032FCB0EE040A304608F0A7
:103A900094FDDFF8AC80264FC4F8D0A1304608F082
:103AA00025FC3046C4F8BC81C4F8C071C4F8C4A178
:103AB00008F01CFC3046C4F8C881C4F8CC7108F08A
:103AC00015FCDFED1C0A9FED1C1AB0EE600A3046B3
:103AD00008F06BFD049884F8A151314605F058FCBC
:103AE00040F2191205986921FFF788FE082305980E
:103AF000ADF81C3007A909F066FCDDE9040105F00A
:103B000047FC4846049905F043FC204609B0BDE84F
:103B1000F08F00BF645B0208206002088860020822
:103B2000A85C0208F00050020000EB42008037431E
:103B30000000944300000000560EC94000007A4483
:103B40000000F0427047000030B5164D2C6814F0AC
:103B500001048FB0BFF35B8F21D128461DF019FF00
:103B6000E8B13F230993104B0893104B07930123AF
:103B7000CDE9054304930423CDE9024314230C4902
:103B800000930B22CDE90B440A480A940194FFF7F5
:103B9000E3FD09481FF05AFF28461DF006FF0548BF
:103BA0000FB030BD38290020BC710208D471020862
:103BB000F07002083C290020453B000870470000D7
:103BC00030B5164D2C6814F001048FB0BFF35B8F35
:103BD00020D128461DF0DDFEE0B13F230993104BB4
:103BE0000893104B104911480A940122CDE906436D
:103BF0000423CDE903320A230093CDE90B44CDE938
:103C000001440594FFF7A8FD09481FF01FFF28464F
:103C10001DF0CBFE05480FB030BD00BF6829002065
:103C2000C8710208D87102088C7102086C29002042
:103C3000BD3B00087047000030B5164D2C6814F0ED
:103C400001048FB0BFF35B8F20D128461DF0A1FE89
:103C5000E0B13F230993104B0893104B10491148D2
:103C60000A940122CDE906430423CDE9033214234B
:103C70000093CDE90B44CDE901440594FFF76CFDB9
:103C800009481FF0E3FE28461DF08FFE05480FB0DF
:103C900030BD00BF98290020CC710208DC710208F9
:103CA0009C7102089C290020353C000870470000E8
:103CB00030B5164D2C6814F001048FB0BFF35B8F44
:103CC00020D128461DF065FEE0B13F230993104B3B
:103CD0000893104B104911480A940122CDE906437C
:103CE0000423CDE9033228230093CDE90B44CDE929
:103CF00001440594FFF730FD09481FF0A7FE284650
:103D00001DF053FE05480FB030BD00BFC82900208C
:103D1000D0710208E0710208AC710208CC290020C1
:103D2000AD3C000800207047002070470EB403B57A
:103D300003AB002153F8042B01930CF02FFB02B0CE
:103D40005DF804EB03B070470CB407B504AB53F84F
:103D5000042B01930CF022FB03B05DF804EB02B0DE
:103D600070470000436C10B5044673B3038F2BB942
:103D7000184B194AC52119481FF04AFEC38E00EBA3
:103D800043035B8C0BB30EF046F9238F012B03D852
:103D9000134B144ACB21EEE7E28E531C9BB2092B46
:103DA000194688BFA3F10A0104EB410140F63F1018
:103DB000498C814209D10A2B04EB420228BF00231F
:103DC00004EB4303508C588451842046BDE81040D6
:103DD0000EF024B890530208995302084454020884
:103DE0008E5402089C5402080DF0DFBF38B518BB92
:103DF000124B13481C681349B4B122682244026074
:103E0000626822440A60A26814440F4B00221A80A0
:103E100000F02AF8054600F025F80C4B1C600C4B0E
:103E20001D600C4B188007E00B4B03600B4B0B60C5
:103E30000B4B1C68002CE8D138BD00BF042A0020C1
:103E4000FC290020F8290020002A0020D837012072
:103E5000E0370120DC370120EC710208E471020830
:103E60000C7202080220704700487047082A0020A0
:103E700010B5FFF7E1FE064C2060FFF719FF606008
:103E8000FFF79EFEA060FFF75FFEE06010BD00BF81
:103E9000082A002010B5002404600C6014601C6027
:103EA00010BD704710B54FF4AE7104461DF06FFDA4
:103EB000204610BD10B50446D0F8580100F013F8A4
:103EC0002046BDE810400BF063BA000010B5044670
:103ED000FFF7C8FB014B2360204610BD985B02082A
:103EE000002202607047704770470438704770477F
:103EF00010B5102104461DF04AFD204610BDA0F16A
:103F00000400F5E700228260024A02601832426033
:103F1000C1607047EC5B020870472DE9F04FD0F8A4
:103F2000546800F517750446B6F9060007EE900AC6
:103F30002DED028BF8EEE77AADF5057D17EE900AD0
:103F4000FCF70AFB41EC180BB6F9040007EE900AE7
:103F5000F8EEE77A402617EE900AFCF7FDFAB0EE8D
:103F6000481AF0EE681A41EC100B294602A8FEF739
:103F700081F904AB98460022013EC3E9002203F117
:103F80000803F9D1402300939DF80C209DF80810F8
:103F900043462846FEF74AFA0228814623DDB34607
:103FA00004F65C0A08EBC607002397E806002846DB
:103FB000FEF7D1F897E806002846FEF74FF997E894
:103FC000060080F825B02846FEF748F9014650461D
:103FD000FEF766F8013697E8060000232846FEF74C
:103FE0002FF9B145DEDC2846FEF7FCF94FF0000A58
:103FF00004F65C0B41462846FEF71EFB002781466F
:104000004F4516DB94F85038002BF3D0D4F84432E7
:1040100003F00303013384F83432236804F50D718F
:104020001B6B204698470DF5057DBDEC028BBDE866
:10403000F08F08EBC706002396E806002846FEF737
:104040008AF896E806002846FEF708F996E8060082
:1040500080F825A02846FEF701F901465846FEF7EC
:104060001FF896E8060000232846FEF7E9F8013716
:10407000C6E7000010B5034B03600446FFF7A1FB41
:10408000204610BD145C020810B50446FFF7F2FF8D
:1040900020464FF413611DF07AFC204610BD00004D
:1040A00008B54FF4B47390FBF3F202FB130007EE74
:1040B000900AB8EEE77ADFED3C7AB4EEE77AF1EEFB
:1040C00010FA04D5F6EE007A67EE877A0AE0DFEDA3
:1040D000377AB4EEE77AF1EE10FA15D5F3EE0E7AF0
:1040E00077EE677A17EE900AFCF736FA2CA3D3E93D
:1040F0000023FCF789FA2E4B0022FCF7AFFBFCF7FC
:1041000045FD00EE100A08BDDFED2A7AB4EEE77A2D
:10411000F1EE10FA04D5DFED287A77EEC77AE1E701
:10412000DFED267AB4EEE77AF1EE10FA04D577EEF9
:10413000C77AB6EE007AC7E7DFED216AB4EEE67A19
:10414000F1EE10FA06D5DFED1F7AF6EE006AE7EE23
:10415000667AC7E7DFED1C6AB4EEE67AF1EE10FA94
:1041600002D5DFED1A7AD8E7DFED196AB4EEE67A08
:10417000F1EE10FA04D5F3EE0E7A77EE277AB1E776
:10418000DFED146AB4EEE67AF1EE10FA46BFF6EE11
:10419000006AE7EE267ADFED107AA3E7AFF300803E
:1041A0001F85EB51B81E0940000070420000B44268
:1041B000008066400000F0420000164300003443D7
:1041C000000070430000E1430000874300800E447C
:1041D000000096430000B44300000000FFF7F2BA6D
:1041E00037B50B78013B054600F50274032B0AD85E
:1041F000DFE803F002121416072301A92046ADF8E8
:10420000043009F0E0F8FF23204685F8303203B08F
:10421000BDE830400CF0ECB90823EEE70A23ECE7E8
:104220000923EAE7F0B50446ADF2FC5DFFF720FB99
:104230003B4B236004F65C0604F51770FEF7B2F8FA
:104240003046FDF70DFF0123002584F83432642346
:10425000C4E99035D4F80C32C4F848324FF42577CD
:10426000C4F83852C4F83C5284F84C526846FEF701
:1042700099F83A4601A904F518701FF0A0FEA6A906
:10428000A52204F2F4401FF09AFE3A46D0A904F2A7
:104290009C501FF094FEDDF8D435C4F83038DDF8BA
:1042A000D835C4F83438DDF8DC35C4F83838DDF8F2
:1042B000E035C4F83C38DDF8E435C4F84038DDF8C2
:1042C000E835C4F84438DDF8EC35C4F84838DDF892
:1042D000F035C4F84C389DF8F43584F85038114B5B
:1042E000C4F850320023C4F85432C4F85832C4F829
:1042F0005858C4F854586846FDF7B2FED4226946AF
:1043000030461FF05CFE04F50D712046FFF768FF94
:10431000201D0CF06DF920460DF2FC5DF0BD00BFD4
:10432000145C02082CF985BF73B5054600F65C00E5
:104330000E46FDF79EFE044650B332780368013AFC
:10434000032A0AD8DFE802F0022D30331B6E072261
:10435000ADF8042001A9204698472368B5F9481212
:104360001B6BB5F94A6220469847236831465B6B60
:1043700020469847012384F82530FF2384F828300D
:10438000281D214605F004F8236820465B699847FC
:10439000D5F85838C5F854480133C5F8583802B034
:1043A00070BD1B6E0822D3E71B6E0A22D0E71B6E7E
:1043B0000922CDE7000000002DE9F04704462DED6D
:1043C000088BD0F83802C84D013088B0C4F83802E4
:1043D000FFF766FE2868B0EE409A03F079F890B3D4
:1043E0004FF0FF332868002206A903F041F89DF83A
:1043F0001830542B27D194F84C6226BBD4F83832AD
:10440000C4F84432236804F50D75DB6A294620465A
:104410009847236884F830621B6B294620469847EA
:10442000D4F85408B4F94A220368B4F948129B6DD1
:104430009847012384F84C320023C4F85432C4F85E
:10444000583284ED949A94F84C32002B00F0E880B6
:10445000D4F85438B3F90400B3F9062007EE900AF3
:10446000F8EEE77A09EE902A17EE900AFCF774F856
:1044700041EC180BD4F85002FCF76EF896A3D3E980
:104480000023FCF751FBF8EEE99A4FF000080028F2
:1044900000F0D980DFF8589219EE900AFCF75CF82A
:1044A000924B41EC1A0B002240464946FCF7ACF80F
:1044B00053EC182BFBF7F2FEFCF768FBFCF74CF80B
:1044C000B0EE4A1AF0EE6A1AB2EE04BA04F51775A5
:1044D00039EECBBA02AF41EC100B29463846FDF756
:1044E000C9FE1BEE100AFCF737F8B0EE480AF0EEF2
:1044F000680A0DF1100A41EC110BDDF8088029461D
:10450000504606AEFDF7B6FEB0EE4A1AF0EE6A1A55
:10451000B0EE480AF0EE680A29463046FDF7AAFEDA
:10452000B8F1FF3F40F09280D4F85002FCF714F845
:1045300069A3D3E9002380468946FCF7F5FA50B118
:1045400042464B4666A1D1E90001FBF7A5FEFCF708
:104550001DFBC4F85002D4F85002FBF7FDFF41ECFC
:10456000180BB0EE480AF0EE680A1DF08DFA8DEDDA
:10457000000BB0EE480AF0EE680A1DF031FADDE9F2
:10458000000159EC108BFCF701FBD4ED958A07EE86
:10459000900AF1EE089AE7EEA98A40464946C4ED32
:1045A000958AFCF7F3FA94ED968A059B07EE900A3C
:1045B000A7EEE98A013384ED968A56D1D4F854786F
:1045C0003B6896E806002846D3F85880FDF700FEC1
:1045D00096E806002846B0EE408AFDF71AFEBDEECA
:1045E000C00ABDEEC88A10EE103A1AB218EE103AA0
:1045F000384619B2C04796E8060094F83432284687
:10460000FDF7A9FD96E80600D4F854382846FDF7D2
:1046100017FE236820465B6B9847002384F84C32D2
:1046200004F5BC752846D4ED6C0A94ED6B0AB0EE27
:10463000491A07F0BAFF284608B0BDEC088BBDE860
:10464000F0470BF0D5BFDFF8AC9025E7B8F10B0FC2
:1046500081D1D4F85002FBF77FFF1FA3D3E90023D9
:1046600080468946FCF742FA69E79AE80600284640
:10467000FDF792FD0028A1D197E806002846FDF736
:104680008BFD00289AD1FDEEE88ABDEEC88A18EEAF
:10469000903A18EE102A1343C2D0D4F8540818EEFA
:1046A000901A036812B25B6D09B29847D4F85408A7
:1046B00003685B699847D4ED957AF8EEE88AB8EE1E
:1046C000C88A77EEE87AC4ED957AD4ED967A77EEDB
:1046D000C87AC4ED967AA3E71F85EB51B81E09404E
:1046E0001F85EB51B81E1940082700200000244008
:1046F0000000F0BF0000F03FF02070474FF4A070C2
:1047000070472920FEF7F4BA2820FEF7F1BA08B561
:10471000FEF7C2FACA20FEF7EBFAC320FEF7CCFA86
:104720000820FEF7C9FA5020FEF7C6FACF20FEF7A0
:10473000DFFA0020FEF7C0FAC120FEF7BDFA3020F4
:10474000FEF7BAFAED20FEF7D3FA6420FEF7B4FACA
:104750000320FEF7B1FA1220FEF7AEFA8120FEF731
:10476000ABFAE820FEF7C4FA8520FEF7A5FA002090
:10477000FEF7A2FA7820FEF79FFACB20FEF7B8FAF0
:104780003920FEF799FA2C20FEF796FA0020FEF762
:1047900093FA3420FEF790FA0220FEF78DFAF72004
:1047A000FEF7A6FA2020FEF787FAEA20FEF7A0FA25
:1047B0000020FEF781FA0020FEF77EFAB120FEF716
:1047C00097FA0020FEF778FA1B20FEF775FAB6205C
:1047D000FEF78EFA0A20FEF76FFAA220FEF76CFAB7
:1047E000C020FEF785FA1020FEF766FAC120FEF71A
:1047F0007FFA1020FEF760FAC520FEF779FA45200F
:10480000FEF75AFA1520FEF757FAC720FEF770FA9E
:104810009020FEF751FA3620FEF76AFAC820FEF71C
:104820004BFAF220FEF764FA0020FEF745FAB020BA
:10483000FEF75EFAC220FEF73FFAB620FEF758FAFE
:104840000A20FEF739FAA720FEF736FA2720FEF7EE
:1048500033FA0420FEF730FA2A20FEF749FA002046
:10486000FEF72AFA0020FEF727FA0020FEF724FAC6
:10487000EF20FEF721FA2B20FEF73AFA0020FEF790
:104880001BFA0020FEF718FA0120FEF715FA3F2068
:10489000FEF712FAF620FEF72BFA0120FEF70CFACB
:1048A0000020FEF709FA0620FEF706FA2C20FEF794
:1048B0001FFAC820FEF76AFA2620FEF719FA01202F
:1048C000FEF7FAF9E020FEF713FA0F20FEF7F4F9ED
:1048D0002920FEF7F1F92420FEF7EEF90C20FEF76F
:1048E000EBF90E20FEF7E8F90920FEF7E5F94E2076
:1048F000FEF7E2F97820FEF7DFF93C20FEF7DCF95D
:104900000920FEF7D9F91320FEF7D6F90520FEF7A6
:10491000D3F91720FEF7D0F91120FEF7CDF90020CA
:10492000FEF7CAF9E120FEF7E3F90020FEF7C4F92B
:104930001620FEF7C1F91B20FEF7BEF90420FEF792
:10494000BBF91120FEF7B8F90720FEF7B5F93120C1
:10495000FEF7B2F93320FEF7AFF94220FEF7ACF9CB
:104960000520FEF7A9F90C20FEF7A6F90A20FEF7AC
:10497000A3F92820FEF7A0F92F20FEF79DF90F20BC
:10498000FEF79AF91120FEF7B3F9C820FEF7FEF9F9
:104990002920FEF7ADF9BDE808402C20FEF7A8B9A4
:1049A00008B5FEF779F90321D320FEF7BDF980B2EF
:1049B00008BD10B5C4B2022203212046FEF722F939
:1049C0000A20FEF767F9204600220321FEF71AF9B4
:1049D000BDE810400220FEF75DB938B50446E4B2E8
:1049E000FEF70EF900212046FEF724F901210546C5
:1049F0002046FEF71FF940EA052080B238BD10B509
:104A0000C4B240212046FEF715F9030607D54C2114
:104A10002046FEF70FF9003818BF012010BD012213
:104A20004B212046FEF7EEF8204600224B21FEF7F0
:104A3000E9F80020F2E773B50423C4B20E46154628
:104A4000D7210DEB03022046FEF70EF9019B1BBA9E
:104A50001A0DC3F30B23328020462B8001224B21F9
:104A6000FEF7D0F800224B212046FEF7CBF802B02B
:104A700070BD000010B50A4A1378984204460DD064
:104A8000517888420AD00BB141B90123D454FEF7C2
:104A9000B7F82046BDE81040FFF78BBF10BD00BF40
:104AA000182A002010B5C4B209212046FEF7C2F82A
:104AB00040F00102D2B220460921BDE81040FEF7C5
:104AC000A1B810B5C4B209212046FEF7B3F80921F8
:104AD00000F0FE022046BDE81040FEF793B838B55E
:104AE000C4B20D4620460A21FEF7A4F840EA0502AA
:104AF000D2B220460A21BDE83840FEF783B810B58F
:104B00000446FEF77EF820461F21FFF7E8FF204607
:104B1000BDE81040FFF7C6BF38B5C4B20D46204609
:104B20000A21FEF787F820EA0502D2B220460A21C0
:104B3000BDE83840FEF766B810B50446FFF7C1FF80
:104B400020461F21BDE81040FFF7E6BF10B5C0B2F8
:104B50000C460B21FEF76EF8204010BD1F21FFF719
:104B6000F5BF0A46C0B20B21FEF74CB81F21FFF774
:104B7000F8BF38B5C4B20D4620461721FEF75AF8E3
:104B800020EA0502D2B220461721BDE83840FEF7E0
:104B900039B870B5C4B2064604212046FEF74AF87B
:104BA000042100F0FB0205462046FEF72BF83046B4
:104BB000F021FFF7DEFF05F0F80220460421FEF7A2
:104BC00021F8492220212046FEF71CF80220FEF79A
:104BD00061F8204601222121FEF714F820469A228E
:104BE0004121FEF70FF8204601224A21FEF70AF87C
:104BF000204601224B21FEF705F8204600224B21DA
:104C0000FEF700F8204601225621FDF7FBFF204663
:104C100001225821FDF7F6FF204601224021FDF731
:104C2000F1FF2046FF220B21FDF7ECFFBDE87040AD
:104C30000220FEF72FB80000054BD3F8882042F47D
:104C40007002C3F888204FF000629A60704700BF7E
:104C500000ED00E008B50B4B1A6842F400721A60D0
:104C60001A6842F480621A601A6842F480721A600C
:104C7000032000F02FF80020FEF7CAFAFEF794F8A0
:104C8000002008BD003C0240034A044B11681B7819
:104C90000B441360704700BF1C2A002078000020DE
:104CA000014B1868704700BF1C2A002038B5044625
:104CB000FFF7F6FF631C1CBF054B1B78054618BFAA
:104CC000E418FFF7EDFF431BA342FAD338BD00BF42
:104CD000780000200749CA6822F4E0620302120447
:104CE00003F4E063120C134343F0BF6343F4003357
:104CF000CB60704700ED00E0164B30B5DC68C4F3C4
:104D00000224C4F10703251D042B28BF0423062D0C
:104D10004FF0FF358CBF033C002405FA03F321EA72
:104D20000303A54022EA0502A340002843EA020348
:104D3000ACBF00F16040084A4FEA0313B8BF00F06F
:104D40000F00DBB2AABF00F56140135480F80033B6
:104D500030BD00BF00ED00E014ED00E0002807DBEF
:104D6000044A4109012300F01F00834042F821302A
:104D7000704700BF00E100E010B5044650B1437930
:104D800003F0FF0213B90271FEF72EF801236371DD
:104D9000002010BD0120FCE710B5044620B390F8B8
:104DA000393003F0FF021BB980F83820FEF734F8E1
:104DB000022384F83930236861681A6822F440328B
:104DC0000A431A605A6BA16822F007020A435A6329
:104DD0001A6CE1686FF30D020A431A640020012384
:104DE000E06384F8393010BD0120FCE7704770475C
:104DF000036870B55E681D68F207044614D5E905BE
:104E000012D51A6822F480721A60C26B42F0010255
:104E1000C26301229A60042380F83930002380F8AD
:104E20003830436903B19847B20616D5AB0414D5A0
:104E300023681A6822F400521A6020229A60E36BF9
:104E400043F00203E363042384F83930002384F839
:104E5000383063690BB120469847300716D52905CD
:104E600014D523681A6822F400621A6008229A6036
:104E7000E36B43F00403E363042384F83930002335
:104E800084F8383063690BB12046984772070BD518
:104E90006B0509D523681A6822F480621A6004221F
:104EA0009A602046FFF7A2FFB00714D5A90512D5D6
:104EB00023681A6822F400721A6002229A60E36B77
:104EC000E363012384F83930002384F83830236900
:104ED0000BB120469847F20613D5EB0411D5236891
:104EE0001A6822F480521A6010229A60E36BE3631E
:104EF000012384F83930002384F838302046FFF746
:104F000076FF70BDF0B590F83820012A03464FF0C7
:104F100002002BD0012283F8382083F8390003EBFC
:104F20000112D2E90740556A174F44EA0040093C94
:104F3000012C9CBF05F07F4210434FEA01161A680E
:104F400088BF40EA056091B9516A39400143516216
:104F5000012C9969916103D8596A21F07F419162CE
:104F60000122002083F8392083F83800F0BDD16990
:104F700039400143D1619919012C896911619CBFA4
:104F800025F07F451562EBE7F0FFFC002DE9F74FB8
:104F9000DFF8BC916C4A00230D6801249C4004EAB0
:104FA0000506AC4340F0B7804D68032705F00304C5
:104FB0004FEA430807FA08FC671E012F6FEA0C0C42
:104FC00034D8876807EA0C0ECF6807FA08F747EA73
:104FD0000E078760476827EA060EC5F300179F4053
:104FE00047EA0E074760C76807EA0C0E8F6807FAA2
:104FF00008F747EA0E07022CC76019D14FEAD30A17
:1050000000EB8A0A03F0070BDAF820704FEA8B0BEB
:105010004FF00F0E0EFA0BFE27EA0E0E0F6907FA7D
:105020000BF747EA0E07CAF8207001E0032CDAD12B
:10503000076804FA08F407EA0C073C4315F4403FFC
:10504000046068D000240194D9F8444044F48044BA
:10505000C9F84440D9F8444023F0030707F18047DA
:1050600004F4804407F59C37019403F0030C019C81
:10507000D7F808E04FEA8C0C0F2404FA0CF42EEA5F
:10508000040E324CA0424DD004F58064A0424BD0B7
:1050900004F58064A04249D004F58064A04247D062
:1050A00004F58064A04245D004F58064A04243D05A
:1050B00004F58064A04241D004F58064A0423FD052
:1050C00004F58064A0423DD004F58064A04214BF82
:1050D0000A24092404FA0CF444EA0E04BC6094681F
:1050E000F74315F4801F0CBF3C4034439460D468F0
:1050F00015F4001F0CBF3C403443D460546815F4D1
:10510000003F0CBF3C40344354601468ED0354BF6F
:105110003C40344314600133102B7FF43DAF03B0A7
:10512000BDE8F08F0024D5E70124D3E70224D1E7BE
:105130000324CFE70424CDE70524CBE70624C9E701
:105140000724C7E70824C5E7003C014000000240EF
:10515000003802400369194214BF01200020704743
:105160000AB1816170470904FBE7436901EA030260
:1051700021EA030141EA02418161704701684B69FC
:1051800013F480634FF0000210D06FF480634B6122
:105190002023026380F83D3080F83E20036C80F8C5
:1051A0003C2043F004030364012070471846704715
:1051B0002DE9F84606460F4691461D464FEA114A2C
:1051C0003368BAF1010F0CBF5C699C6927EA0404DB
:1051D000A4B2B4FA84F46409A14501D0002025E00A
:1051E0006A1CEED0FFF75CFD089BC01AA84201D8EC
:1051F000002DE5D13368BAF1010F0CBF5B699B69E3
:1052000027EA03039BB2B3FA83F35B099945D7D12D
:1052100000232022336386F83D2086F83E30326C2E
:1052200086F83C3042F0200232640120BDE8F88666
:105230002DE9F04104460F461646984625686869F0
:1052400027EA000080B2C0B16B695A0517D52B68F8
:1052500043F400732B606FF480636B6120220023A2
:10526000236384F83D2084F83E30236C43F004032C
:105270002364002384F83C300120BDE8F081731CD6
:10528000DDD0FFF70DFDA0EB0800B04201D8002EE5
:10529000D4D123685A6927EA020292B2002ACDD0FB
:1052A00000232022236384F83D2084F83E30236CC1
:1052B0001343DDE770B504460D46164623685B6967
:1052C0001B0601D500201EE02046FFF757FFC8B996
:1052D0006A1CF3D0FFF7E4FC801BA84201D8002D24
:1052E000ECD123685B6913F08003E7D120222363AC
:1052F00084F83D2084F83E30226C84F83C3042F043
:1053000020022264012070BD2DE9F0431546026899
:1053100085B0DDE90C789946136843F48073136017
:105320000E463B46CDF8008000224FF001110446A6
:10533000FFF73EFF236838B11B68DB0502D54FF449
:1053400000732364032620E006F0FE061E611A495E
:1053500043463A462046FFF76BFFA8B923680390FF
:105360005A6903929B690393424639462046039B40
:10537000FFF7A0FF064660B1236C042B01BF226833
:10538000136843F4007313600126304605B0BDE88E
:10539000F083B9F1010F236802D1EDB21D61F4E78A
:1053A0002A0A1A61394642462046FFF783FF002841
:1053B000E2D12368F1E700BF020001002DE9FF47B9
:1053C0009A46036815461A6842F480621A601A68A1
:1053D000DDE90C7842F480721A600E463B46CDF847
:1053E000008000224FF001110446FFF7E1FE236820
:1053F00038B11B68DB0544BF4FF4007323640320FE
:1054000021E05FFA86F906F0FE061E612B4943464D
:105410003A462046FFF70CFFA0B9236803905A696B
:1054200003929B690393424639462046039BFFF74C
:1054300041FF58B1236C042B01BF2268136843F469
:1054400000731360012004B0BDE8F087BAF1010FCA
:1054500023681AD1EDB242461D6139462046FFF756
:1054600029FF02460028E5D121680B6843F48073C8
:105470000B602046CDF800803B464FF00111FFF74E
:1054800097FE226860B11368B4E72A0A1A613946A8
:1054900042462046FFF70EFF0028CBD12368D9E70C
:1054A00049F001031361054943463A462046FFF798
:1054B000BFFE003818BF0120C5E700BF0200010091
:1054C00070B504460D46164623685B695B0701D537
:1054D00000201EE02046FFF751FEC8B96A1CF3D039
:1054E000FFF7DEFB801BA84201D8002DECD123681A
:1054F0005B6913F00403E7D12022236384F83D2085
:1055000084F83E30226C84F83C3042F02002226461
:10551000012070BD70B504460D46164621684B69E2
:1055200013F0400301D0002011E04A69D2060FD5E4
:105530006FF010024A612022236384F83D2084F832
:105540003E30236C2364002384F83C30012070BD7E
:10555000FFF7A6FB801BA84201D8002DDED12368EF
:105560005B6913F04003D9D12022236384F83D20E6
:1055700084F83E30236C1343E4E7000070B5044622
:1055800008B9012070BD90F83D3003F0FF021BB94F
:1055900080F83C20FDF762FC242384F83D3023682A
:1055A0001A6822F001021A601A6842F400421A6076
:1055B0001A6822F400421A6000F0A8FE3F4B6568AA
:1055C0009D4294BF3E4B3F4B98428CBF002301232A
:1055D000002BD6D12268394E51683B4BB0FBF3F318
:1055E00021F03F011943B542516088BF4FF49676D0
:1055F000116A88BF734321F03F0184BF4FF47A766C
:10560000B3FBF6F301330B431362D169431E2B48FE
:1056100021F44F41854221F0FF0132D86D0040F660
:10562000FC70B3FBF5F30133034242D0C3F30B0329
:105630001943D161D4E907301168034321F0C00157
:105640000B4313609168D4E9030321F4034103433E
:1056500021F0FF010B439360D4E90530D168034387
:1056600021F0FF010B43D360136843F00103136083
:1056700000202023206484F83D30206384F83E001D
:1056800080E7A06850B905EB4505B3FBF5F301339E
:10569000C3F30B037BB143F40043C9E7192068430C
:1056A000B3FBF0F30133C3F30B0323B143F44043E3
:1056B000BEE70423BCE70123BAE700BFA0860100D0
:1056C0007F841E00FF083D0040420F002DE9F74394
:1056D000044699460C9E0F469046FFF7E1FA94F86F
:1056E0003D30202B054603D0022003B0BDE8F083F7
:1056F00000903C49192301222046FFF759FD00285C
:10570000F2D194F83C30012BEED02068012384F8CC
:105710003C300368D9075EBF036843F001030360B0
:10572000036823F400630360212384F83D304023A1
:1057300084F83E30002323640A9B6362BDF82C305A
:105740006385638D2385284BE3624246CDE900657E
:105750004B4639462046FFF7D7FD00282AD00120C6
:10576000C3E7FFF7A7FD40B1236C042B01BF2268FC
:10577000136843F400731360F1E7636A27681A46FD
:1057800012F8011B39616262628D218D013A92B279
:1057900062857A69481E80B2520720850AD548B1D1
:1057A0005A783A6102336362638D013B02399BB2DE
:1057B00021856385238D2A4631462046002BD0D192
:1057C000FFF77EFE0028CFD12268136843F40073F0
:1057D0001360202384F83D3084F83C0084F83E00B8
:1057E00083E700BF020010000000FFFF2DE9F04337
:1057F000044687B09946109F0D469046FFF750FA31
:1058000094F83D30202B064604D00225284607B0E8
:10581000BDE8F08300907A49192301222046FFF762
:10582000C7FC0028F1D194F83C30012BEDD0206862
:10583000012384F83C300368DB075EBF036843F054
:1058400001030360036823F400630360222384F8E8
:105850003D30402384F83E30002323640E9B636276
:10586000BDF83C306385638D2385664BE362294632
:10587000CDE900764B4642462046FFF79FFD0546A0
:1058800008B10125C2E7228D2368B2B902905A6996
:1058900002929A690292029A1A6842F400721A609D
:1058A000DFF86481238D002B2CD1202284F83D2049
:1058B00084F83C3084F83E30A8E7012A0AD11A68FF
:1058C00022F480621A6003905A6903929A690392E3
:1058D000039AE1E7022A0ED11A6822F480621A6064
:1058E0001A6842F400621A6004905A6904929B6933
:1058F0000493049BD4E705905A6905929B6905932C
:10590000059BCDE7032B56D8012B15D132463946DE
:105910002046FFF7FFFD0028B3D123681A69636AA8
:105920001A70636A01336362238D013B2385638DA3
:10593000013B9BB26385B5E7022B00963B464FF0D7
:1059400000024146204619D1FFF732FC002898D1C9
:1059500023681A6842F400721A601A69636A1A703E
:10596000626A531C6362238D013B2385638D013B77
:105970009BB2638523681B695370D2E7FFF718FC5D
:10598000024600287FF47DAF2368196821F4806106
:1059900019601969636A1970636A01336362238D40
:1059A000013B2385638D013B9BB263854146009695
:1059B0003B462046C8E7324639462046FFF7AAFD57
:1059C00000287FF45EAF23681A69636A1A70628DDB
:1059D000616A013A92B24B1C628522686362238D30
:1059E0005069013B9BB2400723857FF55BAF032BDA
:1059F00002BF136823F48063136013694B7090E750
:105A0000020010000000FFFF0400010010B590F834
:105A10003D30202BDCB216D1242380F83D300368C2
:105A20001A6822F001021A605A6A22F010025A62C1
:105A30005A6A114359621A6842F001021A6080F8EA
:105A40003D40002010BD0220FCE730B590F83D300D
:105A5000202BDCB216D10268242380F83D30136875
:105A600023F001031360556A4FF6F0732B400B438C
:105A70009BB25362136843F00103136080F83D400A
:105A8000002030BD0220FCE70068D1F800C0D20140
:105A9000843283182DE9F043C6685D684C68D1F8FC
:105AA000189005F470455D60C5680CF10107C5F3F9
:105AB0000B45C6F30B4626443D4445EA06455D606A
:105AC000C668CD68C6F30A062E449D6805F4704585
:105AD0009D60C7688D68C7F30A0701353D4445EAF4
