:020000040800F2
:1000000000000320F90F0008A12D0008A32D00080F
:10001000A52D0008A72D0008A92D0008000000004C
:10002000000000000000000000000000C16D00089A
:10003000AB2D000800000000516E0008D1660008DA
:10004000491000084910000849100008491000082C
:10005000491000084910000849100008491000081C
:10006000491000084910000849100008491000080C
:1000700049100008491000084910000849100008FC
:1000800049100008491000084910000849100008EC
:1000900049100008491000084910000849100008DC
:1000A00049100008491000084910000849100008CC
:1000B00049100008491000084910000849100008BC
:1000C00049100008491000084910000849100008AC
:1000D000491000084910000849100008491000089C
:1000E000491000084910000849100008491000088C
:1000F000491000084910000849100008491000087C
:10010000491000084910000849100008491000086B
:100110004910000849100008AD2D000849100008DA
:10012000491000084910000849100008491000084B
:10013000491000084910000849100008491000083B
:10014000491000084910000849100008491000082B
:10015000491000084910000849100008491000081B
:10016000491000084910000849100008491000080B
:10017000491000084910000849100008000000005C
:1001800049100008491000084910000849100008EB
:1001900049100008491000084910000849100008DB
:0C01A000B92D000849100008C52D00080A
:1001B00010B5054C237833B9044B13B10448AFF3A1
:1001C00000800123237010BD800300200000000088
:1001D0004C3F020808B5034B1BB103490348AFF37A
:1001E000008008BD00000000840300204C3F02088E
:1001F00001F0FF01102A2BDB10F0070F08D010F8D8
:10020000013B013A8B422DD010F0070F42B3F6D1DB
:10021000F0B441EA012141EA014122F007047FF0F4
:1002200000070023F0E80256083C85EA010586EA4B
:10023000010685FA47F5A3FA87F586FA47F6A5FA87
:1002400087F68EB9EED1F0BC01F0FF0102F0070293
:1002500032B110F8013B013A83EA010313B1F8D13E
:100260000020704701387047002D06BF354603381F
:10027000073815F0010F07D1013015F4807F02BF58
:10028000013015F4C03F0130F0BC0138704700BFA9
:1002900081F0004102E000BF83F0004330B54FEA37
:1002A00041044FEA430594EA050F08BF90EA020FA4
:1002B0001FBF54EA000C55EA020C7FEA645C7FEA37
:1002C000655C00F0E2804FEA5454D4EB5555B8BF5A
:1002D0006D420CDD2C4480EA020281EA030382EACB
:1002E000000083EA010180EA020281EA0303362D5D
:1002F00088BF30BD11F0004F4FEA01314FF4801C30
:100300004CEA113102D0404261EB410113F0004F41
:100310004FEA03334CEA133302D0524263EB4303F8
:1003200094EA050F00F0A780A4F10104D5F1200E96
:100330000DDB02FA0EFC22FA05F2801841F10001F1
:1003400003FA0EF2801843FA05F359410EE0A5F1C5
:1003500020050EF1200E012A03FA0EFC28BF4CF0F6
:10036000020C43FA05F3C01851EBE37101F00045AC
:1003700007D54FF0000EDCF1000C7EEB00006EEBB9
:100380000101B1F5801F1BD3B1F5001F0CD3490843
:100390005FEA30004FEA3C0C04F101044FEA44529A
:1003A00012F5800F80F09A80BCF1004F08BF5FEA21
:1003B000500C50F1000041EB045141EA050130BD01
:1003C0005FEA4C0C404141EB0101013C28BFB1F513
:1003D000801FE9D291F0000F04BF01460020B1FA5E
:1003E00081F308BF2033A3F10B03B3F120020CDA31
:1003F0000C3208DD02F1140CC2F10C0201FA0CF00F
:1004000021FA02F10CE002F11402D8BFC2F1200C73
:1004100001FA02F120FA0CFCDCBF41EA0C01904029
:10042000E41AA2BF01EB0451294330BD6FEA040472
:100430001F3C1CDA0C340EDC04F11404C4F120025D
:1004400020FA04F001FA02F340EA030021FA04F36F
:1004500045EA030130BDC4F10C04C4F1200220FAC6
:1004600002F001FA04F340EA0300294630BD21FA04
:1004700004F0294630BD94F0000F83F4801306BFCA
:1004800081F480110134013D4EE77FEA645C18BFBE
:100490007FEA655C29D094EA050F08BF90EA020F55
:1004A00005D054EA000C04BF1946104630BD91EA4D
:1004B000030F1EBF0021002030BD5FEA545C05D150
:1004C0004000494128BF41F0004130BD14F580048F
:1004D0003CBF01F5801130BD01F0004545F0FE4103
:1004E00041F470014FF0000030BD7FEA645C1ABF38
:1004F000194610467FEA655C1CBF0B46024650EA6F
:10050000013406BF52EA033591EA030F41F400219A
:1005100030BD00BF90F0000F04BF0021704730B520
:100520004FF4806404F132044FF000054FF00001F5
:1005300050E700BF90F0000F04BF0021704730B5B6
:100540004FF4806404F1320410F0004548BF40428B
:100550004FF000013EE700BF42004FEAE2014FEAE0
:1005600031014FEA02701FBF12F07F4393F07F4FBB
:1005700081F06051704732F07F4208BF704793F0BE
:100580007F4F04BF41F40021704730B54FF46074D1
:1005900001F0004521F000411CE700BF50EA0102D4
:1005A00008BF704730B54FF000050AE050EA01027D
:1005B00008BF704730B511F0004502D5404261EBED
:1005C00041014FF4806404F132045FEA915C3FF42E
:1005D000D8AE4FF003025FEADC0C18BF03325FEACB
:1005E000DC0C18BF033202EBDC02C2F1200300FA7C
:1005F00003FC20FA02F001FA03FE40EA0E0021FAA1
:1006000002F11444BDE600BF70B54FF0FF0C4CF48E
:10061000E06C1CEA11541DBF1CEA135594EA0C0F40
:1006200095EA0C0F00F0DEF82C4481EA030621EA7B
:100630004C5123EA4C5350EA013518BF52EA0335B6
:1006400041F4801143F4801338D0A0FB02CE4FF068
:100650000005E1FB02E506F00042E0FB03E54FF098
:100660000006E1FB03569CF0000F18BF4EF0010E90
:10067000A4F1FF04B6F5007F64F5407404D25FEA8C
:100680004E0E6D4146EB060642EAC62141EA55513F
:100690004FEAC52040EA5E504FEACE2EB4F1FD0C81
:1006A00088BFBCF5E06F1ED8BEF1004F08BF5FEAFF
:1006B000500E50F1000041EB045170BD06F00046B1
:1006C00046EA010140EA020081EA0301B4EB5C045E
:1006D000C2BFD4EB0C0541EA045170BD41F4801156
:1006E0004FF0000E013C00F3AB8014F1360FDEBF7B
:1006F000002001F0004170BDC4F10004203C35DA57
:100700000C341BDC04F11404C4F1200500FA05F3D9
:1007100020FA04F001FA05F240EA020001F000427A
:1007200021F0004110EBD37021FA04F642EB0601F0
:100730005EEA430E08BF20EAD37070BDC4F10C041A
:10074000C4F1200500FA04F320FA05F001FA04F2DE
:1007500040EA020001F0004110EBD37041F10001CA
:100760005EEA430E08BF20EAD37070BDC4F12005D5
:1007700000FA05F24EEA020E20FA04F301FA05F23D
:1007800043EA020321FA04F001F0004121FA04F2E5
:1007900020EA020000EBD3705EEA430E08BF20EAB5
:1007A000D37070BD94F0000F0FD101F000464000EF
:1007B00041EB010111F4801F08BF013CF7D041EA71
:1007C000060195F0000F18BF704703F00046520075
:1007D00043EB030313F4801F08BF013DF7D043EA46
:1007E0000603704794EA0C0F0CEA135518BF95EAFC
:1007F0000C0F0CD050EA410618BF52EA4306D1D183
:1008000081EA030101F000414FF0000070BD50EAA1
:10081000410606BF1046194652EA430619D094EA2B
:100820000C0F02D150EA013613D195EA0C0F05D115
:1008300052EA03361CBF104619460AD181EA030169
:1008400001F0004141F0FE4141F470014FF0000021
:1008500070BD41F0FE4141F4780170BD70B54FF0BC
:10086000FF0C4CF4E06C1CEA11541DBF1CEA13553C
:1008700094EA0C0F95EA0C0F00F0A7F8A4EB05041E
:1008800081EA030E52EA03354FEA013100F0888015
:100890004FEA03334FF0805545EA131343EA1263DE
:1008A0004FEA022245EA111545EA10654FEA002693
:1008B0000EF000419D4208BF964244F1FD0404F54C
:1008C000407402D25B084FEA3202B61A65EB0305A8
:1008D0005B084FEA32024FF480104FF4002CB6EB65
:1008E000020E75EB030E22BFB61A754640EA0C00E5
:1008F0005B084FEA3202B6EB020E75EB030E22BF25
:10090000B61A754640EA5C005B084FEA3202B6EB65
:10091000020E75EB030E22BFB61A754640EA9C0024
:100920005B084FEA3202B6EB020E75EB030E22BFF4
:10093000B61A754640EADC0055EA060E18D04FEAB2
:10094000051545EA16754FEA06164FEAC30343EA52
:1009500052734FEAC2025FEA1C1CC0D111F4801F1F
:100960000BD141EA00014FF000004FF0004CB6E718
:1009700011F4801F04BF01430020B4F1FD0C88BFB7
:10098000BCF5E06F3FF6AFAEB5EB030C04BFB6EBC2
:10099000020C5FEA500C50F1000041EB045170BDB5
:1009A0000EF0004E4EEA113114EB5C04C2BFD4EBE2
:1009B0000C0541EA045170BD41F480114FF0000E66
:1009C000013C90E645EA060E8DE60CEA135594EAE2
:1009D0000C0F08BF95EA0C0F3FF43BAF94EA0C0FE5
:1009E0000AD150EA01347FF434AF95EA0C0F7FF45A
:1009F00025AF104619462CE795EA0C0F06D152EAAE
:100A000003353FF4FDAE1046194622E750EA410691
:100A100018BF52EA43067FF4C5AE50EA41047FF4A2
:100A20000DAF52EA43057FF4EBAE12E74FF0FF3C07
:100A300006E000BF4FF0010C02E000BF4FF0010CD8
:100A40004DF804CD4FEA410C7FEA6C5C4FEA430C51
:100A500018BF7FEA6C5C1BD001B050EA410C0CBFA0
:100A600052EA430C91EA030F02BF90EA020F002002
:100A7000704710F1000F91EA030F58BF994208BF69
:100A800090422CBFD8176FEAE37040F00100704726
:100A90004FEA410C7FEA6C5C02D150EA013C07D17D
:100AA0004FEA430C7FEA6C5CD6D152EA033CD3D0C8
:100AB0005DF8040B704700BF8446104662468C46C2
:100AC0001946634600E000BF01B5FFF7B7FF0028F5
:100AD00048BF10F1000F01BD4DF808EDFFF7F4FF1E
:100AE0000CBF012000205DF808FB00BF4DF808EDA9
:100AF000FFF7EAFF34BF012000205DF808FB00BFCC
:100B00004DF808EDFFF7E0FF94BF012000205DF8ED
:100B100008FB00BF4DF808EDFFF7CEFF94BF0120A2
:100B200000205DF808FB00BF4DF808EDFFF7C4FF9B
:100B300034BF012000205DF808FB00BF4FEA4102EE
:100B400012F5001215D211D56FF47873B3EB62521F
:100B500012D94FEAC12343F0004343EA505311F046
:100B6000004F23FA02F018BF404270474FF00000D8
:100B7000704750EA013005D111F0004008BF6FF016
:100B8000004070474FF00000704700BF4FEA41023D
:100B9000B2F1E04324BFB3F5001CDCF1FE5C0DD9DB
:100BA00001F0004C4FEAC0024CEA5070B2F1004F25
:100BB00040EB830008BF20F00100704711F0804F28
:100BC00021D113F13872BCBF01F00040704741F4ED
:100BD00080114FEA5252C2F11802C2F1200C10FAF1
:100BE0000CF320FA02F018BF40F001004FEAC123D5
:100BF0004FEAD32303FA0CFC40EA0C0023FA02F379
:100C00004FEA4303CCE77FEA625307D150EA01334E
:100C10001EBF4FF0FE4040F44000704701F000401E
:100C200040F0FE4040F40000704700BF7BB972B94D
:100C30000029BEBF00204FF0004106E008BF002899
:100C40001CBF6FF000414FF0FF3000F0D3B9ADF1A1
:100C5000080C6DE904CE002909DB002B1ADB00F03B
:100C60004DF8DDF804E0DDE9022304B070474042AE
:100C700061EB4101002B1BDB00F040F8DDF804E0E4
:100C8000DDE9022304B0404261EB4101524263EBD3
:100C900043037047524263EB430300F02FF8DDF843
:100CA00004E0DDE9022304B0404261EB41017047FA
:100CB000524263EB430300F021F8DDF804E0DDE984
:100CC000022304B0524263EB4303704753B94AB95D
:100CD000002908BF00281CBF4FF0FF314FF0FF3044
:100CE00000F088B9ADF1080C6DE904CE00F006F80B
:100CF000DDF804E0DDE9022304B070472DE9F04798
:100D0000089D8E4604468846002B4AD18A421746E3
:100D100062D9B2FA82F64EB1C6F1200301FA06F8A2
:100D200020FA03F3B74043EA0808B4404FEA174EED
:100D30001FFA87FCB8FBFEF1230C0EFB118843EA77
:100D4000084301FB0CF29A4209D9FB1801F1FF306C
:100D500080F0EA809A4240F2E78002393B449A1AD6
:100D6000A3B2B2FBFEF00EFB102243EA024300FBEB
:100D70000CFC9C4509D9FB1800F1FF3280F0D680AD
:100D80009C4540F2D3803B44023840EA0140A3EB4B
:100D90000C0300211DB1F3400022C5E90032BDE87B
:100DA000F0878B4205D90DB1C5E900010021084645
:100DB000F5E7B3FA83F1002946D1734502D38242A5
:100DC00000F20581841A6EEB030201209046002D8B
:100DD000E5D0C5E90048E2E7002A00F09080B2FAC9
:100DE00082F6002E40F0A4808A1A030C4FEA174EB8
:100DF00080B2BCB20121B2FBFEFC0EFB1C2243EA16
:100E0000024304FB0CF29A4207D9FB180CF1FF389D
:100E100002D29A4200F2E080C4469B1AB3FBFEF273
:100E20000EFB123340EA034302FB04F49C4207D951
:100E3000FB1802F1FF3002D29C4200F2CA80024647
:100E40001B1B42EA0C40A5E7C1F120068B4022FAA9
:100E500006F71F430EFA01F420FA06F32EFA06FEF7
:100E60004FEA1749234300FA01F81FFA87FCBEFB3B
:100E7000F9F01C0C09FB10EE44EA0E4400FB0CFEDA
:100E8000A64502FA01F209D93C1900F1FF3A80F0B7
:100E90009C80A64540F2998002383C44A4EB0E04A5
:100EA0001FFA83FEB4FBF9F309FB13444EEA044432
:100EB00003FB0CFCA44508D93C1903F1FF3E80F06C
:100EC0008280A4457FD9023B3C4443EA0040A4EB26
:100ED0000C04A0FB02EC64457346E14662D35FD08C
:100EE0005DB1B8EB030264EB090404FA06F622FADA
:100EF00001F31E43CC40C5E9006400214FE7B1FB7C
:100F0000F2FC010C41EA0E4180B240EA01423B464C
:100F100038463C46B846BE462026B1FBF7F1A2EB68
:100F2000080241EA0C4166E7014618E710462CE743
:100F3000C6F120022EFA02F3B740B14020FA02F2C5
:100F40004FEA174E0A43B3FBFEF8BCB20EFB183350
:100F5000110C41EA034108FB04F9B04089454FEA0E
:100F6000104380B23ED9791808F1FF3C01D289457F
:100F70001FD8A1EB0901B1FBFEF909FB04F80EFB38
:100F8000191192B242EA0142424529D2BA1809F136
:100F9000FF31C4D24245C2D2A9F102013A44BEE7B0
:100FA000F0459DD2BEEB02036CEB070C0138E14625
:100FB00096E7A7EB09094944A8F1020CB1FBFEF939
:100FC00009FB04F8DBE773467FE7504666E708460F
:100FD000FDE63B44023A33E7ACF1020C3B441CE72C
:100FE00049469CE7A1EB0901C446B1FBFEF909FBA8
:100FF00004F8C4E7704700BFDFF834D0002103E0F5
:101000000C4B5B58435004310B480C4B42189A422E
:10101000F6D30B4A02E0002342F8043B094B9A4204
:10102000F9D303F0D7F822F023FA01F055F970470D
:1010300000000320382C0608000000206401002076
:1010400080030020B8370120FEE7704708B500F0A4
:10105000BBFDBDE8084000F03FBD00F0B7BD7047E4
:1010600010B5042104461FF05AFF204610BD0000B1
:1010700038B50C4B0C4C18800C4B822019806368DF
:10108000984740F6110398420AD1094D23682C6015
:10109000822098472B688220DB689847002038BD63
:1010A0000120FCE7A60300204C000020A403002040
:1010B000A80300204FF4A071F020FFF7D9BF000073
:1010C000F7B5394D2B6804461B698220984720806C
:1010D00000284ED02B680DF106025B6901A9822021
:1010E0009847324B1B78002B4BD0BDF8062040F6BA
:1010F00074639A423FD9ADF80630BDF806209B1ABA
:101100009BB20A2B42D90B22B3FBF2F3284A128876
:10111000934201D9013A93B2BDF80420254840F624
:10112000B8318A4234D8C2F571620E32016892B287
:101130000F25B2FBF5F2204D2D88AA4284BF05F1A0
:10114000FF35AAB28A4215468EB22AD9921B91B2B5
:101150001A4E3768BB42BAB28CBF9A1AD21A92B2F0
:1011600011440529C4BF0560336003686380336898
:10117000A38003B0F0BDB32A9CBFB422ADF8062013
:10118000BBE7BDF80630A3F5B473B9E70023C3E7A6
:10119000C2F56D62083292B20E2A0168C8D80025E5
:1011A0002A46891A89B2D3E7A8030020381A0020FA
:1011B000A4030020A0030020A60300209C0300201D
:1011C00037B568460D461446FFF77AFFBDF80000B4
:1011D00030B1BDF802302B60BDF80430236001202F
:1011E00003B030BD032821D8DFE800F0020B12194C
:1011F0000F4B1A68B2FA82F2520904210D4803F02B
:101200007DBA0B4B5A68B2FA82F252090821F5E70F
:10121000074B9A68B2FA82F252091021EEE7044BAA
:10122000DA68B2FA82F252092021E7E7704700BF7C
:10123000AC03002000100240032821D8DFE800F0B2
:10124000020B12190F4B1A68003A18BF0122042131
:101250000D4803F053BA0B4B5A68003A18BF0122ED
:101260000821F5E7074B9A68003A18BF01221021C0
:10127000EEE7044BDA68003A18BF01222021E7E7C5
:10128000704700BFAC0300200010024003280DD8B7
:10129000DFE800F00206080A0421054803F033BA2B
:1012A0000821FAE71021F8E72021F6E7704700BF90
:1012B0000010024008B5032811D8DFE800F0020A48
:1012C0000C0E0421074803F013FA431E58425841FC
:1012D00008BD0821F6E71021F4E72021F2E70020FD
:1012E000F3E700BF0010024070B5084D002401264E
:1012F000E0B2FFF7DFFF18B12B68012B18BF2E609B
:101300000134052C05F10405F2D170BDAC030020B9
:10131000012380F8781080F87930704770470020FA
:1013200070470000034B4164003918BF0121197058
:10133000704700BF772A0120704700207047836BF9
:101340000BB10846184770474FF6FF70704740686A
:1013500003689B691847704770477047704770472C
:1013600010B5044600F048FD23680349D3F89030D7
:101370002046BDE810401847000000D008B50368BB
:101380000446D3F88430984723682046DB6F98479B
:1013900000F0ECF8236820465B6F9847292001F0A5
:1013A0001FFA00F0E3F8236820465B6F9847F8E7E0
:1013B00010B5044608F01CFB23682046D3F8BC3067
:1013C000BDE81040184700F0FBBC00F0FFBC00F087
:1013D00031BD00F0D1BC00F041BD00F049BD00F0CE
:1013E000D5BC07F033BD10B5842104461FF097FD2E
:1013F000204610BD10B590F8341090F878400C4B92
:101400008C421A7809D03AB90A4A0B4914880888DC
:1014100010800C8001221A7010BD002AFCD0054AF1
:1014200005491488088810800C800022F3E700BF6B
:10143000702A01206C2A01206E2A012070B50D4609
:10144000194635B9094B0A4A0A4840F2FF2121F0F2
:101450005FFDC0E90F52084B003A18BF01221A7015
:101460000368BDE87040D3F890301847C03F0208C9
:10147000F83F020846400208762A012008B5094BC9
:101480001B888B4203D8084B1B88934205D9074B16
:10149000074A0848A32121F03BFD074B1980074B61
:1014A0001A8008BD6C2A01206E2A01208B40020898
:1014B000EE40020846400208722A0120742A0120E8
:1014C000034690F87A0018B1586803681B681847FB
:1014D00070470000012108B50022084605F082F996
:1014E0000A4B186028B90A4B0A4A28210A4821F0F9
:1014F0000FFD00220421012005F01CFA074B1860A3
:1015000018B9074B034A2C21F0E708BDC00300209F
:10151000314102087A410208A9410208BC030020B7
:10152000F4410208024B4FF0FF31186805F0A4B9EE
:10153000C0030020014B186805F0CAB9C0030020A1
:10154000024B0021186805F097B900BFC0030020C6
:10155000FFF7F0BF03480449006800231A4605F06E
:1015600024BA00BFBC0300200400002013B5084CBF
:1015700000231A4601A9206805F048FA20684FF0B8
:10158000FF33002201A905F041FA02B010BD00BFEF
:10159000BC03002003685B6C184701207047036898
:1015A0009B6A1847FEE740F2EF307047054B036037
:1015B000054B4FF08062C3F88820BFF34F8FBFF315
:1015C0006F8F7047DC4A020800E100E010B5044666
:1015D0004FF45A61FFF7EAFF20461FF0A0FC2046B7
:1015E00010BD000082B0002301930E4B1A6B42F431
:1015F00000021A631A6B02F400020192019A1A693E
:1016000042F400021A611A6922F400021A61064BC0
:10161000064A1A61064A5A61064B4FF080629A6088
:1016200002B0704700380240CC1B0020851800082B
:10163000A515000800E100E008B50A2809D8DFE890
:1016400000F006100E080808081010101000022004
:1016500008BD054B054A0648902121F059FC0020A1
:10166000F6E70120F4E700BF3642020851420208C3
:101670009C42020838B50C46887FFFF7DDFFA58A3B
:10168000E28A164B2169586342EA05425A64628B2A
:10169000D963521B1A642568082D0ED19A611A610C
:1016A0005862207F0E4A42EA0062DA61E2681A62FA
:1016B0000C4A5961D9601A6038BD0022D8611A619C
:1016C000E1680A0A480902F4784200F4FC60024327
:1016D000C1F3C4010A439A63034AECE700B0024035
:1016E00009000100012302000123030008B50B28B3
:1016F0000BD8DFE800F00612100A0A0A0A080808E8
:101700000808022008BD0520FCE7054B054A0648ED
:101710006F2121F0FDFB0020F4E70120F2E700BF7C
:1017200036420208E54202089C4202082DE9F041D7
:1017300091F81D800C464046FFF7D8FFA77F05466D
:101740003846FFF7D3FF06463846FFF775FFA18AF4
:10175000628B444B521A1A649A61228B521A1A6194
:10176000E28A586342EA01425A6421696268D96395
:10177000DA602068802828D0227F0FD8202867D000
:10178000402865D004281AD0364B45EA026545F456
:101790000035B845DD6161D0334A44E0B0F5807F63
:1017A00004D0B0F5007FEFD1304800E0304840EA87
:1017B0000262DA61E2681A625E62596132E045EA09
:1017C000026242F40032DA61F6E7A068021DDA62D2
:1017D000227F45EA026545F40035DD615E625961AC
:1017E000017841B1012921D0224B234A23484FF4EB
:1017F0008D7121F08DFBDA69418822F47F42013935
:1018000022F0100242EA0122DA610121154BDA6965
:1018100042F02002DA61DA699206FCD410229A6062
:101820000029B9D0164A1A60BDE8F081B2F1FF0173
:10183000DA69408822F47F4200F1FF3022F0100282
:1018400042EA002242F0100218BF0121DA61DDE70E
:1018500045EA0262034B42F40032B4E742F201323D
:10186000E1E700BF00B002400123010009000200CF
:101870000A0002002F430208494302089C42020862
:1018800001230200024B1B68586803685B69184714
:10189000782A012070B5044625460A4B0C300026F4
:1018A00060602672667245F8203B6022294608F087
:1018B000F5F904F55A63EE6024359D42FBD12046CC
:1018C00070BD00BFDC4A0208034B1A68D207FCD483
:1018D00023229A60704700BF00B0024070470000AA
:1018E00030B50F4C2568ED07FCD423250904A5600D
:1018F00041F001010225FF2B65636164E0630AD0BA
:101900000849656241EA0363E361074B2262606153
:10191000E060236030BDE561039BA363034BF8E700
:1019200000B00240090001000100020001000300B4
:1019300030B50E4C2568ED07FCD423251204A560B4
:1019400042F001020225FF2B65636264E063E160FF
:1019500008D01B0643F00213E361054B656260612A
:10196000236030BD034BE3610123F9E700B002407F
:1019700001000200020002FF30B50B4C2568ED07A4
:10198000FCD4232512041B06A56043F40033022572
:1019900042F0010265636264E063E160E361034B6E
:1019A00065626061236030BD00B00240010002004A
:1019B000012070470C2070470C2303FB0100083006
:1019C00070470C2303FB010008307047012070476B
:1019D0004FF4A56070474FF4A56303FB0100083086
:1019E00070474FF4A56303FB0100083070470120E6
:1019F00070471020704700EB01100830704700EB73
:101A0000011008307047084601F0CEBB10B5034BFB
:101A10000360044606F06FFF204610BD944B020899
:101A200010B50446FFF7F2FF204614211FF077FAA5
:101A3000204610BD10B5034B0360044606F05BFF63
:101A4000204610BD604B020810B50446FFF7F2FFB8
:101A500020464FF4A6611FF062FA204610BD000038
:101A600010B5034B0360044606F045FF204610BD49
:101A70002C4B020810B50446FFF7F2FF2046182150
:101A80001FF04DFA204610BD10B5084B0360044608
:101A900000F25C50FFF7BAFF04F12C00FFF7CAFF19
:101AA00004F11400FFF7DCFF204610BDC84B02080C
:101AB00008B50248FFF7E8FF08BD00BF9C120020F0
:101AC00010B50446FFF7E0FF20464FF4DA611FF03F
:101AD00026FA204610BD00002DE9F34101F0E6F999
:101AE000054601F0E7F90024014623462846224630
:101AF000009410F081F9274B274A1A60204601F024
:101B000029FF264D264B274A27489A6010F0DCF81B
:101B10002B68BFF35B8FDB0735D428461FF001FA33
:101B200088B3224C224B236004F2745604F1140053
:101B300004F12C0804F25C576060C4F80880E76088
:101B4000266106F0D9FE1B4B6361404606F0D4FEC9
:101B5000194BE362384606F0CFFE184BC4F85C35EB
:101B600004F5AE6001F06CFF224604F5AE6130462C
:101B700001F05CFF304601F017FB114821F0E6F957
:101B800028461FF0DAF90F4802B0BDE8F041FFF730
:101B9000E7BB00BFDC2A0120480400209812002087
:101BA000680400204C040020080000209C12002043
:101BB000C84B02082C4B0208604B0208944B0208E9
:101BC000B11A0008C4030020704700000148FFF765
:101BD000D5BB00BFC403002070B5264E264C274D50
:101BE000274B23603046FFF755FE284615F00AFACA
:101BF00024480EF07BF8244B2448DC6000224FF48C
:101C00008071C3E9121222491A86C3E91A122149C6
:101C100083F85820C3E91E011F49C3F880101F49EB
:101C20001F480B60F021C3E90422C3E90622C3E97F
:101C30000822C3E90A22C3E90E22C3E91022C3E93C
:101C40001422C3E917225A6683F870205A67C3E941
:101C5000016501801348018013484FF4A071018091
:101C60001248018012490A70012283F83420114A77
:101C70001A6070BDF4040020941200206804002053
:101C8000B03F02084C040020C40300200000010102
:101C900001000001000450001A001400782A0120FD
:101CA0006C2A0120722A01206E2A0120742A012048
:101CB000702A0120F04902080148FFF777BC00BFF5
:101CC000F40400200020704781807047C180704775
:101CD0000181704741817047704770477047704776
:101CE000704710B4C4880368121B84885B6D091B9D
:101CF00012B25DF8044B09B218474FF6FF738381A7
:101D00004FF0FF3303621368C36110607047002017
:101D100070478B88838001207047704780F82610B9
:101D2000704790F82600704710B50022B1F90840BE
:101D3000B1F90A10028042808480C18010BD002267
:101D4000028042808280C28070470177704780EDB8
:101D5000080A704780F82410704780F825107047F3
:101D600001207047983070478C307047843070473E
:101D70007047704770470000034B902283F85A2346
:101D800083F85823704700BF00E100E0094A0A4980
:101D9000D3680A48C3F30A03013B9BB20B80116965
:101DA000C1F30A01013901801364536B43F001034D
:101DB00053637047006801406E1900206C190020C1
:101DC000014BD3F8AC00704700680140024B012280
:101DD000C3F8AC105A6270470068014010B52C215E
:101DE00004461FF09CF8204610BD10B5BC210446E7
:101DF0001FF095F8204610BD70B5044607F07BF83B
:101E000023689D6E0CF00AFD01462046A847236812
:101E1000054AD3F88C502046AC460023BDE87040FC
:101E2000A2F51631604700BF00B004D007F04AB8F1
:101E300007F054B807F010B807F07FB990F82520E4
:101E400012B103685B691847704790F825201AB1F2
:101E500090F8242002B1186070470000034B4FF047
:101E600080629A604FF080729A60704700E100E0F3
:101E7000084B4FF08062C3F88820BFF34F8FBFF349
:101E80006F8F4FF08072C3F88820BFF34F8FBFF37E
:101E90006F8F704700E100E070B50023124E838021
:101EA000124B0360336893F8582005460AB1D86C8A
:101EB00000B998680368DB6A98473368B0FA80F421
:101EC000D86C640930B10368DB6A9847002808BF02
:101ED00044F001042CB9064B064A07482C2121F096
:101EE00017F8284670BD00BF782A0120DC4B020895
:101EF00087430208E54302081E44020870B5254ED8
:101F00003568BFF35B8F15F0010540D130461FF0F7
:101F100008F800283BD0204C204B256104F1340008
:101F2000C4E90035C4E90255E584A562A5850EF033
:101F3000C2F904F1580009F067FB194BA36520466C
:101F4000184B40F8843BFFF7A7FF174BC4F88430C9
:101F50002433C4F88C304FF4C803C4E92835002377
:101F6000C4F8AC30C4F8B030C4F8B430C4F8B830F9
:101F70000E480F4BC4F89050C4F89C50C4F8A850B9
:101F8000C4F8983020F0E2FF30461EF0D6FF024839
:101F900070BD00BF7019002074190020385102086C
:101FA000FC4B0208744C0208EC500208751D000836
:101FB000CC50020838B5184C23685BB3174B184A4D
:101FC0001B6C11888B4216D1164B198803F09EF9B1
:101FD000236893F86A200025013283F86A2083F889
:101FE0007C50FFF7B7FA206807F002FD2846BDE8ED
:101FF0003840FFF7F7B803F089F9246823682046D2
:102000001B6A9847012384F87C300020BDE83840E3
:10201000FFF712B938BD00BF782A012000680140DF
:102020006E1900206C190020704710B5D1F8F441EA
:1020300092FBF4F104FB1122C0E9002110BD13B59D
:1020400002AC04E906000B2404FB012200EB820031
:10205000436002B010BD82B002AB03E90600019BF1
:102060000A460B2101FB023300EB8300406802B0FB
:10207000704737B50C4602A901E90C00D0F8F021F1
:10208000D0F8E831009911FB0231236805461B6B3B
:10209000204609B29847D5E97B32019911FB0231FC
:1020A00023685B6B09B2204603B0BDE83040184797
:1020B000F7B5036804466E460D46DB6801463046B8
:1020C000984723689F6996E80C0029462046BC463D
:1020D00003B0BDE8F0406047D0F8F43191FBF3F273
:1020E00002FB1311D0F8F021D0F8E80102FB010047
:1020F0007047D0F8F43191FBF3F1D0E97B0202FB99
:10210000010070472DE9F84F8246D1F8F00157ECF5
:10211000116B59EC108B8B46FEF70CFA0446DBF87A
:10212000E8010D46FEF706FA02460B4640464946D0
:10213000FEF7B2F822462B46FEF790FB41EC100B5F
:102140001FF06EF8DBF8EC0159EC108BFEF7F2F99A
:1021500002460B4630463946FEF79EF822462B468D
:10216000FEF77CFB41EC100B1FF05AF84946404645
:1021700055EC104BFEF7E2FC2946CAF80000204659
:10218000FEF7DCFCCAF804005046BDE8F88F10B535
:102190004FF4FE7104461EF0C2FE204610BD10B57D
:1021A0004FF4F27204460021043021F0B8F80A23FB
:1021B000C4E97A3314220B23C4E97C23C4F8F83130
:1021C00010BD000010B5034B03600446FFF7E7FFA6
:1021D000204610BDC04C020807B5064BADF80600FE
:1021E0001B68054801220DF1060103F02FFE03B024
:1021F0005DF804FB0C000020781A002037B50D4D67
:102200000D4C0121284602F073FA01280ED12068F6
:1022100004F02CFC012809D854238DF807302068DD
:102220000A2300220DF1070104F0BFFB012004F096
:10223000CDFAE6E700000240341A002030B595B030
:10224000102200210AA821F06AF81422002103A814
:1022500021F065F800241E4B01941A6C42F0805264
:102260001A641B6C03F080530193019B194B029479
:102270001A6842F440421A601B6803F44043029318
:102280000122029B4FF48033CDE9082302254FF44D
:1022900080030821CDE90E534FF4B473CDE9101338
:1022A00008A804231393129503F088F803F04CF860
:1022B0000F23CDE903354FF4A0504FF48053CDE9FF
:1022C0000603052103A8059403F054FA15B030BDA8
:1022D000003802400070004080B59AB001F088FFDD
:1022E000FFF7ACFF142200210DA821F018F80024FC
:1022F000C84B00941A6BC848C84DDFF85C8342F0A5
:1023000010021A631A6B02F010020092009A0194F4
:102310001A6B42F020021A631A6B02F0200201923B
:10232000019A02941A6B42F080021A631A6B02F04F
:1023300080020292029A03941A6B42F004021A631A
:102340001A6B02F004020392039A04941A6B42F08F
:1023500001021A631A6B02F001020492049A0594B6
:102360001A6B42F002021A631A6B02F00202059223
:10237000059A06941A6B42F040021A631A6B02F037
:1023800040020692069A07941A6B42F008021A63FA
:102390001B6B03F00803224607933C21079B02F0C6
:1023A000ADF99F480122022102F0A8F922469C487B
:1023B000042102F0A3F922469A484FF4405102F05A
:1023C0009DF901263C23CDE90D3693480F94032354
:1023D0000DA90227109302F0A7F891480DA9CDE9A5
:1023E0000D76CDE90F4402F09FF804238C480DA927
:1023F000CDE90D36CDE90F4702F096F84FF4405382
:1024000088480DA9CDE90D36CDE90F4702F08CF8CB
:102410000DA985480F94CDE90D6402F085F8834835
:10242000834B036001F076FFDFF830E2814B2C62D2
:10243000C5E900E328464FF48043C5E90434C5E903
:102440000244C5E9064402F067FB1021284602F069
:10245000ABFD21462846784D02F0C5FD4FF482734E
:10246000C5E900834FF400791823C5E9069328468F
:102470000A23C5E90244C5E90444C5E90844AC623D
:10248000EB6203F087FC8F232246394664488DF8BF
:1024900024308DF8344002F031F932464FF47A732B
:1024A00009A9284603F0D2FC4FF47A7332460DA9ED
:1024B000284603F077FE3246394659485F4D02F010
:1024C0001DF99DF83430D32B04BF5D4B1E705D4B5E
:1024D0000126C5E90036102240230024C5E9042363
:1024E0004FF4C073C5E906344FF40063C5E90834FE
:1024F0004FF4005302274FF00409AB624FF0030A78
:1025000007230DA92846CDE90D73CDE90F934FF0B0
:102510000808C5E90249CDE911A7139703F01EFB8E
:102520004FF6FF7209A92846CDE90A860894099654
:102530000C9403F033FB304601F086FE4FF6FF7239
:1025400009A92846CDE90978CDE90B6403F026FBFB
:102550004FF6FF7209A92846CDE909A8CDE90B94E9
:1025600003F01CFB4FF40C730893089B0C934FF67D
:10257000FF7209A92846CDE909980B9603F00EFBD6
:1025800040F26A51284603F027FB34220DEB02008B
:10259000214620F0C4FE2C4D2C4B2C61C5E90034A3
:1025A0000923C5E905361D23C5E9073A40F20D1197
:1025B00040F24313C5E9091340F2171040F24713E4
:1025C000C5E90B032846C5E90244AC8685F83640C8
:1025D00002F0A4FDFF214FF4806CF022CDE912142B
:1025E0000521CDE914C14FF4A0730DA9CDE90E2446
:1025F000CDE9164228462246154D1893CDE91037ED
:102600000D94ADF864408DF8664002F052FE114B17
:102610002B6025E00038024000100240781B0020AB
:1026200000080240000C0240000002400C1C002088
:1026300000300240A0860100781A0020441A0020D1
:10264000381A0020400100A0D01A00200068014084
:10265000301A00201400002000500140005C0040AF
:102660001B6898472B68184DDB689847174B28461E
:10267000C5E90034C5E90274C5E90A47C5E90C4457
:1026800001F058FE3146284601F00AFFFEF7DEFC55
:10269000FEF7DBFC04F02AF80D4A3146404604F010
:1026A00049F90C4B0C4A186021460C4804F04AF8D2
:1026B0000B4B0C4A186021460B4804F043F80B4BB7
:1026C000186004F025F8FEE7CC1B002000B00240A3
:1026D000E84C0208341A0020244D0208FD210008AD
:1026E000401A0020004D02085B1000083C1A002030
:1026F000704770477FB5094B8DF817201B68029310
:102700000DF117020123009201930A460146044885
:1027100002F0AAFA07B05DF804FB00BF1000002029
:10272000781B00207FB500238DF81730084B1B68FD
:1027300002930A4601230DF117010091019301460E
:10274000044802F021FB9DF8170007B05DF804FB78
:1027500010000020781B00201FB5084C2468009250
:10276000CDE901340A4601230146054802F00CFB7D
:10277000003818BF012004B010BD00BF10000020B9
:10278000781B002001F060BD10B5064C00222046E9
:10279000042101F0B3FF20460122BDE810400421CE
:1027A00001F0ACBF0008024038B50B4D04460122D1
:1027B0000A484FF4005101F0A1FF002204212846ED
:1027C00001F09CFF2046FFF707FD28460122BDE8E7
:1027D0003840042101F092BF00080240000C024082
:1027E00038B50B4D044600220A484FF4005101F061
:1027F00085FF00220421284601F080FF2046FFF7D4
:10280000EBFC28460122BDE83840042101F076BFE8
:1028100000080240000C0240F7B5144E144F054664
:102820000C4630460022042101F068FF00224FF4DC
:102830000051384601F062FF2846FFF7CDFC0D4BF2
:102840000D481B68224601A903F0ACFC3846012262
:102850004FF40051019C01F051FF30460122042148
:1028600001F04CFF204603B0F0BD00BF000802405D
:10287000000C02400C000020781A002001F0E4BC9B
:102880000268034B9A4201D101F0CCBC704700BFF3
:10289000001000407047000082B00E4B00220092F2
:1028A000596C41F480415964596C01F480410091A4
:1028B00000990192196C41F0805119641B6C03F06E
:1028C00080530193019B0F216FF0010002B001F0D2
:1028D000E1BC00BF003802400268094B9A4282B056
:1028E0000BD100230193074B1A6B42F480521A63F9
:1028F0001B6B03F480530193019B02B0704700BF30
:10290000003002400038024007B50F4B02689A427F
:1029100016D10022A3F5F0430192196B41F4000196
:1029200019631B6B03F40003019305215A20019BDB
:1029300001F0B0FC5A2003B05DF804EB01F0DCBC00
:1029400003B05DF804FB00BF00B002402DE9F04386
:10295000044689B01422002103A820F0E0FC22687C
:10296000244B9A4243D1244C244800250095236BE4
:1029700043F004032363236B03F004030093009BE1
:102980000195236B43F001032363236B03F00103E1
:102990000193019B4FF012094FF400734FF00108AF
:1029A0000327042603A9CDE90339CDE90587079656
:1029B00001F0BAFD4FF480731148079603A9CDE9E1
:1029C0000339CDE9058701F0AFFD0295236C43F48F
:1029D00000032364236C03F400030293029B236A25
:1029E00043F400032362236A23F40003236209B043
:1029F000BDE8F083005C004000380240000802405F
:102A000000000240F0B599B004461422002107A846
:102A100020F085FC30220DEB0200002120F07FFC2D
:102A200022685E4B9A4240F0B78008230C93C02383
:102A30001093042312930CA84FF40033159302F063
:102A400061FF08B1FFF726FF554B5648002400945C
:102A50005A6C42F080625A645A6C02F080620092B2
:102A6000009A01941A6B42F020021A631A6B02F06A
:102A700020020192019A02941A6B42F001021A6339
:102A80001A6B02F001020292029A03941A6B42F04E
:102A900002021A631A6B02F002020392039A049470
:102AA0001A6B42F040021A631A6B02F04002049261
:102AB000049A05941A6B42F004021A631A6B02F02E
:102AC00004020592059A06941A6B42F008021A63F2
:102AD0001B6B03F00803069302250E26069B0B963C
:102AE0004FF4806307A9CDE90735CDE9094501F029
:102AF0001BFD41F658032C480B9607A9CDE9073575
:102B00000927CDE9094501F00FFD032327480B975D
:102B100007A9CDE90735CDE9094501F005FD4FF4D9
:102B2000706322480B9607A9CDE90735CDE9094521
:102B300001F0FAFC4FF40C631D480B9607A9CDE990
:102B40000735CDE9094501F0EFFCC02319480B9684
:102B500007A9CDE90735CDE9094501F0E5FC0823D2
:102B600015480B9607A9CDE90735CDE9094501F0D0
:102B7000DBFC4FF4A0530E480B9707A9CDE90735AE
:102B8000CDE9094501F0D0FC58202246052101F08D
:102B900081FB582001F0B0FB19B0F0BD0068014086
:102BA00000380240001402400000024000040240CD
:102BB0000018024000080240000C024010B5044614
:102BC00088B01422002103A820F0A9FB2268144B2E
:102BD0009A4223D103F56843002101915A6C1148B0
:102BE00042F480125A645A6C02F480120192019AE3
:102BF00002911A6B42F020021A631B6B03F0200350
:102C00000293029B4FF4607202230321CDE9032358
:102C10000523CDE9061303A901F086FC08B010BD19
:102C200000500140001402402DE9F04186B000231D
:102C300003932B4B1C68002C4FD14FF00108C3F8B5
:102C40000080284B00949A6B274842EA08029A6356
:102C50009B6B03EA08030093022703260C25009BC5
:102C600001A94FF63F03CDE90137CDE9046501F035
:102C70005BFC1E48059501A9CDE90187CDE9034616
:102C800001F052FC48F233131948059501A9CDE92A
:102C90000137CDE9034601F047FC4FF68373154831
:102CA000059501A9CDE90137CDE9034601F03CFCCA
:102CB0004CF203731048059501A9CDE90137CDE920
:102CC000034601F031FC60230C48059501A9CDE9CC
:102CD0000137CDE9034601F027FC06B0BDE8F081DD
:102CE000141C00200038024000140240000802407A
:102CF0000018024000100240000C02400004024094
:102D000070B588B000230293204B1A6C42F0100279
:102D10001A641B6C03F010030293054601A903A873
:102D2000029B02F0D1FD069B4BBB02F0BDFD184E8D
:102D3000184B336040F2E733F360174BB0FBF3F30B
:102D4000013B7360304600233361B360B36103F02D
:102D5000F9FB044680B9304603F0CAFA044658B974
:102D6000362001F0C9FA0F2D0DD82246294636200B
:102D700001F090FA094B1D60204608B070BD02F0CA
:102D800093FD4000D3E70124F6E700BF003802407E
:102D9000181C00200010004040420F007C00002062
:102DA0007047FEE7FEE7FEE7FEE77047014803F0E5
:102DB000DDBA00BF181C0020014802F01DBA00BF98
:102DC000D01A0020014801F0E1BA00BFCC1B00205E
:102DD0000120704708B520F045FB162303604FF033
:102DE000FF3008BD08B520F03DFB16230360FEE769
:102DF00070B50D4614460E46731B9C4201DC2046FE
:102E000070BDAFF3008006F8010BF5E770B50D4615
:102E100014460E46731B9C4201DC204670BD16F81A
:102E2000010BAFF30080F5E74FF0FF3070474FF430
:102E300000534B600020704701207047002070470E
:102E40000A4A116808B5034609B9094911601068B2
:102E5000694603448B4206D920F004FB0C2303602F
:102E60004FF0FF3008BD1360FCE700BF601C00207E
:102E7000B8370120704710B5042104461EF04FF802
:102E8000204610BD012908B506D0022908D059B93D
:102E900000F09EFD006808BD00F09AFD4068FAE76A
:102EA00000F096FD8068F6E70020F4E700487047E0
:102EB0005C4D02080620704713B5002451B1036829
:102EC00001948DF8034001AA9C680DF10303A0470B
:102ED00002B010BD0846FBE7C0897047008A704702
:102EE000C088704780887047807A00F07F00704704
:102EF000807AC00970470020704700009FED010AEA
:102F0000704700BF000000007047704700F59873DD
:102F10000868496803C3704770477047416070474D
:102F200070477047064BC0F84C310023C0F8503151
:102F300000F5A273C0F84801C0F84031704700BFE7
:102F4000E52F0008012303727047704710B4C26870
:102F500041685410034601EB6200D20748BF0A598A
:102F60009B685DF8044B48BFD35818470346406838
:102F700030B19A681AB9D86800F001007047012092
:102F8000704710B50C2104461DF0C9FF204610BD46
:102F900010B5102104461DF0C2FF204610BD10B52B
:102FA0004FF4AE7104461DF0BAFF204610BD10B5B7
:102FB0000BF034FC0368BDE81040DB6B184710B51C
:102FC0000446D0F8400158B10368DB68984738B12F
:102FD000D4F8400103689B6898470023C4F8403147
:102FE00010BD00002DE9F14FD0E9556A0746B068E1
:102FF00003681B6A9847B0F5A56F05D2444B454A54
:10300000A32145481FF084FF706803681B6A984736
:103010000F2803D8414B3F4AA421F2E7F068036828
:103020001B6A98470B2803D83D4B3A4AA521E8E78D
:103030000BF0F4FBDFF8F09004300BF014FCD9F83F
:10304000000010B10368DB689847D9F8000010B1A0
:1030500003681B689847DFF8D480D8F8000010B1E7
:1030600003685B699847D7F83C0110B103685B6857
:103070009847D8F8000010B103681B689847D7F844
:103080003C0110B103689B689847F0680368002111
:103090005B6A98474FF0000B224BC0F804B004461F
:1030A00080F808B00360B068036859465B6A9847C7
:1030B000054600F0F9FC7068036859465B6A98475A
:1030C0002946064600F0CEFC331DC7F83C61C9F81E
:1030D0000040C8F80050CAF800302B68C6F808A0B5
:1030E0002846DB68EE639847336830461B6898478C
:1030F000214628460DF064FD236820461B69984749
:1031000023685B69204601B0BDE8F04F184700BF57
:103110009C4402082A450208FC450208434602086E
:10312000E6460208484E0208C02A0120BC2A0120B7
:10313000044B1B6893F858200AB1D86C00B9986802
:10314000704700BF782A012070B504460D46164628
:103150000BF026FC104A1460104A2260104A00232B
:10316000C4E95123C4E95333C4E94F330D4B186804
:10317000036801219B68C4E955659847FFF7D8FFAC
:1031800015F0E9FDFFF7D4FF15F060FEFFF7D0FF63
:1031900015F068FE204670BDCC2A0120F44D0208CF
:1031A000DC4D0208782A0120064BC0F84C31002380
:1031B000C0F8503100F5A273C0F84801C0F84031A2
:1031C000704700BFE52F0008406A7047806A70476B
:1031D00070478A880B8810B5D20A4C88C1699BB2A7
:1031E00051F8220043EA0443184410BD10B50446C8
:1031F000BAB1107B68B1537BD27A1B0203F4E0634F
:103200001A43236A03EB82031A888A4202D193F994
:10321000020010BD05D8013880B204330028F3D174
:10322000F7E70020F5E710B52C2104461DF077FEE6
:10323000204610BD30B58BB00446BDF860500895EF
:10324000BDF85C5007959DF8505006959DF84C5080
:1032500005959DF8485004959DF8445003959DF8B8
:10326000405002959DF83C500195BDF838500095AE
:103270000DF0DEF8064B2360159BE361169B23627D
:10328000199B63621A9BA36220460BB030BD00BF3E
:103290006C4E020870477047704770477047704720
:1032A000704710B54FF4447104461DF038FE2046B7
:1032B00010BD0000074A02600022C0E90122C0E9F7
:1032C0000322C0E90522C0E907224FF480728284FC
:1032D000704700BF4055020870B5036804461B6B79
:1032E000154698472368294620465B6BBDE8704029
:1032F000184770B504461D46BDF91060FFF7ECFF96
:103300002368294620469B6B984723683146204610
:10331000DB6BBDE87040184738B5262204460D46E1
:1033200000211FF0FCFF2046FFF7C4FF064B23607F
:103330002B88E384FF23204684F82830294609F0AF
:103340000AFB204638BD00BF705402082DE9F04F3B
:1033500004468FB0A04600250DF086FAD84BE563F1
:1033600048F8403B2622294640461FF0D8FF4046F9
:10337000FFF7A0FFD34B236404F16C0BFF234FF640
:10338000FF770DA984F86630A566584604F19C09BC
:10339000ADF83470FFF7C0FFCB4BE366A4F896504E
:1033A000A4F898504846FFF785FF04F1C80AC74BB8
:1033B000C4F89C30C4F8C4500DA95046ADF8347020
:1033C00008F0F6FE04F1F4030DA918460493ADF8D5
:1033D000347008F0EDFE04F590730DA918460593BE
:1033E000ADF8347008F0E4FE04F5A67318460693B1
:1033F000FFF760FFB54BC4F84C3104F5BC7304F51E
:10340000D276C4F874510DA918460793ADF83470FC
:10341000FFF782FF0DA93046ADF8347008F0E2F9ED
:1034200004F50D7318460393FFF744FFA74BC4F848
:10343000343204F51873C4F85C520DA91846089389
:10344000ADF83470FFF768FF04F523730DA9184633
:103450000993ADF83470FFF75FFF04F52E730DA9E3
:1034600018460A93ADF83470FFF756FF04F5397328
:103470000DA918460B93ADF83470FFF74DFF4FF4CC
:10348000A0732A46009329464046F023FFF731FFF8
:10349000271D4FF07F43A3664146384605F040FAAA
:1034A00001230DA95846ADF8343009F0A9F84FF4BE
:1034B000A07300932A46F12329465846FFF719FFC7
:1034C0002A462946584609F079F85946384605F003
:1034D00027FAFA2300932A4629464846FFF709FFB0
:1034E0000DA95046ADF8345009F035FA12236FF0AB
:1034F0000602009350464FF481736FF00801FFF706
:10350000F8FE2946504608F00EFE5146484605F0A2
:1035100007FA4FF48A780498ADF834500DA909F0F1
:103520001AFA0F230A220498CDF80080E621FFF74B
:10353000E0FE0498DFF8B0B1DFF8B0A1294608F04A
:10354000F2FD0499484605F0EBF90598ADF83450C2
:103550000DA909F000FA0F2309220598CDF8008083
:103560006FF00401FFF7C5FE0598294608F0DBFD62
:103570000599484605F0D4F94946384605F0D0F992
:103580004FF4A073069800932A46F0232946FFF7CC
:10359000B0FE4FF4907207986E21FFF79DFE4FF03A
:1035A00003090798ADF834900DA909F0D4F9DDE9C5
:1035B000060105F0B5F9424630466421FFF78CFE5E
:1035C0000DA902233046ADF8343008F0ADFA404B77
:1035D000C4F8AC313F4BC4F8D0313F4BC4F8D431C0
:1035E000304608F04BF99FED3D0ADFF80481304684
:1035F00008F0ABFA3046C4F8FCB108F03FF93046A9
:10360000C4F8E8A1C4F8EC81C4F8F0B108F036F9C8
:103610003046C4F8F4A1C4F8F88108F02FF9DFEDC2
:10362000300A9FED301AB0EE600A304608F085FA95
:10363000069884F8CD51314605F072F9069938465E
:1036400005F06EF94FF4A073039800932A46F12316
:103650002946FFF74EFE1D2208986FF01C01FFF768
:103660003BFE05230898ADF834300DA909F073F935
:103670000899039805F054F9092209986FF01C0184
:10368000FFF72AFE0998ADF834900DA909F063F907
:103690000999039805F044F96FF008020A986FF051
:1036A0001C01FFF719FE04250A98ADF834500DA946
:1036B00009F051F90A99039805F032F9312219E01D
:1036C000D44E020884530208EC5302080C5002083E
:1036D00028002C000000A04000008CC2CDCC4C3E45
:1036E00000000000C3F5C84000007A440000A0417B
:1036F0000000B0410B986FF01C01FFF7EDFD0B9837
:10370000ADF834500DA909F026F90B99039805F08E
:1037100007F93846039905F003F920460FB0BDE8D4
:10372000F08F00BF7047000030B5164D2C6814F0C4
:1037300001048FB0BFF35B8F20D128461DF0F1FB51
:10374000E0B13F230993104B0893104B10491148E7
:103750000A940122CDE906430423CDE903320A236A
:103760000093CDE90B44CDE901440594FFF762FDD8
:1037700009481FF0EBFB28461DF0DFFB05480FB0A2
:1037800030BD00BF641C00202461020830610208C3
:10379000F4600208681C002025370008704700000C
:1037A00030B5164D2C6814F001048FB0BFF35B8F59
:1037B00020D128461DF0B5FBE0B13F230993104B03
:1037C0000893104B104911480A940122CDE9064391
:1037D0000423CDE9033214230093CDE90B44CDE952
:1037E00001440594FFF726FD09481FF0AFFB28466A
:1037F0001DF0A3FB05480FB030BD00BF941C002096
:10380000286102083461020804610208981C002043
:103810009D3700087047000030B5164D2C6814F035
:1038200001048FB0BFF35B8F20D128461DF079FBD8
:10383000E0B13F230993104B0893104B10491148F6
:103840000A940122CDE906430423CDE9033228235B
:103850000093CDE90B44CDE901440594FFF7EAFC60
:1038600009481FF073FB28461DF067FB05480FB0A1
:1038700030BD00BFC41C00202C6102083861020862
:1038800014610208C81C0020153800080020704789
:10389000002070470EB403B503AB002153F8042B8E
:1038A00001930CF043F802B05DF804EB03B07047ED
:1038B0000CB407B504AB53F8042B01930CF036F8A5
:1038C00003B05DF804EB02B070470000436C10B524
:1038D000044673B3038F2BB9184B194AC5211948F5
:1038E0001FF016FBC38E00EB43035B8C0BB30DF094
:1038F0005AFE238F012B03D8134B144ACB21EEE73A
:10390000E28E531C9BB2092B194688BFA3F10A0112
:1039100004EB410140F63F10498C814209D10A2B4A
:1039200004EB420228BF002304EB4303508C58846D
:1039300051842046BDE810400DF038BD894702088B
:10394000924702083D480208874802089548020845
:103950000DF0F3BC38B518BB124B13481C68134963
:10396000B4B1226822440260626822440A60A268FC
:1039700014440F4B00221A8000F02AF8054600F08C
:1039800025F80C4B1C600C4B1D600C4B188007E09D
:103990000B4B03600B4B0B600B4B1C68002CE8D1EE
:1039A00038BD00BF001D0020F81C0020F41C0020C2
:1039B000FC1C0020D02A0120D82A0120D42A012072
:1039C000406102083C61020844610208002070471F
:1039D00000487047041D002010B5FFF7E1FE044CBD
:1039E0002060FFF719FF6060FFF79EFEA06010BD2A
:1039F000041D002010B5002404600C6014601C60DD
:103A000010BD704710B54FF4AE7104461DF087FA33
:103A1000204610BD10B50446D0F8580100F013F848
:103A20002046BDE810400AF07BBF000010B50446F8
:103A3000FFF78AFB014B2360204610BD084F0208A8
:103A40000022026070477047704704387047704723
:103A500010B5102104461DF062FA204610BDA0F1F9
:103A60000400F5E700228260024A026018324260D8
:103A7000C16070475C4F02087047000010B5034BEF
:103A800003600446FFF70BFC204610BD844F02087C
:103A900010B50446FFF7F2FF20464FF4A5611DF074
:103AA0003EFA204610BD000010B50446ADF5007D7D
:103AB000FFF74CFC174B236004F54B70FEF782FBBD
:103AC00000236422C4E9C623C4E9C43384F8243340
:103AD000D4F87C31C4F8203301A8FEF773FB4FF40F
:103AE000F27202A904F54C701FF0E9FC7B9BC4F84C
:103AF00014357C9BC4F818357D9BC4F81C357E9B1F
:103B0000C4F820357F9BC4F8243520460DF5007D90
:103B100010BD00BF844F0208FFF7C2BB2DE9F0477C
:103B2000D0F81033D0ED770A90ED760A2DED048BA6
:103B30000133B42282B0B3FBF2F1C0F8103302FBC0
:103B40001133592B8ABFC3F5F77303F23B130133CB
:103B500007EE903AB8EEE78ADFED4B7A28EE278A37
:103B60008246B0EE481A00F5D27007F0E6FF9AF8E8
:103B70002433002B51D0DAF82803FCF7EDFC41EC9C
:103B8000190BB0EE490AF0EE690A1DF045FA55EC42
:103B9000104BB0EE490AF0EE690A1DF0E9F9BAF9E6
:103BA0007E0159EC108BFCF7C5FC384B06460F46DE
:103BB000002240464946FCF727FD02460B463046A8
:103BC0003946FCF769FBFCF7E1FF07EE900AFDEED2
:103BD000E77ABAF97C0117EE903A0FFA83F8FCF70E
:103BE000A9FC2A4B06460F46002220462946FCF730
:103BF0000BFD02460B4630463946FCF74FFBFCF7FF
:103C0000C5FF07EE900AFDEEE77A424617EE903ABE
:103C10000AF5BC7019B2FEF764F81D4C206802F07A
:103C200025FF40B34FF0FF33206800220DF107015C
:103C300002F0ECFE9DF80730542B10D1DAF8103367
:103C4000CAF81C33BAF92223BAF920130AF5BC705A
:103C5000FEF747F801238AF824338AEDCA8ADAF896
:103C60001C23DAF810339B1ADAF81823934224BF86
:103C700000238AF824330AF1040002B0BDEC048B5F
:103C8000BDE8F0470BF07CBFA7E78E3C0000084082
:103C9000341A0020F02070474FF4A070704729209C
:103CA000FEF79EBD2820FEF79BBD08B5FEF76CFD14
:103CB000CA20FEF795FDC320FEF776FD0820FEF72B
:103CC00073FD5020FEF770FDCF20FEF789FD002028
:103CD000FEF76AFDC120FEF767FD3020FEF764FDA8
:103CE000ED20FEF77DFD6420FEF75EFD0320FEF76C
:103CF0005BFD1220FEF758FD8120FEF755FDE82000
:103D0000FEF76EFD8520FEF74FFD0020FEF74CFD0F
:103D10007820FEF749FDCB20FEF762FD3920FEF743
:103D200043FD2C20FEF740FD0020FEF73DFD342032
:103D3000FEF73AFD0220FEF737FDF720FEF750FDB3
:103D40002020FEF731FDEA20FEF74AFD0020FEF7B5
:103D50002BFD0020FEF728FDB120FEF741FD0020DD
:103D6000FEF722FD1B20FEF71FFDB620FEF738FDF3
:103D70000A20FEF719FDA220FEF716FDC020FEF76F
:103D80002FFD1020FEF710FDC120FEF729FD1020A9
:103D9000FEF70AFDC520FEF723FD4520FEF704FDD2
:103DA0001520FEF701FDC720FEF71AFD9020FEF753
:103DB000FBFC3620FEF714FDC820FEF7F5FCF220D0
:103DC000FEF70EFD0020FEF7EFFCB020FEF708FD29
:103DD000C220FEF7E9FCB620FEF702FD0A20FEF73E
:103DE000E3FCA720FEF7E0FC2720FEF7DDFC042023
:103DF000FEF7DAFC2A20FEF7F3FC0020FEF7D4FCE5
:103E00000020FEF7D1FC0020FEF7CEFCEF20FEF7ED
:103E1000CBFC2B20FEF7E4FC0020FEF7C5FC0020C5
:103E2000FEF7C2FC0120FEF7BFFC3F20FEF7BCFC02
:103E3000F620FEF7D5FC0120FEF7B6FC0020FEF7C9
:103E4000B3FC0620FEF7B0FC2C20FEF7C9FCC8200E
:103E5000FEF714FD2620FEF7C3FC0120FEF7A4FCAC
:103E6000E020FEF7BDFC0F20FEF79EFC2920FEF7A8
:103E70009BFC2420FEF798FC0C20FEF795FC0E20FE
:103E8000FEF792FC0920FEF78FFC4E20FEF78CFC1B
:103E90007820FEF789FC3C20FEF786FC0920FEF71F
:103EA00083FC1320FEF780FC0520FEF77DFC172025
:103EB000FEF77AFC1120FEF777FC0020FEF774FC79
:103EC000E120FEF78DFC0020FEF76EFC1620FEF7C9
:103ED0006BFC1B20FEF768FC0420FEF765FC11203C
:103EE000FEF762FC0720FEF75FFC3120FEF75CFC6A
:103EF0003320FEF759FC4220FEF756FC0520FEF762
:103F000053FC0C20FEF750FC0A20FEF74DFC282045
:103F1000FEF74AFC2F20FEF747FC0F20FEF744FC7B
:103F20001120FEF75DFCC820FEF7A8FC2920FEF753
:103F300057FCBDE808402C20FEF752BC08B5FEF740
:103F400023FC0321D320FEF767FC80B208BD10B527
:103F5000C4B2022203212046FEF7CCFB0A20FEF762
:103F600011FC204600220321FEF7C4FBBDE81040EF
:103F70000220FEF707BC38B50446E4B2FEF7B8FBF2
:103F800000212046FEF7CEFB012105462046FEF724
:103F9000C9FB40EA052080B238BD10B5C4B240214B
:103FA0002046FEF7BFFB030607D54C212046FEF74F
:103FB000B9FB003818BF012010BD01224B2120465B
:103FC000FEF798FB204600224B21FEF793FB0020D2
:103FD000F2E773B50423C4B20E461546D7210DEBA4
:103FE00003022046FEF7B8FB019B1BBA1A0DC3F370
:103FF0000B23328020462B8001224B21FEF77AFBD7
:1040000000224B212046FEF775FB02B070BD000078
:1040100010B50A4A1378984204460DD05178884268
:104020000AD00BB141B90123D454FEF761FB2046FD
:10403000BDE81040FFF78BBF10BD00BF101D002072
:1040400010B5C4B209212046FEF76CFB40F0010216
:10405000D2B220460921BDE81040FEF74BBB10B597
:10406000C4B209212046FEF75DFB092100F0FE02E3
:104070002046BDE81040FEF73DBB38B5C4B20D4642
:1040800020460A21FEF74EFB40EA0502D2B2204646
:104090000A21BDE83840FEF72DBB10B50446FEF7F7
:1040A00028FB20461F21FFF7E8FF2046BDE810400F
:1040B000FFF7C6BF38B5C4B20D4620460A21FEF749
:1040C00031FB20EA0502D2B220460A21BDE8384081
:1040D000FEF710BB10B50446FFF7C1FF20461F21B5
:1040E000BDE81040FFF7E6BF10B5C0B20C460B218B
:1040F000FEF718FB204010BD1F21FFF7F5BF0A4651
:10410000C0B20B21FEF7F6BA1F21FFF7F8BF38B592
:10411000C4B20D4620461721FEF704FB20EA050233
:10412000D2B220461721BDE83840FEF7E3BA70B599
:10413000C4B2064604212046FEF7F4FA042100F03A
:10414000FB0205462046FEF7D5FA3046F021FFF780
:10415000DEFF05F0F80220460421FEF7CBFA4922E3
:1041600020212046FEF7C6FA0220FEF70BFB204670
:1041700001222121FEF7BEFA20469A224121FEF7B4
:10418000B9FA204601224A21FEF7B4FA204601225C
:104190004B21FEF7AFFA204600224B21FEF7AAFA88
:1041A000204601225621FEF7A5FA20460122582179
:1041B000FEF7A0FA204601224021FEF79BFA204696
:1041C000FF220B21FEF796FABDE870400220FEF7B1
:1041D000D9BA0000054BD3F8882042F47002C3F826
:1041E00088204FF000629A60704700BF00ED00E049
:1041F00008B50B4B1A6842F400721A601A6842F450
:1042000080621A601A6842F480721A60032000F01B
:104210002FF80020FEF774FDFEF73EFB002008BDDE
:10422000003C0240034A044B11681B780B441360A6
:10423000704700BF141D002078000020014B186853
:10424000704700BF141D002038B50446FFF7F6FF85
:10425000631C1CBF054B1B78054618BFE418FFF70D
:10426000EDFF431BA342FAD338BD00BF7800002006
:104270000749CA6822F4E0620302120403F4E0630F
:10428000120C134343F0BF6343F40033CB60704719
:1042900000ED00E0164B30B5DC68C4F30224C4F135
:1042A0000703251D042B28BF0423062D4FF0FF35DF
:1042B0008CBF033C002405FA03F321EA0303A54065
:1042C00022EA0502A340002843EA0203ACBF00F142
:1042D0006040084A4FEA0313B8BF00F00F00DBB29A
:1042E000AABF00F56140135480F8003330BD00BF11
:1042F00000ED00E014ED00E0002807DB044A41096E
:10430000012300F01F00834042F82130704700BFB6
:1043100000E100E010B5044650B1437903F0FF021C
:1043200013B90271FEF7D8FA01236371002010BDA2
:104330000120FCE710B5044620B390F8393003F0B3
:10434000FF021BB980F83820FEF7DEFA022384F85A
:104350003930236861681A6822F440320A431A60CF
:104360005A6BA16822F007020A435A631A6CE1688B
:104370006FF30D020A431A6400200123E06384F8FE
:10438000393010BD0120FCE770477047036870B5F5
:104390005E681D68F207044614D5E90512D51A684F
:1043A00022F480721A60C26B42F00102C2630122E1
:1043B0009A60042380F83930002380F8383043694C
:1043C00003B19847B20616D5AB0414D523681A6812
:1043D00022F400521A6020229A60E36B43F0020339
:1043E000E363042384F83930002384F838306369A8
:1043F0000BB120469847300716D5290514D52368F8
:104400001A6822F400621A6008229A60E36B43F093
:104410000403E363042384F83930002384F838303C
:1044200063690BB12046984772070BD56B0509D518
:1044300023681A6822F480621A6004229A60204677
:10444000FFF7A2FFB00714D5A90512D523681A6893
:1044500022F400721A6002229A60E36BE363012384
:1044600084F83930002384F8383023690BB12046B2
:104470009847F20613D5EB0411D523681A6822F485
:1044800080521A6010229A60E36BE363012384F880
:104490003930002384F838302046FFF776FF70BDAE
:1044A000F0B590F83820012A03464FF002002BD0D7
:1044B000012283F8382083F8390003EB0112D2E996
:1044C0000740556A174F44EA0040093C012C9CBF45
:1044D00005F07F4210434FEA01161A6888BF40EA90
:1044E000056091B9516A394001435162012C9969C3
:1044F000916103D8596A21F07F4191620122002025
:1045000083F8392083F83800F0BDD1693940014380
:10451000D1619919012C896911619CBF25F07F45F2
:104520001562EBE7F0FFFC002DE9F74FDFF8BC91D7
:104530006C4A00230D6801249C4004EA0506AC4344
:1045400040F0B7804D68032705F003044FEA4308A5
:1045500007FA08FC671E012F6FEA0C0C34D8876835
:1045600007EA0C0ECF6807FA08F747EA0E078760DC
:10457000476827EA060EC5F300179F4047EA0E0773
:104580004760C76807EA0C0E8F6807FA08F747EA22
:104590000E07022CC76019D14FEAD30A00EB8A0A32
:1045A00003F0070BDAF820704FEA8B0B4FF00F0E79
:1045B0000EFA0BFE27EA0E0E0F6907FA0BF747EA11
:1045C0000E07CAF8207001E0032CDAD1076804FA5C
:1045D00008F407EA0C073C4315F4403F046068D038
:1045E00000240194D9F8444044F48044C9F844407C
:1045F000D9F8444023F0030707F1804704F48044CE
:1046000007F59C37019403F0030C019CD7F808E0F0
:104610004FEA8C0C0F2404FA0CF42EEA040E324CF0
:10462000A0424DD004F58064A0424BD004F58064D4
:10463000A04249D004F58064A04247D004F58064CC
:10464000A04245D004F58064A04243D004F58064C4
:10465000A04241D004F58064A0423FD004F58064BC
:10466000A0423DD004F58064A04214BF0A2409246E
:1046700004FA0CF444EA0E04BC609468F74315F4A1
:10468000801F0CBF3C4034439460D46815F4001F75
:104690000CBF3C403443D460546815F4003F0CBF59
:1046A0003C40344354601468ED0354BF3C403443F1
:1046B00014600133102B7FF43DAF03B0BDE8F08FE1
:1046C0000024D5E70124D3E70224D1E70324CFE770
:1046D0000424CDE70524CBE70624C9E70724C7E770
:1046E0000824C5E7003C01400000024000380240B9
:1046F0000369194214BF0120002070470AB181618B
:1047000070470904FBE7436901EA030221EA030158
:1047100041EA02418161704701684B6913F480638B
:104720004FF0000210D06FF480634B6120230263CE
:1047300080F83D3080F83E20036C80F83C2043F048
:104740000403036401207047184670472DE9F846BA
:1047500006460F4691461D464FEA114A3368BAF1A4
:10476000010F0CBF5C699C6927EA0404A4B2B4FA87
:1047700084F46409A14501D0002025E06A1CEED034
:10478000FFF75CFD089BC01AA84201D8002DE5D1B7
:104790003368BAF1010F0CBF5B699B6927EA030319
:1047A0009BB2B3FA83F35B099945D7D1002320224A
:1047B000336386F83D2086F83E30326C86F83C3014
:1047C00042F0200232640120BDE8F8862DE9F04174
:1047D00004460F46164698462568686927EA000091
:1047E00080B2C0B16B695A0517D52B6843F40073CA
:1047F0002B606FF480636B6120220023236384F8B5
:104800003D2084F83E30236C43F0040323640023EE
:1048100084F83C300120BDE8F081731CDDD0FFF747
:104820000DFDA0EB0800B04201D8002ED4D12368C2
:104830005A6927EA020292B2002ACDD00023202230
:10484000236384F83D2084F83E30236C1343DDE776
:1048500070B504460D46164623685B691B0601D5F4
:1048600000201EE02046FFF757FFC8B96A1CF3D0AE
:10487000FFF7E4FC801BA84201D8002DECD123688F
:104880005B6913F08003E7D12022236384F83D2085
:1048900084F83E30226C84F83C3042F020022264DE
:1048A000012070BD2DE9F0431546026885B0DDE9B1
:1048B0000C789946136843F4807313600E463B46A8
:1048C000CDF8008000224FF001110446FFF73EFFB3
:1048D000236838B11B68DB0502D54FF400732364ED
:1048E000032620E006F0FE061E611A4943463A46BA
:1048F0002046FFF76BFFA8B9236803905A6903921B
:104900009B690393424639462046039BFFF7A0FF6D
:10491000064660B1236C042B01BF2268136843F480
:10492000007313600126304605B0BDE8F083B9F18D
:10493000010F236802D1EDB21D61F4E72A0A1A6162
:10494000394642462046FFF783FF0028E2D123681C
:10495000F1E700BF020001002DE9FF479A46036816
:1049600015461A6842F480621A601A68DDE90C780C
:1049700042F480721A600E463B46CDF80080002259
:104980004FF001110446FFF7E1FE236838B11B68C0
:10499000DB0544BF4FF400732364032021E05FFA7A
:1049A00086F906F0FE061E612B4943463A4620462C
:1049B000FFF70CFFA0B9236803905A6903929B6923
:1049C0000393424639462046039BFFF741FF58B107
:1049D000236C042B01BF2268136843F40073136037
:1049E000012004B0BDE8F087BAF1010F23681AD1A5
:1049F000EDB242461D6139462046FFF729FF0246C7
:104A00000028E5D121680B6843F480730B602046D1
:104A1000CDF800803B464FF00111FFF797FE22686A
:104A200060B11368B4E72A0A1A6139464246204643
:104A3000FFF70EFF0028CBD12368D9E749F0010327
:104A40001361054943463A462046FFF7BFFE00384A
:104A500018BF0120C5E700BF0200010070B5044681
:104A60000D46164623685B695B0701D500201EE0F2
:104A70002046FFF751FEC8B96A1CF3D0FFF7DEFBF2
:104A8000801BA84201D8002DECD123685B6913F08C
:104A90000403E7D12022236384F83D2084F83E30CC
:104AA000226C84F83C3042F020022264012070BD68
:104AB00070B504460D46164621684B6913F0400355
:104AC00001D0002011E04A69D2060FD56FF0100224
:104AD0004A612022236384F83D2084F83E30236C11
:104AE0002364002384F83C30012070BDFFF7A6FB4F
:104AF000801BA84201D8002DDED123685B6913F02A
:104B00004003D9D12022236384F83D2084F83E302D
:104B1000236C1343E4E7000070B5044608B9012094
:104B200070BD90F83D3003F0FF021BB980F83C20C7
:104B3000FDF70CFF242384F83D3023681A6822F027
:104B400001021A601A6842F400421A601A6822F4DC
:104B500000421A6000F0A8FE3F4B65689D4294BF7A
:104B60003E4B3F4B98428CBF00230123002BD6D1F4
:104B70002268394E51683B4BB0FBF3F321F03F0103
:104B80001943B542516088BF4FF49676116A88BFC9
:104B9000734321F03F0184BF4FF47A76B3FBF6F301
:104BA00001330B431362D169431E2B4821F44F415B
:104BB000854221F0FF0132D86D0040F6FC70B3FB56
:104BC000F5F30133034242D0C3F30B031943D16120
:104BD000D4E907301168034321F0C0010B4313608F
:104BE0009168D4E9030321F40341034321F0FF0159
:104BF0000B439360D4E90530D168034321F0FF01F2
:104C00000B43D360136843F001031360002020239B
:104C1000206484F83D30206384F83E0080E7A0687B
:104C200050B905EB4505B3FBF5F30133C3F30B03B3
:104C30007BB143F40043C9E719206843B3FBF0F3A9
:104C40000133C3F30B0323B143F44043BEE7042312
:104C5000BCE70123BAE700BFA08601007F841E00E5
:104C6000FF083D0040420F002DE9F74304469946F6
:104C70000C9E0F469046FFF7E1FA94F83D30202B4A
:104C8000054603D0022003B0BDE8F08300903C4904
:104C9000192301222046FFF759FD0028F2D194F88C
:104CA0003C30012BEED02068012384F83C300368AF
:104CB000D9075EBF036843F001030360036823F470
:104CC00000630360212384F83D30402384F83E30A4
:104CD000002323640A9B6362BDF82C306385638DD7
:104CE0002385284BE3624246CDE900654B463946B1
:104CF0002046FFF7D7FD00282AD00120C3E7FFF7A1
:104D0000A7FD40B1236C042B01BF2268136843F454
:104D100000731360F1E7636A27681A4612F8011BF3
:104D200039616262628D218D013A92B262857A693F
:104D3000481E80B2520720850AD548B15A783A6198
:104D400002336362638D013B02399BB22185638527
:104D5000238D2A4631462046002BD0D1FFF77EFE18
:104D60000028CFD12268136843F400731360202316
:104D700084F83D3084F83C0084F83E0083E700BFAF
:104D8000020010000000FFFF2DE9F043044687B049
:104D90009946109F0D469046FFF750FA94F83D3023
:104DA000202B064604D00225284607B0BDE8F08334
:104DB00000907A49192301222046FFF7C7FC0028FA
:104DC000F1D194F83C30012BEDD02068012384F818
:104DD0003C300368DB075EBF036843F001030360F8
:104DE000036823F400630360222384F83D304023EA
:104DF00084F83E30002323640E9B6362BDF83C3090
:104E00006385638D2385664BE3622946CDE9007691
:104E10004B4642462046FFF79FFD054608B1012557
:104E2000C2E7228D2368B2B902905A6902929A6948
:104E30000292029A1A6842F400721A60DFF86481E2
:104E4000238D002B2CD1202284F83D2084F83C3087
:104E500084F83E30A8E7012A0AD11A6822F4806259
:104E60001A6003905A6903929A690392039AE1E7E0
:104E7000022A0ED11A6822F480621A601A6842F47B
:104E800000621A6004905A6904929B690493049B1F
:104E9000D4E705905A6905929B690593059BCDE778
:104EA000032B56D8012B15D1324639462046FFF741
:104EB000FFFD0028B3D123681A69636A1A70636A18
:104EC00001336362238D013B2385638D013B9BB2DC
:104ED0006385B5E7022B00963B464FF00002414642
:104EE000204619D1FFF732FC002898D123681A68B0
:104EF00042F400721A601A69636A1A70626A531C7B
:104F00006362238D013B2385638D013B9BB26385E7
:104F100023681B695370D2E7FFF718FC024600288C
:104F20007FF47DAF2368196821F4806119601969E5
:104F3000636A1970636A01336362238D013B2385C1
:104F4000638D013B9BB26385414600963B462046FC
:104F5000C8E7324639462046FFF7AAFD00287FF40D
:104F60005EAF23681A69636A1A70628D616A013ADA
:104F700092B24B1C628522686362238D5069013BAB
:104F80009BB2400723857FF55BAF032B02BF1368FD
:104F900023F48063136013694B7090E702001000E4
:104FA0000000FFFF0400010010B590F83D30202BF9
:104FB000DCB216D1242380F83D3003681A6822F051
:104FC00001021A605A6A22F010025A625A6A1143A8
:104FD00059621A6842F001021A6080F83D400020D0
:104FE00010BD0220FCE730B590F83D30202BDCB23C
:104FF00016D10268242380F83D30136823F00103A2
:105000001360556A4FF6F0732B400B439BB253620B
:10501000136843F00103136080F83D40002030BD69
:105020000220FCE70068D1F800C0D2018432831866
:105030002DE9F043C6685D684C68D1F8189005F416
:1050400070455D60C5680CF10107C5F30B45C6F3FB
:105050000B4626443D4445EA06455D60C668CD687A
:10506000C6F30A062E449D6805F470459D60C76826
:105070008D68C7F30A0701353D4445EA06459D6042
:105080001D690E6925F007051D614FF0000E1E61B8
:1050900091F832709D6991F83180C3F818E091F869
:1050A000305045EA096545EA082545EA07459D610E
:1050B0005D6925F0FF055D614D695D61DD6925F480
:1050C000E06525F00705DD61D1E907573D43DD6166
:1050D0009D6A4D6AC3F828E0072E9D629CBF0E4D65
:1050E000AE5DDD6A05F0E025DD6288BF01268D6AD0
:1050F000C96AA4EB0C0474437543033444EA0544C1
:10510000DC621C6B6FF30A041C631963835843F061
:1051100001038350BDE8F083C84F020838B5044648
:10512000002863D090F8A13003F0FF021BB980F88B
:10513000A020FDF767FC022384F8A13023689A6958
:1051400022F070429A61D4E901200243E068996933
:105150000243206902430A439A619A6824496069BC
:105160000A409A609A6842EA0042A06902439A6043
:10517000DA68E0690A40DA60DA6842EA0042206AE6
:105180000243DA601A69606A0A401A611A6942EADF
:105190000042A06A02431A615A690A405A615A6978
:1051A000E16A42EA0142216B0A435A61DA6A94F8E1
:1051B000350094F8361002F07F42DA62DD6A94F826
:1051C00034202A4342EA002242EA0142DA625A6B60
:1051D00042F006025A639A6942F001029A61002085
:1051E0000123C4F8A40084F8A13038BD0120FCE7F5
:1051F00000F800F070477047036870B59E6B5D6BF8
:105200007207044614D5690712D55A6B22F00402BE
:105210005A630422DA63D0F8A43043F00103C0F8E3
:10522000A430002380F8A12080F8A030FFF7E2FF2F
:10523000B20716D5AB0714D523685A6B22F00202C9
:105240005A630222DA63D4F8A4301343C4F8A430BA
:10525000042384F8A130002384F8A0302046FFF70F
:10526000C9FFF00710D5E9070ED523685A6B22F065
:1052700001025A630122DA63002384F8A12084F832
:10528000A0302046FCF796FE320711D52B070FD52C
:1052900023685A6B22F008025A630822DA6301235A
:1052A00084F8A130002384F8A0302046FFF7A3FF44
:1052B00070BD2DE9F04190F8A030012B06460F4655
:1052C00094464FF002001FD04FF0010886F8A080EE
:1052D00086F8A10034240D4604FB02640FCD383457
:1052E0000FC40FCD0FC40FCD0FC42B682360304601
:1052F00062463946FFF796FE33680020C3F82480E3
:1053000086F8A18086F8A000BDE8F08190F8A02082
:10531000012A03464FF0020012D01A6883F8A10058
:10532000506B20F00100506306480164516B41F05E
:10533000010151630020012283F8A12083F8A0001D
:10534000704700BF0068014037B500230193184B38
:10535000184D1A6C42F080521A641B6C03F0805393
:105360000193019B144B01221A64FEF767FF044668
:105370006B68DA030BD5104B0E4D01225A64FEF711
:105380005DFF04466B689B030AD5002006E0FEF72C
:1053900055FF001BB0F57A7FEAD9032003B030BD7A
:1053A000FEF74CFF001BB0F57A7FEBD9F5E700BFA5
:1053B000003802400070004000000E422DE9F34129
:1053C000044640B30368DE0710D423689D075BD40E
:1053D0002368190700F19D8023685A0700F1BD80FA
:1053E000A369002B40F0248100202CE08D4B9A68AB
:1053F00002F00C02042A07D09A6802F00C02082A74
:105400000BD15B68590208D5864B1B689A03DCD523
:105410006368002BD9D1012015E06368814DB3F595
:10542000803F13D12B6843F480332B60FEF706FFD7
:105430007C4E054633689B03C7D4FEF7FFFE401B36
:105440006428F7D9032002B0BDE8F081B3F5A02F9E
:1054500004D12B6843F480232B60E3E72A6822F40D
:1054600080322A602A6822F480222A60002BDDD153
:10547000FEF7E4FE06462B689F03A6D5FEF7DEFE88
:10548000801B6428F7D9DDE7664B9A6812F00C0F91
:1054900007D09A6802F00C02082A11D15B685D02FD
:1054A0000ED4604A1368990702D5E368012BB2D184
:1054B0001368216923F0F80343EAC103136087E707
:1054C000E268594BB2B101221A60FEF7B7FE554DA2
:1054D00006462B689B0707D52B68226923F0F80343
:1054E00043EAC2032B6073E7FEF7A8FE801B022885
:1054F000EFD9A7E71A60FEF7A1FE4A4E05463368CA
:105500009F077FF565AFFEF799FE401B0228F6D98D
:1055100098E76269444B82B10122C3F8802EFEF7FE
:105520008DFE404E0546736F9B073FF555AFFEF766
:1055300085FE401B0228F6D984E7C3F8802EFEF7CB
:105540007DFE384E0546736F9F077FF545AFFEF72A
:1055500075FE401B0228F6D974E7324B1A6C12F024
:10556000805228D101921A6C42F080521A641B6C4E
:1055700003F080530193019B01272C4D2B68D80524
:105580001BD5A368274D012B27D12B6F43F00103B7
:105590002B67FEF753FE234E054641F28838336FE2
:1055A0009A0739D5002F3FF41BAF1E4A136C23F026
:1055B0008053136414E70027DFE72B6843F48073FC
:1055C0002B60FEF73BFE06462B68D905D9D4FEF7C3
:1055D00035FE801B0228F7D934E7052B04D12B6F49
:1055E00043F004032B67D0E72A6F22F001022A67F9
:1055F0002A6F22F004022A67002BCAD1FEF71EFE92
:1056000041F2883806462B6F9B07CBD5FEF716FE76
:10561000801B4045F7D915E7FEF710FE401B4045BB
:10562000BDD90FE70038024000004742007000403B
:10563000374DAA6802F00C02082A3ED0022B354BE7
:105640004FF000021A662BD1FEF7F8FD06462B68D4
:1056500099011FD4D4E907321343626A43EA8213E3
:10566000E26A43EA0263A26A5208013A43EA024349
:105670006B60284B264D01221A66FEF7DFFD0446BB
:105680002B689A013FF5B0AEFEF7D8FD001B02284B
:10569000F6D9D7E6FEF7D2FD801B0228D7D9D1E68E
:1056A000FEF7CCFD04462B689B017FF59DAEFEF70F
:1056B000C5FD001B0228F6D9C4E6012B3FF4ABAEB2
:1056C0006B68E26903F4800191427FF4A4AE216A21
:1056D00003F03F028A427FF49EAE616A47F6C072D1
:1056E0001A40B2EB811F7FF496AEA26A520803F40F
:1056F0004031013AB1EB024F7FF48DAEE26A03F024
:105700007063B3EB026F14BF012000209BE600BF63
:105710000038024000004742134908B58B6803F087
:105720000C03042B1CD0082B1CD14A684B68496819
:1057300013F4800314BF0D480D48C1F3881118BF3E
:10574000002302F03F02A1FB0001FBF7BFFA064B6A
:105750005B68C3F3014301335B00B0FBF3F008BDAA
:105760000248FCE70248FAE70038024000127A00DB
:105770000024F4002DE9F0410D46044610B9012043
:10578000BDE8F081434B1A6802F00F028A4228D329
:1057900021688F072DD4C80740D43E4B1A6802F009
:1057A0000F02AA4265D8226851076BD4130707D5A8
:1057B000394A2169936823F4604343EAC103936043
:1057C000FFF7AAFF344B354A9B68C3F30313D35C3E
:1057D000D840334B1860334B1868FDF791FA00201E
:1057E000CEE7CAB21A701B6803F00F038B42C6D112
:1057F000CEE7294B11F0040F1EBF9A6842F4E05225
:105800009A600E0742BF9A6842F460429A609A68B2
:10581000A06822F0F00202439A60BCE762681E4B67
:10582000012A1CD11B6813F4003FA8D01A4EB3689C
:1058300023F003031343B360FEF700FD41F2883801
:105840000746B368626803F00C03B3EB820FA4D081
:10585000FEF7F4FCC01B4045F3D9032090E7911EEE
:1058600001291B6802D813F0007FDEE713F0020F56
:10587000DBE7EAB21A701B6803F00F03AB427FF458
:105880007EAF90E70449E0688B6823F4E05303435C
:105890008B608BE7003C024000380240B84F0208A2
:1058A000740000207C000020044B054A9B68C3F371
:1058B0008223D35C034A1068D84070470038024006
:1058C000B04F0208740000200F2303600B4B9A684E
:1058D00002F0030242609A6802F0F00282609A6865
:1058E00002F4E052C2609B68DB0803F4E0530361FA
:1058F000034B1B6803F00F030B6070470038024036
:10590000003C0240036813F0430FF7B5044640F033
:105910008880236813F00C0F45D08C4B8C4D0022EF
:105920001A67FEF78BFC06462B68990000F1CB80C6
:1059300021684A0715D5D4E90403D5F888201B0649
:1059400002F0E04243EA80131343C5F88830D5F8EB
:105950008C30226A23F4F853013A43EA0223C5F853
:105960008C300B0714D57A4AA369D2F888102069C5
:105970001B0701F0706143EA80130B43C2F88830C3
:10598000D2F88C30616A23F440330B43C2F88C3078
:105990006E4B6F4E01221A67FEF750FC05463368C6
:1059A0009F0040F197802368980634D50023019327
:1059B000674B684D1A6C42F080521A641B6C03F0FE
:1059C00080530193019B2B6843F480732B60FEF797
:1059D00035FC06462B68D80540F183805C4DA26AF1
:1059E0002B6F13F4407340F08380A36A03F440727A
:1059F000B2F5407F564A40F09E80916823F0704097
:105A000021F4F81120F4407001439160116FC3F349
:105A10000B030B4313672368DB0600F19080002023
:105A20004FE04A4B4A4E00229A66FEF707FC0546B5
:105A300033681F013FD42168C80741BFD4E901235F
:105A40001B0743EA8213C6F884308A0715D5404AFB
:105A5000E368D2F8840065681B0600F0E04043EA82
:105A600085130343C2F88430D2F88C00E36920F038
:105A70001F00013B0343C2F88C304B060AD5E36894
:105A800062681B0643EA8213A26843EA0273304A43
:105A9000C2F884302D4B2E4E01229A66FEF7CEFBC3
:105AA000054633681F013FF534AFFEF7C7FB401BC7
:105AB0000228F6D904E0FEF7C1FB401B0228B7D943
:105AC000032003B0F0BDFEF7B9FB801B02287FF670
:105AD0002BAFF5E7FEF7B2FB401B02287FF65FAF66
